:020000040800F2
:108000003856002021E90408618F0408638F0408B2
:10801000658F0408678F0408698F0408000000005A
:108020000000000000000000000000006B8F04084A
:108030006D8F0408000000006F8F0408718F040822
:1080400085000508890005088D00050891000508D0
:1080500095000508990005089D000508A100050880
:10806000A5000508A9000508AD000508B100050830
:10807000B5000508B9000508BD000508C1000508E0
:10808000C5000508C9000508CD000508D100050890
:10809000D5000508D9000508DD000508E100050840
:1080A000E5000508E9000508ED000508F1000508F0
:1080B000F5000508F9000508FD000508010105089F
:1080C00005010508090105080D010508110105084C
:1080D00015010508151C040835C902081901050811
:1080E0001D010508210105082501050829010508CC
:1080F0002D0105083101050835010508390105087C
:108100003D0105084101050845010508490105082B
:108110004D01050851010508458F0408F7C80208FC
:1081200055010508590105085D01050861010508AB
:1081300065010508690105086D010508710105085B
:1081400075010508790105087D010508810105080B
:1081500085010508890105088D01050891010508BB
:1081600095010508990105089D010508A10105086B
:10817000A5010508A9010508AD010508B10105081B
:10818000B5010508B9010508012003F095BB30B41D
:10819000002513E050F8042BD30744BFA9F10103D5
:1081A0009A18091F042942F8045BFAD213468C0777
:1081B00044BF15809B1CC90748BF1D7050F8041BA5
:1081C0000029E7D130BC704770B504000D001600DF
:1081D000256031002000C046C046200070BD70B54B
:1081E00004000D00160029002000C046C046030010
:1081F000320029002000C046C04670BD00000000CB
:10820000AAAAAAAABBBBCCCC896E0000B0A80180E8
:10821000936E00006C550400A96F0000600F04000D
:10822000DD7100009835040033720000B0AF0280A9
:1082300085730000B0AE05802D7500008CFB030037
:1082400049780000B0AA01807D780000010000009C
:108250007F780000B8360400B5780000B0B0A88080
:10826000BD780000B0AE03802F790000B0AB008075
:108270006D790000B0AA018093790000B0A9008058
:10828000E57900004C590400E17A00000084008088
:10829000597B0000CC500400C57B0000B0AE0180CB
:1082A000777C0000B0B0AA80BB7C0000B0A9008041
:1082B000837D0000B0AA01800F7E0000B0A900807D
:1082C000737F0000B0AD0080F57F0000B0A8018092
:1082D00001800000B0AA058035820000B0A90080AE
:1082E00009830000883604002983000098360400C2
:1082F00049830000A836040069830000B8360400F2
:1083000089830000C8360400A9830000B459040022
:10831000C3830000BC590400DD830000C45904007D
:1083200055850000B0B0AA80BF850000B0A90080CC
:10833000E1860000B0B0AC8043870000B0B0AA80F6
:10834000C7870000B0B0A8806B880000B0B0AE80D6
:10835000BF89000001000000458A0000B0B0A8807D
:10836000C58A0000C8430400F18A0000B0B0AA80AA
:10837000A58C0000B0B0A8806F8E0000B0AA01806C
:10838000358F0000583E04001F900000B0B0AA8056
:108390001B910000B0AF02807D9100002C430400CF
:1083A000AF94000010430400D1960000B0B0AC8040
:1083B000A1970000EC58040095980000F4580400C0
:1083C000359A0000B0B0A880419A0000B0AF0C8090
:1083D000719C0000B0AC0980B39D0000B0A9008082
:1083E000D59D0000B0B0A880519E0000B0AB0080C9
:1083F0004F9F0000B0AF0080A9A20000E04204003F
:108400007DA40000B0AE018093A500000100000033
:10841000BFAA0000B0A90080E5AA0000B0AA0180B0
:1084200011AB0000B0A9008019AF0000B0AE018010
:10843000DBAF0000B0AB008043B00000B0A900800B
:1084400079B100004C570400E1B10000B0B0A88041
:108450001BB20000B0A900808DB20000B0AB00805C
:1084600041B30000B0AA0180C9B30000B0B0AA8037
:1084700025B50000B0A8038043B50000B0B0A880C7
:108480004BB500004C5304007BB50000545304006E
:10849000A5B5000030150400D1B60000B0AA0180D7
:1084A00033B70000D8620300F1BC000064E40300AD
:1084B00009BE00003C5304007DBE0000C82E04002D
:1084C00081BF00000100000083BF0000880C040091
:1084D000FBBF000050140400FFC00000B0AC0580DA
:1084E000CDC1000048AF030071C200001895030021
:1084F000F7C50000B0A9008015C600000084008008
:1085000023C60000B0AB008085C60000C454040040
:108510009FC60000B0AB0080CFC60000B0AA0580A7
:1085200009C70000BC54040033C70000B0A906808E
:10853000E9C70000E0A50300A5C800000084008092
:10854000A5C80000E8E6030069C90000E8F00300E0
:108550000DCA0000FC4E040027CA0000E813040006
:10856000F9CA000004F80300C3CB00002CF8030094
:1085700099CD0000B0B0A880BDCD0000B0A80180AA
:10858000E9CD0000F03104003FCE0000B0A801802A
:1085900049CE0000B0A9048089CE0000F03104006B
:1085A000CFCE0000B0B0A880D5CE0000F8310400D6
:1085B00019CF000094E70300F5CF00000100000090
:1085C000E1D00000CC5104002DD10000644D040026
:1085D0007FD100006CAF030085D20000B0A80180FD
:1085E0008FD200007C55040015D30000B0AA018092
:1085F00039D30000B0B0A8805DD30000B0A80180DE
:1086000065D30000B0B0AA80D9D30000E8320400DE
:1086100055D40000B0B0A88081D40000B0A900807B
:1086200095D4000028320400F9D40000B0B0A8802E
:108630003DD50000B0AB0280E3D50000B0B0AA8009
:1086400093D60000B0AE018049D70000B0B0A8803A
:1086500063D70000B0AC038003D90000B0AB00804A
:108660009DD90000B0B0A880A9D90000B45504007D
:1086700017DA0000B0A9008035DA0000B03004003D
:10868000F5DA00009C4C0400F1DB0000B0A801808A
:108690007FDE0000B0AD0680C7DE0000B0AC078012
:1086A0003BDF0000C03104008FDF0000B0AE0B8064
:1086B00009E00000C831040089E00000044D040016
:1086C00099E00000B0AA0580A1E10000B0A90080F7
:1086D000F5E10000B0AA0180A5E30000B0A9028086
:1086E000EFE30000B0A80180FBE3000004530400A6
:1086F0001DE400000C5304003FE400001453040088
:108700006FE400004C4E040093E400000C400400B1
:10871000B1E40000B0AA058035E50000B0A80380F0
:1087200053E50000B0B0A8805BE5000054510400A0
:108730008BE500005C510400B5E50000081304005F
:10874000E1E60000B0AA018041E7000054A1030067
:1087500025E9000010130400A3E9000044510400BF
:1087600017EA0000742C0400A5EA0000B0B0A8804D
:10877000ADEA0000A8B1030095EB0000B0B0A880FE
:10878000A3EB0000EC5004001BEC00009812040066
:10879000BDEC0000B0B0A880C5EC0000145104008E
:1087A0003DED00007483030069F10000B0B0A880C3
:1087B00099F10000203004008DF20000E8EE030083
:1087C0006DF30000ACE00300C9F40000B0B0A88075
:1087D000F3F40000EC51040069F5000038EF0300E9
:1087E00049F600000CE30300B1F70000B0B0A88028
:1087F000B9F70000C0B00300ABF80000B0B0A8802B
:10880000B9F80000E82F04007DF90000545004007E
:10881000C1F90000E4F5030069FA0000B0A8038084
:108820009BFA00002CB2030029FB0000B0B0A88026
:1088300031FB0000BC5004005BFB0000C45004008E
:108840007BFB0000C02F040069FC0000C450040042
:10885000A9FC0000CC5004001FFD0000B0AA01805C
:108860007FFD0000989C0300C9FF0000C450040075
:10887000C9000100B0A80380E7000100B0B0A880E3
:10888000EF0001001C4F04001F010100244F0400F1
:10889000490101001011040075020100B0AA018015
:1088A000D7020100506B03003F07010014E00300F2
:1088B000570801000C4F0400CB080100AC2A04004B
:1088C00099090100B0A80380B7090100B0B0A880E1
:1088D000BF0901005C4F0400EF090100644F040070
:1088E000190A010020110400450B0100B0AA018003
:1088F000A70B0100D49E03008D0D0100B4E003001E
:10890000A50E01004C4F0400190F0100B02A04000D
:10891000A90F0100B0A80380C70F0100B0B0A88064
:10892000CF0F01006C500400FF0F010074500400D1
:10893000291001005011040055110100B0AA018056
:10894000B7110100A4730300C915010054E103002D
:10895000E11601005C5004005D170100EC2A0400E0
:1089600015180100B0A8038033180100B0B0A8802A
:108970003B1801004C4F04006B180100544F0400D9
:108980009518010020080400CF190100B0AA018049
:10899000311A01004C980300B51C010064E003008B
:1089A000CD1D01003C4F0400411E0100482A040077
:1089B000051F0100B0B0A8800D1F0100B0A9008004
:1089C000351F0100B0B0A880431F0100502E0400E5
:1089D00007200100AC4F04004B200100582E04007A
:1089E0008F200100F8EC0300A721010098AF0300DD
:1089F000D9220100382A040049230100B0B0A88020
:108A000073230100C8070400E9240100B0AA018013
:108A10004B250100687F03000F29010034E00300AB
:108A2000272A01004C4F04009B2A0100E42904007E
:108A3000592B0100B0A80380772B0100B0B0A880AB
:108A40007F2B0100BC4D0400AF2B0100C44D04007E
:108A5000D92B0100900F0400032D0100B0AA018062
:108A6000652D0100B8B803003D2E0100F4DE0300BF
:108A7000552F0100AC4D0400C92F0100242904002A
:108A800039300100B0A9008071300100B0AA058022
:108A900017310100B0AA0180AF310100044A04007F
:108AA000D13101000C4A0400F3310100144A0400E2
:108AB000153201001C4A040037320100B0A80180C1
:108AC000653201000100000067320100008400806F
:108AD00067320100B0AA0580AD320100B0A9008064
:108AE000D5320100782C04006B33010080EB0300C9
:108AF0002B350100B0AA01804D37010001000000B4
:108B000063370100B0B0A88077370100B0B0AA8009
:108B10007F370100B0B0A880AB370100B0A900805A
:108B20001D380100B0B0A880B9390100B0AB0A808F
:108B3000E3390100B0AB0680053A0100B0AA058018
:108B4000BF3B0100B0AB00806B3C0100B0AA0180CC
:108B50007D3C0100B0B0AC80833D0100B0AA018033
:108B6000D13D0100B0AB0080E33E0100B0A9008020
:108B70005F3F0100B0B0A8809F3F0100B0B0AC8063
:108B8000B7400100B0B0AA807B410100B0B0AE8018
:108B9000BF420100B0AB008045450100B0B0A880E5
:108BA00055450100B0B0AA80E7450100B0B0AE80E5
:108BB00069460100902B0400E94601008448040046
:108BC00073470100200F04005F480100B0A8018036
:108BD00069480100B4E103008949010084500400A0
:108BE000AB4901008C500400114A0100682D0400BB
:108BF000B14A010002A80280054B0100B0B0A88074
:108C0000254B0100B0A900802B4B0100B0B0A8801B
:108C1000814B0100B0AB0280274C0100B0AB00805B
:108C2000D94C0100B0AE01808F4D0100B0B0A880DA
:108C3000A94D0100B0AB0280694E0100B0AB0080CD
:108C4000034F0100B0B0A880134F0100902C040026
:108C50009D4F010001000000A14F0100144B0400D2
:108C6000E94F0100000D040017510100180D040028
:108C7000F5510100EC5203009B54010054440400E0
:108C800007550100B0AF08800157010054440400AB
:108C9000D1570100D46C030051590100A44F0400C6
:108CA000BD590100B0AF0880395B0100A44F04003A
:108CB000E15B0100E02B0400435C0100F02B0400A9
:108CC000BF5C01007C4C0400E15C0100844C0400AA
:108CD000035D01008C4C04005D5D0100B0B0AA8012
:108CE0007D5D010024E10300B75D0100B0B0A88004
:108CF000CF5D010008E90300B55E0100B002A98064
:108D0000DD5E0100B0AD0080795F0100082A04003B
:108D1000A5600100B0A900806161010001000000B0
:108D200069610100BC4E0400B5610100B0B0A880CB
:108D3000C9610100BC4E040005620100E82B04007B
:108D4000A9620100B0AC018007630100580D040066
:108D50000F640100700D0400E9640100B0AB0080F5
:108D60000D650100B0A9008051650100B0B0AA8076
:108D7000AD650100B0B0A88001660100B0B0AC8064
:108D80005B670100B0B0AE805B680100B0AA0180F3
:108D90006D680100B0B0A8808B680100B0A80180A8
:108DA000BD680100B0AA01801D690100B0AA05805C
:108DB0009D690100B0A90080E1690100B0A80180AF
:108DC000ED690100B0AA0180D16A0100B0AA058056
:108DD0002B6C0100B0B0A880856E0100B0B0AC80F3
:108DE000D97001008C4C0400F9700100944C04000F
:108DF000197101009C4C040039710100A44C04005D
:108E000059710100AC4C040079710100B44C0400AC
:108E10009971010028A0030001720100B0AB068027
:108E2000A1720100AC4C040011730100B0AA0580CE
:108E300059730100AC4C040069730100B0B0AE80FE
:108E400051740100B0AB0480F5740100B0AB008038
:108E50008B750100B0B0AA8005760100B0B0AC807F
:108E6000A3760100B0B0AA80AB79010014350400EC
:108E70000D7A010034350400E77D01001835040047
:108E8000497E0100383504008B810100E034040084
:108E9000C7810100B0B0AA8079860100B0AB008024
:108EA00057870100B0AF0280B9870100A4370400E2
:108EB000F18A0100B0B0AC800B8C0100C44D0400FD
:108EC000358C0100B0A90080778C0100383804008F
:108ED000218E0100B0AB02809F8E0100B0B0AA804D
:108EE000C38E01001C420400CD8F0100B442040077
:108EF000DD8F0100B0AD028095900100B0B0AA8076
:108F0000EF9001007C4304001F910100B0B0A880E5
:108F100025910100DC43040097910100008400804A
:108F2000A9920100B0A90A80EF920100B0AA0180C5
:108F30004F930100B0AB008039940100EC3604007F
:108F40006B94010020250400CF9401003425040017
:108F500055950100482504009F950100044B04002D
:108F600019960100B0AB008013980100D0360400C0
:108F7000019B010098340400419B0100B0B0AA801D
:108F80004F9B0100B0B0A880059C0100B0B0AE803E
:108F9000479C0100B0A900805F9C0100B0B0A88090
:108FA000639E0100B0AA0180ED9E0100B0B0AE80CA
:108FB000AFA10100F83404003BA40100DC3404003C
:108FC0006BA70100B0B0AA8085A8010001000000D5
:108FD00089A801002C4C0400D3A80100B0B0A880DF
:108FE000E7A801002C4C040023A90100B0AC0180CB
:108FF0005DA90100B0AB02807DA90100B0A900808D
:10900000E7A90100B0B0AA8043AA0100B0B0A880CF
:109010009DAA010002A80280BBAA0100B0AB028099
:1090200057AB0100B0AC0180B9AB010002A80280CF
:1090300039AC0100010000003DAC0100344B0400DC
:109040006FAC01003C4B0400A9AC0100B0AB008048
:10905000C9AC0100B0AAD080F5AC0100B0A9008075
:1090600039AD0100B0B0AA8095AD0100B0B0A880C4
:1090700071AE010002A80280C7AE0100B0AB028051
:10908000E7AE0100B0A9008035AF0100B0B0AA8002
:1090900037B001007C4A040081B00100B0AA018011
:1090A000E1B00100B002A9800DB10100B0A80980B3
:1090B0003DB10100B0A9068069B10100802804001B
:1090C000EFB10100B0A9008001B2010054330400E7
:1090D00063B20100EC3304006BB50100A833040057
:1090E000CDB5010018340400D5B801007033040078
:1090F00037B90100F43304007BBC0100B0AF02803B
:1091000061BE0100B0B0AE80A3BF0100B0A9008075
:109110002DC00100B0B0A88091C00100B0B0AE80F9
:1091200051C10100B0B0AA80E3C10100B0AB008022
:109130008BC20100B0AE0180D9C20100B0AF008087
:1091400033C601008C3204005BC80100B0AB008064
:1091500003C90100B0AE018051C90100B0AF008069
:10916000ABCC01008032040079CE0100B0AA0180AE
:10917000C5CE0100B0B0AA8039D00100B0B0A8803F
:109180007BD00100B0320400C3D00100483304009A
:1091900031D40100B0AB00802FD50100B0AF00800A
:1091A00089D80100C0340400A5DA0100B0B0AA805B
:1091B000E9DA0100B0A90080F1DA0100B0AB00806B
:1091C0009FDB0100B0A80180D1DB0100B0AB0080C3
:1091D000E7DB0100B0B0AA8077DC0100B0B0AC8062
:1091E000C7DC010001000000DDDC0100B0B0A88098
:1091F000E1DC0100B0B0AA8009DF0100B0B0A880B6
:109200000DDF0100B0B0AA8037DF01004C3104004F
:1092100011E10100B0B0A88053E10100B0B0AA8014
:10922000B9E10100A026040021E20100B0B0AC8049
:1092300059E20100B0B0AA8033E60100B0AC018071
:109240000FE90100B0AE01802FEA0100B0AB008051
:1092500045EA0100B0B0A88049EA0100B0B0AA8098
:10926000C7EC01006033040029ED010080330400E5
:1092700031F00100B0AB008073F00100B0B0AA8003
:109280000BF401001833040005F501002433040039
:1092900067F501004433040093F90100B0B0A880E1
:1092A00097F90100B0B0AC804FFB0100B0B0A880CE
:1092B00053FB0100B0B0AC80FFFD0100B0B0AE8048
:1092C00011FF010002A8028029FF01007440040080
:1092D00073FF0100B0B0A88087FF01007440040054
:1092E000DFFF0100B0B0A880E9FF0100B0AB04804F
:1092F00037000200B0B0AA8093000200B0B0A8808E
:10930000B9000200B0A90080C1010200B0B0A8807D
:10931000C5010200B0B0AA80A9020200D433040043
:109320000F030200B0AB0080AB030200B0AE0180BF
:10933000F9030200B0AF008045070200D4310400F9
:10934000FB080200B0AB008097090200B0AE0180BC
:10935000E5090200B0AF0080310D0200F0310400D9
:10936000E70E0200B0AB0080830F0200B0AE0180B8
:10937000D10F0200B0AF00801D130200BC31040009
:10938000E5140200B0AF02803B180200B0A90080D3
:10939000B9180200B0AA0180F3180200B0A9008039
:1093A000191902002C430400411902004441040031
:1093B00075190200B0A90080A3190200B0AE0180A7
:1093C000811D0200B0A90080AF1D0200B0AE018077
:1093D00097210200B0A90080B9210200B0B0AA8094
:1093E00045220200B0AA018099220200B0AB0080A1
:1093F00041230200B0B0AA806F230200B0AF00800A
:10940000C72602002031040089280200B0A900808C
:109410003F2D0200B0B0AA80552D0200B0AC0180F3
:10942000AD2D0200B0B0AA80BB2D0200B0AB008011
:10943000BB2F0200B0B0AA80E92F0200B0AB0080C1
:10944000DD300200B0A8018039310200B0AB0080ED
:1094500071310200B0B0AA8029330200B0AA0180A5
:1094600057330200B0A90A80AB350200B0AA0180D0
:1094700043360200BC1E0400113B0200B0AA01806A
:10948000D33B0200B0AE0180E13C0200B0AC0180F1
:10949000153D0200B0AA0180353D0200B0B0A880A1
:1094A000333E0200B0AB0080CF3E0200B0AE018080
:1094B0001D3F0200B0AF0080694202005831040035
:1094C0001F44020001000000B3440200B0B0AC80B1
:1094D00073450200B0B0A880594B0200B0AB0080C9
:1094E000754C0200B0AE0180C34C0200B0AF0080EA
:1094F0001D5002000C31040085520200B0AA018008
:10950000A55202007030040035540200B0AA018058
:10951000555402004C3004009F570200B0A900804F
:10952000FD580200B0B0AA802B590200B0AB0080F9
:10953000F55B0200B0A90080235C0200B0AE0180A0
:10954000695F0200B0A90080975F0200B0AE0180A1
:10955000BD620200B0A90080EB620200B0AE0180E3
:1095600093660200B0AB008045670200B0A900809E
:10957000D76702001C3E0400CD680200B0A900803D
:10958000F16802002C3E0400E7690200B0A90080E7
:109590000B6A02000C3E0400AB6A0200B0A9008016
:1095A000356B0200B0B0AA805B6E0200B0A90080EB
:1095B000CF6F0200B0B0AE808B700200B0A9028005
:1095C000AF700200B0B0A880B3700200242C040079
:1095D00007710200302C04005D750200B0B0A88055
:1095E00093750200102D0400DB7502001C2D040091
:1095F0001D790200B0B0AA805F790200B0AC018092
:10960000B5790200B0A90080257A0200D43C04009C
:1096100047800200B0B0AA80BF8202000444040068
:1096200043830200B0A902808B830200B0A90080AE
:1096300099830200B0AA01805D840200B0A9008075
:109640008B840200B0AE0180D1870200B0AB0080F5
:109650005D880200782C040055890200B0AA0180C0
:1096600075890200B0AC0180D9890200B0A90080E0
:10967000078A0200B0AE0180318E0200B0A90080DE
:10968000998F020001000000939C0200B0A90080A5
:10969000799E0200B0B0A880AF9E0200DC2F0400CB
:1096A000F79E0200E82F0400AFA20200B0AC0180D8
:1096B000E1A20200B0A9008005A30200243E04003C
:1096C000C9A30200B0A90080EDA30200743E04000B
:1096D0006FA40200B0A9008093A40200443E0400DD
:1096E000DDA50200B0A9008059A60200B0AB008041
:1096F000FDA60200B0AA018051A70200B0AB008015
:109700009DA70200B0AA0180F1A70200B0AB0080C3
:109710003BA80200B0B0A88083A80200B0A90080D6
:10972000B5A90200DC3D040051AA0200B0AB0080E4
:1097300031AB0200542E04006DAB0200B0AA0180D0
:109740008DAB0200B0AB008041AC0200B0B0AA808B
:109750006FAC0200B0AF0080D7AF0200BC2A04009B
:10976000F5B20200B0AA018021B30200B0AB0080C4
:10977000C9B30200B0B0AA80F7B30200B0AF008056
:109780004FB70200982B040023B90200B0A9008053
:10979000C7B90200B0A90280F9B90200B0A90080DF
:1097A00043BA0200B0B0AA808FBA0200A01B040026
:1097B00011C10200B0AA018035C102003C2C040096
:1097C00079C10200B0A90080A3C20200F43E0400E7
:1097D0008BC30200B0A900801BC50200D43E040068
:1097E00097C50200B0A9008007C60200842C0400BF
:1097F0006DC60200B0A90080DDC602004C2C04003A
:1098000025C70200B0AB008019CA0200B0AA0180CF
:1098100045CA0200B0AB0080EDCA0200B0B0AA8019
:109820001BCB0200B0AF008073CE0200742E040088
:10983000E1D00200B0AB00802DD10200B0AA0180BF
:1098400081D10200B0AB0080CDD10200B0AA01806E
:1098500021D20200B0AB00806DD20200B0AA01801C
:1098600037D302001C3B04007DD30200043B0400FC
:10987000FFD30200B0AB008045D40200E43B0400FB
:1098800041D50200B0A9008091D50200B0B0AA80F5
:1098900029DA0200B0A900806DDA0200B0B0AA8017
:1098A000ADDD0200B0A90A80E3DD0200982A0400C1
:1098B00019DE0200B0AB00809BDE0200B0B0AA80CF
:1098C00017E10200B0A9008089E10200B0AB00807E
:1098D000D5E10200B0AA018049E20200A0290400FB
:1098E000E5E80200B0A900806DE90200B0AB00809D
:1098F000B9E90200B0AA0180FFE90200B0B0AA8075
:10990000B5EB0200B0A90080F9EB0200B0B0AA806C
:1099100051EF02007C3B040099EF0200643B04001D
:10992000E1EF0200B0B0AA8025F00200B0A80180EB
:10993000E1F00200B0A900807DF10200B43704001C
:109940005FF30200B0A90080FBF302002439040099
:10995000A5F40200B0B0AA80EDF50200443D040079
:109960005DF60200B0B0AA8073F80200B0A90080D2
:109970000FF902008C410400A9F90200B0A801808F
:1099800003FA0200B0B0A88061FA0200B0AB008018
:10999000ABFA0200B0A90080A5FB0200B0AB0080CA
:1099A000EFFB0200BC38040041FC0200B0B0AA800A
:1099B00091FC02002C3D0400CBFC0200B0B0AA8058
:1099C000EDFC02006C3B040015FD0200443B04006A
:1099D000BDFE0200B0AB008007FF0200144104008E
:1099E0004BFF0200B0B0A8805BFF0200B0B0AA80BD
:1099F00075FF0200B0A900800D0003009438040038
:109A0000450003005C3704009F0003007437040026
:109A1000C70003005C3A0400DD000300B0A9008029
:109A2000B7010300FC400400F1010300B0B0AA80BC
:109A300015020300B0B0A880CD020300B0B0AA8028
:109A400031030300A01C0400BD030300B0A9008083
:109A5000CB030300B0B0AA802D040300B0AA01809C
:109A600079040300B0B0AA8035050300B0A90080D6
:109A700007060300B0B0A8805B060300B0A9008011
:109A8000CB06030001000000BF0D0300B0AB008057
:109A9000B1440300B0A80180895103000100000017
:109AA000BD510300B0B0A880D3510300B0B0AA806C
:109AB000CF5203001C3804002D550300B0A90080CC
:109AC0006355030000840080295703000100000053
:109AD000735C0300B0A90080CD630300B0AC0580C7
:109AE0002B640300F0A8030073650300B0AA018093
:109AF00095650300081C0400F1650300B0B0AC805C
:109B00002D670300B0AA018021680300B0B0AA80CD
:109B100091680300B0AB0080E9680300B0B0A88092
:109B2000AF69030044270400716A0300B0B0AA8043
:109B30005B6B030070270400B36B0300B0AB0080C5
:109B4000C96B03002C3604002D6C0300B0A9008003
:109B50008F6C0300B0AC0180D96C0300B0A9008009
:109B6000056D0300B0AA0380356D0300B0AB008023
:109B70006B6D0300CC2604009D6D0300B0B0AA807D
:109B8000C96D0300CC3504002571030001000000FD
:109B9000997203008CCC03004F7303001436040049
:109BA000FD73030000840080FD730300B0AA0180F0
:109BB0003174030050FD03007F74030098260400F5
:109BC0007D750300B0A9008069760300B0B0A8805D
:109BD000D1760300B0AB008067770300DC26040079
:109BE00097770300B0AC0180DB770300B0B0AC80A6
:109BF000BB780300B0A90280D5780300E4260400F6
:109C00002F7A030028260400597A0300B0A90080A7
:109C1000617A0300010000001B7B0300742604002E
:109C2000637B0300B0AB0080CF7B0300B0B0AA80A1
:109C30000B7C03005C350400337C03000435040016
:109C4000ED81030001000000018E0300A09D0300D0
:109C5000C18F030001000000AF900300D426040070
:109C600039910300B0B0A880F59203000100000014
:109C700051930300B0AB00803D940300010000004D
:109C800099940300B0AB00808595030001000000AB
:109C9000E1950300B0AB0080CD9603000100000009
:109CA00029970300B0AB0080E79B03000100000090
:109CB000CD9E0300F8F60300C9A70300B0AC0180F5
:109CC00021A80300B0A900809BA80300B0AB0080CE
:109CD00051A90300B0AC0180A9A90300B0A900807C
:109CE00023AA0300B0AB0080D5AA0300B0AC01806A
:109CF0002DAB0300B0A90080A7AB0300B0AB008080
:109D000059AC0300B0AC0180B1AC0300B0A9008035
:109D10002BAD0300B0AB0080E1AD0300B0AC01801F
:109D200039AE0300B0A90080B3AE0300B0AB008031
:109D300069AF0300B0AC0180C1AF0300B0A90080DF
:109D40003BB00300B0AB0080F1B00300B0AC0180C9
:109D500049B10300B0A90080C3B10300B0AB0080DB
:109D600079B20300B0AC0180D1B20300B0A9008089
:109D70004BB30300B0AB008001B40300B0AC018072
:109D800059B40300B0A90080D3B40300B0AB008085
:109D900089B50300B0AC0180E1B50300B0A9008033
:109DA0005BB60300B0AB008011B70300B0AC01801C
:109DB00069B70300B0A90080E3B70300B0AB00802F
:109DC00099B80300B0AC0180F1B80300B0A90080DD
:109DD0006BB90300B0AB008021BA0300B0AC0180C6
:109DE00079BA0300B0A90080F3BA0300B0AB0080D9
:109DF000A9BB0300B0AC018001BC0300B0A9008086
:109E00007BBC0300B0AB008031BD0300B0AC01806F
:109E100089BD0300B0A9008003BE0300B0AB008081
:109E2000B9BE0300B0AC018011BF0300B0A900802F
:109E30008BBF0300B0AB008041C00300B0AC018019
:109E400099C00300B0A9008013C10300B0AB00802B
:109E5000C5C10300B0AC01801DC20300B0A90080E1
:109E600097C20300B0AB008049C30300B0AC0180CF
:109E7000A1C30300B0A900801BC40300B0AB0080E5
:109E8000CDC40300B0AC018025C50300B0A900809B
:109E90009FC50300B0AB008051C60300B0AC018089
:109EA000A9C60300B0A9008023C70300B0AB00809F
:109EB000D5C70300B0AC01802DC80300B0A9008055
:109EC000A7C80300B0AB008001CF0300B0B0AA80E8
:109ED000F3D6030040140400FDDC0300B0AD0080A5
:109EE00033DD0300B0B0AC80B7DD0300B0AD00805F
:109EF000EDDD0300B0B0AC8091DF0300B0AD0080B9
:109F0000B9DF0300B0B0AC8039E00300B0AD008031
:109F100061E00300B0B0AC8075F00300B0B0A88081
:109F200001F10300B0AB028001F203008C150400C4
:109F3000C5F203008C320400E5F203009432040001
:109F400005F30300BC33040025F3030014360400BA
:109F500045F303009C3704008D0B0400B0B0AA80C9
:109F6000A50B0400B0AB0080C90B0400B0B0AA8000
:109F7000F90B0400B0AB00801D0C0400B0B0AA8047
:109F80006B0C0400B0AB00808F0C0400B0B0AA8052
:109F9000DD0C0400B0AB0080010D0400B0B0AA805D
:109FA0004F0D0400B0AB0080730D0400B0B0AA8068
:109FB000C10D0400B0AB0080E50D0400B0B0AA8074
:109FC000330E0400B0AB0080570E0400B0B0AA807E
:109FD000A50E0400B0AB0080C90E0400B0B0AA808A
:109FE000170F0400B0AB00803B0F0400B0B0AA8094
:109FF000890F0400B0AB0080AD0F0400B0B0AA80A0
:10A00000DD0F0400B0AB008001100400B0B0AA80E6
:10A0100031100400B0AB008055100400B0B0AA802D
:10A0200085100400B0AB0080A9100400B0B0AA8075
:10A03000D9100400B0AB0080FD100400B0B0AA80BD
:10A040002D110400B0AB008051110400B0B0AA8003
:10A05000A11104009C310400F311040074330400C6
:10A0600075140400BC31040089140400C4310400D8
:10A07000D51404006C350400E914040074350400A0
:10A08000651904008C300400751904009430040034
:10A09000851904009C300400951904006431040003
:10A0A000A51904006C310400B519040094310400B2
:10A0B000C51904009C310400D5190400E4310400E2
:10A0C000E5190400EC310400F5190400F431040032
:10A0D000051A04000C330400151A0400143304009C
:10A0E000251A04001C330400351A0400243304002C
:10A0F000451A04002C330400551A040034330400BC
:10A10000651A04007C340400751A040084340400C9
:10A11000851A04008C340400951A04009434040059
:10A12000A51A04009C340400B51A0400A4340400E9
:10A13000C51A0400CC340400D51A0400D434040039
:10A14000E51A0400DC340400F51A0400E4340400C9
:10A15000051B0400EC340400151B0400F434040057
:10A16000251B0400FC340400351B040004350400E6
:10A17000451B04000C350400551B04001435040075
:10A18000651B04008C350400751B04009435040025
:10A19000851B04009C350400951B0400A4350400B5
:10A1A000A51B0400AC350400B51B0400B435040045
:10A1B000C51B04007C380400D51B0400843804004F
:10A1C000E51B04008C380400F51B0400643904000E
:10A1D000051C04006C390400151C040074390400CB
:10A1E000251C0400BC390400351C0400C4390400DB
:10A1F000451C0400CC390400551C0400F43A04004A
:10A20000BD1E0400DC2F0400E11E04000431040024
:10A21000EF1E04005C330400FD1E0400E43404005F
:10A22000371F04000C3A0400451F0400643A040080
:10A2300000F5E0700268914203D343681A449142EA
:10A2400002D380680028F5D170471849086880B9A2
:10A250004FF4805048604FF480324FF0FF30C860B8
:10A2600008610420124B8A604861C3F8BC011148A0
:10A2700008600120704701F1080313F0070F0EBFBB
:10A280000023C3F1080303F007031944D21A8161C4
:10A29000C26042F001034B60091D4FF0280C41F8E9
:10A2A00002C0024A1369C36170470000583300209E
:10A2B000C82800206859883C2DE9F84F84B006462C
:10A2C000AFF30080F52E1E4D80F013820B2E31BFB0
:10A2D00010260B36F608F6002868F408E04010F067
:10A2E000030F4AD0C04300F00100041905F1280013
:10A2F00000EBC408E700D8F808607068C008C00028
:10A30000B84218BFFDF740FFD6F80890464508BF91
:10A31000FDF73AFF4E4508BFFDF736FF7068C008ED
:10A32000C000B84218BFFDF72FFFC8450AD1286802
:10A33000012101FA04F420EA04042C6010E000BFBB
:10A34000C82800202869814508D3D9F80C10B142EB
:10A3500004D1C8F80890C9F80C8001E0FDF714FF9B
:10A3600047F00300311D7060301DCA5942F00102F0
:10A37000C25106F1080800F01DBFA968B14280F083
:10A38000A883002800F0A2804FF0010808FA04F129
:10A39000490000FA04F4484201430C406042044082
:10A3A000641E200B00F01000C440610901F0080198
:10A3B000CC40A20802F00402D440630803F0020378
:10A3C0000818DC401018C4F3400718183818FC406F
:10A3D000241805F1280000EBC40AE700DAF8089019
:10A3E000D9F80400C008C000B84218BFFDF7CCFE81
:10A3F000D9F808B0D14508BFFDF7C6FED94508BF5A
:10A40000FDF7C2FED9F80400C008C000B84218BF6A
:10A41000FDF7BAFEDA4506D1286808FA04F420EA06
:10A4200004042C600DE029698B4508D3DBF80C008F
:10A43000484504D1CAF808B0CBF80CA001E0FDF7FC
:10A44000A3FEBF1B46F0030009F10402C9F8040093
:10A4500047F00101915109EB06020192D751AC6816
:10A460004FEAD40ABAF11F0F88BFFDF78DFE34B34F
:10A47000CDF800A005F128006E6900EBCA0AD346AA
:10A48000102C38BFFDF780FE2968009821FA00F2F1
:10A49000D30704D408FA00F00843286007E0DAF88C
:10A4A0000800296988422CBF8346FDF76DFECAF873
:10A4B0000860CBF80C60C6F808B0C6F80CA0AF6016
:10A4C00009F108080198686100F074BE6868002806
:10A4D00000F0208341420840401E010B01F01001B2
:10A4E000C840420902F00802D040830803F0040388
:10A4F000D840440804F002045118E0405918C0F351
:10A500004007611805F598787918F840401858F810
:10A5100020104868C008C0008A46A0EB060B08E07F
:10A5200001464868C008C000801B58453CBF8346B0
:10A530008A4608690028F3D149690029F1D12869C0
:10A540008245C0F0D380DAF80410C90806EB0B0985
:10A55000C900494518BFFDF717FE0AEB0600824502
:10A56000019080F0C380DAF80C40DAF81870544596
:10A570000DD0DAF808002969884223D3C268524511
:10A5800004BFA16851451DD1C460A0601CE00AF160
:10A5900014010C6834B90AF110010C68A4B101E08F
:10A5A00011460C6804F114021068002802BF04F17F
:10A5B000100210680028F3D12869814202D30022DA
:10A5C0000A6001E0FDF7E0FD002F38D0DAF81C004A
:10A5D00008EB80010A6892450AD11CBB6A68012316
:10A5E00003FA00F022EA000068600020086026E01C
:10A5F00029698F4213D33869504514BF7C613C618F
:10A60000ECB129698C4218D3A761DAF8100058B16F
:10A61000884226BF20618461FDF7B6FD04E0FDF7A6
:10A62000B3FDEDE70C60ECE7DAF8140038B1296906
:10A63000884202D36061846101E0FDF7A5FDBBF1B2
:10A64000100F0ED249F003000AF10401CAF8040009
:10A650000AF1040051F8092042F0010240F80920F3
:10A660003EE046F003010AF10402CAF804104BF080
:10A6700001009051019941F80BB0A8680090C408FE
:10A680001F2C88BFFDF780FD009828B305F1280036
:10A6900000996F6900EBC408C146102938BFFDF767
:10A6A00073FD286820FA04F1CA0705D4012101FAD4
:10A6B00004F404432C6007E0D8F8080029698842B4
:10A6C0002CBF8146FDF760FDC8F80870C9F80C7012
:10A6D000C7F80890C7F80C80C5F808B00198686101
:10A6E0001AF1080800F0F58100F064BDFDF74CFD9B
:10A6F000EFE116F1400F28BF4FF0FF3680F0E981FF
:10A700000B36F6086B68F600002B00F0E28100279C
:10A71000300AC6F1000908BF002423D0B0F5803FFD
:10A7200028BF1F241ED2A0F58071090C01F008017A
:10A730008840A0F58052120C02F004029040A0F56F
:10A740008044240CC1F10E0104F00204891A091B93
:10A75000A04001EBD031C81D26FA00F404F001043A
:10A7600004EB410405F5987858F8240030B31F2C09
:10A770000FBFB4464FEA540CCCF1190C06FA0CFC8E
:10A78000BE46494601E04FEA4C0C4268D208D2006E
:10A79000921B8A4202D2110007460CD04269103047
:10A7A0004FEADC7950F82900002A1CBF8242964605
:10A7B0000028E8D170468946A8BBB7BB012101FA41
:10A7C00004F4640060420443234000F08281584254
:10A7D00003405B1E180B00F01000C340590901F044
:10A7E0000801CB409A0802F00402D3405C0804F050
:10A7F00002040818E3401018C3F3400C201860440A
:10A8000023FA0CF31B1858F823000CE008464168A3
:10A81000C908C900891B49453CBF894607460169EB
:10A820000029F3D140690028F1D1002F00F05181B7
:10A83000A868801B814580F04C8129698F42FFF414
:10A8400055AF7868C008C00006EB0901884218BF00
:10A85000FDF79AFC07EB060B5F45BFF447AFFC68BA
:10A86000D7F818A0BC420CD0B8682969884223D315
:10A87000C268BA4204BFA168B9421DD1C460A060D9
:10A880001CE007F114010C6834B907F110010C68E1
:10A89000A4B101E011460C6804F11402106800280C
:10A8A00002BF04F1100210680028F3D12869814228
:10A8B00002D300220A6001E0FDF766FCBAF1000F46
:10A8C00039D0F86908EB80010A6897420AD134BB95
:10A8D0006A68012303FA00F022EA000068600020A1
:10A8E000086028E029698A4516D3DAF81000B842D2
:10A8F00014BFCAF81440CAF81040E4B129698C4268
:10A9000017D3C4F818A0386958B1884226BF20610F
:10A910008461FDF739FC04E0FDF736FCEDE70C60DF
:10A92000ECE7786938B12969884202D360618461B3
:10A9300001E0FDF729FCB9F1100F0CD2B14449F048
:10A940000300391D7860381D51F8092042F00102DA
:10A9500040F80920B9E046F003013A1D796049F05A
:10A96000010090514FEAD9004BF809901F2822D8D6
:10A9700005F1280101EBC004296821FA00F2D30790
:10A98000A04605D4012202FA00F00843286006E040
:10A99000A068296988422CBF8046FDF7F5FBC4F802
:10A9A00008B007F10800C8F80CB040F8068007F1BD
:10A9B0000C018C5189E05FEA192008BF002123D0E7
:10A9C000B0F5803F28BF1F211ED2A0F58072120C67
:10A9D00002F008029040A0F58051090C01F004013A
:10A9E0008840A0F580431B0CC2F10E0203F0020365
:10A9F000521AD21A984002EBD032D01D29FA00F137
:10AA000001F0010101EB420107F11403CBF81C1026
:10AA100000229A5107F1100308EB81009A516A68ED
:10AA200022FA01F3DC0711D4012303FA01F11143E7
:10AA30006960C0F800B0CBF8180007F1080107F111
:10AA40000C0040F806B041F806B03EE002681F294D
:10AA50001DBF4908C1F1190109FA01F1494600E099
:10AA600002465068C008C000484518D002F11003E3
:10AA7000C80F03EB8003490018680028F0D128694B
:10AA8000834220D3C3F800B007F10C01CBF81820A3
:10AA900041F806B007F1080040F806B015E0296952
:10AAA00090688A4228BF88420DD3C0F80CB007F1E5
:10AAB0000801C2F808B0885107F10C008251002249
:10AAC000CBF8182001E0FDF75FFB17F1080840F014
:10AAD0007183A868B0421DD3811B6A69102909D30C
:10AAE0009319A96041F001005860595046F00306DF
:10AAF00056600BE00021A96040F00304111D546072
:10AB0000141D0E5846F00106265000236B6102F119
:10AB100008084FE3E8688642C0F03C83DFF8CC9B2E
:10AB2000D9F8000008B9FFF790FBD9F80810881988
:10AB30002F30491E20EA01018E4280F0398305F54D
:10AB4000D877B86838B13A6889188A4280F030837B
:10AB50008842C0F02D8300F031FE00281CBFD0F8E1
:10AB6000008010F1010F00F0238339687A684144B6
:10AB700039608A4238BF7960AC6904BB296909B180
:10AB8000884200D2286100213861C7F81480F96139
:10AB90004FF0FF31D9F800206A62296205F12802DE
:10ABA00000219260D26002F1080353611361891C95
:10ABB00010321F29F5D9A8F1280201461DE005F53C
:10ABC000E0710A46814600E09268D2B1106853688D
:10ABD00003449945F8D1107B030712D413689C42B3
:10ABE0000FD3D2F804C063449C420AD2C444C2F8D2
:10ABF00004C02146E86808EB00022846FFF73BFB4B
:10AC0000C5E22869814538BFC5F8109009EB0800F6
:10AC100000E08968002900F0C1810A688242F8D109
:10AC2000087B020700F1BA810868C1F800904A6801
:10AC300042444A6009F1080111F0070F08BFCDF83E
:10AC4000049006D0C1F1080101F0070109EB0102EF
:10AC5000019200F1080111F0070F04D0C1F10801C1
:10AC600001F00701084480460198A8EB000184190F
:10AC7000A1EB060B274646F003064660474528BF72
:10AC8000FDF782FA98F80400C10758BFFDF77CFA77
:10AC9000BBF1100F38BFFDF777FAA869804508D1DE
:10ACA000E9688B44C5F80CB0AF614BF001007860E7
:10ACB00070E1686980450AD1A9686F618B44C5F865
:10ACC00008B04BF00100786047F80BB062E1D8F8AB
:10ACD000040000F00301012940F0BC80C008C0005E
:10ACE000C1081F29039040D8D8F808200092D8F84E
:10ACF0000C600291B04508BFFDF746FA0098804508
:10AD000008BFFDF741FAD8F804000299C008C00056
:10AD1000B0EBC10F18BFFDF737FA0299009A05F1A1
:10AD2000280000EBC100824208D011462A699142F6
:10AD3000C0F08B80CA68424540F0878000998E42FF
:10AD400006D102982A68012383409A432A607EE054
:10AD5000864205D029698E4277D3B068404574D1C8
:10AD60000098C6600099B16071E0D8F818000090B2
:10AD7000D8F80C6046450DD0D8F8080029698842FB
:10AD800023D3C268424504BFB16841451DD1C660A6
:10AD9000B0601CE008F114010E6836B908F110012A
:10ADA0000E68A6B101E011460E6806F114021068A3
:10ADB000002802BF06F1100210680028F3D12869AC
:10ADC000814202D300220A6001E0FDF7DDF900981C
:10ADD00000283CD0D8F81C0005F5987101EB8001E3
:10ADE0000A6890450AD12EBB6A68012303FA00F075
:10ADF00022EA000068600020086028E000992869C5
:10AE0000814214D30869404514BF4E610E61F6B10A
:10AE100029698E4219D30098B061D8F8100058B152
:10AE2000884226BF30618661FDF7AEF904E0FDF788
:10AE3000ABF9ECE70E60EBE7D8F8140038B12969FC
:10AE4000884202D37061866101E0FDF79DF90399A4
:10AE500088448B44D8F8041049084900C8F8041005
:10AE60004BF0010078604FEADB0647F80BB01F2E6D
:10AE700022D805F1280000EBC604A146BBF1100F53
:10AE800038BFFDF781F9286820FA06F1CA0705D412
:10AE9000012101FA06F606432E6006E0A068296942
:10AEA00088422CBF8146FDF76FF9A760C9F80C7086
:10AEB000C7F80890FC606DE05FEA1B2008BF002126
:10AEC00023D0B0F5803F28BF1F211ED2A0F580728D
:10AED000120C02F008029040A0F58051090C01F01C
:10AEE00004018840A0F580431B0CC2F10E0203F060
:10AEF0000203521AD21A984002EBD032D01D2BFA1C
:10AF000000F101F0010101EB4201F961002305F5B7
:10AF100098727B6102EB81003B616A6822FA01F35F
:10AF2000DE0707D4012303FA01F1114369600760CA
:10AF3000B8611DE002681F291DBF4908C1F1190150
:10AF40000BFA01F1594600E002465068C008C00003
:10AF5000584510D002F11003C80F03EB80034900DD
:10AF600018680028F0D12869834211D31F60BA61A4
:10AF7000FF60BC600EE0296990688A4228BF884261
:10AF800006D3C7609760B860FA600020B86101E03E
:10AF9000FDF7FAF8019800F108080BE12146284670
:10AFA000FFF746F90168406808440090A0F12701C6
:10AFB00011F0070000980EBF0021C1F1080101F057
:10AFC00007010844A0F12F0B04F110018B4538BF95
:10AFD000A3460BF11802002102920191A8F1280268
:10AFE00049462846FFF747F90BF1080010F0070F14
:10AFF00018BFFDF7C9F81B20CBF8040005F5E07277
:10B0000092E809500BF1080181E8095000210BF189
:10B010000800F961B861009A02980199C7F8109088
:10B02000C7F81480072300E0001D491C00F1080741
:10B0300097424360F8D30129D8BFFDF7A5F8A3458F
:10B0400000F0A580ABEB040B201D221D50F80B1067
:10B050004908490042F80B104BF0010060604FEACC
:10B06000DB0944F80BB0B9F11F0F22D805F1280015
:10B0700000EBC907B846BBF1100F38BFFDF784F8E5
:10B08000286820FA09F1CA0705D4012101FA09F15B
:10B090000843286006E0B868296988422CBF8046CA
:10B0A000FDF772F8BC60C8F80C40C4F80880E7608F
:10B0B0006DE05FEA1B2008BF002123D0B0F5803F80
:10B0C00028BF1F211ED2A0F58072120C02F00802C8
:10B0D0009040A0F58051090C01F004018840A0F5D2
:10B0E00080431B0CC2F10E0203F00203521AD21A63
:10B0F000984002EBD032D01D2BFA00F101F0010193
:10B1000001EB420105F59872002302EB8100E16139
:10B11000636123616A6822FA01F3DF0707D4012320
:10B1200003FA01F1114369600460A0611DE0026847
:10B130001F291DBF4908C1F119010BFA01F1594638
:10B1400000E002465068C008C000584510D002F127
:10B150001003C80F03EB8003490018680028F0D1E2
:10B160002869834211D31C60A261E460A4600EE0F0
:10B17000296990688A4228BF884206D3C4609460D7
:10B18000A060E2600020A06101E0FCF7FDFFE8683C
:10B1900086420DD2801BA969E8608A19AA6140F035
:10B1A0000100506046F003064E6001F1080801E01E
:10B1B0004FF00008AFF30080404605B0BDE8F08FC7
:10B1C000002800D170472DE9F047A0F10805AFF342
:10B1D0000080DFF81C6531698D42C0F084826868A8
:10B1E00000F00302012A00F07E82C2084FEAC20981
:10B1F000C20705EB090839D42C6810F0030F00F0E2
:10B200006E82604205448D42A144C0F06C82706938
:10B21000854200F0DE80E408202C72D2D5F80CA024
:10B22000AF68554508BFFCF7AFFFBD4208BFFCF74C
:10B23000ABFF6868C008C000B0EBC40F18BFFCF7D4
:10B24000A3FF06F1280000EBC400874205D0316956
:10B250008F4253D3FA68AA4250D1BA4540D13068E0
:10B26000012101FA04F420EA04043460454580F029
:10B270003A82D8F80440E00740F13582A10700F196
:10B280008381B069804540F0B780F168B561894439
:10B29000C6F80C9049F00100686071698D4202D1D6
:10B2A00000207061B060F169494580F01882DFF8D4
:10B2B0003C24106808B9FEF7C8FFB169002900F006
:10B2C0000E82F068292824BF3046FEF7B1FFF069EE
:10B2D000F168884280F003824FF0FF30F061FEE1B8
:10B2E000824506D03069824508D3DAF80810A942B1
:10B2F00004D1C7F80CA0CAF80870B7E7FCF744FF00
:10B30000B4E7EC68AF69AC420BD0A868884222D39E
:10B31000C168A94204BFA268AA421CD1C460A0604F
:10B320001BE005F11402146834B905F11002146829
:10B330009CB101E01A46146804F11403186800284F
:10B3400002BF04F1100318680028F3D18A4202D327
:10B350000021116001E0FCF717FF002F86D0E8699B
:10B3600006F5987101EB80010A6895420AD124BB69
:10B370007268012303FA00F022EA000070600020E6
:10B38000086073E731698F4214D33869A84214BF4B
:10B390007C613C61002C3FF469AF31698C42ADD3D4
:10B3A000A761286958B1884226BF20618461FCF7F3
:10B3B000EBFE04E0FCF7E8FEECE70C60EDE7686903
:10B3C00000283FF453AF3169884297D360618461AC
:10B3D0004CE798F8040000F0030003287FF446AF20
:10B3E000C6F8089049F00101D8F804004008400070
:10B3F000C8F8040069600AE0706980450AD1B16844
:10B4000075618944C6F8089049F00100686045F804
:10B41000099064E1E408E400A144E408202C3AD255
:10B42000D8F80CA0D8F80870D04508BFFCF7ACFEDF
:10B43000B84508BFFCF7A8FED8F80400C008C00053
:10B44000B0EBC40F18BFFCF79FFE06F1280000EB1D
:10B45000C400874207D031698F42C0F08880FA6803
:10B46000424540F08480BA4507D13068012101FA95
:10B4700004F420EA040434607BE0824506D030699D
:10B48000824574D3DAF80810414570D1C7F80CA092
:10B49000CAF808706DE0D8F80C40D8F81870444528
:10B4A0000DD0D8F808003169884223D3C2684245DC
:10B4B00004BFA16841451DD1C460A0601CE008F133
:10B4C00014010C6834B908F110010C68A4B101E052
:10B4D00011460C6804F114021068002802BF04F140
:10B4E000100210680028F3D13069814202D3002293
:10B4F0000A6001E0FCF748FE002F3AD0D8F81C00A3
:10B5000006F5987101EB80010A6890450AD11CBBD1
:10B510007268012303FA00F022EA00007060002044
:10B52000086026E031698F4213D33869404514BF63
:10B530007C613C61ECB131698C4218D3A761D8F8C9
:10B54000100058B1884226BF20618461FCF71CFEC0
:10B5500004E0FCF719FEEDE70C60ECE7D8F8140006
:10B5600038B13169884202D36061846101E0FCF73F
:10B570000BFE49F00100686045F8099071698D4241
:10B580000BD1C6F80890AAE064086400C8F804402B
:10B5900049F00100686045F809904FEAD907202F6B
:10B5A00022D206F1280000EBC704A046B9F1100F23
:10B5B00038BFFCF7E9FD306820FA07F1CA0705D467
:10B5C000012101FA07F70743376006E0A0683169F7
:10B5D00088422CBF8046FCF7D7FDA560C8F80C5008
:10B5E000C5F80880EC607AE05FEA192008BF002106
:10B5F00023D0B0F5803F28BF1F211ED2A0F5807256
:10B60000120C02F008029040A0F58051090C01F0E4
:10B6100004018840A0F580431B0CC2F10E0203F028
:10B620000203521AD21A984002EBD032D01D29FAE6
:10B6300000F101F0010101EB420106F598720023CF
:10B6400002EB8100E9616B612B61726822FA01F300
:10B65000DC0707D4012303FA01F11143716005608F
:10B66000A8611DE002681F291DBF4908C1F1190129
:10B6700009FA01F1494600E002465068C008C000DE
:10B68000484510D002F11003C80F03EB80034900B6
:10B6900018680028F0D13069834211D31D60AA6177
:10B6A000ED60AD600EE0316990688A4228BF884243
:10B6B00006D3C5609560A860EA600020A86101E03B
:10B6C000FCF762FD306A401E08D13062D6F8C8012E
:10B6D00000E080680028FCD14FF0FF303062AFF30B
:10B6E0000080BDE8F087FCF74FFDF8E758330020F5
:10B6F000C82800202DE9F8438AB0804628216846F2
:10B7000000F072F82B4A106808B9FEF79EFDAFF3FF
:10B710000080DFF8A4E0DEF81820002A40D0DEF830
:10B720000C5005F12806012437460EF5E0711CE0A7
:10B730004FEADC090CF0030CBCF1010F07EBC90761
:10B7400004BF06EBC906641C03EBC90383420BD399
:10B75000D1F8049081444B4506D293421CBFD3F8E4
:10B7600004C0BCF1070FE3D1896861B1086800F13A
:10B77000080313F0070F0EBF0023C3F1080303F003
:10B7800007030344E2E700970EF5D870019408968A
:10B790000995016842680592CF1B891B04970791A0
:10B7A000AFF3008040466946282200F03DF80BB018
:10B7B000BDE8F08358330020C828002007490868F6
:10B7C00008B1002070470648C008C000086005495D
:10B7D000C908C900091A0160704700BF5C34002025
:10B7E0003F56002037560120002200F06FB88268D3
:10B7F000521C8260426832B10268531C03601170AF
:10B800004168491E4160704762B38B0708D0521EE1
:10B8100011F8013B00F8013B00F024808B07F6D1C2
:10B82000830740F0208000BF103A07D330B4B1E85E
:10B830003810103AA0E83810F9D230BC530724BFB2
:10B84000B1E80810A0E8081044BF51F8043B40F8E4
:10B85000043BD20724BF31F8022B20F8022B44BF4F
:10B860000B7803707047121F17D35B0009D151F892
:10B87000043B20F8023B1B0C121F20F8023BF6D2BF
:10B880000BE051F8043B00F8013B1B0A20F8023B97
:10B890001B0C121F00F8013BF3D238BF121D521EC1
:10B8A00024BF11F8013B00F8013BF8D8704702684B
:10B8B000531C03601170704780B5AFF30080024ADB
:10B8C00011001820ABBEFBE72600020000B500BF48
:10B8D000130096469446103928BFA0E80C50FAD8B9
:10B8E0005FEA417C28BF0CC048BF40F8042BC90761
:10B8F00028BF20F8022B48BF00F8012B00BD020032
:10B90000002070472DE9F14FB0B0924604910DF13F
:10B9100042013A9A2B9199464A7000200AE01AF89F
:10B92000011B0498309A90470028049000F0A686E6
:10B930000D98401C0D909AF8000050B12528EED1CA
:10B94000002100220791089209910A920B910C9212
:10B9500004E00D9800F094BE41F001011AF8010FC7
:10B960002028F9D023280CD02B2804D02D2805D04E
:10B97000302809D00BE041F00201EFE741F004016B
:10B98000ECE741F00801E9E741F01001E6E72A2879
:10B990000FD1D9F8002052F8040BC9F80020002874
:10B9A0000F9003D540420F9041F004010AF1010AC3
:10B9B00014E00F92DFF824380AE00F98984205DA75
:10B9C00000EB800402EB4402303A0F920AF1010AC4
:10B9D0009AF80020A2F130000A28EED39AF800006D
:10B9E0002E2803D04FF0FF320E9229E01AF8010FF3
:10B9F0002A2809D1D9F8000050F8042BC9F8000012
:10BA00000E920AF1010A1BE02D280CBF0AF1010A6F
:10BA1000002000220E92DFF8C4470BE040B90E9AD6
:10BA2000A24205DA02EB820503EB4503303B0E939D
:10BA30000AF1010A9AF80030A3F130020A2AEDD384
:10BA4000ADF84010DFF89807784400F294709AF847
:10BA5000001000F02DFF08B11AF8010B8DF842001C
:10BA60009DF84200682805D19AF8000068280CD19A
:10BA7000622106E06C2804BF9AF800006C2804D10B
:10BA800071218DF842100AF1010A12A806901AF8E5
:10BA900001BBBBF125012CD01C3900F0CF81091F5F
:10BAA000022940F2CB81133900F01385093900F0E7
:10BAB000C581891E00F0A885491E00F05585491EE4
:10BAC000022940F2BB81091F00F04E85491F00F09A
:10BAD0002881491E00F0FD84491E00F0D080C91E57
:10BAE0000DD0891E00F0F584C91E00F0F28400F02C
:10BAF00096BD25238DF84830012100F09BBDD9F873
:10BB0000000050F8044BC9F80000002C059440F0E8
:10BB1000A3802B994878002800F099804FF0FF34DB
:10BB20000FF6643000F0D2FE201A40F0A78500F036
:10BB300082BD6D1E40F099853096079D12AF75B19C
:10BB4000309E17F8012B02A9304600F063FE002852
:10BB500001D46D1EF5D10028309640F08F850A9DE6
:10BB60003020002D8DF804000CDD309E012301AA49
:10BB700002A9304600F05EFE002840F07F856D1E71
:10BB8000F4D13096059F089D75B1309E17F8012BB2
:10BB900002A9304600F03EFE002801D46D1EF5D10A
:10BBA0000028309640F06A850B9D3020002D8DF8DE
:10BBB00004000CDD309E012301AA02A9304600F0EA
:10BBC00039FE002840F05A856D1EF4D13096059854
:10BBD0000899099D471875B1309E17F8012B02A9E5
:10BBE000304600F017FE002801D46D1EF5D1002864
:10BBF000309640F043850C9D3020002D8DF80400D8
:10BC00000CDD309E012301AA02A9304600F012FE8D
:10BC1000002840F033856D1EF4D130969DF8400029
:10BC200041077FF588AE2020002C8DF804007FF7B7
:10BC300082AE309D012301AA02A9284600F0FAFD38
:10BC4000002840F01B85641EF4D1309573E60FF692
:10BC50004440059000F0EFBC0E9D002D04D5204619
:10BC600000F054FE044607E02A46204600F06CFE31
:10BC7000002814BF041B2C46089400F0DCBCD9F843
:10BC8000001051F8040BC9F8001020F00004002146
:10BC900021F0FF3512ABCDE902450593DDE9022322
:10BCA00006993C2413B90AB90E9898B102F00F0511
:10BCB0003035641EEEB23A2EA8BF2735120942EA8B
:10BCC00003721B090D5508BF002A03D005980D19F2
:10BCD000A842EBD308190590C4F13C020E980892D3
:10BCE00082420ADABDF84010821A4FF6EF70014026
:10BCF0000A92ADF8401000F09EBC002840F19B84F1
:10BD00009DF8400000F01400102840F094840F9B30
:10BD100007990A985B1A1B1A9A1A002A40F38B8417
:10BD2000D5E32B99487820B14FF0FF340FF634302B
:10BD3000F8E69DF84200622861D0682817D06A288A
:10BD40003FD06C2806D0712847D074282CD07A2890
:10BD50001DD064E0D9F8001051F8040BC9F80010A8
:10BD6000002868D14FF0FF340FF61030DAE6D9F82A
:10BD7000001051F8040BC9F8001020B94FF0FF343F
:10BD80000FF6F820CEE60D99018000F054BCD9F8EA
:10BD9000001051F8040BC9F8001000284BD14FF0E7
:10BDA000FF340FF6D820BDE6D9F8001051F8040B87
:10BDB000C9F8001000283ED14FF0FF340FF6BC2028
:10BDC000B0E6D9F8001051F8040BC9F8001080B99A
:10BDD0004FF0FF340FF6A420A4E6D9F8001051F874
:10BDE000040BC9F8001020B94FF0FF340FF68C2077
:10BDF00098E60D9AD317C0E9002300F01CBCD9F8CF
:10BE0000001051F8040BC9F8001020B94FF0FF34AE
:10BE10000FF6682086E60D99017000F00CBCD9F889
:10BE2000001051F8040BC9F8001020B94FF0FF348E
:10BE30000FF6482076E60D990160FCE3D9F8002062
:10BE4000D21D22F00702C9F80020D2E90001083211
:10BE5000C9F80020CDE90201C80F02D007982D21B2
:10BE60000AE0BDF84000810702D507982B2103E0C6
:10BE7000C00705D50798202112AA1154401C07902D
:10BE800012A807994BF020024318DDE90201CDE921
:10BE90002C01612A059321AC0BD00E98002802D505
:10BEA00006200E9005E001BF4BF02000672801211D
:10BEB0000E91DDE9020148004015401C0A460DD1F3
:10BEC00009030BD0ABF1610503201A2D089002D2B3
:10BED0000FF6C4110DE00FF6C4110AE070B9120399
:10BEE0000CD1ABF1610503201A2D08901AD30FF67F
:10BEF000B41103221846FFF787FC9CE3DDE9020139
:10BF0000CDE92E01DDE92E2323F00047B7F5801F90
:10BF100022F000060DD20022002F08BF002E009252
:10BF200003D116E00FF67811E3E76A4600F038FD1A
:10BF30000FE0DFF8C008DFF8C01800EB17500090E2
:10BF4000DDE92E234FF0FF301940DFF8B0781040C4
:10BF50003943CDE902014BF0200061280DD105984D
:10BF600030210170821CBBF1610F05920CBF78215A
:10BF7000582141700798801C0790DDE9020120F0EC
:10BF8000000231F0004308BF002A02D1002600253C
:10BF900068E14BF02008B8F1610F40F0B4800E98D2
:10BFA000002847BF21210191401C0190019FDDE93C
:10BFB0002C017F1C00220023DDE9024500F028FD52
:10BFC00000998DF8842038BF85F00045091F002FA7
:10BFD00000910DF1850653DD2046294600220023FD
:10BFE00000F030FD4CD24800400D00F11C0312D08F
:10BFF000002B10DD40F2FF70834206DBDFF80018F3
:10C0000005F000421143002011E06FF31E5141EA98
:10C01000035120460BE024F0000035F0004108BF3A
:10C0200000280FBF29461C22294600F025FD0446A2
:10C030000D4600F0C1FDFF1F002F804609DD00F016
:10C04000DBFD02460B462046294600F0E9FD04468A
:10C050000D46F01D0721B8F1000F0CDD491E5EBF33
:10C0600008F00F0200F8012D4FEA2818F3D502E07E
:10C07000002200F8012D491EFAD5C61D002FABDCA9
:10C080000DF18500361A01988642D8BF3046002847
:10C090000DF1850430D4B04206DA0DF185010A5C59
:10C0A000082AA8BF0F2100DA0021024621AB134461
:10C0B00000E0401E13F80159521E8D42F9D00F299D
:10C0C00004D10DF185018B5C5B1C8B54002A04D5D7
:10C0D0000099091D21AC401C0091411E0CD462182E
:10C0E000ABF13A0613783033DDB23A2DA8BFF3181E
:10C0F000491E02F80139F5D50E99002940F1B080AA
:10C10000421E0E92ACE00099DFF8F82647F29750F5
:10C11000414391FBF2F2DDE92C45009225F0004508
:10C12000D2F1070204DD2046294600F040FB0BE077
:10C1300052420020DFF8D01600F039FB02460B46D1
:10C140002046294600F0E0FD0446B8F1660F0E983F
:10C1500006BF009F0A3706273F18142FC8BF1427B1
:10C1600030200D468DF884000DF18506002F39DD55
:10C170002046294600F0EEFE01460A4606F1080375
:10C1800004200A26B2FBF6F606EB860EA2EB4E0260
:10C19000303203F8012C0A22B6FBF2F202EB820ED7
:10C1A000A6EB4E063036401E03F8026DE9D1083F7B
:10C1B000002F03F10806D9DD084600F0DFFE024635
:10C1C0000B462046294600F02BFD0022DFF83C36C6
:10C1D00000F0E4FE04460D46CAE700BFCBCCCC0C11
:10C1E000803E04000DF18500361A0DF1850404E04F
:10C1F0000098401E761E0090641C20783028F7D0EE
:10C20000B8F1660F02D10099491C04E0B8F1650F3E
:10C210000CBF012100210E9808188642B8BF701E7D
:10C2200000281DD4B04204DA215C3429C8BF39216A
:10C2300000DC30210246631E9D1800E0401E15F808
:10C240000169521E8E42F9D0392902D1A15C491CE4
:10C25000A154002A04D50099491C1C46401C009199
:10C260000646009D0E9F30B2002802DC01260FF228
:10C2700038644BF02000662808BF6D1C15D0672875
:10C280000FFA85F841D118F1040F44DBB84542DAC2
:10C290009DF840006D1C010703D430B2B842B8BF0E
:10C2A000074628B23F1A48BF00270FFA85F8B8F1B1
:10C2B000000F00F3AF800898411C089130220599C7
:10C2C0000A54002F03DC9DF84000010705D50898AB
:10C2D000411C08912E2205990A5417EB080FB8BF8C
:10C2E0007D4228B2C51932B2414295420B91B8BF86
:10C2F0002E46059B089836B20996324621461844C8
:10C30000FFF782FAAD1B0C95CCE0BBF1610F15D1A4
:10C310004FF0700B17E030B2B84204DA9DF84010CD
:10C320000A0758BF07467F1E48BF0027BBF1670FAB
:10C3300014BF4FF0450B4FF0650B04E0BBF1410F0C
:10C3400008BF4FF0500B0898411C0891002F059929
:10C3500014F8012B0A5403DC9DF84000010719D59D
:10C360000898411C08912E2205990A54002F11DDCE
:10C37000761E30B287420598089BB8BF3E4632B25F
:10C3800021461844FFF740FA089836B23018BF1B10
:10C3900008900B97059808990844B8F1000F80F8A9
:10C3A00000B003D42B224270821C04E02D214546AC
:10C3B0004170821C6D4200212CAB28460AE00446E5
:10C3C0000A2094FBF0F000EB8005A4EB450403F891
:10C3D000014B491C00B20028F1DC012906DC4BF0BE
:10C3E0002000652804BF302002F8010B00292CAB87
:10C3F00008D1302002F8010B06E0491E585C3030AD
:10C4000002F8010B0029F8DC059908980844121A73
:10C41000099247E030B229B288421BDA0598089B9E
:10C4200032B221461844FFF7EFF9089936B2711875
:10C43000A8EB0606002F08910B9603DC9DF8400040
:10C44000020705D5059A2E2050540999491C0991D7
:10C450000C9727E00598089B2AB221461844FFF75D
:10C46000D3F90898761B4044002F089003DC9DF810
:10C4700040100A0704D5411C08912E2205990A5440
:10C4800030B287420598089BB8BF3E4632B204EBF3
:10C4900008011844FFF7B8F9089836B23018BE1BE7
:10C4A00008900B969DF8400000F01400102840F012
:10C4B000C280079A08990B988A18099982180C98D3
:10C4C0008A1882180F98824280F2B580821A0A92E6
:10C4D000B1E09DF84200622808D068280ED06A2892
:10C4E00014D06C281FD0712810D01CE0D9F800108F
:10C4F00051F8040BC9F80010C0B21AE0D9F80010C6
:10C5000051F8040BC9F8001080B212E0D9F80020ED
:10C51000D21D22F00702C9F80020D2E9000108323A
:10C52000C9F8002006E0D9F8001051F8040BC9F84A
:10C5300000100021CDE902019DF8400001075AD505
:10C54000DDE90223002B08BF002A54D04BF0200065
:10C55000782850D1079812A930220A54401C431C55
:10C56000079301F800B046E09DF84200622808D029
:10C5700068280ED06A2814D06C281FD0712810D0DB
:10C580001CE0D9F8001051F8040BC9F8001040B2B3
:10C590001AE0D9F8001051F8040BC9F8001000B2E5
:10C5A00012E0D9F80020D21D22F00702C9F80020BD
:10C5B000D2E900010832C9F8002006E0D9F80010DD
:10C5C00051F8040BC9F80010C117CDE90201002988
:10C5D00002D507982D210AE0BDF84000810702D559
:10C5E00007982B2103E0C00705D50798202112AA40
:10C5F0001154401C079012A807990144059102A804
:10C60000594600F04FF816E001200790D9F80000D5
:10C6100050F8041BC9F800008DF848100BE02521E4
:10C620000122BBF1000F8DF84810079203D08DF85E
:10C6300049B0022107910F9A07980A990C9C121A87
:10C640000898521A0B99121A0998521A121A9DF840
:10C650004000141B41073FF570AA2020002C8DF8E4
:10C6600004007FF76AAA309E2546012301AA02A989
:10C67000304600F0DFF800283FF45BAA4FF0FF30AF
:10C6800031B0BDE8F08F00007072696E74665F7340
:10C690003A2062616420257320617267756D656E52
:10C6A000740000002DE9FC4307466F293E6908BF6E
:10C6B000082405D041F02000782814BF0A24102453
:10C6C0003C25D7E90023642918BF6929904699467B
:10C6D00005D1002B03D5D8F1000869EB4909B9F160
:10C6E000000F08BFB8F1000F0CD1386B50B9082CFF
:10C6F00039D197F83800010735D530203B2586F829
:10C700003B0030E08DF80010404649462246E317D2
:10C7100000F018FD3032D0B26D1E3A28019504DBCE
:10C720009DF80000A0F151018A1872554046494613
:10C730002246E31700F006FD80465FEA010908BFC4
:10C74000B8F1000F03D0F86871198842DCD3082CC7
:10C7500009D197F83800010705D5705D302802D05F
:10C760006D1E30207055C5F13C02BA617119F96037
:10C77000386B824208DA821A3A624FF6EF70398FCC
:10C7800001403987BDE8F38300280ED597F83800BB
:10C7900000F01400102808D17B6B7969386A5B1AA5
:10C7A0001B1A9A1A002AC8BF3A62BDE8F3832DE922
:10C7B000D04306460F4614464FF00008DFF850906D
:10C7C00012E0E00707D542464B463046394600F0B6
:10C7D000E5FB06460F464046494642464B4600F0BA
:10C7E000DDFB641080468946002CEAD1304639468C
:10C7F000BDE8D08302FCFFFFFFFF0F800000E03F99
:10C800000000F07FA08601000000F03F84D7974130
:10C810000000244010B503460C461146A068984716
:10C82000A06020B1E06A401CE062002010BD4FF023
:10C83000FF3010BDF8B505460E4617461C460020D1
:10C840005CB117F8011BB068A847B06030B1F06A5E
:10C85000401CF0620020641EF3D1F2BD4FF0FF30A7
:10C86000F2BD00007072696E74665F733A20256EC7
:10C8700020646973616C6C6F776564007072696EB7
:10C8800074663A2062616420256E20617267756D5E
:10C89000656E7400000000006E616E004E414E0037
:10C8A000696E6600494E4600300001000020704766
:10C8B000C9B202788A421AB11CBF10F8012FF9E7F9
:10C8C00018BF0020704701000020704780B500B9F4
:10C8D00006A005490B681BB122220021984701E000
:10C8E000FBF752FC222002BD60340020636F6E73A0
:10C8F000747261696E742068616E646C65723A204E
:10C90000626164206D6573736167650000F1010306
:10C91000810704D010F8011B820781B1FAD10268A7
:10C92000A2F10131914311F0803104BF50F8042F7E
:10C93000F6E709BAB1FA81F100EBD100401CC01A48
:10C940007047010000207047C9B2830706D0521E0D
:10C9500022D310F8013B9942F7D11FE0083A13D3D4
:10C9600002F1040241EA012141EA014150F8043B8D
:10C97000121F21BF4B40A3F1013C2CEA030C1CF019
:10C98000803FF3D0C9B2001F083210F8013B521E9D
:10C9900028BF91EA030FF8D818BF0120401E704746
:10C9A00010B5144600F002F8226010BDC1F30A531E
:10C9B00043B14A0012F5001F28D2A3F2FE32A1EBC8
:10C9C0000251704750EA410C20D001F0004C31EA8E
:10C9D0000C01B1FA81F204BFB0FA80F3D2180B3A1D
:10C9E000B2F120032CBF00FA03F1914041EA0C019F
:10C9F0003EBFC2F1200C20FA0CF319439040524282
:10CA000040F2FD33D21A01EB035170470022704708
:10CA10004FF4001C1CEB410F94BF1CEB430F09E0CB
:10CA200041EA030C50EA4C0C52EA0C0C03D2994236
:10CA300008BF9042704714BF8B428242704701008A
:10CA4000002070474FF4001C1CEB410F94BF1CEBFF
:10CA5000430F09E041EA030C50EA4C0C52EA0C0C7B
:10CA600003D28B4208BF8242704714BF9942904262
:10CA70007047010000207047124254D440F2FF7CFE
:10CA80001CEA11530FD0634531D09B1863453CBF5E
:10CA900001EB0251704701F0004141EA0C510020C6
:10CAA00000F068BC704750EA410320D001F0004C10
:10CAB00091EA0C011CD0B1FA81F30B3B9A420DD9DB
:10CAC000D21A994051EA0C01C3F1200C20FA0CFC57
:10CAD00061449840531C40F2FF7CD7E7914041EA03
:10CAE0000C01C2F1200C20FA0CF31943904070475E
:10CAF000B0FA80F31533202BE0D3202AEED3203A6E
:10CB0000203B9A4209D9D21A00FA03F141EA0C01FA
:10CB10000020531C40F2FF7CB8E700FA02F141EA22
:10CB20000C0100207047524240F2FF7C1CEA115376
:10CB30000DD06345DBD0B2EB030C3CBFA1EB02513F
:10CB400070470CF1010221EA035141F4801150EACF
:10CB5000410CCCD001F0004C352A27DC30B481EAFE
:10CB60000C01B2F1200309DAC2F12003044601FAF4
:10CB700003F5D0402843D1409C400CE0C3F1200293
:10CB8000450020FA03F418BF44F0010421FA03F031
:10CB900091400C43002174F1004550F1000051EB2D
:10CBA0000C01244230BC7FF47BAF7047614600200B
:10CBB00076E7010000207047C1F30A5340F2FE32CD
:10CBC0009B1A14DDD3F120034FEAE17208DDC9029C
:10CBD00041EA505141F00040D84080185040704721
:10CBE00003F2E13010B1D24382F0004070470020E0
:10CBF0007047010000207047C11768B14840401AD3
:10CC0000B0FA80F29040D21CC907C2F5846241EAB2
:10CC1000025202EBD021400570470100002070470E
:10CC200070B44FF0004591EA030F40F1B7836B40B9
:10CC3000841A71EB030603D2001BB1411219734130
:10CC40004FF4001C1CEB410F34BF7CEB430442E06B
:10CC50000C0DA4EB1356352E4FDC45EAC323DB0A3B
:10CC600045EAC121C912B6F120050DDD63FA05F6CA
:10CC7000EB4086EA0305124218BF45F00105C018D3
:10CC800051F100010CD213E062FA06F5F240554072
:10CC9000F3415A40B340F3405A408018594107D3FA
:10CCA00049085FEA30005FEA350528BF45F0010515
:10CCB00001F58011420875F1004250F1000041EB8E
:10CCC00004514E0016F5001F70BC38BF704700209D
:10CCD000090D090570471CEB410F10D252EA4306BB
:10CCE0000BD0BCEB410F05D80C0DAB43661E342EA8
:10CCF000B6DD02E0AB438018594170BC704770BC90
:10CD00007047010000207047F0B540F2FF7581EADE
:10CD1000030C0CF0004C15EA11541DBF15EA135713
:10CD2000AC42AF42E5E0BC41C1F31301C3F31303CE
:10CD3000801A994143F4801304D2641E4000494193
:10CD400080185941C90241EA5051B1FBF3F603FB87
:10CD50001611A2FB0675D7EBC020A94102D2761EA0
:10CD600080185941C90241EA5051B1FBF3FE03FB5F
:10CD70001E11A2FB0E75D7EBC020A94103D2AEF164
:10CD8000010E80185941890241EA9051760546EA20
:10CD90008E2EB1FBF3F603FB1611A2FB0675D7EB43
:10CDA0008020A94102D2761E80185941C90241EA69
:10CDB00050514EEA060EB1FBF3F603FB1611A2FB2F
:10CDC0000675D7EBC020A94102D2761E80185941C2
:10CDD000C90241EA5051B1FBF3F703FB1711A2FB63
:10CDE0000735D3EBC020A94167F100070CBF004213
:10CDF00047F0010766F3D5274FEA1E31B80814F54E
:10CE0000806412DDBD0775F1004250EB0E5051EB0E
:10CE1000045111F5801F5CBF41EA0C01F0BD4CF0DC
:10CE20007F6141F0E0410020F0BDBD076D0840EAA0
:10CE30000E5041F48011D4F10104B4F120060ADA55
:10CE4000C4F120060200E04001FA06F3E140184375
:10CE5000B24015430EE0342C13DCC6F1200445EA41
:10CE600040056D0820FA06F2154321FA06F0A140AC
:10CE70000D43002175F1004250F1000051EB0C010F
:10CE8000F0BD00205FEA0C01F0BDCFB992185B4104
:10CE9000B3FA83F704BFB2FA82F6BF190B3FB7F1BA
:10CEA00020062FBF02FA06F3BB40C7F1200622FA84
:10CEB00006F638BF3343BA401CB1E419641E33E7A9
:10CEC0007F4231F00041B1FA81F404BFB0FA80F63C
:10CED000A4190B3CB4F120062FBF00FA06F1A140C3
:10CEE000C4F1200620FA06F638BF3143A0403C1BAF
:10CEF0001AE7AC421ABF05EA1357AF4212E050EAF4
:10CF000041061CBF52EA4306BFE750EA41073046DC
:10CF100061461CBF41EA0551F0BD52EA430C08BF0F
:10CF2000C143F0BD00204FF4001616EB410F98BF2F
:10CF300016EB430F08BF16EB410F24BFC14305E0BA
:10CF400016EB430F0CBF61464CEA0551F0BD0100E2
:10CF500000207047400D491840EA81200CD2490D4D
:10CF6000A1F58061491C40F0004005DBD1F11F01B3
:10CF700054BFC840C017704700207047014648B1F1
:10CF8000B0FA80F18840C91CC1F58461090501EB44
:10CF9000D02140057047010000207047B0B581EAFC
:10CFA000030C0CF0004C40F2FF7515EA11541DBF44
:10CFB00015EA1357AC42AF4239E0E41923EA45536E
:10CFC00043F48013C90241F0004141EA505EC702B8
:10CFD0001100A7FB020200284FF00000EEFB012029
:10CFE0004FF00001E3FB072118BF42F00102401897
:10CFF00000214941E3FB0E01A4F580640F0302D236
:10D0000052004041494154F101046CDD470872F17E
:10D01000004250F1000051EB0451A1F580115CBFBA
:10D0200041EA0C01B0BD4CEA05510020B0BD05EA53
:10D030001357AC4214BFAF4241E050EA410E1CBF4F
:10D0400052EA430E02E061460020B0BD24423C4457
:10D050001BD15FEA070EF6D0090302BF014600208C
:10D06000AEF1140EB1FA81F7AEEB070401FA07FE38
:10D070000C37C7F1200100FA07F7C8404EEA000E4E
:10D0800023EA455343F48013A2E733F00043B3FA95
:10D0900083F704BFB2FA82FE77440B3FE41BB7F17B
:10D0A000200E2FBF02FA0EF3BB40C7F1200E22FA6A
:10D0B0000EFE38BF43EA0E03BA40641C82E750EA12
:10D0C000410E14BF52EA430E6FF000014FF40017F7
:10D0D00017EB430F8ABF194617EB410FB5E74CEA30
:10D0E00005510020B0BDD4F10104B4F120070FDADE
:10D0F000C4F12007520828BF42F0010210FA07F5D8
:10D1000001FA07F7E1BF2A43E0403843E1400FE06E
:10D11000352C98DCC7F1200452EA400220FA07F2CD
:10D1200018BF42F0010231FA07F0A1400A43002182
:10D1300072F1004250F1000051EB0C01B0BD010052
:10D1400000207047BBBBE1B1B2F5803F80F07E802C
:10D15000022A1ED98C46B1FBF2F102FB11C31B045B
:10D1600043EA1043B3FBF2FC02FB1C3380B240EAFB
:10D170000343B3FBF2F002FB103240EA0C40002301
:10D180007047022A05D98446B0FBF2F002FB10C2B8
:10D1900070474AB105D100F0010249085FEA30004A
:10D1A000704700220023704700F0B0B90B00020066
:10D1B000002100207047904271EB030CF6D3B3F5C9
:10D1C000803F2FD2F0B5B3FA83F7B1FA81F4A7F11B
:10D1D0000F0E3D1B5340CEF1200602FA0EF2F34132
:10D1E0005340B5F10F0746D80F3C2C444140C4F1E1
:10D1F0002006A040F1414140B1FBF3F603FB1611BC
:10D20000A2FB0645001BA94102D2761E8018594197
:10D2100080EA010221FA0EF362FA0EF200215A406E
:10D220003046F0BD30B4B1FBF3FC03FB1C11A2FB94
:10D230000C45001BA94103D2ACF1010C80185941E7
:10D2400030BC02460B46604600217047B2F1807F39
:10D2500065D3F0B5B2FA82F7B1FA81F4C7F10F06DF
:10D260003D1B22FA06F307F1110EF24120355A4018
:10D27000B5F10F07B8D94140C4F12006A040F141F3
:10D280004140B1FBF3FC03FB1C11A2FB0C45001B4E
:10D29000A94103D2BCF1010C801859410F2F12D3C0
:10D2A0000F3FC90341EA5041B1FBF3F603FB1611EE
:10D2B000A2FB0645D4EBC030A94102D2761E8018ED
:10D2C000594146EACC3C07B34140C7F12006B8407B
:10D2D000F1414140B1FBF3F603FB1611A2FB0645F9
:10D2E000001BA94102D2761E8018594180EA010232
:10D2F00021FA0EF3C7F1200462FA0EF20CFA07F0DD
:10D300005A402CFA04F13043F0BD80EA010221FAC0
:10D310000EF3002162FA0EF260465A40F0BD8C46D0
:10D32000B1FBF2F102FB11C31B0243EA1063B3FB32
:10D33000F2FC02FB1C331B024CEA002043EA1063A0
:10D34000B3FBF2FC02FB1C331B024CEA002043EA55
:10D350001063B3FBF2FC02FB1C331B024CEA0020FF
:10D3600043EA1063B3FBF2FC02FB1C324CEA0020E0
:10D37000002370470FB581B00020C0460549222226
:10D38000425001B00FBD80B50020C046024908449C
:10D3900002BD00006434002064340020841A71EB64
:10D3A000030604D26E40001BB141121973414FF4C1
:10D3B000001C1CEB410F34BF7CEB430683E00C0DDB
:10D3C000A4EB1356362E00F37C80012E45EAC323CE
:10D3D00041DC43EA525312BFD20292025B08240599
:10D3E00045EAC12141EA5051D2EBC020994125D4F0
:10D3F00007D1B0FA80F610FA06F162D0002020368C
:10D4000008E0B1FA81F6B140C6F1200220FA02F23A
:10D410001143B0404FEAF474B4EB465434F00106C3
:10D420004FEA74040AD8D6F50016760D04F00044CD
:10D43000F04061FA06F25040F1404840C00A40EA2C
:10D44000415021F0004128BF5FEA500550F1000033
:10D4500044EBD12135E0DB0A45EAC121C90AB6F126
:10D4600020050EDD42EA0242120CC5F1200603FA45
:10D4700006F6EB4042EA06056D42984161F1000173
:10D480000DE062FA06F5F240554063FA06FC82EAC6
:10D490000C02F3405A406D42904161EB030111F4DC
:10D4A000801F05D1641E620502D06D0040414941D4
:10D4B00021F48011430875F1004350F1000041EB65
:10D4C000045170BC70471CEB410F15D223F0004390
:10D4D00052EA43060BD04FEA4C0CBCEB410F04D888
:10D4E0000C0D661E342EB7DDEBE7801A994150EA29
:10D4F000410608BF0021E4E708BF1CEB430F28BF2B
:10D500006FF00001DDE70100002070477047010067
:10D510000020704700000000E0DF04080100000068
:10D5200001000000F0DF040803000000020000001A
:10D5300000E00408030000000300000010E00408FD
:10D54000030000000400000020E0040803000000C5
:10D550000500000030E004080300000006000000A1
:10D5600040E00408030000000700000050E0040849
:10D57000030000000800000060E004080300000051
:10D580000900000070E00408010000000A0000002B
:10D5900080E00408050000000B00000090E0040893
:10D5A000030000000C000000449C04080C00000074
:10D5B0000D000000A0E00408050000000E000000BF
:10D5C000B0E00408030000000F000000C0E0040801
:10D5D0000300000010000000D0E004080300000079
:10D5E00011000000E0E00408030000001200000049
:10D5F000F0E00408030000001300000000E104084C
:10D60000030000001400000010E104080300000003
:10D610001500000020E104080300000016000000CF
:10D6200030E10408030000001700000040E1040896
:10D63000030000001800000050E10408030000008F
:10D640001900000060E10408030000001A00000057
:10D6500070E10408030000001B00000080E10408E2
:10D66000030000001C00000090E10408030000001B
:10D670001D000000A0E10408030000001E000000DF
:10D68000B0E10408030000001F000000C0E104082E
:10D690000300000020000000D0E1040804000000A6
:10D6A00021000000E0E10408040000002200000066
:10D6B000F0E10408060000002300000000E2040876
:10D6C000080000002400000010E204080800000028
:10D6D00025000000649C04080D00000026000000E6
:10D6E000849C04080A0000002700000020E20408CF
:10D6F000040000002800000030E2040805000000DB
:10D700002900000040E20408050000002A00000093
:10D7100050E20408060000002B00000060E204084C
:10D72000080000002C00000070E204080400000063
:10D730002D00000080E20408050000002E0000001B
:10D7400090E20408040000002F000000A0E204089A
:10D750000500000030000000B0E2040808000000EE
:10D7600031000000C0E204080800000032000000A0
:10D77000D0E204080800000033000000E0E20408E2
:10D780000800000034000000F0E204080800000077
:10D790003500000000E30408080000003600000027
:10D7A00010E30408080000003700000020E304082C
:10D7B000080000003800000030E304080800000002
:10D7C0003900000040E30408080000003A000000AF
:10D7D00050E30408040000003B00000060E304087C
:10D7E000040000003C00000070E304080800000092
:10D7F0003D00000080E30408080000003E00000037
:10D8000090E30408080000003F000000A0E30408C3
:10D810000800000040000000A49C04080F00000065
:10D8200041000000C49C04080A00000042000000FF
:10D83000E49C04080A00000043000000049D040862
:10D840000A00000044000000249D04080B000000B2
:10D8500045000000449D04080A0000004600000046
:10D86000649D04080900000047000000849D04082E
:10D870000B00000048000000A49D04080B000000FD
:10D8800049000000B0E30408040000004A00000062
:10D89000C0E30408080000004B000000C49D040819
:10D8A000090000004C000000D0E30408080000005C
:10D8B0004D000000E49D04080C0000004E00000034
:10D8C000049E04080B0000004F000000249E040882
:10D8D0000B00000050000000449E04080A000000F5
:10D8E00051000000649E04080B000000520000007C
:10D8F000849E04080B00000053000000A49E04084E
:10D900000A00000054000000C49E04080A00000041
:10D9100055000000E49E04080B00000056000000C3
:10D92000049F04080A00000057000000249F040818
:10D930000E00000058000000449F04080900000089
:10D9400059000000649F04080A0000005A0000000B
:10D95000849F0408090000005B000000E0E3040865
:10D96000050000005C000000F0E304080500000072
:10D970005D00000000E40408050000005E000000F7
:10D9800010E40408080000005F00000020E4040820
:10D99000080000006000000030E4040805000000FA
:10D9A00061000000A49F040809000000620000005C
:10D9B000C49F0408090000006300000040E404085C
:10D9C0000800000064000000E49F04080900000053
:10D9D0006500000004A004080900000066000000C3
:10D9E00050E40408040000006700000024A00408BC
:10D9F000090000006800000060E40408080000005E
:10DA00006900000070E40408040000006A000000DF
:10DA100080E40408040000006B00000090E40408A7
:10DA2000080000006C000000A0E4040804000000EE
:10DA30006D00000044A004080C0000006E0000000F
:10DA4000B0E40408080000006F00000064A00408AF
:10DA5000090000007000000084A004080900000014
:10DA600071000000A4A0040809000000720000007A
:10DA7000C0E404080500000073000000D0E40408BE
:10DA80000800000074000000E0E404080400000046
:10DA900075000000F0E404080800000076000000B3
:10DAA00000E504080800000077000000C4A0040896
:10DAB0000A0000007800000010E5040807000000DC
:10DAC0007900000020E50408080000007A0000004A
:10DAD00030E50408070000007B00000040E5040872
