:020000040800F2
:108000004052002059F40408AD860408AF860408E5
:10801000B1860408B3860408B58604080000000091
:10802000000000000000000000000000B786040807
:10803000B986040800000000BB860408BD86040859
:10804000D90B0508DD0B0508E10B0508E50B050854
:10805000E90B0508ED0B0508F10B0508F50B050804
:10806000F90B0508FD0B0508010C0508050C0508B2
:10807000090C05080D0C0508110C0508150C050860
:10808000190C05081D0C0508210C0508250C050810
:10809000290C05082D0C0508310C0508350C0508C0
:1080A000390C05083D0C0508410C0508450C050870
:1080B000490C05084D0C0508510C0508550C050820
:1080C000590C05085D0C0508610C0508650C0508D0
:1080D000690C0508ED120408BDD602086D0C0508F0
:1080E000710C0508750C0508790C05087D0C050850
:1080F000810C0508850C0508890C05088D0C050800
:10810000910C0508950C0508990C05089D0C0508AF
:10811000A10C0508A50C05088D8604087FD6020869
:10812000A90C0508AD0C0508B10C0508B50C05082F
:10813000B90C0508BD0C0508C10C0508C50C0508DF
:10814000C90C0508CD0C0508D10C0508D50C05088F
:10815000D90C0508DD0C0508E10C0508E50C05083F
:10816000E90C0508ED0C0508F10C0508F50C0508EF
:10817000F90C0508FD0C0508010D0508050D05089D
:10818000090D05080D0D0508012003F0C9BB30B429
:10819000002513E050F8042BD30744BFA9F10103D5
:1081A0009A18091F042942F8045BFAD213468C0777
:1081B00044BF15809B1CC90748BF1D7050F8041BA5
:1081C0000029E7D130BC704738B504000D00280005
:1081D000C046C0460100200023F03FF831BD10B575
:1081E000040020002EF096FD10BD000000487047EE
:1081F000CC20002000000000000000000100000072
:10820000AAAAAAAABBBBCCCCD7FFFF7FB0B0A880DC
:10821000E96E0000B0A80180F36E00007C600400ED
:1082200009700000F41904003D7200009040040041
:1082300093720000B0AF0280E5730000B0AE05801D
:108240008D75000088050400A9780000B0AA01809F
:10825000DD78000001000000DF780000C841040064
:1082600015790000B0B0A8801D790000B0AE038081
:108270008F790000B0AB0080CD790000B0AA0180FA
:10828000F3790000B0A90080457A00006C64040016
:10829000417B000000840080B97B0000DC5B0400AF
:1082A000257C0000B0AE0180EB7C0000B0B0AA805D
:1082B0002F7D0000B0A90080F77D0000B0AA0180EA
:1082C0007D7E0000B0B0A8808B7E0000B0A9008049
:1082D000EF7F0000B0AD008071800000B0A8018089
:1082E0007D800000B0AA0580B1820000B0A90080A6
:1082F0008583000090410400A5830000A041040094
:10830000C5830000B0410400E5830000C0410400C3
:1083100005840000D041040025840000CC640400E2
:108320003F840000D464040059840000DC6404002D
:10833000D1850000B0B0AA803B860000B0A90080C3
:108340005D870000B0B0AC80BF870000B0B0AA80ED
:1083500043880000B0B0A880E7880000B0B0AE80CD
:108360003B8A000001000000C18A0000B0B0A88074
:10837000418B0000D04E04006D8B0000B0B0AA808D
:10838000218D0000B0B0A880EB8E0000B0AA018063
:10839000B18F0000604904009B900000B0B0AA803B
:1083A00097910000B0AF0280F9910000344E0400B4
:1083B0002B950000184E04004D970000B0B0AC8023
:1083C0001D98000004640400119900000C6404006E
:1083D000B19A0000B0B0A880BD9A0000B0AF0C8088
:1083E000ED9C0000B0AC09802F9E0000B0A9008079
:1083F000519E0000B0B0A880CD9E0000B0AB0080C0
:10840000CB9F0000B0AF008025A30000E84D040022
:10841000F9A40000B0AE01800FA60000010000002A
:108420003BAB0000B0A9008061AB0000B0AA0180A6
:108430008DAB0000B0A9008095AF0000B0AE018008
:1084400057B00000B0AB0080BFB00000B0A9008002
:10845000F5B10000646204005DB20000B0B0A88015
:1084600097B20000B0A9008009B30000B0AB008053
:10847000BDB30000B0AA018045B40000B0B0AA802E
:10848000A1B50000B0A80380BFB50000B0B0A880BF
:10849000C7B50000545E0400F7B500005C5E040040
:1084A00021B60000E01F04004DB70000B0AA018013
:1084B000AFB700009C6D03006DBD000034EC0300FD
:1084C00085BE0000445E0400F9BE0000B839040017
:1084D000FDBF000001000000FFBF000014170400F2
:1084E00077C00000001F04007BC10000B0AC058015
:1084F00049C2000028B60300EDC20000549D0300ED
:1085000073C60000B0A9008091C6000000840080FE
:108510009FC60000B0AB008001C70000DC5F040014
:108520001BC70000B0AB00804BC70000B0AA05809D
:1085300085C70000D45F0400AFC70000B0A9068063
:1085400065C80000C0AC030021C9000000840080A1
:1085500021C90000B8EE0300E5C90000FCF90300E2
:1085600089CA0000045A0400A3CA0000981E04002F
:1085700075CB0000F80104003FCC0000200204008D
:1085800015CE0000B0B0A88039CE0000B0A80180A0
:1085900065CE0000E03C0400BBCE0000B0A8018026
:1085A000C5CE0000B0A9048005CF0000E03C040067
:1085B0004BCF0000B0B0A88051CF0000E83C0400D1
:1085C00095CF000064EF030071D0000001000000AF
:1085D0005DD10000D45C0400A9D100006C580400F7
:1085E000FBD10000B0B0A880FFD1000044B603006A
:1085F00009D30000B0A8018013D300008C600400F0
:1086000099D30000B0AA0180BDD30000B0B0A8800B
:10861000E1D30000B0A80180E9D30000B0B0AA8087
:108620005DD40000E83D0400D9D40000B0B0A880BB
:1086300005D50000B0A9008019D50000283D040030
:108640007DD50000B0B0A880C1D50000B0AB0280DD
:1086500067D60000B0B0AA8017D70000B0AE018086
:10866000CDD70000B0B0A880E7D70000B0AC038041
:1086700087D90000B0AB008021DA0000B0B0A8803C
:108680002DDA0000C46004009BDA0000B0A900806D
:10869000B9DA0000983B040079DB00009C57040025
:1086A00075DC0000B0A8018003DF0000B0AD0680DB
:1086B0004BDF0000B0AC0780BFDF0000C03C04000F
:1086C00013E00000B0AE0B808DE00000C83C040059
:1086D0000DE10000045804001DE10000B0AA05806F
:1086E00025E20000B0A9008079E20000B0AA018074
:1086F00029E40000B0A9028073E40000B0A8018062
:108700007FE40000145E0400A1E400001C5E04008D
:10871000C3E40000245E0400F3E400004C590400AC
:1087200017E500000C4B040035E50000B0AA0580F9
:10873000B9E50000B0A80380EBE50000B0B0A88068
:10874000F3E50000545C040029E600005C5C0400D2
:1087500053E60000B01D040069E80000A83B0400D7
:1087600015E90000C01D0400D3E90000D81D040075
:1087700091EA0000445C040017EB0000B0AA0180FD
:1087800077EB00000CA803005BED0000D81D04008F
:10879000EBED0000345C04005FEE00003C370400A9
:1087A00015EF0000B0B0A8801DEF0000B0B70300C7
:1087B00005F00000B0B0A88013F00000CC5B04000E
:1087C0008BF00000201D04002DF10000B0B0A88047
:1087D00035F10000045C0400ADF10000DC8803000A
:1087E000D9F50000B0B0A88009F60000E83A04000E
:1087F000FDF60000D4F70300DDF7000054E80300A5
:1088000039F90000B0B0A88063F90000DC5C040016
:10881000D9F9000024F80300B9FA0000B4EA030013
:1088200021FC0000B0B0A88029FC0000C8B60300FD
:108830001BFD0000B0B0A88029FD0000B03A040084
:10884000EDFD0000345B040031FE0000B0FF0300CA
:10885000D9FE0000B0A803800BFF000034B803006D
:1088600099FF0000B0B0A880A1FF0000AC5B04003D
:10887000CBFF0000B45B0400EBFF0000A03A040053
:10888000D9000100B45B040019010100BC5B0400C5
:108890008F010100B0AA0180EF01010050A3030085
:1088A00039040100B45B040039050100B0A803805D
:1088B00057050100B0B0A8805F050100FC59040015
:1088C0008F050100045A0400B9050100981B04003B
:1088D000E5060100B0AA018047070100CC71030042
:1088E000AF0B0100BCE70300C70C0100EC5904000A
:1088F0003B0D010074350400090E0100B0A803808F
:10890000270E0100B0B0A8802F0E01003C5A0400D1
:108910005F0E0100445A0400890E0100A81B0400E8
:10892000B50F0100B0AA0180171001008CA503004B
:10893000FD1101005CE80300151301002C5A04002E
:10894000891301007835040019140100B0A80380D0
:1089500037140100B0B0A8803F1401005C5B040034
:108960006F140100645B040099140100181C0400DA
:10897000C5150100B0AA0180271601005078030038
:10898000391A0100FCE80300511B01004C5B040094
:10899000CD1B0100B4350400851C0100B0A8038084
:1089A000A31C0100B0B0A880AB1C01003C5A04001D
:1089B000DB1C0100445A0400051D01008412040060
:1089C0003F1E0100B0AA0180A11E0100049F030008
:1089D000252101000CE803003D2201002C5A04006F
:1089E000B12201001035040075230100B0B0A88049
:1089F0007D230100B0A90080A5230100B0B0A880AC
:108A0000B323010030390400772401009C5A04008C
:108A1000BB24010038390400FF240100E4F5030001
:108A200017260100A0B50300492701000035040006
:108A3000B9270100B0B0A880E32701002C12040080
:108A400059290100B0AA0180BB29010074990300D3
:108A5000D32C0100DCE70300EB2D01003C5A04009D
:108A60005F2E0100AC3404000D2F0100B0A803807C
:108A70002B2F0100B0B0A880332F01009C580400B8
:108A8000632F0100A45804008D2F0100181A040060
:108A9000B7300100B0AA018019310100C0BE030047
:108AA000F13101009CE60300093301008C580400F9
:108AB0007D330100EC330400ED330100B0A90080E8
:108AC00025340100B0AA0580CB340100B0AA018092
:108AD00063350100E454040085350100EC540400C2
:108AE000A7350100F4540400C9350100FC5404000A
:108AF000EB350100B0A8018019360100010000002B
:108B00001B360100008400801B360100B0AA0580DE
:108B100061360100B0A900808936010040370400A9
:108B20001F3701006CF40300DF380100B0AA018098
:108B3000013B010001000000173B0100B0B0A8801C
:108B40002B3B0100B0B0AA80333B0100B0B0A8803D
:108B50005F3B0100B0A90080D13B0100B0B0A8800C
:108B60006D3D0100B0AB0A80973D0100B0AB0680BF
:108B7000B93D0100B0AA0580733F0100B0AB008091
:108B80001F400100B0AA018031400100B0B0AC80AC
:108B900037410100B0AA018085410100B0AB0080DF
:108BA00097420100B0A9008013430100B0B0A88033
:108BB00053430100B0B0AC806B440100B0B0AA8058
:108BC0002F450100B0B0AE8073460100B0AB00800D
:108BD000F9480100B0B0A88009490100B0B0AA80EE
:108BE0009B490100B0B0AE80094A0100B0AA0180E3
:108BF000034B0100B0AC0180F14C0100B0B0AA8081
:108C0000114D0100E4E903004B4D0100B0B0A88014
:108C1000634D01000CF30300494E0100B002A9802E
:108C2000714E0100B0AD00800D4F0100E835040029
:108C300039500100B0A900808D50010008360400B1
:108C40000D510100145304009751010098190400BC
:108C500083520100B0A801808D5201000CE903008D
:108C6000AD530100245B0400CF5301002C5B0400D2
:108C700035540100F8370400D554010002A80280E1
:108C800029550100B0B0A88049550100B0A9008065
:108C90004F550100B0B0A880A5550100B0AB0280CF
:108CA0004B560100B0B0AA80FB560100B0AE018067
:108CB000B1570100B0B0A880CB570100B0AB028023
:108CC0008B580100B0AB008025590100B0B0A880DE
:108CD0003559010020370400C1590100010000008E
:108CE000C5590100A45504000D5A010038170400AD
:108CF0003B5B010050170400195C01004859030058
:108D0000BF5E0100E44E04002B5F0100B0AF08809D
:108D100025610100E44E0400096201003071030086
:108D200089630100445A0400F5630100B0AF088074
:108D300071650100445A0400196601007036040090
:108D40007B66010080360400116701001C57040097
:108D50003367010024570400556701002C570400B5
:108D60003D68010001000000456801009C590400B5
:108D700091680100B0B0A880A56801009C5904006A
:108D8000E1680100B836040085690100B0AC0180DB
:108D9000E369010010180400EB6A010028180400C0
:108DA000C56B0100B0AB0080E96B0100B0A9008089
:108DB0002D6C0100B0B0AA80896C0100B0B0A88011
:108DC000DD6C0100B0B0AC80376E0100B0B0AE8099
:108DD000376F0100B0AA0180496F0100B0B0A880D0
:108DE000676F0100B0A80180996F0100B0AA0180EF
:108DF000F96F0100B0AA058079700100B0A9008068
:108E0000BD700100B0A80180DF700100B0AA018030
:108E1000F5700100B0AA05804F720100B0B0A880C3
:108E2000A9740100B0B0AC80FD7601006C5704005D
:108E30001D770100745704003D7701007C57040042
:108E40005D770100845704007D7701008C57040092
:108E50009D77010094570400BD770100D0A6030060
:108E600025780100B0AB0680C57801008C5704005E
:108E700035790100B0AA05807D7901008C57040086
:108E80008D790100B0B0AE80757A0100B0AB04807E
:108E9000197B0100B0AB0080AF7B0100B0B0AA80AD
:108EA000297C0100B0B0AC80C77C0100B0B0AA80C2
:108EB000CF7F0100E43F0400318001000440040042
:108EC0000B840100E83F04006D84010008400400A9
:108ED000AF870100B03F0400EB870100B0B0AA806B
:108EE0009D8C0100B0AB00807B8D0100B0AF028093
:108EF000DD8D010074420400B5930100B0AA018029
:108F00004D940100B0B0AA80A79401008C4E0400DB
:108F1000D7940100B0B0A880DD940100EC4E0400AD
:108F20004F9501000084008061960100B0A90A807D
:108F3000A7960100B0AA018007970100B0AB00809E
:108F400039970100B0AB028061970100B0B0AC80EE
:108F50007B98010054580400A5980100B0A9008036
:108F6000E7980100B8420400F39A0100B0B0AA806B
:108F7000179B0100A44C0400899C01003C4D040097
:108F8000999C0100B0AF0280899E0100B4410400A9
:108F9000BB9E0100D02F04001F9F0100E42F04009E
:108FA000A59F0100F82F0400EF9F0100DC5504008D
:108FB00059A00100B0AB008053A201009841040009
:108FC00041A50100603F040081A50100B0B0AA8066
:108FD0008FA50100B0B0A88045A60100B0B0AE805A
:108FE00087A60100B0A900809FA60100B0B0A880AC
:108FF000B5A60100B0AA01803FA70100B0B0AE80C5
:1090000001AA0100C03F04008DAC0100A43F040090
:10901000BDAF0100B0B0AA80D5B0010001000000D2
:10902000D9B001000457040023B10100B0B0A880FA
:1090300037B101000457040073B10100B0AC0180E6
:10904000ADB10100B0AB0280CDB10100B0A900808C
:1090500037B20100B0B0AA8093B20100B0B0A880CE
:10906000EDB2010002A802800BB30100B0AB028098
:10907000A7B30100B0AC018009B4010002A80280CE
:1090800089B40100010000008DB401000C560400F9
:10909000BFB4010014560400F9B40100B0AB008065
:1090A00019B50100B0AAD08045B50100B0A9008073
:1090B00089B50100B0B0AA80E5B50100B0B0A880C4
:1090C000C1B6010002A8028017B70100B0AB028050
:1090D00037B70100B0A9008085B70100B0B0AA8001
:1090E00087B8010054550400D1B80100B0AA01802E
:1090F00031B90100B002A9805DB90100B0A80980B2
:109100008DB90100B0A90680B9B901004833040047
:109110003FBA0100B0A9008051BA01001C3E040012
:10912000B3BA0100B43E0400BBBD0100703E0400B0
:109130001DBE0100E03E040025C10100383E0400D0
:1091400087C10100BC3E0400B5C40100B0AF02807D
:10915000B1C60100B0B0AE8011C80100B0A9008056
:109160009BC80100B0B0A880FFC80100B0B0AE80BD
:10917000BFC90100B0B0AA8051CA0100B0AB0080E5
:10918000F9CA0100B0AE018047CB0100B0AF00804A
:10919000A1CE0100543D0400C9D00100B0AB008055
:1091A00071D10100B0AE0180BFD10100B0AF00802D
:1091B00019D50100483D0400E7D60100B0AA01809E
:1091C00033D70100B0B0AA80A7D80100B0B0A88002
:1091D000E9D80100783D040031D90100103E0400B7
:1091E0009FDC0100B0AB00809DDD0100B0AF0080CE
:1091F000F7E00100883F040079E60100B0B0AA80E2
:1092000041E70100B0B0A88045E70100B0B0AA80F6
:109210006FE701005C3C040049E90100B0B0A880A0
:109220008BE90100B0B0AA80F1E90100B03104007F
:1092300059EA0100B0B0AC8091EA0100B0B0AA8058
:10924000F7EC0100B0B0AC804BED0100B0B0AA80EB
:109250008FED0100B0A9008097ED0100B0AB008058
:1092600045EE0100B0A8018077EE0100B0AB0080B0
:109270008DEE0100B0B0AA802BEF010001000000CC
:1092800041EF0100B0B0A88045EF0100B0B0AA8066
:1092900043F60100B0AE018063F70100B0AB00807F
:1092A00079F70100B0B0A8807DF70100B0B0AA80C6
:1092B000FBF90100283E04005DFA0100483E04006D
:1092C00065FD0100B0AB0080A7FD0100B0B0AA8031
:1092D000C3FD0100E03D0400BDFE0100EC3D0400C3
:1092E0001FFF01000C3E04004B030200B0B0A88039
:1092F0004F030200B0B0AC8007050200B0B0A880F8
:109300000B050200B0B0AC80B7070200B0B0AE8071
:10931000C908020002A80280E10802003C4B0400D8
:109320002B090200B0B0A8803F0902003C4B0400AA
:1093300097090200B0B0A880A1090200B0AB048078
:10934000EF090200B0B0AA804B0A0200B0B0A880BA
:10935000710A0200B0A90080790B0200B0B0A880A9
:109360007D0B0200B0B0AA80610C02009C3E04009C
:10937000C70C0200B0AB0080630D0200B0AE0180EC
:10938000B10D0200B0AF0080FD1002009C3C040053
:10939000B3120200B0AB00804F130200B0AE0180E8
:1093A0009D130200B0AF0080E9160200B83C040033
:1093B0009F180200B0AB00803B190200B0AE0180E4
:1093C00089190200B0AF0080D51C0200843C040063
:1093D0009D1E0200B0AF0280F3210200B0A9008000
:1093E00071220200B0AA0180AB220200B0A9008065
:1093F000D1220200F44D0400F92202000C4C0400BA
:109400002D230200B0A900805B230200B0AE0180D2
:1094100039270200B0A9008067270200B0AE0180A2
:109420004F2B0200B0A90080712B0200B0B0AA80BF
:10943000FD2B0200B0AA0180512C0200B0AB0080CD
:10944000F92C0200B0B0AA80272D0200B0AF008036
:109450007F300200E83B040041320200B0A90080E6
:10946000133D0200B0B0AA80413D0200B0AB0080C5
:10947000353E0200B0A80180913E0200B0AB0080F2
:10948000C93E0200B0B0AA8081400200B0AA0180AB
:10949000AF400200B0A90A8003430200B0AA0180D5
:1094A0009B4302008C290400CD460200B0A9008035
:1094B000EB460200B0B0AA8001470200B0AC0180C8
:1094C00059470200B0B0AA8067470200B0AB0080E5
:1094D0004B4C0200B0AE0180594D0200B0AC01808F
:1094E0008D4D0200B0AA0180AD4D0200B0B0A88041
:1094F000AB4E0200B0AB0080474F0200B0AE01801F
:10950000954F0200B0AF0080E1520200203C040001
:1095100097540200010000002B550200B0B0AC804F
:10952000EB550200B0B0A880EF550200B0AB008050
:109530000B570200B0AE018059570200B0AF008057
:10954000B35A0200D43B0400195D0200B0AA0180A6
:10955000395D0200383B0400C95E0200B0AA0180F8
:10956000E95E0200143B040033620200B0A90080EF
:1095700091630200B0B0AA80BF630200B0AB00806C
:1095800089660200B0A90080B7660200B0AE018013
:10959000FD690200B0A900802B6A0200B0AE018014
:1095A000516D0200B0A900807F6D0200B0AE018055
:1095B00027710200B0AB0080D9710200B0A9008011
:1095C0006B720200E448040061730200B0A90080DD
:1095D00085730200F44804007B740200B0A9008087
:1095E0009F740200D44804003F750200B0A90080B7
:1095F000C9750200B0B0AA80EF780200B0A900805F
:10960000177B0200B0B0A8804D7B02000038040038
:10961000957B02000C380400D57E0200B0B0AA8011
:10962000177F0200B0AC01806D7F0200B0A90080FE
:10963000DD7F0200C4470400FF850200B0B0AA80AD
:109640002B870200B0B0AE80C3870200B0A90280B1
:10965000E7870200B0B0A880EB870200AC360400B8
:109660003F880200B8360400338D0200DC4E04004F
:10967000B78D0200B0A90280FF8D0200B0A9008062
:109680000D8E0200B0AA0180D18E0200B0A9008028
:10969000FF8E0200B0AE018045920200B0AB0080A8
:1096A000D192020040370400C9930200B0AA0180A1
:1096B000E9930200B0AC01804D940200B0A9008093
:1096C0007B940200B0AE0180A5980200B0A9008092
:1096D0000D9A02000100000007A70200B0A9008057
:1096E0001FA90200AC3A040067A90200B83A0400BE
:1096F0001FAD0200B0AC018051AD0200B0A90080E6
:1097000075AD0200F448040039AE0200B0A9008033
:109710005DAE020044490400DFAE0200B0A9008043
:1097200003AF0200144904004DB00200B0A900804C
:10973000C9B00200B0AB00806DB10200B0AA0180D8
:10974000C1B10200B0AB00800DB20200B0AA01802E
:1097500061B20200B0AB0080ABB20200B0B0A88032
:10976000F3B20200B0A9008025B40200AC480400A6
:10977000C1B40200B0AB00805DB60200B0AA0180A7
:1097800089B60200B0AB008031B70200B0B0AA8049
:109790005FB70200B0AF0080B7BA0200983604008D
:1097A0008BBC0200B0A900802FBD0200B0A90280CE
:1097B00061BD0200B0A90080ABBD0200B0B0AA80BC
:1097C000F7BD0200882604001BC30200D438040041
:1097D00059C30200B0AA018079C30200B0AB008077
:1097E0002DC40200B0B0AA805BC40200B0AF0080FC
:1097F000C3C702003C350400BDCB0200B0AA018003
:10980000E1CB02000C37040025CC0200B0A9008097
:109810004FCD0200C449040037CE0200B0A9008039
:10982000C7CF0200A449040043D00200B0A90080C1
:10983000B3D002005437040019D10200B0A900804F
:1098400089D102001C370400D1D10200B0AB0080E6
:10985000C5D40200B0AA0180F1D40200B0AB0080F0
:1098600099D50200B0B0AA80C7D50200B0AF008081
:109870001FD90200443904008DDB0200B0AB008028
:10988000D9DB0200B0AA01802DDC0200B0AB008061
:1098900079DC0200B0AA0180CDDC0200B0AB008010
:1098A00019DD0200B0AA0180E3DD0200EC450400EE
:1098B00029DE0200D4450400ABDE0200B0AB00801C
:1098C000F1DE0200B44604007DE00200B0A9008091
:1098D000C1E00200B0B0AA8001E40200B0A90A8091
:1098E00037E40200783504006DE40200B0AB00807C
:1098F000EFE40200B0B0AA80DDE50200B0A900806C
:109900002DE60200B0B0AA80FFEB0200B0A90080F3
:1099100071EC0200B0AB0080BDEC0200B0AA018087
:1099200031ED020070340400CDF30200B0A90080D4
:1099300055F40200B0AB0080A1F40200B0AA01808F
:10994000E7F40200B0B0AA809DF60200B0A9008042
:10995000E1F60200B0B0AA8039FA02004C460400D9
:1099600081FA020034460400C9FA0200B0B0AA80AD
:109970000DFB0200B0A801806DFC0200B0A90080C0
:1099800009FD020004440400B3FD0200B0B0AA8047
:1099900029FE0200B0A90080C5FE02006C4204004E
:1099A000F70003001448040069010300B0B0AA8066
:1099B0007F030300B0A900801B0403006C4C04006B
:1099C000B5040300B0A801800F050300B0B0A88063
:1099D000E9050300B0AB0080330603009C4304009C
:1099E00085060300B0B0AA80ED060300B0AB00808E
:1099F00037070300B0A900809F070300FC4704005D
:109A0000D9070300B0B0AA80FB0703003C4604005E
:109A10002308030014460400CD090300B0AB008006
:109A2000170A0300F44B04005B0A0300B0B0A880DF
:109A30006B0A0300B0B0AA80850A0300B0A90080B9
:109A4000F30A0300644304002D0B03002C420400BE
:109A5000B10B030044420400D90B03002C45040061
:109A6000EF0B0300B0A90080C90C0300DC4B04001D
:109A7000010D0300B0B0AA80250D0300B0B0A8808E
:109A8000C70D0300B0B0AA80290E030058270400B8
:109A9000CB0E0300B0A90080D90E0300B0B0AA809D
:109AA0003D0F0300B0AA0180890F0300B0B0AA8067
:109AB00045100300B0A9008017110300B0B0A880C2
:109AC0006B110300B0A90080DB110300010000004E
:109AD000CF180300B0AB00804D4B0300B0A801804D
:109AE0008153030001000000DD530300B0B0A880E3
:109AF000F3530300B0B0AA80EF540300EC4204001B
:109B0000AD59030001000000A95B0300B0A900806B
:109B1000DF5B03000084008071680300B0AC058047
:109B2000CF680300F0AE0300176A0300B0AA0180FB
:109B3000396A0300C8260400956A0300B0B0AC80FF
:109B4000D16B0300B0AA0180C56C0300B0B0AA803D
:109B5000356D0300B0AB00808D6D0300B0B0A88000
:109B6000536E03001C320400156F0300B0B0AA80CE
:109B7000FF6F03004832040057700300B0AB008051
:109B80006D70030004410400D1700300B0A900808F
:109B900033710300B0AC01807D710300B0A9008077
:109BA000A9710300B0AA0380D9710300B0AB008093
:109BB0000F720300A431040041720300B0B0AA8008
:109BC0006D720300A4400400CB7403000100000088
:109BD000857903002CD403003B7A0300EC40040099
:109BE000E97A030000840080FF7B0300B0A90080B5
:109BF0004D7C0300B0AA0180817C0300C8070400EB
:109C0000CF7C030068310400CD7D0300B0A9008043
:109C10006D7E0300B0B0A880D57E0300B0AB00809D
:109C20006B7F0300AC3104009B7F0300B0AC01806C
:109C3000DF7F0300B0B0AC80BF800300B0A902801A
:109C4000D9800300B431040033820300F8300400EB
:109C50005D820300B0A9008065820300010000005E
:109C60001F8303004431040067830300B0AB00800E
:109C7000D3830300B0B0AA800F8403002C400400FB
:109C800037840300D43F04009588030001000000DE
:109C9000A994030098A30300699603000100000043
:109CA00057970300A4310400E1970300B0B0A880E7
:109CB0009D99030001000000F9990300B0AB0080FA
:109CC000E59A030001000000419B0300B0AB008057
:109CD0002D9C030001000000899C0300B0AB0080B4
:109CE000759D030001000000D19D0300B0AB008012
:109CF00005A4030001000000C5A403004C010400FA
:109D0000C1AD0300B0AC018019AE0300B0A9008062
:109D100093AE0300B0AB008049AF0300B0AC01804C
:109D2000A1AF0300B0A900801BB00300B0AB00805E
:109D3000CDB00300B0AC018025B10300B0A9008014
:109D40009FB10300B0AB008051B20300B0AC018002
:109D5000A9B20300B0A9008023B30300B0AB008018
:109D6000D9B30300B0AC018031B40300B0A90080C6
:109D7000ABB40300B0AB008061B50300B0AC0180B0
:109D8000B9B50300B0A9008033B60300B0AB0080C2
:109D9000E9B60300B0AC018041B70300B0A9008070
:109DA000BBB70300B0AB008071B80300B0AC01805A
:109DB000C9B80300B0A9008043B90300B0AB00806C
:109DC000F9B90300B0AC018051BA0300B0A900801A
:109DD000CBBA0300B0AB008081BB0300B0AC018004
:109DE000D9BB0300B0A9008053BC0300B0AB008016
:109DF00009BD0300B0AC018061BD0300B0A90080C3
:109E0000DBBD0300B0AB008091BE0300B0AC0180AD
:109E1000E9BE0300B0A9008063BF0300B0AB0080BF
:109E200019C00300B0AC018071C00300B0A900806C
:109E3000EBC00300B0AB0080A1C10300B0AC018057
:109E4000F9C10300B0A9008073C20300B0AB008069
:109E500029C30300B0AC018081C30300B0A9008016
:109E6000FBC30300B0AB0080B1C40300B0AC018001
:109E700009C50300B0A9008083C50300B0AB008012
:109E800039C60300B0AC018091C60300B0A90080C0
:109E90000BC70300B0AB0080C1C70300B0AC0180AA
:109EA00019C80300B0A9008093C80300B0AB0080BC
:109EB00045C90300B0AC01809DC90300B0A9008072
:109EC00017CA0300B0AB0080C9CA0300B0AC018060
:109ED00021CB0300B0A900809BCB0300B0AB008076
:109EE0004DCC0300B0AC0180A5CC0300B0A900802C
:109EF0001FCD0300B0AB0080D1CD0300B0AC01801A
:109F000029CE0300B0A90080A3CE0300B0AB00802F
:109F100055CF0300B0AC0180ADCF0300B0A90080E5
:109F200027D00300B0AB008081D60300B0B0AA8078
:109F3000B7DF0300E01E0400C1E50300B0AD008000
:109F4000F7E50300B0B0AC807BE60300B0AD008065
:109F5000B1E60300B0B0AC8089E70300B0B0A880E0
:109F6000FDE80300B0B0AC8025E90300B0AD00808F
:109F70004DE90300B0B0AC80CDE90300B0AD008086
:109F8000F5E90300B0B0AC8035FB0300B0AB028054
:109F900035FC030024200400F9FC03003C3D0400D0
:109FA00019FD0300443D040039FD03006C3E04002C
:109FB00059FD0300C440040079FD03004C42040035
:109FC00025160400B0B0AA803D160400B0AB008096
:109FD00061160400B0B0AA8091160400B0AB0080F6
:109FE000B5160400B0B0AA8003170400B0AB00801F
:109FF00027170400B0B0AA8075170400B0AB00802A
:10A0000099170400B0B0AA80E7170400B0AB008035
:10A010000B180400B0B0AA8059180400B0AB00803F
:10A020007D180400B0B0AA80CB180400B0AB00804B
:10A03000EF180400B0B0AA803D190400B0AB008056
:10A0400061190400B0B0AA80AF190400B0AB008061
:10A05000D3190400B0B0AA80211A0400B0AB00806C
:10A06000451A0400B0B0AA80751A0400B0AB008095
:10A07000991A0400B0B0AA80C91A0400B0AB0080DD
:10A08000ED1A0400B0B0AA801D1B0400B0AB008024
:10A09000411B0400B0B0AA80711B0400B0AB00806B
:10A0A000951B0400B0B0AA80C51B0400B0AB0080B3
:10A0B000E91B0400B0B0AA80391C04004C3C040029
:10A0C0008B1C0400243E04000D1F04006C3C0400A3
:10A0D000211F0400743C04006D1F04001C40040098
:10A0E000811F040024400400152404003C3B0400AC
:10A0F00025240400443B0400352404004C3B0400A8
:10A1000045240400143C0400552404001C3C0400B5
:10A1100065240400443C0400752404004C3C040005
:10A1200085240400943C0400952404009C3C040015
:10A13000A5240400A43C0400B5240400BC3D040094
:10A14000C5240400C43D0400D5240400CC3D040013
:10A15000E5240400D43D0400F5240400DC3D0400A3
:10A1600005250400E43D0400152504002C3F0400EF
:10A1700025250400343F0400352504003C3F04003D
:10A1800045250400443F0400552504004C3F0400CD
:10A1900065250400543F0400752504007C3F04003D
:10A1A00085250400843F0400952504008C3F0400AD
:10A1B000A5250400943F0400B52504009C3F04003D
:10A1C000C5250400A43F0400D5250400AC3F0400CD
:10A1D000E5250400B43F0400F5250400BC3F04005D
:10A1E00005260400C43F0400152604003C4004007A
:10A1F0002526040044400400352604004C40040099
:10A200004526040054400400552604005C40040028
:10A210006526040064400400752604003C430400E5
:10A220008526040044430400952604004C430400A2
:10A23000A526040024440400B52604002C44040090
:10A24000C526040034440400D52604007C440400E0
:10A25000E526040084440400F52604008C44040030
:10A2600005270400B44504006D2904008C3A04005D
:10A2700091290400B43B04009F2904000C3E040013
:10A28000AD290400943F0400E7290400CC440400F5
:10A29000F52904002445040000F5E07002689142AD
:10A2A00003D343681A44914202D380680028F5D151
:10A2B00070471849086880B94FF4805048604FF4DF
:10A2C00080324FF0FF30C86008610420124B8A6072
:10A2D0004861C3F8BC01114808600120704701F1D2
:10A2E000080313F0070F0EBF0023C3F1080303F0A8
:10A2F00007031944D21A8161C26042F001034B6026
:10A30000091D4FF0280C41F802C0024A1369C361CD
:10A3100070470000602F0020CC2400206859883C42
:10A320002DE9F84F84B00646AFF30080F52E1E4DA0
:10A3300080F013820B2E31BF10260B36F608F60084
:10A340002868F408E04010F0030F4AD0C04300F042
:10A350000100041905F1280000EBC408E700D8F853
:10A3600008607068C008C000B84218BFFDF70CFF55
:10A37000D6F80890464508BFFDF706FF4E4508BFD2
:10A38000FDF702FF7068C008C000B84218BFFDF7B3
:10A39000FBFEC8450AD12868012101FA04F420EA2D
:10A3A00004042C6010E000BFCC2400202869814503
:10A3B00008D3D9F80C10B14204D1C8F80890C9F8F4
:10A3C0000C8001E0FDF7E0FE47F00300311D7060F6
:10A3D000301DCA5942F00102C25106F1080800F0CE
:10A3E0001DBFA968B14280F0A883002800F0A280B8
:10A3F0004FF0010808FA04F1490000FA04F4484259
:10A4000001430C4060420440641E200B00F0100029
:10A41000C440610901F00801CC40A20802F0040226
:10A42000D440630803F002030818DC401018C4F39A
:10A43000400718183818FC40241805F1280000EBD4
:10A44000C40AE700DAF80890D9F80400C008C00090
:10A45000B84218BFFDF798FED9F808B0D14508BF3B
:10A46000FDF792FED94508BFFDF78EFED9F804002E
:10A47000C008C000B84218BFFDF786FEDA4506D115
:10A48000286808FA04F420EA04042C600DE0296925
:10A490008B4508D3DBF80C00484504D1CAF808B056
:10A4A000CBF80CA001E0FDF76FFEBF1B46F00300E8
:10A4B00009F10402C9F8040047F00101915109EBC8
:10A4C00006020192D751AC684FEAD40ABAF11F0FC5
:10A4D00088BFFDF759FE34B3CDF800A005F1280080
:10A4E0006E6900EBCA0AD346102C38BFFDF74CFE4C
:10A4F0002968009821FA00F2D30704D408FA00F082
:10A500000843286007E0DAF80800296988422CBF70
:10A510008346FDF739FECAF80860CBF80C60C6F830
:10A5200008B0C6F80CA0AF6009F10808019868618E
:10A5300000F074BE6868002800F0208341420840A3
:10A54000401E010B01F01001C840420902F0080250
:10A55000D040830803F00403D840440804F0020408
:10A560005118E0405918C0F34007611805F5987874
:10A570007918F840401858F820104868C008C00002
:10A580008A46A0EB060B08E001464868C008C000F8
:10A59000801B58453CBF83468A4608690028F3D192
:10A5A00049690029F1D128698245C0F0D380DAF8E1
:10A5B0000410C90806EB0B09C900494518BFFDF78F
:10A5C000E3FD0AEB06008245019080F0C380DAF8D3
:10A5D0000C40DAF8187054450DD0DAF808002969F3
:10A5E000884223D3C268524504BFA16851451DD19A
:10A5F000C460A0601CE00AF114010C6834B90AF1CF
:10A6000010010C68A4B101E011460C6804F11402B9
:10A610001068002802BF04F1100210680028F3D16E
:10A620002869814202D300220A6001E0FDF7ACFDF7
:10A63000002F38D0DAF81C0008EB80010A68924538
:10A640000AD11CBB6A68012303FA00F022EA000069
:10A6500068600020086026E029698F4213D33869BA
:10A66000504514BF7C613C61ECB129698C4218D320
:10A67000A761DAF8100058B1884226BF20618461D2
:10A68000FDF782FD04E0FDF77FFDEDE70C60ECE7F0
:10A69000DAF8140038B12969884202D36061846114
:10A6A00001E0FDF771FDBBF1100F0ED249F0030080
:10A6B0000AF10401CAF804000AF1040051F8092063
:10A6C00042F0010240F809203EE046F003010AF1A1
:10A6D0000402CAF804104BF001009051019941F8AE
:10A6E0000BB0A8680090C4081F2C88BFFDF74CFD74
:10A6F000009828B305F1280000996F6900EBC408A1
:10A70000C146102938BFFDF73FFD286820FA04F143
:10A71000CA0705D4012101FA04F404432C6007E0C0
:10A72000D8F80800296988422CBF8146FDF72CFD26
:10A73000C8F80870C9F80C70C7F80890C7F80C8002
:10A74000C5F808B0019868611AF1080800F0F581B1
:10A7500000F064BDFDF718FDEFE116F1400F28BFD2
:10A760004FF0FF3680F0E9810B36F6086B68F60093
:10A77000002B00F0E2810027300AC6F1000908BF73
:10A78000002423D0B0F5803F28BF1F241ED2A0F59F
:10A790008071090C01F008018840A0F58052120C6C
:10A7A00002F004029040A0F58044240CC1F10E0197
:10A7B00004F00204891A091BA04001EBD031C81D26
:10A7C00026FA00F404F0010404EB410405F598783E
:10A7D00058F8240030B31F2C0FBFB4464FEA540C76
:10A7E000CCF1190C06FA0CFCBE46494601E04FEAD2
:10A7F0004C0C4268D208D200921B8A4202D211004D
:10A8000007460CD0426910304FEADC7950F8290035
:10A81000002A1CBF824296460028E8D1704689462D
:10A82000A8BBB7BB012101FA04F4640060420443F1
:10A83000234000F08281584203405B1E180B00F059
:10A840001000C340590901F00801CB409A0802F0FA
:10A850000402D3405C0804F002040818E340101816
:10A86000C3F3400C2018604423FA0CF31B1858F86B
:10A8700023000CE008464168C908C900891B494506
:10A880003CBF8946074601690029F3D14069002889
:10A89000F1D1002F00F05181A868801B814580F024
:10A8A0004C8129698F42FFF455AF7868C008C00019
:10A8B00006EB0901884218BFFDF766FC07EB060BA3
:10A8C0005F45BFF447AFFC68D7F818A0BC420CD076
:10A8D000B8682969884223D3C268BA4204BFA16814
:10A8E000B9421DD1C460A0601CE007F114010C68DE
:10A8F00034B907F110010C68A4B101E011460C68ED
:10A9000004F114021068002802BF04F1100210685C
:10A910000028F3D12869814202D300220A6001E0B5
:10A92000FDF732FCBAF1000F39D0F86908EB80016D
:10A930000A6897420AD134BB6A68012303FA00F01F
:10A9400022EA000068600020086028E029698A4542
:10A9500016D3DAF81000B84214BFCAF81440CAF887
:10A960001040E4B129698C4217D3C4F818A03869A3
:10A9700058B1884226BF20618461FDF705FC04E0E0
:10A98000FDF702FCEDE70C60ECE7786938B1296966
:10A99000884202D36061846101E0FDF7F5FBB9F103
:10A9A000100F0CD2B14449F00300391D7860381DF6
:10A9B00051F8092042F0010240F80920B9E046F0C0
:10A9C00003013A1D796049F0010090514FEAD90026
:10A9D0004BF809901F2822D805F1280101EBC0048B
:10A9E000296821FA00F2D307A04605D4012202FA11
:10A9F00000F00843286006E0A068296988422CBF5F
:10AA00008046FDF7C1FBC4F808B007F10800C8F89C
:10AA10000CB040F8068007F10C018C5189E05FEA28
:10AA2000192008BF002123D0B0F5803F28BF1F2187
:10AA30001ED2A0F58072120C02F008029040A0F520
:10AA40008051090C01F004018840A0F580431B0CE3
:10AA5000C2F10E0203F00203521AD21A984002EB1E
:10AA6000D032D01D29FA00F101F0010101EB4201C1
:10AA700007F11403CBF81C1000229A5107F11003C0
:10AA800008EB81009A516A6822FA01F3DC0711D4BD
:10AA9000012303FA01F111436960C0F800B0CBF85B
:10AAA000180007F1080107F10C0040F806B041F862
:10AAB00006B03EE002681F291DBF4908C1F1190117
:10AAC00009FA01F1494600E002465068C008C0009A
:10AAD000484518D002F11003C80F03EB800349006A
:10AAE00018680028F0D12869834220D3C3F800B049
:10AAF00007F10C01CBF8182041F806B007F1080067
:10AB000040F806B015E0296990688A4228BF88425B
:10AB10000DD3C0F80CB007F10801C2F808B0885195
:10AB200007F10C0082510022CBF8182001E0FDF75C
:10AB30002BFB17F1080840F07183A868B0421DD3C1
:10AB4000811B6A69102909D39319A96041F001009A
:10AB50005860595046F0030656600BE00021A9608A
:10AB600040F00304111D5460141D0E5846F00106F8
:10AB7000265000236B6102F108084FE3E868864223
:10AB8000C0F03C83DFF8CC9BD9F8000008B9FFF790
:10AB900090FBD9F8081088192F30491E20EA0101CE
:10ABA0008E4280F0398305F5D877B86838B13A68B5
:10ABB00089188A4280F030838842C0F02D8300F0EB
:10ABC00031FE00281CBFD0F8008010F1010F00F00A
:10ABD000238339687A68414439608A4238BF796092
:10ABE000AC6904BB296909B1884200D228610021FF
:10ABF0003861C7F81480F9614FF0FF31D9F80020AF
:10AC00006A62296205F1280200219260D26002F195
:10AC1000080353611361891C10321F29F5D9A8F16B
:10AC2000280201461DE005F5E0710A46814600E074
:10AC30009268D2B11068536803449945F8D1107BEB
:10AC4000030712D413689C420FD3D2F804C06344A4
:10AC50009C420AD2C444C2F804C02146E86808EB0A
:10AC600000022846FFF73BFBC5E22869814538BF53
:10AC7000C5F8109009EB080000E08968002900F091
:10AC8000C1810A688242F8D1087B020700F1BA81CB
:10AC90000868C1F800904A6842444A6009F1080116
:10ACA00011F0070F08BFCDF8049006D0C1F10801DC
:10ACB00001F0070109EB0102019200F1080111F016
:10ACC000070F04D0C1F1080101F0070108448046D4
:10ACD0000198A8EB00018419A1EB060B274646F06A
:10ACE00003064660474528BFFDF74EFA98F8040072
:10ACF000C10758BFFDF748FABBF1100F38BFFDF789
:10AD000043FAA869804508D1E9688B44C5F80CB0BE
:10AD1000AF614BF00100786070E1686980450AD14D
:10AD2000A9686F618B44C5F808B04BF001007860EA
:10AD300047F80BB062E1D8F8040000F003010129E4
:10AD400040F0BC80C008C000C1081F29039040D853
:10AD5000D8F808200092D8F80C600291B04508BFDE
:10AD6000FDF712FA0098804508BFFDF70DFAD8F8F4
:10AD700004000299C008C000B0EBC10F18BFFDF776
:10AD800003FA0299009A05F1280000EBC100824203
:10AD900008D011462A699142C0F08B80CA684245AA
:10ADA00040F0878000998E4206D102982A680123DC
:10ADB00083409A432A607EE0864205D029698E420C
:10ADC00077D3B068404574D10098C6600099B160EF
:10ADD00071E0D8F818000090D8F80C6046450DD006
:10ADE000D8F808002969884223D3C268424504BFC5
:10ADF000B16841451DD1C660B0601CE008F1140186
:10AE00000E6836B908F110010E68A6B101E01146CE
:10AE10000E6806F114021068002802BF06F1100245
:10AE200010680028F3D12869814202D300220A6009
:10AE300001E0FDF7A9F9009800283CD0D8F81C00E3
:10AE400005F5987101EB80010A6890450AD12EBB87
:10AE50006A68012303FA00F022EA0000686000201B
:10AE6000086028E000992869814214D308694045A8
:10AE700014BF4E610E61F6B129698E4219D3009854
:10AE8000B061D8F8100058B1884226BF30618661A1
:10AE9000FDF77AF904E0FDF777F9ECE70E60EBE7F0
:10AEA000D8F8140038B12969884202D370618661EC
:10AEB00001E0FDF769F9039988448B44D8F8041040
:10AEC00049084900C8F804104BF0010078604FEAC7
:10AED000DB0647F80BB01F2E22D805F1280000EB47
:10AEE000C604A146BBF1100F38BFFDF74DF9286825
:10AEF00020FA06F1CA0705D4012101FA06F6064335
:10AF00002E6006E0A068296988422CBF8146FDF7C3
:10AF10003BF9A760C9F80C70C7F80890FC606DE0B9
:10AF20005FEA1B2008BF002123D0B0F5803F28BF77
:10AF30001F211ED2A0F58072120C02F00802904070
:10AF4000A0F58051090C01F004018840A0F5804370
:10AF50001B0CC2F10E0203F00203521AD21A9840DF
:10AF600002EBD032D01D2BFA00F101F0010101EB10
:10AF70004201F961002305F598727B6102EB8100C3
:10AF80003B616A6822FA01F3DE0707D4012303FA62
:10AF900001F1114369600760B8611DE002681F2973
:10AFA0001DBF4908C1F119010BFA01F1594600E032
:10AFB00002465068C008C000584510D002F1100386
:10AFC000C80F03EB8003490018680028F0D12869F6
:10AFD000834211D31F60BA61FF60BC600EE0296933
:10AFE00090688A4228BF884206D3C7609760B860DD
:10AFF000FA600020B86101E0FDF7C6F8019800F1A1
:10B0000008080BE121462846FFF746F90168406829
:10B0100008440090A0F1270111F0070000980EBF2E
:10B020000021C1F1080101F007010844A0F12F0B34
:10B0300004F110018B4538BFA3460BF11802002123
:10B0400002920191A8F1280249462846FFF747F9E4
:10B050000BF1080010F0070F18BFFDF795F81B2043
:10B06000CBF8040005F5E07292E809500BF10801F5
:10B0700081E8095000210BF10800F961B861009ADC
:10B0800002980199C7F81090C7F81480072300E0D0
:10B09000001D491C00F1080797424360F8D30129BD
:10B0A000D8BFFDF771F8A34500F0A580ABEB040B0A
:10B0B000201D221D50F80B104908490042F80B10C2
:10B0C0004BF0010060604FEADB0944F80BB0B9F1C6
:10B0D0001F0F22D805F1280000EBC907B846BBF1C5
:10B0E000100F38BFFDF750F8286820FA09F1CA0799
:10B0F00005D4012101FA09F10843286006E0B86887
:10B10000296988422CBF8046FDF73EF8BC60C8F82C
:10B110000C40C4F80880E7606DE05FEA1B2008BFC0
:10B12000002123D0B0F5803F28BF1F211ED2A0F5FB
:10B130008072120C02F008029040A0F58051090CB8
:10B1400001F004018840A0F580431B0CC2F10E02FF
:10B1500003F00203521AD21A984002EBD032D01DEB
:10B160002BFA00F101F0010101EB420105F59872A3
:10B17000002302EB8100E161636123616A6822FAC6
:10B1800001F3DF0707D4012303FA01F111436960DA
:10B190000460A0611DE002681F291DBF4908C1F1BC
:10B1A00019010BFA01F1594600E002465068C00847
:10B1B000C000584510D002F11003C80F03EB800304
:10B1C000490018680028F0D12869834211D31C6017
:10B1D000A261E460A4600EE0296990688A4228BFF9
:10B1E000884206D3C4609460A060E2600020A06141
:10B1F00001E0FCF7C9FFE86886420DD2801BA9690F
:10B20000E8608A19AA6140F00100506046F0030628
:10B210004E6001F1080801E04FF00008AFF3008034
:10B22000404605B0BDE8F08F002800D170472DE9F9
:10B23000F047A0F10805AFF30080DFF81C65316925
:10B240008D42C0F08482686800F00302012A00F099
:10B250007E82C2084FEAC209C20705EB090839D449
:10B260002C6810F0030F00F06E82604205448D429E
:10B27000A144C0F06C827069854200F0DE80E40871
:10B28000202C72D2D5F80CA0AF68554508BFFCF74A
:10B290007BFFBD4208BFFCF777FF6868C008C000AD
:10B2A000B0EBC40F18BFFCF76FFF06F1280000EBEE
:10B2B000C400874205D031698F4253D3FA68AA424D
:10B2C00050D1BA4540D13068012101FA04F420EA96
:10B2D00004043460454580F03A82D8F80440E00721
:10B2E00040F13582A10700F18381B069804540F0CB
:10B2F000B780F168B5618944C6F80C9049F0010047
:10B30000686071698D4202D100207061B060F1699E
:10B31000494580F01882DFF83C24106808B9FEF730
:10B32000C8FFB169002900F00E82F068292824BF07
:10B330003046FEF7B1FFF069F168884280F0038281
:10B340004FF0FF30F061FEE1824506D03069824562
:10B3500008D3DAF80810A94204D1C7F80CA0CAF83B
:10B360000870B7E7FCF710FFB4E7EC68AF69AC42D0
:10B370000BD0A868884222D3C168A94204BFA26842
:10B38000AA421CD1C460A0601BE005F1140214683D
:10B3900034B905F1100214689CB101E01A46146832
:10B3A00004F114031868002802BF04F110031868A0
:10B3B0000028F3D18A4202D30021116001E0FCF79A
:10B3C000E3FE002F86D0E86906F5987101EB800155
:10B3D0000A6895420AD124BB7268012303FA00F07F
:10B3E00022EA000070600020086073E731698F4234
:10B3F00014D33869A84214BF7C613C61002C3FF42F
:10B4000069AF31698C42ADD3A761286958B18842D0
:10B4100026BF20618461FCF7B7FE04E0FCF7B4FEB0
:10B42000ECE70C60EDE7686900283FF453AF316941
:10B43000884297D3606184614CE798F8040000F07B
:10B44000030003287FF446AFC6F8089049F00101D5
:10B45000D8F8040040084000C8F8040069600AE019
:10B46000706980450AD1B16875618944C6F8089051
:10B4700049F00100686045F8099064E1E408E400DF
:10B48000A144E408202C3AD2D8F80CA0D8F80870CF
:10B49000D04508BFFCF778FEB84508BFFCF774FE3E
:10B4A000D8F80400C008C000B0EBC40F18BFFCF708
:10B4B0006BFE06F1280000EBC400874207D031691B
:10B4C0008F42C0F08880FA68424540F08480BA45D7
:10B4D00007D13068012101FA04F420EA0404346041
:10B4E0007BE0824506D03069824574D3DAF80810D3
:10B4F000414570D1C7F80CA0CAF808706DE0D8F8C3
:10B500000C40D8F8187044450DD0D8F808003169BF
:10B51000884223D3C268424504BFA16841451DD17A
:10B52000C460A0601CE008F114010C6834B908F193
:10B5300010010C68A4B101E011460C6804F114027A
:10B540001068002802BF04F1100210680028F3D12F
:10B550003069814202D300220A6001E0FCF714FE48
:10B56000002F3AD0D8F81C0006F5987101EB800145
:10B570000A6890450AD11CBB7268012303FA00F0E7
:10B5800022EA000070600020086026E031698F42E6
:10B5900013D33869404514BF7C613C61ECB131691B
:10B5A0008C4218D3A761D8F8100058B1884226BF42
:10B5B00020618461FCF7E8FD04E0FCF7E5FDEDE7C0
:10B5C0000C60ECE7D8F8140038B13169884202D336
:10B5D0006061846101E0FCF7D7FD49F0010068601B
:10B5E00045F8099071698D420BD1C6F80890AAE020
:10B5F00064086400C8F8044049F00100686045F838
:10B6000009904FEAD907202F22D206F1280000EB3B
:10B61000C704A046B9F1100F38BFFCF7B5FD30687C
:10B6200020FA07F1CA0705D4012101FA07F70743F9
:10B63000376006E0A068316988422CBF8046FCF77D
:10B64000A3FDA560C8F80C50C5F80880EC607AE04E
:10B650005FEA192008BF002123D0B0F5803F28BF42
:10B660001F211ED2A0F58072120C02F00802904039
:10B67000A0F58051090C01F004018840A0F5804339
:10B680001B0CC2F10E0203F00203521AD21A9840A8
:10B6900002EBD032D01D29FA00F101F0010101EBDB
:10B6A000420106F59872002302EB8100E9616B61AB
:10B6B0002B61726822FA01F3DC0707D4012303FA35
:10B6C00001F1114371600560A8611DE002681F2946
:10B6D0001DBF4908C1F1190109FA01F1494600E00D
:10B6E00002465068C008C000484510D002F110035F
:10B6F000C80F03EB8003490018680028F0D13069B7
:10B70000834211D31D60AA61ED60AD600EE0316926
:10B7100090688A4228BF884206D3C5609560A860B9
:10B72000EA600020A86101E0FCF72EFD306A401EAF
:10B7300008D13062D6F8C80100E080680028FCD14A
:10B740004FF0FF303062AFF30080BDE8F087FCF7C8
:10B750001BFDF8E7602F0020CC2400202DE9F843E2
:10B760008AB080462821684600F072F82B4A10689B
:10B7700008B9FEF79EFDAFF30080DFF8A4E0DEF825
:10B780001820002A40D0DEF80C5005F128060124CC
:10B7900037460EF5E0711CE04FEADC090CF0030CB3
:10B7A000BCF1010F07EBC90704BF06EBC906641C17
:10B7B00003EBC90383420BD3D1F8049081444B457A
:10B7C00006D293421CBFD3F804C0BCF1070FE3D1EB
:10B7D000896861B1086800F1080313F0070F0EBF14
:10B7E0000023C3F1080303F007030344E2E70097D3
:10B7F0000EF5D87001940896099501684268059283
:10B80000CF1B891B04970791AFF300804046694620
:10B81000282200F03DF80BB0BDE8F083602F002037
:10B82000CC2400200749086808B10020704706486A
:10B83000C008C00008600549C908C900091A0160AC
:10B84000704700BF64300020475200203F52012063
:10B85000002200F06FB88268521C8260426832B1E8
:10B860000268531C036011704168491E41607047B3
:10B8700062B38B0708D0521E11F8013B00F8013B60
:10B8800000F024808B07F6D1830740F0208000BFB2
:10B89000103A07D330B4B1E83810103AA0E83810A5
:10B8A000F9D230BC530724BFB1E80810A0E8081053
:10B8B00044BF51F8043B40F8043BD20724BF31F8A1
:10B8C000022B20F8022B44BF0B7803707047121F25
:10B8D00017D35B0009D151F8043B20F8023B1B0C45
:10B8E000121F20F8023BF6D20BE051F8043B00F89F
:10B8F000013B1B0A20F8023B1B0C121F00F8013B06
:10B90000F3D238BF121D521E24BF11F8013B00F8BC
:10B91000013BF8D870470268531C036011707047F0
:10B9200080B5AFF30080024A11001820ABBEFBE7E0
:10B930002600020000B500BF130096469446103959
:10B9400028BFA0E80C50FAD85FEA417C28BF0CC0A1
:10B9500048BF40F8042BC90728BF20F8022B48BF76
:10B9600000F8012B00BD0200002070472DE9F14FC7
:10B97000B0B0924604910DF142013A9A2B9199464A
:10B980004A7000200AE01AF8011B0498309A904788
:10B990000028049000F0A6860D98401C0D909AF89F
:10B9A000000050B12528EED1002100220791089215
:10B9B00009910A920B910C9204E00D9800F094BE4C
:10B9C00041F001011AF8010F2028F9D023280CD0EA
:10B9D0002B2804D02D2805D0302809D00BE041F0C9
:10B9E0000201EFE741F00401ECE741F00801E9E76B
:10B9F00041F01001E6E72A280FD1D9F8002052F8CB
:10BA0000040BC9F8002000280F9003D540420F9086
:10BA100041F004010AF1010A14E00F92DFF8243822
:10BA20000AE00F98984205DA00EB800402EB44022A
:10BA3000303A0F920AF1010A9AF80020A2F1300080
:10BA40000A28EED39AF800002E2803D04FF0FF32D8
:10BA50000E9229E01AF8010F2A2809D1D9F800001E
:10BA600050F8042BC9F800000E920AF1010A1BE0FD
:10BA70002D280CBF0AF1010A002000220E92DFF8E7
:10BA8000C4470BE040B90E9AA24205DA02EB8205E8
:10BA900003EB4503303B0E930AF1010A9AF800309C
:10BAA000A3F130020A2AEDD3ADF84010DFF8980771
:10BAB000784400F294709AF8001000F02DFF08B15D
:10BAC0001AF8010B8DF842009DF84200682805D154
:10BAD0009AF8000068280CD1622106E06C2804BFA7
:10BAE0009AF800006C2804D171218DF842100AF1F7
:10BAF000010A12A806901AF801BBBBF125012CD04F
:10BB00001C3900F0CF81091F022940F2CB81133983
:10BB100000F01385093900F0C581891E00F0A88561
:10BB2000491E00F05585491E022940F2BB81091FBC
:10BB300000F04E85491F00F02881491E00F0FD8469
:10BB4000491E00F0D080C91E0DD0891E00F0F5847A
:10BB5000C91E00F0F28400F096BD25238DF8483010
:10BB6000012100F09BBDD9F8000050F8044BC9F842
:10BB70000000002C059440F0A3802B994878002801
:10BB800000F099804FF0FF340FF6643000F0D2FEE1
:10BB9000201A40F0A78500F082BD6D1E40F0998507
:10BBA0003096079D12AF75B1309E17F8012B02A990
:10BBB000304600F063FE002801D46D1EF5D1002848
:10BBC000309640F08F850A9D3020002D8DF80400BE
:10BBD0000CDD309E012301AA02A9304600F05EFE72
:10BBE000002840F07F856D1EF4D13096059F089D9A
:10BBF00075B1309E17F8012B02A9304600F03EFEC9
:10BC0000002801D46D1EF5D10028309640F06A85D9
:10BC10000B9D3020002D8DF804000CDD309E01239B
:10BC200001AA02A9304600F039FE002840F05A85EA
:10BC30006D1EF4D1309605980899099D471875B185
:10BC4000309E17F8012B02A9304600F017FE00289D
:10BC500001D46D1EF5D10028309640F043850C9D2F
:10BC60003020002D8DF804000CDD309E012301AA48
:10BC700002A9304600F012FE002840F033856D1E08
:10BC8000F4D130969DF8400041077FF588AE202022
:10BC9000002C8DF804007FF782AE309D012301AAAD
:10BCA00002A9284600F0FAFD002840F01B85641E1A
:10BCB000F4D1309573E60FF64440059000F0EFBCE8
:10BCC0000E9D002D04D5204600F054FE044607E0EA
:10BCD0002A46204600F06CFE002814BF041B2C46A8
:10BCE000089400F0DCBCD9F8001051F8040BC9F836
:10BCF000001020F00004002121F0FF3512ABCDE947
:10BD000002450593DDE9022306993C2413B90AB9DB
:10BD10000E9898B102F00F053035641EEEB23A2E3F
:10BD2000A8BF2735120942EA03721B090D5508BF47
:10BD3000002A03D005980D19A842EBD308190590E5
:10BD4000C4F13C020E98089282420ADABDF8401013
:10BD5000821A4FF6EF7001400A92ADF8401000F0E1
:10BD60009EBC002840F19B849DF8400000F0140028
:10BD7000102840F094840F9B07990A985B1A1B1AAD
:10BD80009A1A002A40F38B84D5E32B99487820B186
:10BD90004FF0FF340FF63430F8E69DF84200622889
:10BDA00061D0682817D06A283FD06C2806D0712847
:10BDB00047D074282CD07A281DD064E0D9F8001020
:10BDC00051F8040BC9F80010002868D14FF0FF3477
:10BDD0000FF61030DAE6D9F8001051F8040BC9F864
:10BDE000001020B94FF0FF340FF6F820CEE60D9981
:10BDF000018000F054BCD9F8001051F8040BC9F8C8
:10BE0000001000284BD14FF0FF340FF6D820BDE6CC
:10BE1000D9F8001051F8040BC9F8001000283ED1E1
:10BE20004FF0FF340FF6BC20B0E6D9F8001051F8FF
:10BE3000040BC9F8001080B94FF0FF340FF6A420AE
:10BE4000A4E6D9F8001051F8040BC9F8001020B985
:10BE50004FF0FF340FF68C2098E60D9AD317C0E907
:10BE6000002300F01CBCD9F8001051F8040BC9F8ED
:10BE7000001020B94FF0FF340FF6682086E60D99C8
:10BE8000017000F00CBCD9F8001051F8040BC9F88F
:10BE9000001020B94FF0FF340FF6482076E60D99D8
:10BEA0000160FCE3D9F80020D21D22F00702C9F896
:10BEB0000020D2E900010832C9F80020CDE90201D2
:10BEC000C80F02D007982D210AE0BDF84000810775
:10BED00002D507982B2103E0C00705D5079820213C
:10BEE00012AA1154401C079012A807994BF0200287
:10BEF0004318DDE90201CDE92C01612A059321AC4B
:10BF00000BD00E98002802D506200E9005E001BF48
:10BF10004BF02000672801210E91DDE90201480065
:10BF20004015401C0A460DD109030BD0ABF1610549
:10BF300003201A2D089002D20FF6C4110DE00FF65F
:10BF4000C4110AE070B912030CD1ABF161050320F2
:10BF50001A2D08901AD30FF6B41103221846FFF7D2
:10BF600087FC9CE3DDE90201CDE92E01DDE92E230A
:10BF700023F00047B7F5801F22F000060DD2002203
:10BF8000002F08BF002E009203D116E00FF67811A3
:10BF9000E3E76A4600F038FD0FE0DFF8C008DFF89D
:10BFA000C01800EB17500090DDE92E234FF0FF3052
:10BFB0001940DFF8B07810403943CDE902014BF069
:10BFC000200061280DD1059830210170821CBBF141
:10BFD000610F05920CBF7821582141700798801C91
:10BFE0000790DDE9020120F0000231F0004308BFB4
:10BFF000002A02D10026002568E14BF02008B8F1A4
:10C00000610F40F0B4800E98002847BF21210191B4
:10C01000401C0190019FDDE92C017F1C00220023C0
:10C02000DDE9024500F028FD00998DF8842038BF35
:10C0300085F00045091F002F00910DF1850653DDA5
:10C04000204629460022002300F030FD4CD2480053
:10C05000400D00F11C0312D0002B10DD40F2FF70E8
:10C06000834206DBDFF8001805F000421143002090
:10C0700011E06FF31E5141EA035120460BE024F01A
:10C08000000035F0004108BF00280FBF29461C22E0
:10C09000294600F025FD04460D4600F0C1FDFF1FB6
:10C0A000002F804609DD00F0DBFD02460B462046EE
:10C0B000294600F0E9FD04460D46F01D0721B8F1C0
:10C0C000000F0CDD491E5EBF08F00F0200F8012DC5
:10C0D0004FEA2818F3D502E0002200F8012D491E8E
:10C0E000FAD5C61D002FABDC0DF18500361A01987C
:10C0F0008642D8BF304600280DF1850430D4B042C6
:10C1000006DA0DF185010A5C082AA8BF0F2100DAC2
:10C110000021024621AB134400E0401E13F80159F0
:10C12000521E8D42F9D00F2904D10DF185018B5C8F
:10C130005B1C8B54002A04D50099091D21AC401CBE
:10C140000091411E0CD46218ABF13A0613783033DB
:10C15000DDB23A2DA8BFF318491E02F80139F5D512
:10C160000E99002940F1B080421E0E92ACE0009979
:10C17000DFF8F82647F29750414391FBF2F2DDE9F0
:10C180002C45009225F00045D2F1070204DD20463F
:10C19000294600F040FB0BE052420020DFF8D016A9
:10C1A00000F039FB02460B462046294600F0E0FD30
:10C1B0000446B8F1660F0E9806BF009F0A3706279F
:10C1C0003F18142FC8BF142730200D468DF8840067
:10C1D0000DF18506002F39DD2046294600F0EEFEE0
:10C1E00001460A4606F1080304200A26B2FBF6F6C9
:10C1F00006EB860EA2EB4E02303203F8012C0A2227
:10C20000B6FBF2F202EB820EA6EB4E063036401E73
:10C2100003F8026DE9D1083F002F03F10806D9DDCC
:10C22000084600F0DFFE02460B462046294600F095
:10C230002BFD0022DFF83C3600F0E4FE04460D46FC
:10C24000CAE700BFCBCCCC0C584904000DF18500E7
:10C25000361A0DF1850404E00098401E761E009009
:10C26000641C20783028F7D0B8F1660F02D100990D
:10C27000491C04E0B8F1650F0CBF012100210E98A4
:10C2800008188642B8BF701E00281DD4B04204DAD8
:10C29000215C3429C8BF392100DC30210246631EED
:10C2A0009D1800E0401E15F80169521E8E42F9D01B
:10C2B000392902D1A15C491CA154002A04D5009956
:10C2C000491C1C46401C00910646009D0E9F30B242
:10C2D000002802DC01260FF238644BF020006628AB
:10C2E00008BF6D1C15D067280FFA85F841D118F1E9
:10C2F000040F44DBB84542DA9DF840006D1C01078D
:10C3000003D430B2B842B8BF074628B23F1A48BF7C
:10C3100000270FFA85F8B8F1000F00F3AF800898F6
:10C32000411C0891302205990A54002F03DC9DF826
:10C330004000010705D50898411C08912E22059957
:10C340000A5417EB080FB8BF7D4228B2C51932B2A4
:10C35000414295420B91B8BF2E46059B089836B2D4
:10C360000996324621461844FFF782FAAD1B0C9518
:10C37000CCE0BBF1610F15D14FF0700B17E030B27C
:10C38000B84204DA9DF840100A0758BF07467F1EDE
:10C3900048BF0027BBF1670F14BF4FF0450B4FF0AC
:10C3A000650B04E0BBF1410F08BF4FF0500B08983C
:10C3B000411C0891002F059914F8012B0A5403DC45
:10C3C0009DF84000010719D50898411C08912E22BC
:10C3D00005990A54002F11DD761E30B28742059868
:10C3E000089BB8BF3E4632B221461844FFF740FAD8
:10C3F000089836B23018BF1B08900B97059808991B
:10C400000844B8F1000F80F800B003D42B2242702A
:10C41000821C04E02D2145464170821C6D420021A2
:10C420002CAB28460AE004460A2094FBF0F000EB0F
:10C430008005A4EB450403F8014B491C00B2002819
:10C44000F1DC012906DC4BF02000652804BF302018
:10C4500002F8010B00292CAB08D1302002F8010BA7
:10C4600006E0491E585C303002F8010B0029F8DC68
:10C47000059908980844121A099247E030B229B287
:10C4800088421BDA0598089B32B221461844FFF710
:10C49000EFF9089936B27118A8EB0606002F08913B
:10C4A0000B9603DC9DF84000020705D5059A2E2067
:10C4B00050540999491C09910C9727E00598089B4D
:10C4C0002AB221461844FFF7D3F90898761B404456
:10C4D000002F089003DC9DF840100A0704D5411C8A
:10C4E00008912E2205990A5430B287420598089B7C
:10C4F000B8BF3E4632B204EB08011844FFF7B8F962
:10C50000089836B23018BE1B08900B969DF8400074
:10C5100000F01400102840F0C280079A08990B9888
:10C520008A18099982180C988A1882180F988242E2
:10C5300080F2B580821A0A92B1E09DF8420062282A
:10C5400008D068280ED06A2814D06C281FD0712813
:10C5500010D01CE0D9F8001051F8040BC9F80010F5
:10C56000C0B21AE0D9F8001051F8040BC9F8001055
:10C5700080B212E0D9F80020D21D22F00702C9F8DB
:10C580000020D2E900010832C9F8002006E0D9F8FD
:10C59000001051F8040BC9F800100021CDE9020188
:10C5A0009DF8400001075AD5DDE90223002B08BFA2
:10C5B000002A54D04BF02000782850D1079812A9B7
:10C5C00030220A54401C431C079301F800B046E097
:10C5D0009DF84200622808D068280ED06A2814D03E
:10C5E0006C281FD0712810D01CE0D9F8001051F829
:10C5F000040BC9F8001040B21AE0D9F8001051F845
:10C60000040BC9F8001000B212E0D9F80020D21DC6
:10C6100022F00702C9F80020D2E900010832C9F867
:10C62000002006E0D9F8001051F8040BC9F80010FA
:10C63000C117CDE90201002902D507982D210AE092
:10C64000BDF84000810702D507982B2103E0C00701
:10C6500005D50798202112AA1154401C079012A852
:10C6600007990144059102A8594600F04FF816E0D9
:10C6700001200790D9F8000050F8041BC9F8000009
:10C680008DF848100BE025210122BBF1000F8DF839
:10C690004810079203D08DF849B0022107910F9AF4
:10C6A00007980A990C9C121A0898521A0B99121A98
:10C6B0000998521A121A9DF84000141B41073FF5C1
:10C6C00070AA2020002C8DF804007FF76AAA309E03
:10C6D0002546012301AA02A9304600F0DFF8002810
:10C6E0003FF45BAA4FF0FF3031B0BDE8F08F00009F
:10C6F0007072696E74665F733A206261642025739C
:10C7000020617267756D656E740000002DE9FC4351
:10C7100007466F293E6908BF082405D041F0200074
:10C72000782814BF0A2410243C25D7E90023642963
:10C7300018BF69299046994605D1002B03D5D8F139
:10C74000000869EB4909B9F1000F08BFB8F1000F03
:10C750000CD1386B50B9082C39D197F83800010743
:10C7600035D530203B2586F83B0030E08DF80010B1
:10C77000404649462246E31700F018FD3032D0B259
:10C780006D1E3A28019504DB9DF80000A0F15101CF
:10C790008A187255404649462246E31700F006FDC6
:10C7A00080465FEA010908BFB8F1000F03D0F868BE
:10C7B00071198842DCD3082C09D197F83800010799
:10C7C00005D5705D302802D06D1E30207055C5F142
:10C7D0003C02BA617119F960386B824208DA821A38
:10C7E0003A624FF6EF70398F01403987BDE8F38325
:10C7F00000280ED597F8380000F01400102808D152
:10C800007B6B7969386A5B1A1B1A9A1A002AC8BFAF
:10C810003A62BDE8F3832DE9D04306460F4614463D
:10C820004FF00008DFF8509012E0E00707D54246CD
:10C830004B463046394600F0E5FB06460F4640467B
:10C84000494642464B4600F0DDFB6410804689466F
:10C85000002CEAD130463946BDE8D08302FCFFFF08
:10C86000FFFF0F800000E03F0000F07FA086010086
:10C870000000F03F84D797410000244010B50346E4
:10C880000C461146A0689847A06020B1E06A401CA1
:10C89000E062002010BD4FF0FF3010BDF8B5054636
:10C8A0000E4617461C4600205CB117F8011BB06805
:10C8B000A847B06030B1F06A401CF0620020641EEE
:10C8C000F3D1F2BD4FF0FF30F2BD00007072696E1F
:10C8D00074665F733A20256E20646973616C6C6FB7
:10C8E000776564007072696E74663A2062616420D4
:10C8F000256E20617267756D656E74000000000022
:10C900006E616E004E414E00696E6600494E4600F3
:10C910003000010000207047C9B202788A421AB183
:10C920001CBF10F8012FF9E718BF00207047010065
:10C930000020704780B500B906A005490B681BB1FF
:10C9400022220021984701E0FBF71EFC222002BDB5
:10C9500068300020636F6E73747261696E74206852
:10C96000616E646C65723A20626164206D657373F8
:10C970006167650000F10103810704D010F8011B15
:10C98000820781B1FAD10268A2F10131914311F01D
:10C99000803104BF50F8042FF6E709BAB1FA81F1EB
:10C9A00000EBD100401CC01A704701000020704706
:10C9B000C9B2830706D0521E22D310F8013B994218
:10C9C000F7D11FE0083A13D302F1040241EA012132
:10C9D00041EA014150F8043B121F21BF4B40A3F133
:10C9E000013C2CEA030C1CF0803FF3D0C9B2001FBD
:10C9F000083210F8013B521E28BF91EA030FF8D805
:10CA000018BF0120401E704710B5144600F002F810
:10CA1000226010BDC1F30A5343B14A0012F5001F52
:10CA200028D2A3F2FE32A1EB0251704750EA410C2A
:10CA300020D001F0004C31EA0C01B1FA81F204BFC0
:10CA4000B0FA80F3D2180B3AB2F120032CBF00FAEF
:10CA500003F1914041EA0C013EBFC2F1200C20FAE3
:10CA60000CF319439040524240F2FD33D21A01EBCD
:10CA700003517047002270474FF4001C1CEB410F1C
:10CA800094BF1CEB430F09E041EA030C50EA4C0C45
:10CA900052EA0C0C03D2994208BF9042704714BF6F
:10CAA0008B42824270470100002070474FF4001C07
:10CAB0001CEB410F94BF1CEB430F09E041EA030C50
:10CAC00050EA4C0C52EA0C0C03D28B4208BF824253
:10CAD000704714BF99429042704701000020704790
:10CAE000124254D440F2FF7C1CEA11530FD063452C
:10CAF00031D09B1863453CBF01EB0251704701F0F8
:10CB0000004141EA0C51002000F068BC704750EA37
:10CB1000410320D001F0004C91EA0C011CD0B1FA85
:10CB200081F30B3B9A420DD9D21A994051EA0C017C
:10CB3000C3F1200C20FA0CFC61449840531C40F2D5
:10CB4000FF7CD7E7914041EA0C01C2F1200C20FAAA
:10CB50000CF3194390407047B0FA80F31533202B43
:10CB6000E0D3202AEED3203A203B9A4209D9D21AA8
:10CB700000FA03F141EA0C010020531C40F2FF7C53
:10CB8000B8E700FA02F141EA0C0100207047524276
:10CB900040F2FF7C1CEA11530DD06345DBD0B2EBB1
:10CBA000030C3CBFA1EB025170470CF1010221EADA
:10CBB000035141F4801150EA410CCCD001F0004CFB
:10CBC000352A27DC30B481EA0C01B2F1200309DAFE
:10CBD000C2F12003044601FA03F5D0402843D140B6
:10CBE0009C400CE0C3F12002450020FA03F418BF7A
:10CBF00044F0010421FA03F091400C43002174F148
:10CC0000004550F1000051EB0C01244230BC7FF490
:10CC10007BAF70476146002076E701000020704737
:10CC2000C1F30A5340F2FE329B1A14DDD3F1200304
:10CC30004FEAE17208DDC90241EA505141F000407B
:10CC4000D84080185040704703F2E13010B1D24311
:10CC500082F00040704700207047010000207047BC
:10CC6000C11768B14840401AB0FA80F29040D21C17
:10CC7000C907C2F5846241EA025202EBD0214005A5
:10CC8000704701000020704770B44FF0004591EAF2
:10CC9000030F40F1B7836B40841A71EB030603D294
:10CCA000001BB141121973414FF4001C1CEB410FE2
:10CCB00034BF7CEB430442E00C0DA4EB1356352E3D
:10CCC0004FDC45EAC323DB0A45EAC121C912B6F1AC
:10CCD00020050DDD63FA05F6EB4086EA03051242F6
:10CCE00018BF45F00105C01851F100010CD213E046
:10CCF00062FA06F5F2405540F3415A40B340F34022
:10CD00005A408018594107D349085FEA30005FEA6A
:10CD1000350528BF45F0010501F58011420875F180
:10CD2000004250F1000041EB04514E0016F5001F87
:10CD300070BC38BF70470020090D090570471CEB17
:10CD4000410F10D252EA43060BD0BCEB410F05D87D
:10CD50000C0DAB43661E342EB6DD02E0AB438018EB
:10CD6000594170BC704770BC70470100002070478B
:10CD7000F0B540F2FF7581EA030C0CF0004C15EAA7
:10CD800011541DBF15EA1357AC42AF42E5E0BC4158
:10CD9000C1F31301C3F31303801A994143F48013C1
:10CDA00004D2641E4000494180185941C90241EA39
:10CDB0005051B1FBF3F603FB1611A2FB0675D7EB3E
:10CDC000C020A94102D2761E80185941C90241EA09
:10CDD0005051B1FBF3FE03FB1E11A2FB0E75D7EB06
:10CDE000C020A94103D2AEF1010E80185941890239
:10CDF00041EA9051760546EA8E2EB1FBF3F603FB2D
:10CE00001611A2FB0675D7EB8020A94102D2761E2F
:10CE100080185941C90241EA50514EEA060EB1FB51
:10CE2000F3F603FB1611A2FB0675D7EBC020A94150
:10CE300002D2761E80185941C90241EA5051B1FB15
:10CE4000F3F703FB1711A2FB0735D3EBC020A94171
:10CE500067F100070CBF004247F0010766F3D527D2
:10CE60004FEA1E31B80814F5806412DDBD0775F174
:10CE7000004250EB0E5051EB045111F5801F5CBF86
:10CE800041EA0C01F0BD4CF07F6141F0E04100202F
:10CE9000F0BDBD076D0840EA0E5041F48011D4F199
:10CEA0000104B4F120060ADAC4F120060200E040D1
:10CEB00001FA06F3E1401843B24015430EE0342C6A
:10CEC00013DCC6F1200445EA40056D0820FA06F29D
:10CED000154321FA06F0A1400D43002175F10042EF
:10CEE00050F1000051EB0C01F0BD00205FEA0C0195
:10CEF000F0BDCFB992185B41B3FA83F704BFB2FA21
:10CF000082F6BF190B3FB7F120062FBF02FA06F3D6
:10CF1000BB40C7F1200622FA06F638BF3343BA40B9
:10CF20001CB1E419641E33E77F4231F00041B1FACD
:10CF300081F404BFB0FA80F6A4190B3CB4F12006CA
:10CF40002FBF00FA06F1A140C4F1200620FA06F630
:10CF500038BF3143A0403C1B1AE7AC421ABF05EA78
:10CF60001357AF4212E050EA41061CBF52EA430693
:10CF7000BFE750EA4107304661461CBF41EA055110
:10CF8000F0BD52EA430C08BFC143F0BD00204FF48E
:10CF9000001616EB410F98BF16EB430F08BF16EBB8
:10CFA000410F24BFC14305E016EB430F0CBF6146A0
:10CFB0004CEA0551F0BD010000207047400D4918B2
:10CFC00040EA81200CD2490DA1F58061491C40F056
:10CFD000004005DBD1F11F0154BFC840C0177047A6
:10CFE00000207047014648B1B0FA80F18840C91C62
:10CFF000C1F58461090501EBD021400570470100AE
:10D0000000207047B0B581EA030C0CF0004C40F2F0
:10D01000FF7515EA11541DBF15EA1357AC42AF4214
:10D0200039E0E41923EA455343F48013C90241F07F
:10D03000004141EA505EC7021100A7FB020200282E
:10D040004FF00000EEFB01204FF00001E3FB072151
:10D0500018BF42F00102401800214941E3FB0E01D4
:10D06000A4F580640F0302D252004041494154F1BB
:10D0700001046CDD470872F1004250F1000051EBF1
:10D080000451A1F580115CBF41EA0C01B0BD4CEA2E
:10D0900005510020B0BD05EA1357AC4214BFAF42A2
:10D0A00041E050EA410E1CBF52EA430E02E06146E5
:10D0B0000020B0BD24423C441BD15FEA070EF6D0ED
:10D0C000090302BF01460020AEF1140EB1FA81F748
:10D0D000AEEB070401FA07FE0C37C7F1200100FA96
:10D0E00007F7C8404EEA000E23EA455343F4801385
:10D0F000A2E733F00043B3FA83F704BFB2FA82FE2B
:10D1000077440B3FE41BB7F1200E2FBF02FA0EF35A
:10D11000BB40C7F1200E22FA0EFE38BF43EA0E03D1
:10D12000BA40641C82E750EA410E14BF52EA430E33
:10D130006FF000014FF4001717EB430F8ABF194639
:10D1400017EB410FB5E74CEA05510020B0BDD4F113
:10D150000104B4F120070FDAC4F12007520828BFF8
:10D1600042F0010210FA07F501FA07F7E1BF2A437E
:10D17000E0403843E1400FE0352C98DCC7F1200453
:10D1800052EA400220FA07F218BF42F0010231FAD7
:10D1900007F0A1400A43002172F1004250F1000063
:10D1A00051EB0C01B0BD010000207047BBBBE1B1E9
:10D1B000B2F5803F80F07E80022A1ED98C46B1FBFA
:10D1C000F2F102FB11C31B0443EA1043B3FBF2FC70
:10D1D00002FB1C3380B240EA0343B3FBF2F002FBD4
:10D1E000103240EA0C4000237047022A05D98446D9
:10D1F000B0FBF2F002FB10C270474AB105D100F05B
:10D20000010249085FEA300070470022002370479E
:10D2100000F0B0B90B0002000021002070479042DE
:10D2200071EB030CF6D3B3F5803F2FD2F0B5B3FA10
:10D2300083F7B1FA81F4A7F10F0E3D1B5340CEF1F5
:10D24000200602FA0EF2F3415340B5F10F0746D81B
:10D250000F3C2C444140C4F12006A040F141414024
:10D26000B1FBF3F603FB1611A2FB0645001BA94117
:10D2700002D2761E8018594180EA010221FA0EF38B
:10D2800062FA0EF200215A403046F0BD30B4B1FBD4
:10D29000F3FC03FB1C11A2FB0C45001BA94103D2AC
:10D2A000ACF1010C8018594130BC02460B46604677
:10D2B00000217047B2F1807F65D3F0B5B2FA82F7F2
:10D2C000B1FA81F4C7F10F063D1B22FA06F307F10C
:10D2D000110EF24120355A40B5F10F07B8D941403F
:10D2E000C4F12006A040F1414140B1FBF3FC03FB37
:10D2F0001C11A2FB0C45001BA94103D2BCF1010C7F
:10D30000801859410F2F12D30F3FC90341EA5041F2
:10D31000B1FBF3F603FB1611A2FB0645D4EBC030BC
:10D32000A94102D2761E8018594146EACC3C07B387
:10D330004140C7F12006B840F1414140B1FBF3F64E
:10D3400003FB1611A2FB0645001BA94102D2761E63
:10D350008018594180EA010221FA0EF3C7F1200436
:10D3600062FA0EF20CFA07F05A402CFA04F130433C
:10D37000F0BD80EA010221FA0EF3002162FA0EF2FA
:10D3800060465A40F0BD8C46B1FBF2F102FB11C37E
:10D390001B0243EA1063B3FBF2FC02FB1C331B02CB
:10D3A0004CEA002043EA1063B3FBF2FC02FB1C339F
:10D3B0001B024CEA002043EA1063B3FBF2FC02FBC1
:10D3C0001C331B024CEA002043EA1063B3FBF2FC5F
:10D3D00002FB1C324CEA0020002370470FB581B0DD
:10D3E0000020C04605492222425001B00FBD80B541
:10D3F0000020C0460249084402BD00006C300020F5
:10D400006C300020841A71EB030604D26E40001BBE
:10D41000B141121973414FF4001C1CEB410F34BF92
:10D420007CEB430683E00C0DA4EB1356362E00F381
:10D430007C80012E45EAC32341DC43EA525312BFEC
:10D44000D20292025B08240545EAC12141EA50510B
:10D45000D2EBC020994125D407D1B0FA80F610FA5A
:10D4600006F162D00020203608E0B1FA81F6B14022
:10D47000C6F1200220FA02F21143B0404FEAF474E0
:10D48000B4EB465434F001064FEA74040AD8D6F5DA
:10D490000016760D04F00044F04061FA06F25040A8
:10D4A000F1404840C00A40EA415021F0004128BF05
:10D4B0005FEA500550F1000044EBD12135E0DB0A72
:10D4C00045EAC121C90AB6F120050EDD42EA024251
:10D4D000120CC5F1200603FA06F6EB4042EA0605F7
:10D4E0006D42984161F100010DE062FA06F5F240EB
:10D4F000554063FA06FC82EA0C02F3405A406D4242
:10D50000904161EB030111F4801F05D1641E620597
:10D5100002D06D004041494121F48011430875F16A
:10D52000004350F1000041EB045170BC70471CEB0C
:10D53000410F15D223F0004352EA43060BD04FEAC5
:10D540004C0CBCEB410F04D80C0D661E342EB7DD1D
:10D55000EBE7801A994150EA410608BF0021E4E751
:10D5600008BF1CEB430F28BF6FF00001DDE701008F
:10D570000020704770470100002070470000000045
:10D5800018EB0408010000000100000028EB04086B
:10D59000030000000200000038EB04080300000054
:10D5A0000300000048EB0408030000000400000032
:10D5B00058EB0408030000000500000068EB0408B5
:10D5C000030000000600000078EB040803000000E0
:10D5D0000700000088EB04080300000008000000BA
:10D5E00098EB04080300000009000000A8EB040801
:10D5F000010000000A000000B8EB0408050000006C
:10D600000B000000C8EB0408030000000C00000041
:10D6100044A704080C0000000D000000D8EB04082B
:10D62000050000000E000000E8EB04080300000005
:10D630000F000000F8EB04080300000010000000D9
:10D6400008EC0408030000001100000018EC0408B6
:10D65000030000001200000028EC04080300000092
:10D660001300000038EC0408030000001400000060
:10D6700048EC0408030000001500000058EC040802
:10D68000030000001600000068EC0408030000001E
:10D690001700000078EC04080300000018000000E8
:10D6A00088EC0408030000001900000098EC04084E
:10D6B000030000001A000000A8EC040803000000AA
:10D6C0001B000000B8EC0408030000001C00000070
:10D6D000C8EC0408030000001D000000D8EC04089A
:10D6E000030000001E000000E8EC04080300000036
:10D6F0001F000000F8EC04080300000020000000F8
:10D7000008ED0408040000002100000018ED0408E2
:10D71000040000002200000028ED040806000000BC
:10D720002300000038ED0408080000002400000079
:10D7300048ED0408080000002500000064A7040864
:10D740000D0000002600000084A704080A00000065
:10D750002700000058ED0408040000002800000025
:10D7600068ED0408050000002900000078ED0408B9
:10D77000050000002A00000088ED040806000000F3
:10D780002B00000098ED0408080000002C000000A9
:10D79000A8ED0408040000002D000000B8ED040806
:10D7A000050000002E000000C8ED04080400000081
:10D7B0002F000000D8ED0408050000003000000034
:10D7C000E8ED04080800000031000000F8ED04084E
:10D7D000080000003200000008EE04080800000005
:10D7E0003300000018EE04080800000034000000B8
:10D7F00028EE0408080000003500000038EE040898
:10D80000080000003600000048EE04080800000090
:10D810003700000058EE040808000000380000003F
:10D8200068EE0408080000003900000078EE0408E3
:10D83000080000003A00000088EE04080400000020
:10D840003B00000098EE0408040000003C000000CB
:10D85000A8EE0408080000003D000000B8EE04082F
:10D86000080000003E000000C8EE040808000000A8
:10D870003F000000D8EE040808000000400000004F
:10D88000A4A704080F00000041000000C4A704087A
:10D890000A00000042000000E4A704080A0000009B
:10D8A0004300000004A804080A000000440000002F
:10D8B00024A804080B0000004500000044A8040848
:10D8C0000A0000004600000064A8040809000000E7
:10D8D0004700000084A804080B0000004800000076
:10D8E000A4A804080B00000049000000E8EE0408AA
:10D8F000040000004A000000F8EE040808000000E0
:10D900004B000000C4A80408090000004C000000FF
:10D9100008EF0408080000004D000000E4A8040817
:10D920000C0000004E00000004A904080B000000D9
:10D930004F00000024A904080B0000005000000064
:10D9400044A904080A0000005100000064A904086A
:10D950000B0000005200000084A904080B00000026
:10D9600053000000A4A904080A00000054000000AD
:10D97000C4A904080A00000055000000E4A9040836
:10D980000B0000005600000004AA04080A00000072
:10D990005700000024AA04080E00000058000000F0
:10D9A00044AA0408090000005900000064AA040801
:10D9B0000A0000005A00000084AA040809000000C0
:10D9C0005B00000018EF0408050000005C00000088
:10D9D00028EF0408050000005D00000038EF04088F
:10D9E000050000005E00000048EF04080800000089
:10D9F0005F00000058EF040808000000600000000D
:10DA000068EF04080500000061000000A4AA0408F3
:10DA10000900000062000000C4AA04080900000018
:10DA20006300000078EF04080800000064000000B4
:10DA3000E4AA0408090000006500000004AB040823
:10DA4000090000006600000088EF040804000000E0
:10DA50006700000024AB0408090000006800000013
:10DA600098EF04080800000069000000A8EF04080F
:10DA7000040000006A000000B8EF04080400000081
:10DA80006B000000C8EF0408080000006C000000F4
:10DA9000D8EF0408040000006D00000044AB040847
:10DAA0000C0000006E000000E8EF04080800000011
:10DAB0006F00000064AB0408090000007000000063
:10DAC00084AB04080900000071000000A4AB040846
:10DAD0000900000072000000F8EF040805000000D3
