:020000040800F2
:10800000A855002035AD0408255704082757040853
:10801000295704082B5704082D57040800000000B6
:108020000000000000000000000000002F570408BE
:10803000315704080000000033570408355704087E
:10804000E1C20408E5C20408E9C20408EDC204085C
:10805000F1C20408F5C20408F9C20408FDC204080C
:1080600001C3040805C3040809C304080DC30408B8
:1080700011C3040815C3040819C304081DC3040868
:1080800021C3040825C3040829C304082DC3040818
:1080900031C3040835C3040839C304083DC30408C8
:1080A00041C3040845C3040849C304084DC3040878
:1080B00051C3040855C3040859C304085DC3040828
:1080C00061C3040865C3040869C304086DC30408D8
:1080D00071C30408DDED03085D9D020875C3040843
:1080E00079C304087DC3040881C3040885C3040858
:1080F00089C304088DC3040891C3040895C3040808
:1081000099C304089DC30408A1C30408A5C30408B7
:10811000A9C30408ADC30408095704081F9D020839
:10812000B1C30408B5C30408B9C30408BDC3040837
:10813000C1C30408C5C30408C9C30408CDC30408E7
:10814000D1C30408D5C30408D9C30408DDC3040897
:10815000E1C30408E5C30408E9C30408EDC3040847
:10816000F1C30408F5C30408F9C30408FDC30408F7
:1081700001C4040805C4040809C404080DC40408A3
:1081800011C4040815C40408012003F0A9BA30B4CE
:10819000002513E050F8042BD30744BFA9F10103D5
:1081A0009A18091F042942F8045BFAD213468C0777
:1081B00044BF15809B1CC90748BF1D7050F8041BA5
:1081C0000029E7D130BC704710B50400200020F032
:1081D000A2FE200010BD10B5040020681030C0467B
:1081E00010BD10B5040020000D30C04610BD10B504
:1081F000040020000830C04610BD00000000000050
:10820000AAAAAAAABBBBCCCCA56C0000B0A80180CE
:10821000AF6C0000701A0400C56D0000D4D70300D5
:10822000F96F000020FB03004F700000B0AF028028
:10823000A1710000B0AE058049730000B8C303000F
:1082400065760000B0AA0180997600000100000068
:108250009B760000E0FB0300D1760000B0B0A88060
:10826000D9760000B0AE03804B770000B0AB008041
:1082700089770000B0AA0180AF770000B0A9008024
:1082800001780000C01D0400FD780000008400801B
:1082900075790000D0150400E1790000B0AE0180CE
:1082A000937A0000B0B0AA80D77A0000B0A900800D
:1082B0009F7B0000B0AA01802B7C0000B0A9008049
:1082C0008F7D0000B0AD0080117E0000B0A801805D
:1082D0001D7E0000B0AA058051800000B0A900807A
:1082E0002581000098FB030045810000A8FB0300E6
:1082F00065810000B8FB030085810000C8FB030016
:10830000A5810000D8FB0300C5810000281E0400E1
:10831000DF810000301E0400F9810000381E0400D7
:1083200071830000B0B0AA80DB830000B0A9008098
:10833000FD840000B0B0AC805F850000B0B0AA80C2
:10834000E3850000B0B0A88087860000B0B0AE80A2
:10835000DB8700000100000061880000B0B0A88049
:10836000E1880000080904000D890000B0B0AA806F
:10837000C18A0000B0B0A8808B8C0000B0AA018038
:10838000518D0000980304003B8E0000B0B0AA801D
:10839000378F0000B0AF0280998F00006C08040096
:1083A000CB92000050080400ED940000B0B0AC8007
:1083B000BD950000601D0400B1960000681D04001A
:1083C00051980000B0B0A8805D980000B0AF0C805C
:1083D0008D9A0000B0AC0980CF9B0000B0A900804E
:1083E000F19B0000B0B0A8806D9C0000B0AB008095
:1083F0006B9D0000B0AF0080C5A000002008040005
:1084000099A20000B0AE0180AFA3000001000000FF
:10841000DBA80000B0A9008001A90000B0AA01807B
:108420002DA90000B0A9008035AD0000B0AE0180DC
:10843000F7AD0000B0AB00805FAE0000B0A90080D7
:1084400095AF0000C01B0400FDAF0000B0B0A880D5
:1084500037B00000B0A90080A9B00000B0AB008028
:108460005DB10000B0AA0180E5B10000B0B0AA8003
:1084700041B30000B0A803805FB30000B0B0A88093
:1084800067B300005018040097B3000058180400A8
:10849000C1B3000038DD0300D5B40000B0AA0180EC
:1084A00037B500007C3C0300F5BA000038B2030089
:1084B0000DBC00004018040081BC000010F5030052
:1084C00081BD00000100000083BD0000FCD403005A
:1084D000FBBD000058DC0300FFBE0000B0AC05800F
:1084E000CDBF000034D50300F5BF0000F06E0300DF
:1084F000BFC20000B0A90080E1C20000008400807B
:10850000EFC20000B0AB008051C300007819040036
:108510006BC30000B0AB0080F5C300006C780300B3
:10852000B1C4000000840080B1C4000098B303000F
:1085300095C50000A4BB030039C600001814040050
:1085400053C6000008DC030025C7000048C0030034
:10855000EFC7000070C00300C5C90000B0B0A8801C
:10856000E9C90000B0A8018015CA000090F7030017
:108570006BCA0000B0A8018075CA0000B0A90480D1
:10858000B5CA000090F70300FBCA0000B0B0A88095
:1085900001CB000098F7030045CB000044B4030072
:1085A00021CC0000010000000DCD0000E816040001
:1085B00059CD000080120400ABCD00006C81030097
:1085C000B1CE0000B0A80180BBCE0000081A0400A4
:1085D00041CF0000B0AA018065CF0000B0B0A880F4
:1085E00089CF0000B0A8018091CF0000B0B0AA8070
:1085F00005D0000028F8030081D00000B0B0A880AA
:10860000ADD00000B0A90080C1D0000098F70300F1
:1086100025D10000B0B0A88069D10000B0AB0280C5
:108620000FD20000B0B0AA80BFD20000B0AE01806F
:1086300075D30000B0B0A8808FD30000B0AC038029
:108640002FD50000B0AB0080C9D50000B0B0A88025
:10865000D5D50000401A040043D60000B0A9008020
:1086600061D6000050F6030021D70000B8110400C5
:108670001DD80000B0A80180ABDA0000B0AD0680C4
:10868000F3DA0000B0AC078067DB000030F70300CE
:10869000BBDB0000B0AE0B8035DC000038F7030018
:1086A000B5DC000020120400C5DC0000B0AA058083
:1086B000CDDD0000B0A9008021DE0000B0AA01805D
:1086C000D1DF0000B0A9028001E00000B0A8018065
:1086D0000DE00000B0AA058091E00000B0A8038082
:1086E000AFE00000B0B0A880B7E00000681604005A
:1086F000E7E000007016040011E1000030DB030029
:1087000025E20000B0AA018085E2000008740300A1
:1087100069E4000038DB0300E7E4000058160400B9
:108720005BE50000E0F20300E5E50000B0B0A880E2
:10873000EDE50000D0830300D5E60000B0B0A880CE
:10874000E3E600000016040059E70000C0DA030069
:10875000F9E70000B0B0A88001E800002816040086
:1087600077E8000040670300F1EB0000B0B0A8809C
:1087700021EC0000E8F5030015ED0000CCB9030082
:10878000F5ED0000C0AE030051EF0000B0B0A880CE
:108790007BEF0000E0160400F1EF0000E4B90300F5
:1087A000D1F0000080B0030039F20000B0B0A88022
:1087B00041F20000E882030033F30000B0B0A8806B
:1087C00041F30000B0F5030005F400006815040053
:1087D00049F4000050BE0300F5F40000B0A8038087
:1087E00027F50000EC830300B5F50000B0B0A880C9
:1087F000BDF50000D0150400E7F50000D815040011
:1088000007F6000088F50300E9F60000D81504001B
:1088100029F70000E01504009FF70000B0AA0180CE
:10882000FFF700002071030049FA0000D81504008A
:1088300045FB0000B0A8038063FB0000B0B0A88037
:108840006BFB0000601404009BFB00006814040034
:10885000C5FB000058D90300D9FC0000B0AA018074
:108860003BFD0000E8400300A301010028AE030027
:10887000BB020100501404002F03010034F1030077
:10888000F9030100B0A8038017040100B0B0A8806C
:108890001F040100701404004F0401007814040048
:1088A0007904010048D903008D050100B0AA0180B8
:1088B000EF05010088710300D307010078AE0300C3
:1088C000EB080100601404005F0901001CF10300C3
:1088D000E9090100B0A80380070A0100B0B0A88030
:1088E0000F0A0100601504003F0A0100681504002A
:1088F000690A010098D903007D0B0100B0AA01802C
:10890000DF0B010074470300F10F0100C8AE030044
:1089100009110100501504008511010020F1030028
:1089200039120100B0A8038057120100B0B0A8802E
:108930005F120100601404008F120100681404002B
:10894000B912010028D90300CD130100B0AA01809B
:108950002F140100D46C0300B316010028AE0300ED
:10896000CB170100501404003F180100B4F00300BD
:10897000D9180100B0A9008011190100B0AA058022
:108980009F190100B0AA0180C1190100CC020400A6
:10899000DF19010010100400011A01001810040072
:1089A000231A010020100400451A010028100400B9
:1089B000751A0100A0100400991A0100B0A80180E6
:1089C000E51A010001000000E71A010000840080A0
:1089D000E71A0100B0AA05802D1B0100B0A9008094
:1089E000551B010000F30300EB1B010024B703003B
:1089F0008D1D0100B0AA0180BF1F0100B0B0A8808A
:108A0000D31F0100B0B0AA80DB1F0100B0B0A88066
:108A1000FB1F0100B0A900806D200100B0B0A8804C
:108A200009220100B0AA018069220100B0AB0A80CE
:108A300093220100B0AB0680B5220100B0AA0580E8
:108A40006F240100B0AB00801B250100B0AA01809B
:108A50002D250100B0B0AC8033260100B0AA018002
:108A600081260100B0AB008093270100B0A90080EF
:108A70000F280100B0B0A8804F280100B0B0AC8032
:108A800067290100B0B0AA802B2A0100B0B0AE80E7
:108A90006F2B0100B0AB0080F52D0100B0B0A880B5
:108AA000712E0100B0B0AE80F52E010020F203005F
:108AB000752F0100900E0400FF2F010010D8030055
:108AC000EB300100B0A80180F530010054AF030085
:108AD00015320100001604003732010008160400A8
:108AE0009D32010080F303003D33010002A80280A3
:108AF00091330100B0B0A880B1330100B0A900806B
:108B0000B7330100B0B0A880F1330100B0AB0280F0
:108B100097340100B0AB008049350100B0AE018050
:108B2000FF350100B0B0A88019360100B0AB02805B
:108B3000D9360100B0AB008073370100B0B0A88017
:108B400083370100C0F203000D380100010000006E
:108B500011380100201104005938010010D603001B
:108B60008739010028D60300653A0100982D0300DB
:108B70000B3D0100600A0400773D0100B0AF0880A2
:108B8000713F0100600A0400414001006C41030094
:108B9000C1410100201504002D420100B0AF088042
:108BA000A94301002015040051440100B0B0AA807F
:108BB00063440100ECAE03009D440100B0B0A88006
:108BC000B5440100DCB403009B450100B002A9805C
:108BD000C3450100B0AD00805F460100B0A9008030
:108BE000B946010030120400DB46010038120400CF
:108BF000FD4601004012040017480100B0B0AE80ED
:108C000065480100B0AA018077480100B0B0A88093
:108C10007B480100B0B0AA8095480100B0B0A880A0
:108C2000B3480100B0A80180E5480100B0AA018066
:108C300045490100B0AA0580C5490100B0A90080DE
:108C4000094A0100B0A80180154A0100B0AA0180BC
:108C5000F94A0100B0AA0580534C0100B0B0A880C9
:108C6000AB4E0100B0B0AC80895101007812040015
:108C7000A951010080120400C951010088120400AA
:108C8000E9510100901204000952010098120400F9
:108C900029520100A012040049520100147403007B
:108CA000B1520100B0AB068051530100981204008C
:108CB000C1530100B0AA05800954010098120400B4
:108CC00019540100B0B0AE8001550100B0AB048072
:108CD000A5550100B0AB00803B560100B0B0AA80A2
:108CE000B5560100B0B0AC8053570100B0B0AA80B7
:108CF0005B5A0100CCFB0300BD5A0100ECFB0300F2
:108D0000975E0100D0FB0300F95E0100F0FB030059
:108D10003B62010098FB030077620100B0B0AA80BB
:108D2000AD670100B0AF02800F68010064FE030070
:108D3000476B0100B0B0AC80616C0100B813040057
:108D40008B6C0100B0A90080CD6C0100F8FE03001F
:108D5000776E0100B0AB0280F56E0100B0B0AA8062
:108D6000196F0100A008040025700100B0B0AA80AE
:108D70007F700100100A0400AF700100B0B0A8803D
:108D8000B5700100700A04002771010000840080A2
:108D900039720100B0A90A807F720100B0AA018077
:108DA000DF720100B0AB0080B5750100D0FD03009B
:108DB0003576010098FB030075760100B0B0AA80FB
:108DC000A3760100B0AB0080C7760100B0B0AA80E6
:108DD000D5760100B0B0A8808B770100B0B0AE802E
:108DE000CD770100B0A90080E5770100B0B0A88080
:108DF000E7790100B0AA0180717A0100B0B0AE80BD
:108E0000337D0100E8FB0300BF7F0100CCFB0300C2
:108E1000EF820100B0B0AA80D9840100581204008A
:108E200023850100B0B0A8803785010058120400E6
:108E300073850100B0AC0180E5850100B0B0AA8067
:108E40005586010002A802802587010098110400C0
:108E500057870100A011040091870100B0AB00808A
:108E6000E9870100B0B0AA806588010002A80280ED
:108E7000BB880100B0AB0280DB880100B0A9008094
:108E8000E7880100B0B0A880F9880100B0A900808F
:108E900019890100C011040063890100B0B0A880E5
:108EA00077890100C0110400B389010000D40300D8
:108EB000F38A0100B0B0AA806F8C0100C8100400D2
:108EC000B98C0100B0AA0180198D0100B002A980FF
:108ED000458D0100B0A80980758D0100B0A90680FC
:108EE000A18D010068EF0300278E0100B0A900806A
:108EF000398E01006CFA03009B8E010004FB030015
:108F0000A3910100C0FA03000592010030FB0300A9
:108F10000D95010088FA03006F9501000CFB03001A
:108F2000B3980100B0AF0280AF9A0100B0B0AE803C
:108F30000F9C0100B0A90080999C0100B0B0A880EE
:108F4000FD9C0100B0B0AE80BD9D0100B0B0AA8014
:108F50004F9E0100B0AB0080F79E0100B0AE0180D3
:108F6000459F0100B0AF00809FA20100A4F903005B
:108F7000C7A40100B0AB00806FA50100B0AE0180B6
:108F8000BDA50100B0AF008009A9010098F9030058
:108F9000CBAA0100B0AA018017AB0100B0B0AA8033
:108FA0008BAC0100B0B0A880F5AC0100B0AB008084
:108FB000F3AD0100B0AF00804DB10100E8FB03004C
:108FC00069B30100B0B0AA80ADB30100B0A90080C0
:108FD000B5B30100B0AB008063B40100B0A801805C
:108FE00095B40100B0AB0080ABB40100B0B0AA8072
:108FF0003BB50100B0B0AC808BB5010001000000B2
:10900000A1B50100B0B0A880A5B50100B0B0AA809C
:10901000EBB60100B0B0A880EFB60100B0B0AA80F6
:1090200019B7010074F80300F5B80100B0B0A880CA
:1090300037B90100B0B0AA809DB90100B0ED0300BE
:1090400005BA0100B0B0AC803DBA0100B0B0AA8052
:10905000B3BB01005006040037C00100B0AE018070
:10906000A7C00100B0AB0080BDC00100B0B0A880B7
:10907000F3C0010000F903003BC1010098F90300AF
:1090800043C40100B0B0A88047C40100B0B0AA80BA
:10909000C5C6010070FA030027C7010090FA03005B
:1090A0002FCA0100B0AB008071CA0100B0B0AA8025
:1090B0000BCE010028FA030005CF010034FA0300AB
:1090C00067CF010054FA030093D30100B0B0A88029
:1090D00097D30100B0B0AC804FD50100B0B0A880EC
:1090E00053D50100B0B0AC80FFD70100B0B0AE8066
:1090F00075D9010074FA0300A7D901005CE90300E7
:109100000BDA010070E9030091DA010084E9030041
:10911000DBDA0100C00D040043DB0100B0AC0180CC
:1091200039DC010002A8028051DC010018070400AC
:109130009BDC0100B0B0A880AFDC01001807040080
:1091400005DD0100B0B0A8800FDD0100B0AB0480E8
:109150005DDD0100B0B0AA80E5DD0100B0AB0080AC
:10916000B7DE0100B0B0A880BBDE0100B0B0AA80BD
:109170009FDF0100BCFA030005E00100B0AB0080F6
:10918000A1E00100B0AE0180EFE00100B0AF0080CF
:109190003BE40100BCF80300F1E50100B0AB008046
:1091A0008DE60100B0AE0180DBE60100B0AF0080CB
:1091B00027EA0100D8F80300DDEB0100B0AB008026
:1091C00079EC0100B0AE0180C7EC0100B0AF0080C7
:1091D00013F00100A4F80300DBF10100B0AF02803E
:1091E00031F50100B0A90080B1F50100B0AA0180FD
:1091F000EBF50100B0A9008011F60100D8090400C8
:1092000039F60100F00704006DF60100B0A90080F6
:109210009BF60100B0AE018079FA0100B0A9008090
:10922000A7FA0100B0AE01808FFE0100B0A9008056
:10923000B1FE0100B0B0AA803DFF0100B0AA0180DC
:1092400069FF0100B0A900801F040200B0B0AA802D
:1092500035040200B0AC01808D040200B0B0AA80D9
:109260009B040200B0AB0080AB050200B0B0AA8046
:10927000D9050200B0AB0080CD060200B0A8018085
:1092800029070200B0AB008061070200B0B0AA80DD
:1092900019090200B0AA018047090200B0A90A809A
:1092A0009B0B0200B0AB0080350C0200B0B0AA806E
:1092B000810C0200C4E603006B110200B0AE018015
:1092C000CB110200B0AC0180FD110200B0AA0180F8
:1092D00029120200B0AB0080D1120200B0B0AA8007
:1092E000FF120200B0AF00805716020078F70300AB
:1092F0000D180200B0AA01802D180200B0B0A8809D
:109300002B190200B0AB0080C7190200B0AE01807B
:10931000151A0200B0AF0080611D020038F803008A
:10932000171F020001000000AB1F0200B0B0AC80AC
:109330006B200200B0B0A88071260200B0AB0080A4
:109340008D270200B0AE0180DB270200B0AF0080A5
:10935000352B0200ECF703009D2D0200B0AA01801E
:10936000BD2D020050F703004D2F0200B0AA01806E
:109370006D2F02002CF70300B7320200B0A9008065
:1093800029340200B0AA0180E7340200B0B0AA80FC
:1093900015350200B0AB0080DF370200B0A90080B5
:1093A0000D380200B0AE0180533B0200B0A900802E
:1093B000813B0200B0AE0180A73E0200B0A9008050
:1093C000D53E0200B0AE01807D420200B0AB00800D
:1093D0002D430200B0A90080BF430200B80404007E
:1093E000B5440200B0A90080D9440200C8040400BA
:1093F000CF450200B0A90080F3450200A804040094
:1094000093460200B0A900801D480200B0B0AE80B3
:10941000D9480200B0A90280FD480200B0B0A8807F
:10942000014902000CF303005549020018F3030040
:10943000554D0200B0B0A8808B4D0200F8F3030038
:10944000D34D020004F4030015510200B0B0AA800D
:1094500057510200B0AC0180AD510200B0A90080AC
:109460001D5202008003040077580200B0B0AA80A9
:10947000175B0200200A0400695B0200B0A90280A9
:10948000B15B0200B0A90080F55B0200B0B0AA8019
:109490004B5F0200B0A90080595F0200B0AA0180B2
:1094A0001D600200B0A900804B600200B0AE0180D8
:1094B00091630200B0AB00801D64020050F3030012
:1094C00015650200B0AA018049650200B0AC0180B8
:1094D000AD650200B0A90080DB650200B0AE01807E
:1094E000056A0200B0A900806D6B02000100000057
:1094F00067780200B0A90080BD780200B0B0AA80F1
:109500008D7A0200B0B0A880C37A0200ACF60300E6
:109510000B7B0200B8F60300AB7E0200B0AC01800A
:10952000DD7E0200B0A90080017F0200B8040400C3
:10953000C57F0200B0A90080E97F02000805040091
:109540006B800200B0A900808F800200D804040064
:10955000D9810200B0A9008055820200B0AB008022
:10956000F9820200B0AA01804D830200B0AB0080F6
:1095700099830200B0AA0180ED830200B0AB0080A5
:1095800037840200B0B0A8807F840200B0A90080B8
:10959000F1840200B0AB0080D18502002CF50300FD
:1095A0000D860200B0AA01802D860200B0AB0080BB
:1095B000E1860200B0B0AA800F870200B0AF008041
:1095C000778A020094F10300218D0200B0AA018085
:1095D0004D8D0200B0AB0080F58D0200B0B0AA80C6
:1095E000238E0200B0AF00807B91020070F2030076
:1095F0004F930200B0A90080F3930200B0A902804B
:1096000025940200B0A900806F940200B0B0AA8037
:10961000BB94020080E303006D9B0200B0AA0180AE
:10962000919B020014F30300D59B0200B0A90080B7
:10963000719C0200D0030400299D0200B0A90080A3
:10964000539E0200800504003B9F0200B0A90080E9
:10965000E5A002006005040061A10200B0A900803D
:10966000D1A102004CF3030037A20200B0A9008090
:10967000A7A2020014F30300EFA20200B0AB008027
:10968000E5A50200B0AA018011A60200B0AB0080DF
:10969000B9A60200B0B0AA80E7A60200B0AF008071
:1096A0003FAA02003CF50300ADAC0200B0AB008065
:1096B000F9AC0200B0AA01804DAD0200B0AB008051
:1096C00099AD0200B0AA0180EDAD0200B0AB008000
:1096D00039AE0200B0AA018003AF0200A801040065
:1096E00049AF0200900104006DB00200B0A90080F3
:1096F000BDB00200B0B0AA80DDB40200B0A9008005
:1097000021B50200B0B0AA8061B80200B0A90A80F9
:1097100097B8020070F10300CDB80200B0AB008032
:109720004FB90200B0B0AA80ADBB0200B0AB008060
:10973000F3BB0200300204006BBC0200B0A9008041
:10974000DDBC0200B0AB008029BD0200B0AA0180E0
:109750009DBD020068F0030039C40200B0A900807A
:10976000DDC40200B0AB008029C50200B0AA0180B0
:109770006FC50200B0B0AA8025C70200B0A9008062
:1097800069C70200B0B0AA80C1CA02000802040082
:1097900009CB0200F001040051CB0200B0B0AA8056
:1097A00095CB0200B0A801802DCC0200B0A90080AA
:1097B000C9CC020040FE030063CE0200B0A90080C5
:1097C000FFCE0200B0FF0300A9CF0200B0B0AA8014
:1097D00015D10200D003040085D10200B0B0AA80E8
:1097E0009BD30200B0A9008037D402008807040090
:1097F000D1D40200B0A801802BD50200B0B0A8805F
:1098000075D50200B0AB0080BFD50200B0A90080C2
:10981000B9D60200B0AB008003D7020048FF0300B6
:1098200055D70200B0B0AA80BBD70200B80304002D
:10983000F5D70200B0B0AA8017D80200F8010400E2
:109840003FD80200D0010400E9D90200B0AB00808B
:1098500033DA02001007040077DA0200B0B0A88003
:1098600087DA0200B0B0AA80A1DA0200B0A90080B5
:1098700039DB020020FF030071DB0200E8FD03007A
:10988000CBDB020000FE0300F3DB0200E800040073
:1098900009DC0200B0A90080E3DC0200F806040045
:1098A0001DDD0200B0B0AA8041DD0200B0B0A8808A
:1098B000F9DD0200B0B0AA805DDE0200C8E303005B
:1098C000E9DE0200B0A90080F7DE0200B0B0AA8095
:1098D00059DF0200B0AA0180A5DF0200B0B0AA8063
:1098E00061E00200B0A9008033E10200B0B0A880BE
:1098F00087E10200B0A90080F7E10200010000004A
:10990000EBE80200B0AB0080DD1F0300B0A80180CF
:109910006D2A030001000000A12A0300B0B0A88056
:10992000B72A0300B0B0AA80B32B0300A8FE03003F
:10993000112E0300B0A90080472E03000084008090
:109940005B330300B0A90080ED380300B0AC0580A4
:109950004B390300407B0300933A0300B0AA018017
:10996000B53A030038E30300113B0300B0B0AC800C
:109970004D3C0300B0AA0180413D0300B0B0AA8075
:10998000B13D0300B0AB0080093E0300B0B0A88039
:10999000CF3E030014EE0300913F0300B0B0AA8055
:1099A0007B40030040EE0300D3400300B0AB0080D7
:1099B000E9400300C0FC03004D410300B0A9008052
:1099C000AF410300B0AC0180F9410300B0A90080B1
:1099D00025420300B0AA038055420300B0AB0080CB
:1099E0008B4203009CED0300BD420300B0B0AA808F
:1099F000E942030060FC030015430300010000007E
:109A000089440300F09B03003F450300A8FC0300CA
:109A1000ED45030000840080ED450300B0AA0180FD
:109A200021460300E8C603006F46030068ED03000B
:109A30006D470300B0A9008059480300B0B0A8806A
:109A4000C1480300B0AB008057490300ACED0300F0
:109A500087490300B0AC0180CB490300B0B0AC80B3
:109A6000AB4A0300B0A90280C54A0300B4ED03006D
:109A70001F4C0300F8EC0300494C0300B0A9008020
:109A8000514C0300010000000B4D030044ED0300A6
:109A9000534D0300B0AB0080BF4D0300B0B0AA80AF
:109AA000FB4D0300F0FB0300234E030098FB030073
:109AB000995603000100000005620300B070030026
:109AC000C563030001000000B3640300A4ED0300BC
:109AD0003D650300B0B0A880F966030001000000F6
:109AE00055670300B0AB008041680300010000002F
:109AF0009D680300B0AB008089690300010000008D
:109B0000E5690300B0AB0080D16A030001000000EA
:109B10002D6B0300B0AB00805F6F030001000000FD
:109B200079710300FCC00300197A0300B0AC018016
:109B3000717A0300B0A90080EB7A0300B0AB00801B
:109B4000A17B0300B0AC0180F97B0300B0A90080C9
:109B5000737C0300B0AB0080257D0300B0AC0180B6
:109B60007D7D0300B0A90080F77D0300B0AB0080CD
:109B7000A97E0300B0AC0180017F0300B0A9008082
:109B80007B7F0300B0AB008031800300B0AC01806C
:109B900089800300B0A9008003810300B0AB00807E
:109BA000B9810300B0AC018011820300B0A900802C
:109BB0008B820300B0AB008041830300B0AC018016
:109BC00099830300B0A9008013840300B0AB008028
:109BD000C9840300B0AC018021850300B0A90080D6
:109BE0009B850300B0AB008051860300B0AC0180C0
:109BF000A9860300B0A9008023870300B0AB0080D2
:109C0000D9870300B0AC018031880300B0A900807F
:109C1000AB880300B0AB008061890300B0AC018069
:109C2000B9890300B0A90080338A0300B0AB00807B
:109C3000E98A0300B0AC0180418B0300B0A9008029
:109C4000BB8B0300B0AB0080718C0300B0AC018013
:109C5000C98C0300B0A90080438D0300B0AB008025
:109C6000F98D0300B0AC0180518E0300B0A90080D3
:109C7000CB8E0300B0AB0080818F0300B0AC0180BD
:109C8000D98F0300B0A9008053900300B0AB0080CF
:109C900005910300B0AC01805D910300B0A9008084
:109CA000D7910300B0AB008089920300B0AC018073
:109CB000E1920300B0A900805B930300B0AB008089
:109CC0000D940300B0AC018065940300B0A900803E
:109CD000DF940300B0AB008091950300B0AC01802D
:109CE000E9950300B0A9008063960300B0AB008043
:109CF00015970300B0AC01806D970300B0A90080F8
:109D0000E7970300B0AB00809998030001000000C2
:109D1000519D0300B0B0AA804DA3030040DC0300B6
:109D2000A9A70300B0AD0080DFA70300B0B0AC80EE
:109D3000D9AA0300B0AD008001AB0300B0B0AC8085
:109D4000AFAB0300B0AD0080D7AB0300B0B0AC80C8
:109D500001BA0300B0B0A8803DBB0300B0AB0280E5
:109D60003DBC030048DD0300D9BC030058F90300E3
:109D7000F9BC030060F9030019BD030088FA030071
:109D800039BD0300E0FC030059BD030068FE030079
:109D90001DD40300B0B0AA8035D40300B0AB00805E
:109DA00059D40300B0B0AA8089D40300B0AB0080BE
:109DB000ADD40300B0B0AA80FBD40300B0AB0080E8
:109DC0001FD50300B0B0AA806DD50300B0AB0080F2
:109DD00091D50300B0B0AA80DFD50300B0AB0080FE
:109DE00003D60300B0B0AA8051D60300B0AB008008
:109DF00075D60300B0B0AA80C3D60300B0AB008014
:109E0000E7D60300B0B0AA8035D70300B0AB00801E
:109E100059D70300B0B0AA80A7D70300B0AB008029
:109E2000CBD70300B0B0AA80FBD70300B0AB008053
:109E30001FD80300B0B0AA804FD80300B0AB008099
:109E400073D80300B0B0AA80A3D80300B0AB0080E1
:109E5000C7D80300B0B0AA80F7D80300B0AB008029
:109E60001BD90300B0B0AA804BD90300B0AB00806F
:109E70006FD90300B0B0AA80C1D9030078F80300FD
:109E800013DA030050FA030041DC030098F80300E2
:109E900055DC0300A0F80300A1DC030048FC03002C
:109EA000B5DC030050FC03004DE0030068F703003D
:109EB0005DE0030070F703006DE0030078F7030036
:109EC0007DE0030040F803008DE0030048F8030044
:109ED0009DE0030070F80300ADE0030078F8030094
:109EE000BDE00300C0F80300CDE00300C8F80300A4
:109EF000DDE00300D0F80300EDE00300E8F9030023
:109F0000FDE00300F0F903000DE10300F8F90300A0
:109F10001DE1030000FA03002DE1030008FA03002D
:109F20003DE1030010FA03004DE1030058FB03007C
:109F30005DE1030060FB03006DE1030068FB0300CB
:109F40007DE1030070FB03008DE1030078FB03005B
:109F50009DE1030080FB0300ADE10300A8FB0300CB
:109F6000BDE10300B0FB0300CDE10300B8FB03003B
:109F7000DDE10300C0FB0300EDE10300C8FB0300CB
:109F8000FDE10300D0FB03000DE20300D8FB03005A
:109F90001DE20300E0FB03002DE20300E8FB0300E9
:109FA0003DE20300F0FB03004DE2030068FC030008
:109FB0005DE2030070FC03006DE2030078FC030027
:109FC0007DE2030080FC03008DE2030088FC0300B7
:109FD0009DE2030090FC0300ADE20300C8FE030015
:109FE000BDE20300D0FE0300CDE20300D8FE030073
:109FF000DDE20300B0FF0300EDE20300B8FF030061
:10A00000FDE20300C0FF03000DE3030008000400AD
:10A010001DE30300100004002DE3030018000400FA
:10A020003DE3030040010400D5E50300B8F603005A
:10A03000F9E50300E0F7030007E6030038FA030040
:10A0400015E60300C0FB03004FE6030058000400C0
:10A050005DE60300B000040000F5E0700268914284
:10A0600003D343681A44914202D380680028F5D193
:10A0700070471849086880B94FF4805048604FF421
:10A0800080324FF0FF30C86008610420124B8A60B4
:10A090004861C3F8BC01114808600120704701F114
:10A0A000080313F0070F0EBF0023C3F1080303F0EA
:10A0B00007031944D21A8161C26042F001034B6068
:10A0C000091D4FF0280C41F802C0024A1369C36110
:10A0D00070470000D0320020B42800206859883C26
:10A0E0002DE9F84F84B00646AFF30080F52E1E4DE3
:10A0F00080F013820B2E31BF10260B36F608F600C7
:10A100002868F408E04010F0030F4AD0C04300F084
:10A110000100041905F1280000EBC408E700D8F895
:10A1200008607068C008C000B84218BFFEF72CF87D
:10A13000D6F80890464508BFFEF726F84E4508BFFA
:10A14000FEF722F87068C008C000B84218BFFEF7DA
:10A150001BF8C8450AD12868012101FA04F420EA55
:10A1600004042C6010E000BFB42800202869814559
:10A1700008D3D9F80C10B14204D1C8F80890C9F836
:10A180000C8001E0FEF700F847F00300311D70601D
:10A19000301DCA5942F00102C25106F1080800F010
:10A1A0001DBFA968B14280F0A883002800F0A280FA
:10A1B0004FF0010808FA04F1490000FA04F448429B
:10A1C00001430C4060420440641E200B00F010006C
:10A1D000C440610901F00801CC40A20802F0040269
:10A1E000D440630803F002030818DC401018C4F3DD
:10A1F000400718183818FC40241805F1280000EB17
:10A20000C40AE700DAF80890D9F80400C008C000D2
:10A21000B84218BFFDF7B8FFD9F808B0D14508BF5C
:10A22000FDF7B2FFD94508BFFDF7AEFFD9F804002E
:10A23000C008C000B84218BFFDF7A6FFDA4506D136
:10A24000286808FA04F420EA04042C600DE0296967
:10A250008B4508D3DBF80C00484504D1CAF808B098
:10A26000CBF80CA001E0FDF78FFFBF1B46F0030009
:10A2700009F10402C9F8040047F00101915109EB0A
:10A2800006020192D751AC684FEAD40ABAF11F0F07
:10A2900088BFFDF779FF34B3CDF800A005F12800A1
:10A2A0006E6900EBCA0AD346102C38BFFDF76CFF6D
:10A2B0002968009821FA00F2D30704D408FA00F0C4
:10A2C0000843286007E0DAF80800296988422CBFB3
:10A2D0008346FDF759FFCAF80860CBF80C60C6F852
:10A2E00008B0C6F80CA0AF6009F1080801986861D1
:10A2F00000F074BE6868002800F0208341420840E6
:10A30000401E010B01F01001C840420902F0080292
:10A31000D040830803F00403D840440804F002044A
:10A320005118E0405918C0F34007611805F59878B6
:10A330007918F840401858F820104868C008C00044
:10A340008A46A0EB060B08E001464868C008C0003A
:10A35000801B58453CBF83468A4608690028F3D1D4
:10A3600049690029F1D128698245C0F0D380DAF823
:10A370000410C90806EB0B09C900494518BFFDF7D1
:10A3800003FF0AEB06008245019080F0C380DAF8F3
:10A390000C40DAF8187054450DD0DAF80800296935
:10A3A000884223D3C268524504BFA16851451DD1DC
:10A3B000C460A0601CE00AF114010C6834B90AF111
:10A3C00010010C68A4B101E011460C6804F11402FC
:10A3D0001068002802BF04F1100210680028F3D1B1
:10A3E0002869814202D300220A6001E0FDF7CCFE19
:10A3F000002F38D0DAF81C0008EB80010A6892457B
:10A400000AD11CBB6A68012303FA00F022EA0000AB
:10A4100068600020086026E029698F4213D33869FC
:10A42000504514BF7C613C61ECB129698C4218D362
:10A43000A761DAF8100058B1884226BF2061846114
:10A44000FDF7A2FE04E0FDF79FFEEDE70C60ECE7F0
:10A45000DAF8140038B12969884202D36061846156
:10A4600001E0FDF791FEBBF1100F0ED249F00300A1
:10A470000AF10401CAF804000AF1040051F80920A5
:10A4800042F0010240F809203EE046F003010AF1E3
:10A490000402CAF804104BF001009051019941F8F0
:10A4A0000BB0A8680090C4081F2C88BFFDF76CFE95
:10A4B000009828B305F1280000996F6900EBC408E3
:10A4C000C146102938BFFDF75FFE286820FA04F165
:10A4D000CA0705D4012101FA04F404432C6007E003
:10A4E000D8F80800296988422CBF8146FDF74CFE48
:10A4F000C8F80870C9F80C70C7F80890C7F80C8045
:10A50000C5F808B0019868611AF1080800F0F581F3
:10A5100000F064BDFDF738FEEFE116F1400F28BFF3
:10A520004FF0FF3680F0E9810B36F6086B68F600D5
:10A53000002B00F0E2810027300AC6F1000908BFB5
:10A54000002423D0B0F5803F28BF1F241ED2A0F5E1
:10A550008071090C01F008018840A0F58052120CAE
:10A5600002F004029040A0F58044240CC1F10E01D9
:10A5700004F00204891A091BA04001EBD031C81D68
:10A5800026FA00F404F0010404EB410405F5987880
:10A5900058F8240030B31F2C0FBFB4464FEA540CB8
:10A5A000CCF1190C06FA0CFCBE46494601E04FEA14
:10A5B0004C0C4268D208D200921B8A4202D211008F
:10A5C00007460CD0426910304FEADC7950F8290078
:10A5D000002A1CBF824296460028E8D17046894670
:10A5E000A8BBB7BB012101FA04F464006042044334
:10A5F000234000F08281584203405B1E180B00F09C
:10A600001000C340590901F00801CB409A0802F03C
:10A610000402D3405C0804F002040818E340101858
:10A62000C3F3400C2018604423FA0CF31B1858F8AD
:10A6300023000CE008464168C908C900891B494548
:10A640003CBF8946074601690029F3D140690028CB
:10A65000F1D1002F00F05181A868801B814580F066
:10A660004C8129698F42FFF455AF7868C008C0005B
:10A6700006EB0901884218BFFDF786FD07EB060BC4
:10A680005F45BFF447AFFC68D7F818A0BC420CD0B8
:10A69000B8682969884223D3C268BA4204BFA16856
:10A6A000B9421DD1C460A0601CE007F114010C6820
:10A6B00034B907F110010C68A4B101E011460C682F
:10A6C00004F114021068002802BF04F1100210689F
:10A6D0000028F3D12869814202D300220A6001E0F8
:10A6E000FDF752FDBAF1000F39D0F86908EB80018F
:10A6F0000A6897420AD134BB6A68012303FA00F062
:10A7000022EA000068600020086028E029698A4584
:10A7100016D3DAF81000B84214BFCAF81440CAF8C9
:10A720001040E4B129698C4217D3C4F818A03869E5
:10A7300058B1884226BF20618461FDF725FD04E001
:10A74000FDF722FDEDE70C60ECE7786938B1296987
:10A75000884202D36061846101E0FDF715FDB9F123
:10A76000100F0CD2B14449F00300391D7860381D38
:10A7700051F8092042F0010240F80920B9E046F002
:10A7800003013A1D796049F0010090514FEAD90068
:10A790004BF809901F2822D805F1280101EBC004CD
:10A7A000296821FA00F2D307A04605D4012202FA53
:10A7B00000F00843286006E0A068296988422CBFA1
:10A7C0008046FDF7E1FCC4F808B007F10800C8F8BE
:10A7D0000CB040F8068007F10C018C5189E05FEA6B
:10A7E000192008BF002123D0B0F5803F28BF1F21CA
:10A7F0001ED2A0F58072120C02F008029040A0F563
:10A800008051090C01F004018840A0F580431B0C25
:10A81000C2F10E0203F00203521AD21A984002EB60
:10A82000D032D01D29FA00F101F0010101EB420103
:10A8300007F11403CBF81C1000229A5107F1100302
:10A8400008EB81009A516A6822FA01F3DC0711D4FF
:10A85000012303FA01F111436960C0F800B0CBF89D
:10A86000180007F1080107F10C0040F806B041F8A4
:10A8700006B03EE002681F291DBF4908C1F1190159
:10A8800009FA01F1494600E002465068C008C000DC
:10A89000484518D002F11003C80F03EB80034900AC
:10A8A00018680028F0D12869834220D3C3F800B08B
:10A8B00007F10C01CBF8182041F806B007F10800A9
:10A8C00040F806B015E0296990688A4228BF88429E
:10A8D0000DD3C0F80CB007F10801C2F808B08851D8
:10A8E00007F10C0082510022CBF8182001E0FDF79F
:10A8F0004BFC17F1080840F07183A868B0421DD3E3
:10A90000811B6A69102909D39319A96041F00100DC
:10A910005860595046F0030656600BE00021A960CC
:10A9200040F00304111D5460141D0E5846F001063A
:10A93000265000236B6102F108084FE3E868864265
:10A94000C0F03C83DFF8CC9BD9F8000008B9FFF7D2
:10A9500090FBD9F8081088192F30491E20EA010110
:10A960008E4280F0398305F5D877B86838B13A68F7
:10A9700089188A4280F030838842C0F02D8300F02D
:10A9800031FE00281CBFD0F8008010F1010F00F04C
:10A99000238339687A68414439608A4238BF7960D4
:10A9A000AC6904BB296909B1884200D22861002141
:10A9B0003861C7F81480F9614FF0FF31D9F80020F1
:10A9C0006A62296205F1280200219260D26002F1D8
:10A9D000080353611361891C10321F29F5D9A8F1AE
:10A9E000280201461DE005F5E0710A46814600E0B7
:10A9F0009268D2B11068536803449945F8D1107B2E
:10AA0000030712D413689C420FD3D2F804C06344E6
:10AA10009C420AD2C444C2F804C02146E86808EB4C
:10AA200000022846FFF73BFBC5E22869814538BF95
:10AA3000C5F8109009EB080000E08968002900F0D3
:10AA4000C1810A688242F8D1087B020700F1BA810D
:10AA50000868C1F800904A6842444A6009F1080158
:10AA600011F0070F08BFCDF8049006D0C1F108011E
:10AA700001F0070109EB0102019200F1080111F058
:10AA8000070F04D0C1F1080101F007010844804616
:10AA90000198A8EB00018419A1EB060B274646F0AC
:10AAA00003064660474528BFFDF76EFB98F8040093
:10AAB000C10758BFFDF768FBBBF1100F38BFFDF7AA
:10AAC00063FBA869804508D1E9688B44C5F80CB0E0
:10AAD000AF614BF00100786070E1686980450AD190
:10AAE000A9686F618B44C5F808B04BF0010078602D
:10AAF00047F80BB062E1D8F8040000F00301012927
:10AB000040F0BC80C008C000C1081F29039040D895
:10AB1000D8F808200092D8F80C600291B04508BF20
:10AB2000FDF732FB0098804508BFFDF72DFBD8F8F4
:10AB300004000299C008C000B0EBC10F18BFFDF7B8
:10AB400023FB0299009A05F1280000EBC100824224
:10AB500008D011462A699142C0F08B80CA684245EC
:10AB600040F0878000998E4206D102982A6801231E
:10AB700083409A432A607EE0864205D029698E424E
:10AB800077D3B068404574D10098C6600099B16031
:10AB900071E0D8F818000090D8F80C6046450DD048
:10ABA000D8F808002969884223D3C268424504BF07
:10ABB000B16841451DD1C660B0601CE008F11401C8
:10ABC0000E6836B908F110010E68A6B101E0114611
:10ABD0000E6806F114021068002802BF06F1100288
:10ABE00010680028F3D12869814202D300220A604C
:10ABF00001E0FDF7C9FA009800283CD0D8F81C0005
:10AC000005F5987101EB80010A6890450AD12EBBC9
:10AC10006A68012303FA00F022EA0000686000205D
:10AC2000086028E000992869814214D308694045EA
:10AC300014BF4E610E61F6B129698E4219D3009896
:10AC4000B061D8F8100058B1884226BF30618661E3
:10AC5000FDF79AFA04E0FDF797FAECE70E60EBE7F0
:10AC6000D8F8140038B12969884202D3706186612E
:10AC700001E0FDF789FA039988448B44D8F8041061
:10AC800049084900C8F804104BF0010078604FEA09
:10AC9000DB0647F80BB01F2E22D805F1280000EB89
:10ACA000C604A146BBF1100F38BFFDF76DFA286846
:10ACB00020FA06F1CA0705D4012101FA06F6064377
:10ACC0002E6006E0A068296988422CBF8146FDF706
:10ACD0005BFAA760C9F80C70C7F80890FC606DE0DB
:10ACE0005FEA1B2008BF002123D0B0F5803F28BFBA
:10ACF0001F211ED2A0F58072120C02F008029040B3
:10AD0000A0F58051090C01F004018840A0F58043B2
:10AD10001B0CC2F10E0203F00203521AD21A984021
:10AD200002EBD032D01D2BFA00F101F0010101EB52
:10AD30004201F961002305F598727B6102EB810005
:10AD40003B616A6822FA01F3DE0707D4012303FAA4
:10AD500001F1114369600760B8611DE002681F29B5
:10AD60001DBF4908C1F119010BFA01F1594600E074
:10AD700002465068C008C000584510D002F11003C8
:10AD8000C80F03EB8003490018680028F0D1286938
:10AD9000834211D31F60BA61FF60BC600EE0296975
:10ADA00090688A4228BF884206D3C7609760B8601F
:10ADB000FA600020B86101E0FDF7E6F9019800F1C2
:10ADC00008080BE121462846FFF746F9016840686C
:10ADD00008440090A0F1270111F0070000980EBF71
:10ADE0000021C1F1080101F007010844A0F12F0B77
:10ADF00004F110018B4538BFA3460BF11802002166
:10AE000002920191A8F1280249462846FFF747F926
:10AE10000BF1080010F0070F18BFFDF7B5F91B2064
:10AE2000CBF8040005F5E07292E809500BF1080137
:10AE300081E8095000210BF10800F961B861009A1E
:10AE400002980199C7F81090C7F81480072300E012
:10AE5000001D491C00F1080797424360F8D30129FF
:10AE6000D8BFFDF791F9A34500F0A580ABEB040B2B
:10AE7000201D221D50F80B104908490042F80B1004
:10AE80004BF0010060604FEADB0944F80BB0B9F108
:10AE90001F0F22D805F1280000EBC907B846BBF107
:10AEA000100F38BFFDF770F9286820FA09F1CA07BA
:10AEB00005D4012101FA09F10843286006E0B868C9
:10AEC000296988422CBF8046FDF75EF9BC60C8F84E
:10AED0000C40C4F80880E7606DE05FEA1B2008BF03
:10AEE000002123D0B0F5803F28BF1F211ED2A0F53E
:10AEF0008072120C02F008029040A0F58051090CFB
:10AF000001F004018840A0F580431B0CC2F10E0241
:10AF100003F00203521AD21A984002EBD032D01D2D
:10AF20002BFA00F101F0010101EB420105F59872E5
:10AF3000002302EB8100E161636123616A6822FA08
:10AF400001F3DF0707D4012303FA01F1114369601C
:10AF50000460A0611DE002681F291DBF4908C1F1FE
:10AF600019010BFA01F1594600E002465068C00889
:10AF7000C000584510D002F11003C80F03EB800346
:10AF8000490018680028F0D12869834211D31C6059
:10AF9000A261E460A4600EE0296990688A4228BF3B
:10AFA000884206D3C4609460A060E2600020A06183
:10AFB00001E0FDF7E9F8E86886420DD2801BA96937
:10AFC000E8608A19AA6140F00100506046F003066B
:10AFD0004E6001F1080801E04FF00008AFF3008077
:10AFE000404605B0BDE8F08F002800D170472DE93C
:10AFF000F047A0F10805AFF30080DFF81C65316968
:10B000008D42C0F08482686800F00302012A00F0DB
:10B010007E82C2084FEAC209C20705EB090839D48B
:10B020002C6810F0030F00F06E82604205448D42E0
:10B03000A144C0F06C827069854200F0DE80E408B3
:10B04000202C72D2D5F80CA0AF68554508BFFDF78B
:10B050009BF8BD4208BFFDF797F86868C008C000BC
:10B06000B0EBC40F18BFFDF78FF806F1280000EB16
:10B07000C400874205D031698F4253D3FA68AA428F
:10B0800050D1BA4540D13068012101FA04F420EAD8
:10B0900004043460454580F03A82D8F80440E00763
:10B0A00040F13582A10700F18381B069804540F00D
:10B0B000B780F168B5618944C6F80C9049F0010089
:10B0C000686071698D4202D100207061B060F169E1
:10B0D000494580F01882DFF83C24106808B9FEF773
:10B0E000C8FFB169002900F00E82F068292824BF4A
:10B0F0003046FEF7B1FFF069F168884280F00382C4
:10B100004FF0FF30F061FEE1824506D030698245A4
:10B1100008D3DAF80810A94204D1C7F80CA0CAF87D
:10B120000870B7E7FDF730F8B4E7EC68AF69AC42F8
:10B130000BD0A868884222D3C168A94204BFA26884
:10B14000AA421CD1C460A0601BE005F1140214687F
:10B1500034B905F1100214689CB101E01A46146874
:10B1600004F114031868002802BF04F110031868E2
:10B170000028F3D18A4202D30021116001E0FDF7DB
:10B1800003F8002F86D0E86906F5987101EB80017D
:10B190000A6895420AD124BB7268012303FA00F0C1
:10B1A00022EA000070600020086073E731698F4276
:10B1B00014D33869A84214BF7C613C61002C3FF471
:10B1C00069AF31698C42ADD3A761286958B1884213
:10B1D00026BF20618461FCF7D7FF04E0FCF7D4FFB1
:10B1E000ECE70C60EDE7686900283FF453AF316984
:10B1F000884297D3606184614CE798F8040000F0BE
:10B20000030003287FF446AFC6F8089049F0010117
:10B21000D8F8040040084000C8F8040069600AE05B
:10B22000706980450AD1B16875618944C6F8089093
:10B2300049F00100686045F8099064E1E408E40021
:10B24000A144E408202C3AD2D8F80CA0D8F8087011
:10B25000D04508BFFCF798FFB84508BFFCF794FF3E
:10B26000D8F80400C008C000B0EBC40F18BFFCF74A
:10B270008BFF06F1280000EBC400874207D031693C
:10B280008F42C0F08880FA68424540F08480BA4519
:10B2900007D13068012101FA04F420EA0404346083
:10B2A0007BE0824506D03069824574D3DAF8081015
:10B2B000414570D1C7F80CA0CAF808706DE0D8F805
:10B2C0000C40D8F8187044450DD0D8F80800316902
:10B2D000884223D3C268424504BFA16841451DD1BD
:10B2E000C460A0601CE008F114010C6834B908F1D6
:10B2F00010010C68A4B101E011460C6804F11402BD
:10B300001068002802BF04F1100210680028F3D171
:10B310003069814202D300220A6001E0FCF734FF69
:10B32000002F3AD0D8F81C0006F5987101EB800187
:10B330000A6890450AD11CBB7268012303FA00F029
:10B3400022EA000070600020086026E031698F4228
:10B3500013D33869404514BF7C613C61ECB131695D
:10B360008C4218D3A761D8F8100058B1884226BF84
:10B3700020618461FCF708FF04E0FCF705FFEDE7BE
:10B380000C60ECE7D8F8140038B13169884202D378
:10B390006061846101E0FCF7F7FE49F0010068603C
:10B3A00045F8099071698D420BD1C6F80890AAE062
:10B3B00064086400C8F8044049F00100686045F87A
:10B3C00009904FEAD907202F22D206F1280000EB7E
:10B3D000C704A046B9F1100F38BFFCF7D5FE30689E
:10B3E00020FA07F1CA0705D4012101FA07F707433C
:10B3F000376006E0A068316988422CBF8046FCF7C0
:10B40000C3FEA560C8F80C50C5F80880EC607AE06F
:10B410005FEA192008BF002123D0B0F5803F28BF84
:10B420001F211ED2A0F58072120C02F0080290407B
:10B43000A0F58051090C01F004018840A0F580437B
:10B440001B0CC2F10E0203F00203521AD21A9840EA
:10B4500002EBD032D01D29FA00F101F0010101EB1D
:10B46000420106F59872002302EB8100E9616B61ED
:10B470002B61726822FA01F3DC0707D4012303FA77
:10B4800001F1114371600560A8611DE002681F2988
:10B490001DBF4908C1F1190109FA01F1494600E04F
:10B4A00002465068C008C000484510D002F11003A1
:10B4B000C80F03EB8003490018680028F0D13069F9
:10B4C000834211D31D60AA61ED60AD600EE0316969
:10B4D00090688A4228BF884206D3C5609560A860FC
:10B4E000EA600020A86101E0FCF74EFE306A401ED1
:10B4F00008D13062D6F8C80100E080680028FCD18D
:10B500004FF0FF303062AFF30080BDE8F087FCF70A
:10B510003BFEF8E7D0320020B42800202DE9F843A4
:10B520008AB080462821684600F072F82B4A1068DD
:10B5300008B9FEF79EFDAFF30080DFF8A4E0DEF867
:10B540001820002A40D0DEF80C5005F1280601240E
:10B5500037460EF5E0711CE04FEADC090CF0030CF5
:10B56000BCF1010F07EBC90704BF06EBC906641C59
:10B5700003EBC90383420BD3D1F8049081444B45BC
:10B5800006D293421CBFD3F804C0BCF1070FE3D12D
:10B59000896861B1086800F1080313F0070F0EBF56
:10B5A0000023C3F1080303F007030344E2E7009715
:10B5B0000EF5D870019408960995016842680592C5
:10B5C000CF1B891B04970791AFF300804046694663
:10B5D000282200F03DF80BB0BDE8F083D032002007
:10B5E000B42800200749086808B1002070470648C1
:10B5F000C008C00008600549C908C900091A0160EF
:10B60000704700BFCC330020AF550020A755012064
:10B61000002200F06FB88268521C8260426832B12A
:10B620000268531C036011704168491E41607047F5
:10B6300062B38B0708D0521E11F8013B00F8013BA2
:10B6400000F024808B07F6D1830740F0208000BFF4
:10B65000103A07D330B4B1E83810103AA0E83810E7
:10B66000F9D230BC530724BFB1E80810A0E8081095
:10B6700044BF51F8043B40F8043BD20724BF31F8E3
:10B68000022B20F8022B44BF0B7803707047121F67
:10B6900017D35B0009D151F8043B20F8023B1B0C87
:10B6A000121F20F8023BF6D20BE051F8043B00F8E1
:10B6B000013B1B0A20F8023B1B0C121F00F8013B48
:10B6C000F3D238BF121D521E24BF11F8013B00F8FF
:10B6D000013BF8D870470268531C03601170704733
:10B6E00080B5AFF30080024A11001820ABBEFBE723
:10B6F0002600020000B500BF13009646944610399C
:10B7000028BFA0E80C50FAD85FEA417C28BF0CC0E3
:10B7100048BF40F8042BC90728BF20F8022B48BFB8
:10B7200000F8012B00BD0200002070472DE9F14F09
:10B73000B0B0924604910DF142013A9A2B9199468C
:10B740004A7000200AE01AF8011B0498309A9047CA
:10B750000028049000F0A6860D98401C0D909AF8E1
:10B76000000050B12528EED1002100220791089257
:10B7700009910A920B910C9204E00D9800F094BE8E
:10B7800041F001011AF8010F2028F9D023280CD02C
:10B790002B2804D02D2805D0302809D00BE041F00B
:10B7A0000201EFE741F00401ECE741F00801E9E7AD
:10B7B00041F01001E6E72A280FD1D9F8002052F80D
:10B7C000040BC9F8002000280F9003D540420F90C9
:10B7D00041F004010AF1010A14E00F92DFF8243865
:10B7E0000AE00F98984205DA00EB800402EB44026D
:10B7F000303A0F920AF1010A9AF80020A2F13000C3
:10B800000A28EED39AF800002E2803D04FF0FF321A
:10B810000E9229E01AF8010F2A2809D1D9F8000060
:10B8200050F8042BC9F800000E920AF1010A1BE03F
:10B830002D280CBF0AF1010A002000220E92DFF829
:10B84000C4470BE040B90E9AA24205DA02EB82052A
:10B8500003EB4503303B0E930AF1010A9AF80030DE
:10B86000A3F130020A2AEDD3ADF84010DFF89807B3
:10B87000784400F294709AF8001000F02DFF08B19F
:10B880001AF8010B8DF842009DF84200682805D196
:10B890009AF8000068280CD1622106E06C2804BFE9
:10B8A0009AF800006C2804D171218DF842100AF139
:10B8B000010A12A806901AF801BBBBF125012CD091
:10B8C0001C3900F0CF81091F022940F2CB811339C6
:10B8D00000F01385093900F0C581891E00F0A885A4
:10B8E000491E00F05585491E022940F2BB81091FFF
:10B8F00000F04E85491F00F02881491E00F0FD84AC
:10B90000491E00F0D080C91E0DD0891E00F0F584BC
:10B91000C91E00F0F28400F096BD25238DF8483052
:10B92000012100F09BBDD9F8000050F8044BC9F884
:10B930000000002C059440F0A3802B994878002843
:10B9400000F099804FF0FF340FF6643000F0D2FE23
:10B95000201A40F0A78500F082BD6D1E40F0998549
:10B960003096079D12AF75B1309E17F8012B02A9D2
:10B97000304600F063FE002801D46D1EF5D100288A
:10B98000309640F08F850A9D3020002D8DF8040000
:10B990000CDD309E012301AA02A9304600F05EFEB4
:10B9A000002840F07F856D1EF4D13096059F089DDC
:10B9B00075B1309E17F8012B02A9304600F03EFE0B
:10B9C000002801D46D1EF5D10028309640F06A851C
:10B9D0000B9D3020002D8DF804000CDD309E0123DE
:10B9E00001AA02A9304600F039FE002840F05A852D
:10B9F0006D1EF4D1309605980899099D471875B1C8
:10BA0000309E17F8012B02A9304600F017FE0028DF
:10BA100001D46D1EF5D10028309640F043850C9D71
:10BA20003020002D8DF804000CDD309E012301AA8A
:10BA300002A9304600F012FE002840F033856D1E4A
:10BA4000F4D130969DF8400041077FF588AE202064
:10BA5000002C8DF804007FF782AE309D012301AAEF
:10BA600002A9284600F0FAFD002840F01B85641E5C
:10BA7000F4D1309573E60FF64440059000F0EFBC2A
:10BA80000E9D002D04D5204600F054FE044607E02C
:10BA90002A46204600F06CFE002814BF041B2C46EA
:10BAA000089400F0DCBCD9F8001051F8040BC9F878
:10BAB000001020F00004002121F0FF3512ABCDE989
:10BAC00002450593DDE9022306993C2413B90AB91E
:10BAD0000E9898B102F00F053035641EEEB23A2E82
:10BAE000A8BF2735120942EA03721B090D5508BF8A
:10BAF000002A03D005980D19A842EBD30819059028
:10BB0000C4F13C020E98089282420ADABDF8401055
:10BB1000821A4FF6EF7001400A92ADF8401000F023
:10BB20009EBC002840F19B849DF8400000F014006A
:10BB3000102840F094840F9B07990A985B1A1B1AEF
:10BB40009A1A002A40F38B84D5E32B99487820B1C8
:10BB50004FF0FF340FF63430F8E69DF842006228CB
:10BB600061D0682817D06A283FD06C2806D0712889
:10BB700047D074282CD07A281DD064E0D9F8001062
:10BB800051F8040BC9F80010002868D14FF0FF34B9
:10BB90000FF61030DAE6D9F8001051F8040BC9F8A6
:10BBA000001020B94FF0FF340FF6F820CEE60D99C3
:10BBB000018000F054BCD9F8001051F8040BC9F80A
:10BBC000001000284BD14FF0FF340FF6D820BDE60F
:10BBD000D9F8001051F8040BC9F8001000283ED124
:10BBE0004FF0FF340FF6BC20B0E6D9F8001051F842
:10BBF000040BC9F8001080B94FF0FF340FF6A420F1
:10BC0000A4E6D9F8001051F8040BC9F8001020B9C7
:10BC10004FF0FF340FF68C2098E60D9AD317C0E949
:10BC2000002300F01CBCD9F8001051F8040BC9F82F
:10BC3000001020B94FF0FF340FF6682086E60D990A
:10BC4000017000F00CBCD9F8001051F8040BC9F8D1
:10BC5000001020B94FF0FF340FF6482076E60D991A
:10BC60000160FCE3D9F80020D21D22F00702C9F8D8
:10BC70000020D2E900010832C9F80020CDE9020114
:10BC8000C80F02D007982D210AE0BDF840008107B7
:10BC900002D507982B2103E0C00705D5079820217E
:10BCA00012AA1154401C079012A807994BF02002C9
:10BCB0004318DDE90201CDE92C01612A059321AC8D
:10BCC0000BD00E98002802D506200E9005E001BF8B
:10BCD0004BF02000672801210E91DDE902014800A8
:10BCE0004015401C0A460DD109030BD0ABF161058C
:10BCF00003201A2D089002D20FF6C4110DE00FF6A2
:10BD0000C4110AE070B912030CD1ABF16105032034
:10BD10001A2D08901AD30FF6B41103221846FFF714
:10BD200087FC9CE3DDE90201CDE92E01DDE92E234C
:10BD300023F00047B7F5801F22F000060DD2002245
:10BD4000002F08BF002E009203D116E00FF67811E5
:10BD5000E3E76A4600F038FD0FE0DFF8C008DFF8DF
:10BD6000C01800EB17500090DDE92E234FF0FF3094
:10BD70001940DFF8B07810403943CDE902014BF0AB
:10BD8000200061280DD1059830210170821CBBF183
:10BD9000610F05920CBF7821582141700798801CD3
:10BDA0000790DDE9020120F0000231F0004308BFF6
:10BDB000002A02D10026002568E14BF02008B8F1E6
:10BDC000610F40F0B4800E98002847BF21210191F7
:10BDD000401C0190019FDDE92C017F1C0022002303
:10BDE000DDE9024500F028FD00998DF8842038BF78
:10BDF00085F00045091F002F00910DF1850653DDE8
:10BE0000204629460022002300F030FD4CD2480095
:10BE1000400D00F11C0312D0002B10DD40F2FF702A
:10BE2000834206DBDFF8001805F0004211430020D2
:10BE300011E06FF31E5141EA035120460BE024F05C
:10BE4000000035F0004108BF00280FBF29461C2222
:10BE5000294600F025FD04460D4600F0C1FDFF1FF8
:10BE6000002F804609DD00F0DBFD02460B46204630
:10BE7000294600F0E9FD04460D46F01D0721B8F102
:10BE8000000F0CDD491E5EBF08F00F0200F8012D07
:10BE90004FEA2818F3D502E0002200F8012D491ED0
:10BEA000FAD5C61D002FABDC0DF18500361A0198BE
:10BEB0008642D8BF304600280DF1850430D4B04208
:10BEC00006DA0DF185010A5C082AA8BF0F2100DA05
:10BED0000021024621AB134400E0401E13F8015933
:10BEE000521E8D42F9D00F2904D10DF185018B5CD2
:10BEF0005B1C8B54002A04D50099091D21AC401C01
:10BF00000091411E0CD46218ABF13A06137830331D
:10BF1000DDB23A2DA8BFF318491E02F80139F5D554
:10BF20000E99002940F1B080421E0E92ACE00099BB
:10BF3000DFF8F82647F29750414391FBF2F2DDE932
:10BF40002C45009225F00045D2F1070204DD204681
:10BF5000294600F040FB0BE052420020DFF8D016EB
:10BF600000F039FB02460B462046294600F0E0FD72
:10BF70000446B8F1660F0E9806BF009F0A370627E1
:10BF80003F18142FC8BF142730200D468DF88400A9
:10BF90000DF18506002F39DD2046294600F0EEFE22
:10BFA00001460A4606F1080304200A26B2FBF6F60B
:10BFB00006EB860EA2EB4E02303203F8012C0A2269
:10BFC000B6FBF2F202EB820EA6EB4E063036401EB6
:10BFD00003F8026DE9D1083F002F03F10806D9DD0F
:10BFE000084600F0DFFE02460B462046294600F0D8
:10BFF0002BFD0022DFF83C3600F0E4FE04460D463F
:10C00000CAE700BFCBCCCC0CB40204000DF1850014
:10C01000361A0DF1850404E00098401E761E00904B
:10C02000641C20783028F7D0B8F1660F02D100994F
:10C03000491C04E0B8F1650F0CBF012100210E98E6
:10C0400008188642B8BF701E00281DD4B04204DA1A
:10C05000215C3429C8BF392100DC30210246631E2F
:10C060009D1800E0401E15F80169521E8E42F9D05D
:10C07000392902D1A15C491CA154002A04D5009998
:10C08000491C1C46401C00910646009D0E9F30B284
:10C09000002802DC01260FF238644BF020006628ED
:10C0A00008BF6D1C15D067280FFA85F841D118F12B
:10C0B000040F44DBB84542DA9DF840006D1C0107CF
:10C0C00003D430B2B842B8BF074628B23F1A48BFBF
:10C0D00000270FFA85F8B8F1000F00F3AF80089839
:10C0E000411C0891302205990A54002F03DC9DF869
:10C0F0004000010705D50898411C08912E2205999A
:10C100000A5417EB080FB8BF7D4228B2C51932B2E6
:10C11000414295420B91B8BF2E46059B089836B216
:10C120000996324621461844FFF782FAAD1B0C955A
:10C13000CCE0BBF1610F15D14FF0700B17E030B2BE
:10C14000B84204DA9DF840100A0758BF07467F1E20
:10C1500048BF0027BBF1670F14BF4FF0450B4FF0EE
:10C16000650B04E0BBF1410F08BF4FF0500B08987E
:10C17000411C0891002F059914F8012B0A5403DC87
:10C180009DF84000010719D50898411C08912E22FE
:10C1900005990A54002F11DD761E30B287420598AA
:10C1A000089BB8BF3E4632B221461844FFF740FA1A
:10C1B000089836B23018BF1B08900B97059808995D
:10C1C0000844B8F1000F80F800B003D42B2242706D
:10C1D000821C04E02D2145464170821C6D420021E5
:10C1E0002CAB28460AE004460A2094FBF0F000EB52
:10C1F0008005A4EB450403F8014B491C00B200285C
:10C20000F1DC012906DC4BF02000652804BF30205A
:10C2100002F8010B00292CAB08D1302002F8010BE9
:10C2200006E0491E585C303002F8010B0029F8DCAA
:10C23000059908980844121A099247E030B229B2C9
:10C2400088421BDA0598089B32B221461844FFF752
:10C25000EFF9089936B27118A8EB0606002F08917D
:10C260000B9603DC9DF84000020705D5059A2E20A9
:10C2700050540999491C09910C9727E00598089B8F
:10C280002AB221461844FFF7D3F90898761B404498
:10C29000002F089003DC9DF840100A0704D5411CCC
:10C2A00008912E2205990A5430B287420598089BBE
:10C2B000B8BF3E4632B204EB08011844FFF7B8F9A4
:10C2C000089836B23018BE1B08900B969DF84000B7
:10C2D00000F01400102840F0C280079A08990B98CB
:10C2E0008A18099982180C988A1882180F98824225
:10C2F00080F2B580821A0A92B1E09DF8420062286D
:10C3000008D068280ED06A2814D06C281FD0712855
:10C3100010D01CE0D9F8001051F8040BC9F8001037
:10C32000C0B21AE0D9F8001051F8040BC9F8001097
:10C3300080B212E0D9F80020D21D22F00702C9F81D
:10C340000020D2E900010832C9F8002006E0D9F83F
:10C35000001051F8040BC9F800100021CDE90201CA
:10C360009DF8400001075AD5DDE90223002B08BFE4
:10C37000002A54D04BF02000782850D1079812A9F9
:10C3800030220A54401C431C079301F800B046E0D9
:10C390009DF84200622808D068280ED06A2814D080
:10C3A0006C281FD0712810D01CE0D9F8001051F86B
:10C3B000040BC9F8001040B21AE0D9F8001051F887
:10C3C000040BC9F8001000B212E0D9F80020D21D09
:10C3D00022F00702C9F80020D2E900010832C9F8AA
:10C3E000002006E0D9F8001051F8040BC9F800103D
:10C3F000C117CDE90201002902D507982D210AE0D5
:10C40000BDF84000810702D507982B2103E0C00743
:10C4100005D50798202112AA1154401C079012A894
:10C4200007990144059102A8594600F04FF816E01B
:10C4300001200790D9F8000050F8041BC9F800004B
:10C440008DF848100BE025210122BBF1000F8DF87B
:10C450004810079203D08DF849B0022107910F9A36
:10C4600007980A990C9C121A0898521A0B99121ADA
:10C470000998521A121A9DF84000141B41073FF503
:10C4800070AA2020002C8DF804007FF76AAA309E45
:10C490002546012301AA02A9304600F0DFF8002852
:10C4A0003FF45BAA4FF0FF3031B0BDE8F08F0000E1
:10C4B0007072696E74665F733A20626164202573DE
:10C4C00020617267756D656E740000002DE9FC4394
:10C4D00007466F293E6908BF082405D041F02000B7
:10C4E000782814BF0A2410243C25D7E900236429A6
:10C4F00018BF69299046994605D1002B03D5D8F17C
:10C50000000869EB4909B9F1000F08BFB8F1000F45
:10C510000CD1386B50B9082C39D197F83800010785
:10C5200035D530203B2586F83B0030E08DF80010F3
:10C53000404649462246E31700F016FD3032D0B29D
:10C540006D1E3A28019504DB9DF80000A0F1510111
:10C550008A187255404649462246E31700F004FD0A
:10C5600080465FEA010908BFB8F1000F03D0F86800
:10C5700071198842DCD3082C09D197F838000107DB
:10C5800005D5705D302802D06D1E30207055C5F184
:10C590003C02BA617119F960386B824208DA821A7A
:10C5A0003A624FF6EF70398F01403987BDE8F38367
:10C5B00000280ED597F8380000F01400102808D194
:10C5C0007B6B7969386A5B1A1B1A9A1A002AC8BFF2
:10C5D0003A62BDE8F3832DE9D04306460F46144680
:10C5E0004FF00008DFF8509012E0E00707D5424610
:10C5F0004B463046394600F0E5FB06460F464046BE
:10C60000494642464B4600F0DDFB641080468946B1
:10C61000002CEAD130463946BDE8D08302FCFFFF4A
:10C62000FFFF0F800000E03F0000F07FA0860100C8
:10C630000000F03F84D797410000244010B5034626
:10C640000C461146A0689847A06020B1E06A401CE3
:10C65000E062002010BD4FF0FF3010BDF8B5054678
:10C660000E4617461C4600205CB117F8011BB06847
:10C67000A847B06030B1F06A401CF0620020641E30
:10C68000F3D1F2BD4FF0FF30F2BD00007072696E61
:10C6900074665F733A20256E20646973616C6C6FF9
:10C6A000776564007072696E74663A206261642016
:10C6B000256E20617267756D656E74000000000064
:10C6C0006E616E004E414E00696E6600494E460036
:10C6D0003000010000207047C9B202788A421AB1C6
:10C6E0001CBF10F8012FF9E718BF002070470100A8
:10C6F0000020704780B500B906A005490B681BB142
:10C7000022220021984701E0FBF73EFD222002BDD6
:10C71000D0330020636F6E73747261696E74206829
:10C72000616E646C65723A20626164206D6573733A
:10C730006167650000F10103810704D010F8011B57
:10C74000820781B1FAD10268A2F10131914311F05F
:10C75000803104BF50F8042FF6E709BAB1FA81F12D
:10C7600000EBD100401CC01A704701000020704748
:10C77000C9B2830706D0521E22D310F8013B99425A
:10C78000F7D11FE0083A13D302F1040241EA012174
:10C7900041EA014150F8043B121F21BF4B40A3F175
:10C7A000013C2CEA030C1CF0803FF3D0C9B2001FFF
:10C7B000083210F8013B521E28BF91EA030FF8D847
:10C7C00018BF0120401E704710B5144600F002F853
:10C7D000226010BDC1F30A5343B14A0012F5001F95
:10C7E00028D2A3F2FE32A1EB0251704750EA410C6D
:10C7F00020D001F0004C31EA0C01B1FA81F204BF03
:10C80000B0FA80F3D2180B3AB2F120032CBF00FA31
:10C8100003F1914041EA0C013EBFC2F1200C20FA25
:10C820000CF319439040524240F2FD33D21A01EB0F
:10C8300003517047002270474FF4001C1CEB410F5E
:10C8400094BF1CEB430F09E041EA030C50EA4C0C87
:10C8500052EA0C0C03D2994208BF9042704714BFB1
:10C860008B42824270470100002070474FF4001C49
:10C870001CEB410F94BF1CEB430F09E041EA030C92
:10C8800050EA4C0C52EA0C0C03D28B4208BF824295
:10C89000704714BF994290427047010000207047D2
:10C8A000124254D440F2FF7C1CEA11530FD063456E
:10C8B00031D09B1863453CBF01EB0251704701F03A
:10C8C000004141EA0C51002000F066BC704750EA7C
:10C8D000410320D001F0004C91EA0C011CD0B1FAC8
:10C8E00081F30B3B9A420DD9D21A994051EA0C01BF
:10C8F000C3F1200C20FA0CFC61449840531C40F218
:10C90000FF7CD7E7914041EA0C01C2F1200C20FAEC
:10C910000CF3194390407047B0FA80F31533202B85
:10C92000E0D3202AEED3203A203B9A4209D9D21AEA
:10C9300000FA03F141EA0C010020531C40F2FF7C95
:10C94000B8E700FA02F141EA0C01002070475242B8
:10C9500040F2FF7C1CEA11530DD06345DBD0B2EBF3
:10C96000030C3CBFA1EB025170470CF1010221EA1C
:10C97000035141F4801150EA410CCCD001F0004C3D
:10C98000352A27DC30B481EA0C01B2F1200309DA40
:10C99000C2F12003044601FA03F5D0402843D140F8
:10C9A0009C400CE0C3F12002450020FA03F418BFBC
:10C9B00044F0010421FA03F091400C43002174F18A
:10C9C000004550F1000051EB0C01244230BC7FF4D3
:10C9D0007BAF70476146002076E70100002070477A
:10C9E000C1F30A5340F2FE329B1A14DDD3F1200347
:10C9F0004FEAE17208DDC90241EA505141F00040BE
:10CA0000D84080185040704703F2E13010B1D24353
:10CA100082F00040704700207047010000207047FE
:10CA2000C11768B14840401AB0FA80F29040D21C59
:10CA3000C907C2F5846241EA025202EBD0214005E7
:10CA4000704701000020704770B44FF0004591EA34
:10CA5000030F40F1B5836B40841A71EB030603D2D8
:10CA6000001BB141121973414FF4001C1CEB410F24
:10CA700034BF7CEB430442E00C0DA4EB1356352E7F
:10CA80004FDC45EAC323DB0A45EAC121C912B6F1EE
:10CA900020050DDD63FA05F6EB4086EA0305124238
:10CAA00018BF45F00105C01851F100010CD213E088
:10CAB00062FA06F5F2405540F3415A40B340F34064
:10CAC0005A408018594107D349085FEA30005FEAAD
:10CAD000350528BF45F0010501F58011420875F1C3
:10CAE000004250F1000041EB04514E0016F5001FCA
:10CAF00070BC38BF70470020090D090570471CEB5A
:10CB0000410F10D252EA43060BD0BCEB410F05D8BF
:10CB10000C0DAB43661E342EB6DD02E0AB4380182D
:10CB2000594170BC704770BC7047010000207047CD
:10CB3000F0B540F2FF7581EA030C0CF0004C15EAE9
:10CB400011541DBF15EA1357AC42AF42E5E0BC419A
:10CB5000C1F31301C3F31303801A994143F4801303
:10CB600004D2641E4000494180185941C90241EA7B
:10CB70005051B1FBF3F603FB1611A2FB0675D7EB80
:10CB8000C020A94102D2761E80185941C90241EA4B
:10CB90005051B1FBF3FE03FB1E11A2FB0E75D7EB48
:10CBA000C020A94103D2AEF1010E8018594189027B
:10CBB00041EA9051760546EA8E2EB1FBF3F603FB6F
:10CBC0001611A2FB0675D7EB8020A94102D2761E72
:10CBD00080185941C90241EA50514EEA060EB1FB94
:10CBE000F3F603FB1611A2FB0675D7EBC020A94193
:10CBF00002D2761E80185941C90241EA5051B1FB58
:10CC0000F3F703FB1711A2FB0735D3EBC020A941B3
:10CC100067F100070CBF004247F0010766F3D52714
:10CC20004FEA1E31B80814F5806412DDBD0775F1B6
:10CC3000004250EB0E5051EB045111F5801F5CBFC8
:10CC400041EA0C01F0BD4CF07F6141F0E041002071
:10CC5000F0BDBD076D0840EA0E5041F48011D4F1DB
:10CC60000104B4F120060ADAC4F120060200E04013
:10CC700001FA06F3E1401843B24015430EE0342CAC
:10CC800013DCC6F1200445EA40056D0820FA06F2DF
:10CC9000154321FA06F0A1400D43002175F1004231
:10CCA00050F1000051EB0C01F0BD00205FEA0C01D7
:10CCB000F0BDCFB992185B41B3FA83F704BFB2FA63
:10CCC00082F6BF190B3FB7F120062FBF02FA06F319
:10CCD000BB40C7F1200622FA06F638BF3343BA40FC
:10CCE0001CB1E419641E33E77F4231F00041B1FA10
:10CCF00081F404BFB0FA80F6A4190B3CB4F120060D
:10CD00002FBF00FA06F1A140C4F1200620FA06F672
:10CD100038BF3143A0403C1B1AE7AC421ABF05EABA
:10CD20001357AF4212E050EA41061CBF52EA4306D5
:10CD3000BFE750EA4107304661461CBF41EA055152
:10CD4000F0BD52EA430C08BFC143F0BD00204FF4D0
:10CD5000001616EB410F98BF16EB430F08BF16EBFA
:10CD6000410F24BFC14305E016EB430F0CBF6146E2
:10CD70004CEA0551F0BD010000207047400D4918F4
:10CD800040EA81200CD2490DA1F58061491C40F098
:10CD9000004005DBD1F11F0154BFC840C0177047E8
:10CDA00000207047014648B1B0FA80F18840C91CA4
:10CDB000C1F58461090501EBD021400570470100F0
:10CDC00000207047B0B581EA030C0CF0004C40F233
:10CDD000FF7515EA11541DBF15EA1357AC42AF4257
:10CDE00039E0E41923EA455343F48013C90241F0C2
:10CDF000004141EA505EC7021100A7FB0202002871
:10CE00004FF00000EEFB01204FF00001E3FB072193
:10CE100018BF42F00102401800214941E3FB0E0116
:10CE2000A4F580640F0302D252004041494154F1FD
:10CE300001046CDD470872F1004250F1000051EB33
:10CE40000451A1F580115CBF41EA0C01B0BD4CEA70
:10CE500005510020B0BD05EA1357AC4214BFAF42E4
:10CE600041E050EA410E1CBF52EA430E02E0614627
:10CE70000020B0BD24423C441BD15FEA070EF6D02F
:10CE8000090302BF01460020AEF1140EB1FA81F78A
:10CE9000AEEB070401FA07FE0C37C7F1200100FAD8
:10CEA00007F7C8404EEA000E23EA455343F48013C7
:10CEB000A2E733F00043B3FA83F704BFB2FA82FE6D
:10CEC00077440B3FE41BB7F1200E2FBF02FA0EF39D
:10CED000BB40C7F1200E22FA0EFE38BF43EA0E0314
:10CEE000BA40641C82E750EA410E14BF52EA430E76
:10CEF0006FF000014FF4001717EB430F8ABF19467C
:10CF000017EB410FB5E74CEA05510020B0BDD4F155
:10CF10000104B4F120070FDAC4F12007520828BF3A
:10CF200042F0010210FA07F501FA07F7E1BF2A43C0
:10CF3000E0403843E1400FE0352C98DCC7F1200495
:10CF400052EA400220FA07F218BF42F0010231FA19
:10CF500007F0A1400A43002172F1004250F10000A5
:10CF600051EB0C01B0BD0001BBBBE1B1B2F5803F9C
:10CF700080F07E80022A1ED98C46B1FBF2F102FBC2
:10CF800011C31B0443EA1043B3FBF2FC02FB1C3346
:10CF900080B240EA0343B3FBF2F002FB103240EAF6
:10CFA0000C4000237047022A05D98446B0FBF2F0FA
:10CFB00002FB10C270474AB105D100F001024908D6
:10CFC0005FEA3000704700220023704700F0AEB9DE
:10CFD0000B000200002100207047904271EB030C0F
:10CFE000F6D3B3F5803F2FD2F0B5B3FA83F7B1FA99
:10CFF00081F4A7F10F0E3D1B5340CEF1200602FA3B
:10D000000EF2F3415340B5F10F0746D80F3C2C44C4
:10D010004140C4F12006A040F1414140B1FBF3F68C
:10D0200003FB1611A2FB0645001BA94102D2761E86
:10D030008018594180EA010221FA0EF362FA0EF2D9
:10D0400000215A403046F0BD30B4B1FBF3FC03FB85
:10D050001C11A2FB0C45001BA94103D2ACF1010C31
:10D060008018594130BC02460B466046002170478B
:10D07000B2F1807F65D3F0B5B2FA82F7B1FA81F4EC
:10D08000C7F10F063D1B22FA06F307F1110EF2411C
:10D0900020355A40B5F10F07B8D94140C4F12006F8
:10D0A000A040F1414140B1FBF3FC03FB1C11A2FB8A
:10D0B0000C45001BA94103D2BCF1010C8018594159
:10D0C0000F2F12D30F3FC90341EA5041B1FBF3F6D2
:10D0D00003FB1611A2FB0645D4EBC030A94102D2D6
:10D0E000761E8018594146EACC3C07B34140C7F14F
:10D0F0002006B840F1414140B1FBF3F603FB1611A5
:10D10000A2FB0645001BA94102D2761E8018594198
:10D1100080EA010221FA0EF3C7F1200462FA0EF24E
:10D120000CFA07F05A402CFA04F13043F0BD80EAC3
:10D13000010221FA0EF3002162FA0EF260465A4013
:10D14000F0BD8C46B1FBF2F102FB11C31B0243EAB6
:10D150001063B3FBF2FC02FB1C331B024CEA002001
:10D1600043EA1063B3FBF2FC02FB1C331B024CEAE4
:10D17000002043EA1063B3FBF2FC02FB1C331B02EA
:10D180004CEA002043EA1063B3FBF2FC02FB1C32C2
:10D190004CEA0020002370470FB581B00020C04644
:10D1A00005492222425001B00FBD80B50020C04683
:10D1B0000249084402BD0000D4330020D4330020CB
:10D1C000841A71EB030604D26E40001BB1411219A0
:10D1D00073414FF4001C1CEB410F34BF7CEB430642
:10D1E00083E00C0DA4EB1356362E00F37C80012E49
:10D1F00045EAC32341DC43EA525312BFD2029202F2
:10D200005B08240545EAC12141EA5051D2EBC02018
:10D21000994125D407D1B0FA80F610FA06F162D010
:10D220000020203608E0B1FA81F6B140C6F12002B4
:10D2300020FA02F21143B0404FEAF474B4EB4654C2
:10D2400034F001064FEA74040AD8D6F50016760DBC
:10D2500004F00044F04061FA06F25040F1404840CA
:10D26000C00A40EA415021F0004128BF5FEA500562
:10D2700050F1000044EBD12135E0DB0A45EAC12141
:10D28000C90AB6F120050EDD42EA0242120CC5F1D0
:10D29000200603FA06F6EB4042EA06056D42984185
:10D2A00061F100010DE062FA06F5F240554063FAC3
:10D2B00006FC82EA0C02F3405A406D42904161EB59
:10D2C000030111F4801F05D1641E620502D06D00B8
:10D2D0004041494121F48011430875F1004350F168
:10D2E000000041EB045170BC70471CEB410F15D29C
:10D2F00023F0004352EA43060BD04FEA4C0CBCEB40
:10D30000410F04D80C0D661E342EB7DDEBE7801AF2
:10D31000994150EA410608BF0021E4E708BF1CEB31
:10D32000430F28BF6FF00001DDE7000170470001E7
:10D3300000000000F4A30408010000000100000048
:10D3400004A40408030000000200000014A4040860
:10D35000030000000300000024A4040803000000F0
:10D360000400000034A404080300000005000000CD
:10D3700044A40408030000000600000054A40408AC
:10D38000030000000700000064A40408030000007C
:10D390000800000074A40408030000000900000055
:10D3A00084A40408010000000A00000094A40408FA
:10D3B000050000000B000000A4A404080300000006
:10D3C0000C0000000C6304080C0000000D000000BD
:10D3D000B4A40408050000000E000000C4A4040862
:10D3E000030000000F000000D4A4040803000000A4
:10D3F00010000000E4A40408030000001100000075
:10D40000F4A40408030000001200000004A50408AE
:10D41000030000001300000014A50408030000002E
:10D420001400000024A504080300000015000000FB
:10D4300034A50408030000001600000044A50408F9
:10D44000030000001700000054A5040803000000BA
:10D450001800000064A50408030000001900000083
:10D4600074A50408030000001A00000084A5040845
:10D47000030000001B00000094A504080300000046
:10D480001C000000A4A50408030000001D0000000B
:10D49000B4A50408030000001E000000C4A5040891
:10D4A000030000001F000000D4A5040803000000D2
:10D4B00020000000E4A50408040000002100000092
:10D4C000F4A50408040000002200000004A60408DB
:10D4D000060000002300000014A604080800000055
:10D4E0002400000024A60408080000002500000015
:10D4F0002C6304080D000000260000004C630408A3
:10D500000A0000002700000034A604080400000000
:10D510002800000044A604080500000029000000BF
:10D5200054A60408050000002A00000064A60408B0
:10D53000060000002B00000074A60408080000008C
:10D540002C00000084A60408040000002D00000048
:10D5500094A60408050000002E000000A4A60408FC
:10D56000040000002F000000B4A60408050000001D
:10D5700030000000C4A604080800000031000000CC
:10D58000D4A604080800000032000000E4A6040845
:10D590000800000033000000F4A6040808000000A2
:10D5A0003400000004A70408080000003500000053
:10D5B00014A70408080000003600000024A704088F
:10D5C000080000003700000034A70408080000002D
:10D5D0003800000044A704080800000039000000DB
:10D5E00054A70408080000003A00000064A70408DB
:10D5F000040000003B00000074A7040804000000C1
:10D600003C00000084A70408080000003D00000062
:10D6100094A70408080000003E000000A4A7040826
:10D62000080000003F000000B4A704080800000044
:10D63000400000006C6304080F000000410000007F
:10D640008C6304080A00000042000000AC63040878
:10D650000A00000043000000CC6304080A00000038
:10D6600044000000EC6304080B00000045000000CB
:10D670000C6404080A000000460000002C64040842
:10D6800009000000470000004C6404080B00000083
:10D69000480000006C6404080B0000004900000012
:10D6A000C4A70408040000004A000000D4A704082E
:10D6B000080000004B0000008C6404080900000012
:10D6C0004C000000E4A70408080000004D00000022
:10D6D000AC6404080C0000004E000000CC64040898
:10D6E0000B0000004F000000EC6404080B00000079
:10D6F000500000000C6504080A0000005100000002
:10D700002C6504080B000000520000004C65040862
:10D710000B000000530000006C6504080A000000C4
:10D72000540000008C6504080A0000005500000049
:10D73000AC6504080B00000056000000CC6504082E
:10D740000A00000057000000EC6504080E0000000D
:10D75000580000000C660408090000005900000091
:10D760002C6604080A0000005A0000004C660408F9
:10D77000090000005B000000F4A704080500000099
:10D780005C00000004A80408050000005D00000023
:10D7900014A80408050000005E00000024A8040886
:10D7A000080000005F00000034A804080800000022
:10D7B0006000000044A804080500000061000000AB
:10D7C0006C66040809000000620000008C66040812
:10D7D000090000006300000054A8040808000000CD
:10D7E00064000000AC660408090000006500000049
:10D7F000CC660408090000006600000064A8040864
:10D800000400000067000000EC6604080900000046
:10D810006800000074A80408080000006900000007
:10D8200084A80408040000006A00000094A804080A
:10D83000040000006B000000A4A804080800000019
:10D840006C000000B4A80408040000006D00000093
:10D850000C6704080C0000006E000000C4A8040857
:10D86000080000006F0000002C6704080900000099
:10D87000700000004C6704080900000071000000FF
:10D880006C6704080900000072000000D4A80408B6
:10D890000500000073000000E4A804080800000070
:10D8A00074000000F4A804080400000075000000E3
:10D8B00004A90408080000007600000014A9040868
:10D8C00008000000770000008C6704080A000000D0
:10D8D0007800000024A90408070000007900000077
:10D8E00034A90408080000007A00000044A90408D4
:10D8F000070000007B00000054A904080600000097
:10D900007C00000064A90408040000007D00000001
:10D9100074A90408060000007E000000AC6704083B
:10D920000A0000007F00000084A904080500000030
:10D9300080000000CC6704080D000000810000009A
:10D9400094A904080800000082000000A4A90408AB
:10D950000400000083000000B4A9040807000000D0
:10D9600084000000C4A90408050000008500000030
:10D97000D4A904080700000086000000E4A90408F8
:10D980000800000087000000F4A904080800000057
:10D990008800000004AA04080800000089000000B4
:10D9A000EC6704080F0000008A0000000C680408FF
:10D9B0000D0000008B00000014AA040807000000FE
:10D9C0008C0000002C6804080E0000008D00000090
:10D9D0004C680408090000008E0000006C68040810
:10D9E0000D0000008F0000008C6804080A00000091
:10D9F0009000000024AA0408080000009100000024
:10DA000034AA0408040000009200000044AA04089C
:10DA1000040000009300000054AA04080500000060
:10DA20009400000064AA04080500000095000000AE
:10DA300074AA0408080000009600000084AA0408E4
:10DA40000700000097000000AC6804080A0000000E
:10DA50009800000094AA040801000000990000004A
:10DA6000CC6804080A0000009A000000EC68040872
:10DA70000C0000009B000000A4AA0408070000009E
:10DA80009C0000000C6904080C0000009D000000D0
:10DA9000B4AA0408080000009E000000C4AA0408FC
:10DAA000080000009F000000D4AA0408080000003D
:10DAB000A0000000E4AA040804000000A100000087
:10DAC0002C6904080A000000A20000004C69040848
:10DAD00009000000A3000000F4AA040808000000E8
