:020000040800F2
:108000004052002021F70408258904082789040824
:10801000298904082B8904082D8904080000000020
:108020000000000000000000000000002F8904088C
:1080300031890408000000003389040835890408E8
:10804000DD0E0508E10E0508E50E0508E90E050838
:10805000ED0E0508F10E0508F50E0508F90E0508E8
:10806000FD0E0508010F0508050F0508090F050895
:108070000D0F0508110F0508150F0508190F050844
:108080001D0F0508210F0508250F0508290F0508F4
:108090002D0F0508310F0508350F0508390F0508A4
:1080A0003D0F0508410F0508450F0508490F050854
:1080B0004D0F0508510F0508550F0508590F050804
:1080C0005D0F0508610F0508650F0508690F0508B4
:1080D0006D0F05084D150408FDD70208710F05083E
:1080E000750F0508790F05087D0F0508810F050834
:1080F000850F0508890F05088D0F0508910F0508E4
:10810000950F0508990F05089D0F0508A10F050893
:10811000A50F0508A90F050805890408BFD702089F
:10812000AD0F0508B10F0508B50F0508B90F050813
:10813000BD0F0508C10F0508C50F0508C90F0508C3
:10814000CD0F0508D10F0508D50F0508D90F050873
:10815000DD0F0508E10F0508E50F0508E90F050823
:10816000ED0F0508F10F0508F50F0508F90F0508D3
:10817000FD0F050801100508051005080910050880
:108180000D10050811100508012003F0C9BB30B41B
:10819000002513E050F8042BD30744BFA9F10103D5
:1081A0009A18091F042942F8045BFAD213468C0777
:1081B00044BF15809B1CC90748BF1D7050F8041BA5
:1081C0000029E7D130BC704710B50400200028F02A
:1081D00067F9200010BD38B504000D00290020000B
:1081E000C046C046200032BD000000000048704775
:1081F000CC20002000000000000000000100000072
:10820000AAAAAAAABBBBCCCCF16E0000B0A8018080
:10821000FB6E00005C63040011700000741C04001D
:10822000457200002C4304009B720000B0AF028036
:10823000ED730000B0AE05809575000008080400DD
:10824000B1780000B0AA0180E578000001000000CC
:10825000E7780000644404001D790000B0B0A880F5
:1082600025790000B0AE038097790000B0AB0080A4
:10827000D5790000B0AA0180FB790000B0A9008088
:108280004D7A00004C670400497B000000840080A8
:10829000C17B0000BC5E04002D7C0000B0AE0180FC
:1082A000F37C0000B0B0AA80377D0000B0A9008048
:1082B000FF7D0000B0AA0180857E0000B0B0A880DC
:1082C000937E0000B0A90080F77F0000B0AD008071
:1082D00079800000B0A8018085800000B0AA0580E8
:1082E000B9820000B0A900808D8300002C440400F6
:1082F000AD8300003C440400CD8300004C440400E6
:10830000ED8300005C4404000D8400006C44040014
:108310002D840000AC67040047840000B4670400AB
:1083200061840000BC670400D9850000B0B0AA8059
:1083300043860000B0A9008065870000B0B0AC8023
:10834000C7870000B0B0AA804B880000B0B0A880FA
:10835000EF880000B0B0AE80438A0000010000004A
:10836000C98A0000B0B0A880498B00009C5104006D
:10837000758B0000B0B0AA80298D0000B0B0A88035
:10838000F38E0000B0AA0180B98F00002C4C0400CD
:10839000A3900000B0B0AA809F910000B0AF02800F
:1083A000019200000051040033950000E4500400E5
:1083B00055970000B0B0AC8025980000E46604003A
:1083C00019990000EC660400B99A0000B0B0A880CA
:1083D000C59A0000B0AF0C80F59C0000B0AC0980DD
:1083E000379E0000B0A90080599E0000B0B0A88060
:1083F000D59E0000B0AB0080D39F0000B0AF0080DE
:108400002DA30000B450040001A50000B0AE01800F
:1084100017A600000100000043AB0000B0A90080D7
:1084200069AB0000B0AA018095AB0000B0A9008044
:108430009DAF0000B0AE01805FB00000B0AB008027
:10844000C7B00000B0A90080FDB100004465040081
:1084500065B20000B0B0A8809FB20000B0A9008053
:1084600011B30000B0AB0080C5B30000B0AA01801A
:108470004DB40000B0B0AA80A9B50000B0A8038038
:10848000C7B50000B0B0A880CFB5000034610400CB
:10849000FFB500003C61040029B600006022040022
:1084A00055B70000B0AA0180B7B70000686F03009D
:1084B00075BD0000B4EE03008DBE00002461040011
:1084C00001BF0000383C040005C0000001000000AE
:1084D00007C00000941904007FC000008021040040
:1084E00083C10000B0AC058051C20000A8B80300F1
:1084F000F5C20000BC9F03007BC60000B0A900804D
:1085000099C6000000840080A7C60000B0AB0080C0
:1085100009C70000BC62040023C70000B0AB0080A4
:1085200053C70000B0AA05808DC70000B4620400E4
:10853000B7C70000B0A906806DC8000040AF0300B7
:1085400029C900000084008029C9000038F1030017
:10855000EDC900007CFC030091CA0000E45C04004B
:10856000ABCA0000182104007DCB00007804040091
:1085700047CC0000A00404001DCE0000B0B0A880CD
:1085800041CE0000B0A801806DCE00007C3F040009
:10859000C3CE0000B0A80180CDCE0000B0A90480F9
:1085A0000DCF00007C3F040053CF0000B0B0A88086
:1085B00059CF0000843F04009DCF0000E4F1030088
:1085C00079D000000100000065D10000B45F040014
:1085D000B1D100004C5B040003D20000B0B0A88011
:1085E00007D20000C4B8030011D30000B0A8018076
:1085F0001BD300006C630400A1D30000B0AA01806B
:10860000C5D30000B0B0A880E9D30000B0A80180B5
:10861000F1D30000B0B0AA8065D40000844004000B
:10862000E1D40000B0B0A8800DD50000B0A9008052
:1086300021D50000C43F040085D50000B0B0A8805B
:10864000C9D50000B0AB02806FD60000B0B0AA80E0
:108650001FD70000B0AE0180D5D70000B0B0A88011
:10866000EFD70000B0AC03808FD90000B0AB008022
:1086700029DA0000B0B0A88035DA0000A463040055
:10868000A3DA0000B0A90080C1DA0000343E040083
:1086900081DB00007C5A04007DDC0000B0A8018072
:1086A0000BDF0000B0AD068053DF0000B0AC0780E8
:1086B000C7DF00005C3F04001BE00000B0AE0B8091
:1086C00095E00000643F040015E10000E45A040056
:1086D00025E10000B0AA05802DE20000B0A90080CD
:1086E00081E20000B0AA018031E40000B0A902805C
:1086F0007BE40000B0A8018087E40000F46004007F
:10870000A9E40000FC600400CBE400000461040064
:10871000FBE400002C5C04001FE50000D84D0400C1
:108720003DE50000B0AA0580C1E50000B0A80380C7
:10873000F3E50000B0B0A880FBE50000345F040062
:1087400031E600003C5F04005BE6000030200400DE
:1087500071E80000443E04001DE9000040200400D0
:10876000DBE900005820040099EA0000245F0400BF
:108770001FEB0000B0AA01807FEB00005CAB0300A0
:1087800063ED000058200400F3ED0000145F0400C6
:1087900067EE0000BC3904001DEF0000B0B0A880F7
:1087A00025EF000030BA03000DF00000B0B0A88043
:1087B0001BF00000AC5E040093F00000A01F04005A
:1087C00035F10000B0B0A8803DF10000E45E040087
:1087D000B5F10000448B0300E1F50000B0B0A880C3
:1087E00011F60000843D040005F7000054FA030070
:1087F000E5F70000D4EA030041F90000B0B0A8801A
:108800006BF90000BC5F0400E1F90000A4FA03006A
:10881000C1FA000034ED030029FC0000B0B0A880CC
:1088200031FC000048B9030023FD0000B0B0A8806F
:1088300031FD00004C3D0400F5FD0000145E040015
:1088400039FE000030020400E1FE0000B0A8038001
:1088500013FF0000B4BA0300A1FF0000B0B0A8806D
:10886000A9FF00008C5E0400D3FF0000945E0400AA
:10887000F3FF00003C3D0400E1000100945E0400B1
:10888000210101009C5E040097010100B0AA018053
:10889000F7010100B8A5030041040100945E040043
:1088A00041050100B0A803805F050100B0B0A880B9
:1088B00067050100DC5C040097050100E45C04002E
:1088C000C1050100181E0400ED060100B0AA0180D8
:1088D0004F0701009C6D0300AB0C01003CEA030054
:1088E000C30D0100CC5C0400370E0100F437040016
:1088F0001D0F0100B0A803803B0F0100B0B0A8809D
:10890000430F01001C5D0400730F0100245D04008F
:108910009D0F0100281E0400C9100100B0AA0180AB
:108920002B110100DCA8030011130100DCEA030095
:10893000291401000C5D04009D140100F8370400A7
:108940002D150100B0A803804B150100B0B0A88020
:10895000531501003C5E040083150100445E0400D1
:10896000AD150100981E0400D9160100B0AA0180BF
:108970003B170100B87A03004D1B01007CEB03009C
:10898000651C01002C5E0400E11C01003438040069
:10899000991D0100B0A80380B71D0100B0B0A880E8
:1089A000BF1D01001C5D0400EF1D0100245D0400DB
:1089B000191E010004150400531F0100B0AA018014
:1089C000B51F01006CA10300392201008CEA0300ED
:1089D000512301000C5D0400C52301009037040001
:1089E00089240100B0B0A88091240100B0A90080C2
:1089F000B9240100B0B0A880C7240100CC3B04001A
:108A00008B2501007C5D0400CF250100D43B0400D0
:108A10001326010064F803002B27010020B803008F
:108A20005D28010080370400CD280100B0B0A88087
:108A3000F7280100AC1404006D2A0100B0AA0180DF
:108A4000CF2A0100DC9B0300E72D01005CEA030054
:108A5000FF2E01001C5D0400732F01002C37040061
:108A600021300100B0A803803F300100B0B0A880E1
:108A7000473001007C5B040077300100845B040018
:108A8000A1300100981C0400CB310100B0AA018084
:108A90002D32010040C10300053301001CE9030031
:108AA0001D3401006C5B0400913401006C3604003D
:108AB00001350100B0A9008039350100B0AA058058
:108AC000DF350100B0AA018077360100C4570400E9
:108AD00099360100CC570400BB360100D45704007E
:108AE000DD360100DC570400FF360100B0A801802C
:108AF0002D370100010000002F37010000840080A5
:108B00002F370100B0AA058075370100B0A9008099
:108B10009D370100DC39040033380100ECF6030016
:108B2000F3390100B0AA0180153C010001000000EA
:108B30002B3C0100B0B0A8803F3C0100B0B0AA803F
:108B4000473C0100B0B0A880733C0100B0A9008090
:108B5000E53C0100B0B0A880813E0100B0AB0A80C6
:108B6000AB3E0100B0AB0680CD3E0100B0AA05804F
:108B700087400100B0AB008033410100B0AA018002
:108B800045410100B0B0AC804B420100B0AA018069
:108B900099420100B0AB0080AB430100B0A9008056
:108BA00027440100B0B0A88067440100B0B0AC8099
:108BB0007F450100B0B0AA8043460100B0B0AE804E
:108BC00087470100B0AB00800D4A0100B0B0A8801B
:108BD0001D4A0100B0B0AA80AF4A0100B0B0AE801B
:108BE0001D4B0100B0AA0180174C0100B0AC018000
:108BF000054E0100B0B0AA80254E010064EC0300D0
:108C00005F4E0100B0B0A880774E01008CF50300E4
:108C10005D4F0100B002A980854F0100B0AD00801A
:108C200021500100843804004D510100B0A900809A
:108C3000A1510100A438040021520100F4550400A0
:108C4000AB520100181C040097530100B0A801802A
:108C5000A15301008CEB0300C1540100045E040029
:108C6000E35401000C5E040049550100943A0400ED
:108C7000E955010002A802803D560100B0B0A8806D
:108C80005D560100B0A9008063560100B0B0A88015
:108C9000B9560100B0AB02805F570100B0B0AA80A6
:108CA0000F580100B0AE0180C5580100B0B0A880D7
:108CB000DF580100B0AB02809F590100B0AB0080CB
:108CC000395A0100B0B0A880495A0100BC390400EB
:108CD000D55A010001000000D95A0100845804004F
:108CE000215B0100B81904004F5C0100D019040099
:108CF0002D5D0100BC5D0300D35F0100C451040081
:108D00003F600100B0AF088039620100C451040027
:108D10001D6301009C6F0300D5640100245D040005
:108D200041650100B0AF0880BD660100245D04000C
:108D30006D6701000C390400CF6701001C39040085
:108D400065680100FC59040087680100045A0400AA
:108D5000A96801000C5A040091690100010000009B
:108D6000996901007C5C0400E5690100B0B0A8804D
:108D7000F96901007C5C0400356A01005439040083
:108D8000D96A0100B0AC0180376B0100901A040071
:108D90003F6C0100A81A0400196D0100B0AB0080FF
:108DA0003D6D0100B0A90080816D0100B0B0AA80C6
:108DB000DD6D0100B0B0A880316E0100B0B0AC80B4
:108DC0008B6F0100B0B0AE808B700100B0AA018043
:108DD0009D700100B0B0A880BB700100B0A80180F8
:108DE000ED700100B0AA01804D710100B0AA0580AC
:108DF000CD710100B0A9008011720100B0A80180FE
:108E000033720100B0AA018049720100B0AA058046
:108E1000A3730100B0B0A880FD750100B0B0AC80B4
:108E2000517801004C5A040071780100545A040032
:108E3000917801005C5A0400B1780100645A040082
:108E4000D17801006C5A0400F1780100745A0400D2
:108E50001179010050A9030079790100B0AB0680B7
:108E6000197A01006C5A0400897A0100B0AA0580C1
:108E7000D17A01006C5A0400E17A0100B0B0AE80F2
:108E8000C97B0100B0AB04806D7C0100B0AB0080F9
:108E9000037D0100B0B0AA807D7D0100B0B0AC8040
:108EA0001B7E0100B0B0AA8023810100B042040003
:108EB00085810100D04204005F850100B4420400B6
:108EC000C1850100D4420400038901007C420400F2
:108ED0003F890100B0B0AA80F18D0100B0AB0080E5
:108EE000CF8E0100B0AF0280318F010040450400F9
:108EF00009950100B0AA0180A1950100B0B0AA8037
:108F0000FB9501006C5104002B960100B0B0A880C5
:108F100031960100CC510400A3960100008400802A
:108F2000B5970100B0A90A80FB970100B0AA0180A3
:108F30005B980100B0AB00808D980100B0AB02805F
:108F4000B5980100B0B0AC80CF990100345B04004B
:108F5000F9990100B0A900803B9A01008445040002
:108F6000479C0100B0B0AA806B9C0100844F0400B4
:108F7000DD9D01001C500400ED9D0100B0AF02809A
:108F8000DD9F0100804404000FA001005032040066
:108F900073A0010064320400F9A0010078320400DB
:108FA00043A10100BC580400ADA10100B0AB00809A
:108FB000A7A301006444040095A601002C4204000C
:108FC000D5A60100B0B0AA80E3A60100B0B0A88089
:108FD00099A70100B0B0AE80DBA70100B0A9008066
:108FE000F3A70100B0B0A88009A80100B0AA0180D1
:108FF00093A80100B0B0AE8055AB01008C420400D4
:10900000E1AD01007042040011B10100B0B0AA80CE
:1090100029B20100010000002DB20100E459040052
:1090200077B20100B0B0A8808BB20100E45904000F
:10903000C7B20100B0AC018001B30100B0AB028047
:1090400021B30100B0A900808BB30100B0B0AA80A9
:10905000E7B30100B0B0A88041B4010002A80280CB
:109060005FB40100B0AB0280FBB40100B0AC018082
:109070005DB5010002A80280DDB50100010000001D
:10908000E1B50100EC58040013B60100F4580400E7
:109090004DB60100B0AB00806DB60100B0AAD08023
:1090A00099B60100B0A90080DDB60100B0B0AA8079
:1090B00039B70100B0B0A88015B8010002A802803D
:1090C0006BB80100B0AB02808BB80100B0A9008082
:1090D000D9B80100B0B0AA80DBB90100345804004F
:1090E00025BA0100B0AA018085BA0100B002A980AA
:1090F000B1BA0100B0A80980E1BA0100B0A90680A8
:109100000DBB0100E435040093BB0100B0A9008051
:10911000A5BB0100E840040007BC01008041040039
:109120000FBF01003C41040071BF0100AC410400CD
:1091300079C2010004410400DBC20100884104003F
:109140001FC60100B0AF02801BC80100B0B0AE80E6
:109150007BC90100B0A9008005CA0100B0B0A88099
:1091600069CA0100B0B0AE8029CB0100B0B0AA80BE
:10917000BBCB0100B0AB008063CC0100B0AE01807E
:10918000B1CC0100B0AF00800BD001002040040042
:1091900033D20100B0AB0080DBD20100B0AE018061
:1091A00029D30100B0AF008083D601001440040031
:1091B00051D80100B0AA01809DD80100B0B0AA80AA
:1091C00011DA0100B0B0A88053DA01004440040075
:1091D0009BDA0100DC40040009DE0100B0AB008036
:1091E00007DF0100B0AF008061E2010054420400DB
:1091F000E1E70100B0B0AA80A9E80100B0B0A88002
:10920000ADE80100B0B0AA80D7E80100283F040013
:10921000B1EA0100B0B0A880F3EA0100B0B0AA80C2
:1092200059EB01004C340400C1EB0100B0B0AC803C
:10923000F9EB0100B0B0AA805FEE0100B0B0AC80E5
:10924000B3EE0100B0B0AA80F7EE0100B0A9008033
:10925000FFEE0100B0AB0080ADEF0100B0A80180CF
:10926000DFEF0100B0AB0080F5EF0100B0B0AA80E5
:1092700093F0010001000000A9F00100B0B0A88047
:10928000ADF00100B0B0AA80ABF70100B0AE018034
:10929000CBF80100B0AB0080E1F80100B0B0A880CD
:1092A000E5F80100B0B0AA8063FB0100F4400400BF
:1092B000C5FB010014410400CDFE0100B0AB0080ED
:1092C0000FFF0100B0B0AA802BFF0100AC400400EA
:1092D00025000200B840040087000200D8400400C6
:1092E000B3040200B0B0A880B7040200B0B0AC80F4
:1092F0006F060200B0B0A88073060200B0B0AC8068
:109300001F090200B0B0AE80310A020002A802803C
:10931000490A02001C4E0400930A0200B0B0A88063
:10932000A70A02001C4E0400FF0A0200B0B0A88089
:10933000090B0200B0AB0480570B0200B0B0AA804A
:10934000B30B0200B0B0A880D90B0200B0A9008016
:10935000E10C0200B0B0A880E50C0200B0B0AA8019
:10936000C90D0200684104002F0E0200B0AB00805E
:10937000CB0E0200B0AE0180190F0200B0AF00802A
:1093800065120200683F04001B140200B0AB0080AD
:10939000B7140200B0AE018005150200B0AF008026
:1093A00051180200843F0400071A0200B0AB00808D
:1093B000A31A0200B0AE0180E31A0200B0AF008031
:1093C0002F1E0200503F0400E51F0200B0AF0280D4
:1093D0003B230200B0A90080B9230200B0AA01809B
:1093E000F3230200B0A9008019240200D450040025
:1093F00041240200EC4E040075240200B0A9008054
:10940000A3240200B0AE018081280200B0A9008030
:10941000AF280200B0AE0180972C0200B0A90080F6
:10942000B92C0200B0B0AA80452D0200B0AA01807C
:10943000992D0200B0AB0080412E0200B0B0AA808E
:109440006F2E0200B0AF0080C7310200B43E0400AE
:1094500089330200B0A900805B3E0200B0B0AA8050
:10946000893E0200B0AB00807D3F0200B0A80180C1
:10947000D93F0200B0AB008011400200B0B0AA801A
:10948000C9410200B0AA0180F7410200B0A90A80D8
:109490004B440200B0AA0180E34402000C2C0400FB
:1094A00015480200B0A9008033480200B0B0AA807D
:1094B00049480200B0AC0180A1480200B0B0AA80C7
:1094C000AF480200B0AB0080934D0200B0AE018007
:1094D000A14E0200B0AC0180D54E0200B0AA0180BE
:1094E000F54E0200B0B0A880F34F0200B0AB008090
:1094F0008F500200B0AE0180DD500200B0AF00809E
:1095000029540200EC3E0400DF5502000100000077
:1095100073560200B0B0AC8033570200B0B0A880E0
:1095200037570200B0AB008053580200B0AE018044
:10953000A1580200B0AF0080FB5B0200A03E040017
:10954000615E0200B0AA0180815E0200043E040058
:1095500011600200B0AA018031600200E03D040009
:109560007B630200B0A90080D9640200B0B0AA8079
:1095700007650200B0AB0080D1670200B0A900808F
:10958000FF670200B0AE0180456B0200B0A9008009
:10959000736B0200B0AE0180996E0200B0A900802A
:1095A000C76E0200B0AE01806F720200B0AB0080E7
:1095B00021730200B0A90080B3730200C44B040001
:1095C000A9740200B0A90080CD740200D44B04003D
:1095D000C3750200B0A90080E7750200B44B040017
:1095E00087760200B0A9008011770200B0B0AA808F
:1095F000377A0200B0A900805F7C0200B0B0A8807A
:10960000957C0200CC3A0400DD7C0200D83A0400CC
:109610001D800200B0B0AA805F800200B0AC018063
:10962000B5800200B0A9008025810200A44A040090
:1096300047870200B0B0AA8073880200B0B0AE8045
:109640000B890200B0A902802F890200B0B0A88067
:1096500033890200783904008789020084390400C4
:109660007B8E0200BC510400FF8E0200B0A9028074
:10967000478F0200B0A90080558F0200B0AA018078
:1096800019900200B0A9008047900200B0AE01809E
:109690008D930200B0AB0080199402000C3A0400D4
:1096A00011950200B0AA018031950200B0AC018092
:1096B00095950200B0A90080C3950200B0AE01806C
:1096C000ED990200B0A90080559B02000100000046
:1096D0004FA80200B0A9008035AA0200B0B0A8804F
:1096E0006BAA0200703D0400B3AA02007C3D040096
:1096F0006BAE0200B0AC01809DAE0200B0A900804C
:10970000C1AE0200CC4B040085AF0200B0A90080BE
:10971000A9AF02001C4C04002BB00200B0A90080CD
:109720004FB00200EC4B040099B10200B0A90080D8
:1097300015B20200B0AB0080B9B20200B0AA01803D
:109740000DB30200B0AB008059B30200B0AA018093
:10975000ADB30200B0AB0080F7B30200B0B0A88098
:109760003FB40200B0A9008071B50200844B040030
:109770000DB60200B0AB0080A9B70200B0AA01800C
:10978000D5B70200B0AB00807DB80200B0B0AA80AF
:10979000ABB80200B0AF008003BC02005C3904002B
:1097A000D7BD0200B0A900807BBE0200B0A9028034
:1097B000ADBE0200B0A90080F7BE0200B0B0AA8022
:1097C00043BF02000029040067C40200983B040064
:1097D000A5C40200B0AA0180C5C40200B0AB0080DD
:1097E00079C50200B0B0AA80A7C50200B0AF008062
:1097F0000FC902000038040009CD0200B0AA0180A0
:109800002DCD0200D039040071CD0200B0A9008036
:109810009BCE02009C4C040083CF0200B0A90080C4
:1098200013D102007C4C04008FD10200B0A900804B
:10983000FFD10200183A040065D20200B0A90080EE
:10984000D5D20200E03904001DD30200B0AB008085
:1098500011D60200B0AA01803DD60200B0AB008054
:10986000E5D60200B0B0AA8013D70200B0AF0080E6
:109870006BDA0200083C0400D9DC0200B0AB0080C7
:1098800025DD0200B0AA018079DD0200B0AB0080C6
:10989000C5DD0200B0AA018019DE0200B0AB008075
:1098A00065DE0200B0AA01802FDF0200C448040078
:1098B00075DF0200AC480400F7DF0200B0AB0080A7
:1098C0003DE002008C490400C9E10200B0A900801B
:1098D0000DE20200B0B0AA804DE50200B0A90A80F6
:1098E00083E502003C380400B9E50200B0AB00801B
:1098F0003BE60200B0B0AA8029E70200B0A90080D0
:1099000079E70200B0B0AA804BED0200B0A9008058
:10991000BDED0200B0AB008009EE0200B0AA0180EC
:109920007DEE02003437040019F50200B0A9008072
:10993000A1F50200B0AB0080EDF50200B0AA0180F5
:1099400033F60200B0B0AA80E9F70200B0A90080A7
:109950002DF80200B0B0AA8085FB02002449040063
:10996000CDFB02000C49040015FC0200B0B0AA8037
:1099700059FC0200B0A80180B9FD0200B0A9008026
:1099800055FE0200DC460400FFFE0200B0B0AA80D3
:1099900075FF0200B0A900801100030044450400D7
:1099A00043020300EC4A0400B5020300B0B0AA80F1
:1099B000CB040300B0A9008067050300444F0400F6
:1099C00001060300B0A801805B060300B0B0A880C8
:1099D00035070300B0AB00807F0703007446040026
:1099E000D1070300B0B0AA8039080300B0AB0080F3
:1099F00083080300B0A90080EB080300D44A0400E8
:109A000025090300B0B0AA804709030014490400E7
:109A10006F090300EC480400190B0300B0AB008091
:109A2000630B0300CC4E0400A70B0300B0B0A8806A
:109A3000B70B0300B0B0AA80D10B0300B0A900801F
:109A40003F0C03003C460400790C0300044504006D
:109A5000FD0C03001C450400250D03000448040010
:109A60003B0D0300B0A90080150E0300B44E0400A6
:109A70004D0E0300B0B0AA80710E0300B0B0A880F4
:109A8000130F0300B0B0AA80750F0300EC29040087
:109A900017100300B0A9008025100300B0B0AA8001
:109AA00089100300B0AA0180D5100300B0B0AA80CD
:109AB00091110300B0A9008063120300B0B0A88028
:109AC000B7120300B0A900802713030001000000B3
:109AD0001B1A0300B0AB0080994C0300B0A80180B2
:109AE0004555030001000000A1550300B0B0A88057
:109AF000B7550300B0B0AA80B3560300C4450400B4
:109B0000AD5D030001000000A95F0300B0A9008063
:109B1000DF5F030000840080D16A0300B0AC0580E1
:109B20002F6B030068B10300776C0300B0AA0180BB
:109B3000996C03005C290400F56C0300B0B0AC80A4
:109B4000316E0300B0AA0180256F0300B0B0AA8077
:109B5000956F0300B0AB0080ED6F0300B0B0A8803C
:109B6000B3700300E034040075710300B0B0AA8044
:109B70005F7203000C350400B7720300B0AB0080C5
:109B8000CD720300DC43040031730300B0A90080F0
:109B900093730300B0AC0180DD730300B0A90080B3
:109BA00009740300B0AA038039740300B0AB0080CD
:109BB0006F74030068340400A1740300B0B0AA807D
:109BC000CD7403007C4304002B77030001000000E8
:109BD000E57B0300A4D603009B7C0300C443040080
:109BE000497D0300008400805F7E0300B0A90080EF
:109BF000AD7E0300B0AA0180E17E0300400A0400AC
:109C00002F7F03002C3404002D800300B0A90080B6
:109C1000CD800300B0B0A88035810300B0AB0080D8
:109C2000CB81030070340400FB810300B0AC0180E1
:109C30003F820300B0B0AC801F830300B0A9028054
:109C4000398303007834040093840300BC33040098
:109C5000BD840300B0A90080C5840300010000009A
:109C60007F85030008340400C7850300B0AB008083
:109C700033860300B0B0AA806F860300044304005B
:109C800097860300AC420400F58A0300010000003F
:109C90002197030010A60300E198030001000000D3
:109CA000CF99030068340400599A0300B0B0A8802B
:109CB000159C030001000000719C0300B0AB008004
:109CC0005D9D030001000000B99D0300B0AB008062
:109CD000A59E030001000000019F0300B0AB0080BF
:109CE000ED9F03000100000049A00300B0AB00801D
:109CF0007DA60300010000003DA70300C40304008B
:109D000039B00300B0AC018091B00300B0A900806D
:109D10000BB10300B0AB0080C1B10300B0AC018057
:109D200019B20300B0A9008093B20300B0AB008069
:109D300045B30300B0AC01809DB30300B0A900801F
:109D400017B40300B0AB0080C9B40300B0AC01800D
:109D500021B50300B0A900809BB50300B0AB008023
:109D600051B60300B0AC0180A9B60300B0A90080D1
:109D700023B70300B0AB0080D9B70300B0AC0180BB
:109D800031B80300B0A90080ABB80300B0AB0080CD
:109D900061B90300B0AC0180B9B90300B0A900807B
:109DA00033BA0300B0AB0080E9BA0300B0AC018065
:109DB00041BB0300B0A90080BBBB0300B0AB008077
:109DC00071BC0300B0AC0180C9BC0300B0A9008025
:109DD00043BD0300B0AB0080F9BD0300B0AC01800F
:109DE00051BE0300B0A90080CBBE0300B0AB008021
:109DF00081BF0300B0AC0180D9BF0300B0A90080CF
:109E000053C00300B0AB008009C10300B0AC0180B7
:109E100061C10300B0A90080DBC10300B0AB0080CA
:109E200091C20300B0AC0180E9C20300B0A9008078
:109E300063C30300B0AB008019C40300B0AC018061
:109E400071C40300B0A90080EBC40300B0AB008074
:109E5000A1C50300B0AC0180F9C50300B0A9008022
:109E600073C60300B0AB008029C70300B0AC01800B
:109E700081C70300B0A90080FBC70300B0AB00801E
:109E8000B1C80300B0AC018009C90300B0A90080CB
:109E900083C90300B0AB008039CA0300B0AC0180B5
:109EA00091CA0300B0A900800BCB0300B0AB0080C7
:109EB000BDCB0300B0AC018015CC0300B0A900807D
:109EC0008FCC0300B0AB008041CD0300B0AC01806B
:109ED00099CD0300B0A9008013CE0300B0AB008081
:109EE000C5CE0300B0AC01801DCF0300B0A9008037
:109EF00097CF0300B0AB008049D00300B0AC018025
:109F0000A1D00300B0A900801BD10300B0AB00803A
:109F1000CDD10300B0AC018025D20300B0A90080F0
:109F20009FD20300B0AB0080F9D80300B0B0AA8084
:109F30002FE203005821040039E80300B0AD00808F
:109F40006FE80300B0B0AC80F3E80300B0AD008070
:109F500029E90300B0B0AC8001EA0300B0B0A880EA
:109F600075EB0300B0B0AC809DEB0300B0AD00809A
:109F7000C5EB0300B0B0AC8045EC0300B0AD008091
:109F80006DEC0300B0B0AC80ADFD0300B0AB02805F
:109F9000ADFE03009C22040071FF03001440040086
:109FA00091FF03001C400400B1FF03004441040082
:109FB000D1FF03009C430400F1FF0300244504008B
:109FC0009D180400B0B0AA80B5180400B0AB0080A2
:109FD000D9180400B0B0AA8009190400B0AB008001
:109FE0002D190400B0B0AA807B190400B0AB00802A
:109FF0009F190400B0B0AA80ED190400B0AB008036
:10A00000111A0400B0B0AA805F1A0400B0AB00803F
:10A01000831A0400B0B0AA80D11A0400B0AB00804B
:10A02000F51A0400B0B0AA80431B0400B0AB008056
:10A03000671B0400B0B0AA80B51B0400B0AB008061
:10A04000D91B0400B0B0AA80271C0400B0AB00806C
:10A050004B1C0400B0B0AA80991C0400B0AB008077
:10A06000BD1C0400B0B0AA80ED1C0400B0AB0080A1
:10A07000111D0400B0B0AA80411D0400B0AB0080E7
:10A08000651D0400B0B0AA80951D0400B0AB00802F
:10A09000B91D0400B0B0AA80E91D0400B0AB008077
:10A0A0000D1E0400B0B0AA803D1E0400B0AB0080BD
:10A0B000611E0400B0B0AA80B11E0400243F040059
:10A0C000031F0400FC40040085210400443F0400F9
:10A0D000992104004C3F0400E5210400F4420400EF
:10A0E000F9210400FC420400A9260400143E0400E7
:10A0F000B92604001C3E0400C9260400243E0400C6
:10A10000D9260400EC3E0400E9260400F43E0400D5
:10A11000F92604001C3F040009270400243F040022
:10A12000192704006C3F040029270400743F040031
:10A13000392704007C3F04004927040094400400B0
:10A14000592704009C40040069270400A44004002F
:10A1500079270400AC40040089270400B4400400BF
:10A1600099270400BC400400A9270400044204000D
:10A17000B92704000C420400C9270400144204005B
:10A18000D92704001C420400E927040024420400EB
:10A19000F92704002C42040009280400544204005A
:10A1A000192804005C4204002928040064420400C9
:10A1B000392804006C420400492804007442040059
:10A1C000592804007C4204006928040084420400E9
:10A1D000792804008C420400892804009442040079
:10A1E000992804009C420400A92804001443040098
:10A1F000B92804001C430400C928040024430400B7
:10A20000D92804002C430400E92804003443040046
:10A21000F92804003C430400092904001446040002
:10A22000192904001C4604002929040024460400BE
:10A2300039290400FC4604004929040004470400AD
:10A24000592904000C4704006929040054470400FC
:10A25000792904005C47040089290400644704004C
:10A26000992904008C480400312C0400643D04004A
:10A27000552C04008C3E0400632C0400E4400400D0
:10A28000712C04006C420400AB2C0400A4470400B1
:10A29000B92C0400FC47040000F5E070026891420C
:10A2A00003D343681A44914202D380680028F5D151
:10A2B00070471849086880B94FF4805048604FF4DF
:10A2C00080324FF0FF30C86008610420124B8A6072
:10A2D0004861C3F8BC01114808600120704701F1D2
:10A2E000080313F0070F0EBF0023C3F1080303F0A8
:10A2F00007031944D21A8161C26042F001034B6026
:10A30000091D4FF0280C41F802C0024A1369C361CD
:10A3100070470000602F0020CC2400206859883C42
:10A320002DE9F84F84B00646AFF30080F52E1E4DA0
:10A3300080F013820B2E31BF10260B36F608F60084
:10A340002868F408E04010F0030F4AD0C04300F042
:10A350000100041905F1280000EBC408E700D8F853
:10A3600008607068C008C000B84218BFFDF70CFF55
:10A37000D6F80890464508BFFDF706FF4E4508BFD2
:10A38000FDF702FF7068C008C000B84218BFFDF7B3
:10A39000FBFEC8450AD12868012101FA04F420EA2D
:10A3A00004042C6010E000BFCC2400202869814503
:10A3B00008D3D9F80C10B14204D1C8F80890C9F8F4
:10A3C0000C8001E0FDF7E0FE47F00300311D7060F6
:10A3D000301DCA5942F00102C25106F1080800F0CE
:10A3E0001DBFA968B14280F0A883002800F0A280B8
:10A3F0004FF0010808FA04F1490000FA04F4484259
:10A4000001430C4060420440641E200B00F0100029
:10A41000C440610901F00801CC40A20802F0040226
:10A42000D440630803F002030818DC401018C4F39A
:10A43000400718183818FC40241805F1280000EBD4
:10A44000C40AE700DAF80890D9F80400C008C00090
:10A45000B84218BFFDF798FED9F808B0D14508BF3B
:10A46000FDF792FED94508BFFDF78EFED9F804002E
:10A47000C008C000B84218BFFDF786FEDA4506D115
:10A48000286808FA04F420EA04042C600DE0296925
:10A490008B4508D3DBF80C00484504D1CAF808B056
:10A4A000CBF80CA001E0FDF76FFEBF1B46F00300E8
:10A4B00009F10402C9F8040047F00101915109EBC8
:10A4C00006020192D751AC684FEAD40ABAF11F0FC5
:10A4D00088BFFDF759FE34B3CDF800A005F1280080
:10A4E0006E6900EBCA0AD346102C38BFFDF74CFE4C
:10A4F0002968009821FA00F2D30704D408FA00F082
:10A500000843286007E0DAF80800296988422CBF70
:10A510008346FDF739FECAF80860CBF80C60C6F830
:10A5200008B0C6F80CA0AF6009F10808019868618E
:10A5300000F074BE6868002800F0208341420840A3
:10A54000401E010B01F01001C840420902F0080250
:10A55000D040830803F00403D840440804F0020408
:10A560005118E0405918C0F34007611805F5987874
:10A570007918F840401858F820104868C008C00002
:10A580008A46A0EB060B08E001464868C008C000F8
:10A59000801B58453CBF83468A4608690028F3D192
:10A5A00049690029F1D128698245C0F0D380DAF8E1
:10A5B0000410C90806EB0B09C900494518BFFDF78F
:10A5C000E3FD0AEB06008245019080F0C380DAF8D3
:10A5D0000C40DAF8187054450DD0DAF808002969F3
:10A5E000884223D3C268524504BFA16851451DD19A
:10A5F000C460A0601CE00AF114010C6834B90AF1CF
:10A6000010010C68A4B101E011460C6804F11402B9
:10A610001068002802BF04F1100210680028F3D16E
:10A620002869814202D300220A6001E0FDF7ACFDF7
:10A63000002F38D0DAF81C0008EB80010A68924538
:10A640000AD11CBB6A68012303FA00F022EA000069
:10A6500068600020086026E029698F4213D33869BA
:10A66000504514BF7C613C61ECB129698C4218D320
:10A67000A761DAF8100058B1884226BF20618461D2
:10A68000FDF782FD04E0FDF77FFDEDE70C60ECE7F0
:10A69000DAF8140038B12969884202D36061846114
:10A6A00001E0FDF771FDBBF1100F0ED249F0030080
:10A6B0000AF10401CAF804000AF1040051F8092063
:10A6C00042F0010240F809203EE046F003010AF1A1
:10A6D0000402CAF804104BF001009051019941F8AE
:10A6E0000BB0A8680090C4081F2C88BFFDF74CFD74
:10A6F000009828B305F1280000996F6900EBC408A1
:10A70000C146102938BFFDF73FFD286820FA04F143
:10A71000CA0705D4012101FA04F404432C6007E0C0
:10A72000D8F80800296988422CBF8146FDF72CFD26
:10A73000C8F80870C9F80C70C7F80890C7F80C8002
:10A74000C5F808B0019868611AF1080800F0F581B1
:10A7500000F064BDFDF718FDEFE116F1400F28BFD2
:10A760004FF0FF3680F0E9810B36F6086B68F60093
:10A77000002B00F0E2810027300AC6F1000908BF73
:10A78000002423D0B0F5803F28BF1F241ED2A0F59F
:10A790008071090C01F008018840A0F58052120C6C
:10A7A00002F004029040A0F58044240CC1F10E0197
:10A7B00004F00204891A091BA04001EBD031C81D26
:10A7C00026FA00F404F0010404EB410405F598783E
:10A7D00058F8240030B31F2C0FBFB4464FEA540C76
:10A7E000CCF1190C06FA0CFCBE46494601E04FEAD2
:10A7F0004C0C4268D208D200921B8A4202D211004D
:10A8000007460CD0426910304FEADC7950F8290035
:10A81000002A1CBF824296460028E8D1704689462D
:10A82000A8BBB7BB012101FA04F4640060420443F1
:10A83000234000F08281584203405B1E180B00F059
:10A840001000C340590901F00801CB409A0802F0FA
:10A850000402D3405C0804F002040818E340101816
:10A86000C3F3400C2018604423FA0CF31B1858F86B
:10A8700023000CE008464168C908C900891B494506
:10A880003CBF8946074601690029F3D14069002889
:10A89000F1D1002F00F05181A868801B814580F024
:10A8A0004C8129698F42FFF455AF7868C008C00019
:10A8B00006EB0901884218BFFDF766FC07EB060BA3
:10A8C0005F45BFF447AFFC68D7F818A0BC420CD076
:10A8D000B8682969884223D3C268BA4204BFA16814
:10A8E000B9421DD1C460A0601CE007F114010C68DE
:10A8F00034B907F110010C68A4B101E011460C68ED
:10A9000004F114021068002802BF04F1100210685C
:10A910000028F3D12869814202D300220A6001E0B5
:10A92000FDF732FCBAF1000F39D0F86908EB80016D
:10A930000A6897420AD134BB6A68012303FA00F01F
:10A9400022EA000068600020086028E029698A4542
:10A9500016D3DAF81000B84214BFCAF81440CAF887
:10A960001040E4B129698C4217D3C4F818A03869A3
:10A9700058B1884226BF20618461FDF705FC04E0E0
:10A98000FDF702FCEDE70C60ECE7786938B1296966
:10A99000884202D36061846101E0FDF7F5FBB9F103
:10A9A000100F0CD2B14449F00300391D7860381DF6
:10A9B00051F8092042F0010240F80920B9E046F0C0
:10A9C00003013A1D796049F0010090514FEAD90026
:10A9D0004BF809901F2822D805F1280101EBC0048B
:10A9E000296821FA00F2D307A04605D4012202FA11
:10A9F00000F00843286006E0A068296988422CBF5F
:10AA00008046FDF7C1FBC4F808B007F10800C8F89C
:10AA10000CB040F8068007F10C018C5189E05FEA28
:10AA2000192008BF002123D0B0F5803F28BF1F2187
:10AA30001ED2A0F58072120C02F008029040A0F520
:10AA40008051090C01F004018840A0F580431B0CE3
:10AA5000C2F10E0203F00203521AD21A984002EB1E
:10AA6000D032D01D29FA00F101F0010101EB4201C1
:10AA700007F11403CBF81C1000229A5107F11003C0
:10AA800008EB81009A516A6822FA01F3DC0711D4BD
:10AA9000012303FA01F111436960C0F800B0CBF85B
:10AAA000180007F1080107F10C0040F806B041F862
:10AAB00006B03EE002681F291DBF4908C1F1190117
:10AAC00009FA01F1494600E002465068C008C0009A
:10AAD000484518D002F11003C80F03EB800349006A
:10AAE00018680028F0D12869834220D3C3F800B049
:10AAF00007F10C01CBF8182041F806B007F1080067
:10AB000040F806B015E0296990688A4228BF88425B
:10AB10000DD3C0F80CB007F10801C2F808B0885195
:10AB200007F10C0082510022CBF8182001E0FDF75C
:10AB30002BFB17F1080840F07183A868B0421DD3C1
:10AB4000811B6A69102909D39319A96041F001009A
:10AB50005860595046F0030656600BE00021A9608A
:10AB600040F00304111D5460141D0E5846F00106F8
:10AB7000265000236B6102F108084FE3E868864223
:10AB8000C0F03C83DFF8CC9BD9F8000008B9FFF790
:10AB900090FBD9F8081088192F30491E20EA0101CE
:10ABA0008E4280F0398305F5D877B86838B13A68B5
:10ABB00089188A4280F030838842C0F02D8300F0EB
:10ABC00031FE00281CBFD0F8008010F1010F00F00A
:10ABD000238339687A68414439608A4238BF796092
:10ABE000AC6904BB296909B1884200D228610021FF
:10ABF0003861C7F81480F9614FF0FF31D9F80020AF
:10AC00006A62296205F1280200219260D26002F195
:10AC1000080353611361891C10321F29F5D9A8F16B
:10AC2000280201461DE005F5E0710A46814600E074
:10AC30009268D2B11068536803449945F8D1107BEB
:10AC4000030712D413689C420FD3D2F804C06344A4
:10AC50009C420AD2C444C2F804C02146E86808EB0A
:10AC600000022846FFF73BFBC5E22869814538BF53
:10AC7000C5F8109009EB080000E08968002900F091
:10AC8000C1810A688242F8D1087B020700F1BA81CB
:10AC90000868C1F800904A6842444A6009F1080116
:10ACA00011F0070F08BFCDF8049006D0C1F10801DC
:10ACB00001F0070109EB0102019200F1080111F016
:10ACC000070F04D0C1F1080101F0070108448046D4
:10ACD0000198A8EB00018419A1EB060B274646F06A
:10ACE00003064660474528BFFDF74EFA98F8040072
:10ACF000C10758BFFDF748FABBF1100F38BFFDF789
:10AD000043FAA869804508D1E9688B44C5F80CB0BE
:10AD1000AF614BF00100786070E1686980450AD14D
:10AD2000A9686F618B44C5F808B04BF001007860EA
:10AD300047F80BB062E1D8F8040000F003010129E4
:10AD400040F0BC80C008C000C1081F29039040D853
:10AD5000D8F808200092D8F80C600291B04508BFDE
:10AD6000FDF712FA0098804508BFFDF70DFAD8F8F4
:10AD700004000299C008C000B0EBC10F18BFFDF776
:10AD800003FA0299009A05F1280000EBC100824203
:10AD900008D011462A699142C0F08B80CA684245AA
:10ADA00040F0878000998E4206D102982A680123DC
:10ADB00083409A432A607EE0864205D029698E420C
:10ADC00077D3B068404574D10098C6600099B160EF
:10ADD00071E0D8F818000090D8F80C6046450DD006
:10ADE000D8F808002969884223D3C268424504BFC5
:10ADF000B16841451DD1C660B0601CE008F1140186
:10AE00000E6836B908F110010E68A6B101E01146CE
:10AE10000E6806F114021068002802BF06F1100245
:10AE200010680028F3D12869814202D300220A6009
:10AE300001E0FDF7A9F9009800283CD0D8F81C00E3
:10AE400005F5987101EB80010A6890450AD12EBB87
:10AE50006A68012303FA00F022EA0000686000201B
:10AE6000086028E000992869814214D308694045A8
:10AE700014BF4E610E61F6B129698E4219D3009854
:10AE8000B061D8F8100058B1884226BF30618661A1
:10AE9000FDF77AF904E0FDF777F9ECE70E60EBE7F0
:10AEA000D8F8140038B12969884202D370618661EC
:10AEB00001E0FDF769F9039988448B44D8F8041040
:10AEC00049084900C8F804104BF0010078604FEAC7
:10AED000DB0647F80BB01F2E22D805F1280000EB47
:10AEE000C604A146BBF1100F38BFFDF74DF9286825
:10AEF00020FA06F1CA0705D4012101FA06F6064335
:10AF00002E6006E0A068296988422CBF8146FDF7C3
:10AF10003BF9A760C9F80C70C7F80890FC606DE0B9
:10AF20005FEA1B2008BF002123D0B0F5803F28BF77
:10AF30001F211ED2A0F58072120C02F00802904070
:10AF4000A0F58051090C01F004018840A0F5804370
:10AF50001B0CC2F10E0203F00203521AD21A9840DF
:10AF600002EBD032D01D2BFA00F101F0010101EB10
:10AF70004201F961002305F598727B6102EB8100C3
:10AF80003B616A6822FA01F3DE0707D4012303FA62
:10AF900001F1114369600760B8611DE002681F2973
:10AFA0001DBF4908C1F119010BFA01F1594600E032
:10AFB00002465068C008C000584510D002F1100386
:10AFC000C80F03EB8003490018680028F0D12869F6
:10AFD000834211D31F60BA61FF60BC600EE0296933
:10AFE00090688A4228BF884206D3C7609760B860DD
:10AFF000FA600020B86101E0FDF7C6F8019800F1A1
:10B0000008080BE121462846FFF746F90168406829
:10B0100008440090A0F1270111F0070000980EBF2E
:10B020000021C1F1080101F007010844A0F12F0B34
:10B0300004F110018B4538BFA3460BF11802002123
:10B0400002920191A8F1280249462846FFF747F9E4
:10B050000BF1080010F0070F18BFFDF795F81B2043
:10B06000CBF8040005F5E07292E809500BF10801F5
:10B0700081E8095000210BF10800F961B861009ADC
:10B0800002980199C7F81090C7F81480072300E0D0
:10B09000001D491C00F1080797424360F8D30129BD
:10B0A000D8BFFDF771F8A34500F0A580ABEB040B0A
:10B0B000201D221D50F80B104908490042F80B10C2
:10B0C0004BF0010060604FEADB0944F80BB0B9F1C6
:10B0D0001F0F22D805F1280000EBC907B846BBF1C5
:10B0E000100F38BFFDF750F8286820FA09F1CA0799
:10B0F00005D4012101FA09F10843286006E0B86887
:10B10000296988422CBF8046FDF73EF8BC60C8F82C
:10B110000C40C4F80880E7606DE05FEA1B2008BFC0
:10B12000002123D0B0F5803F28BF1F211ED2A0F5FB
:10B130008072120C02F008029040A0F58051090CB8
:10B1400001F004018840A0F580431B0CC2F10E02FF
:10B1500003F00203521AD21A984002EBD032D01DEB
:10B160002BFA00F101F0010101EB420105F59872A3
:10B17000002302EB8100E161636123616A6822FAC6
:10B1800001F3DF0707D4012303FA01F111436960DA
:10B190000460A0611DE002681F291DBF4908C1F1BC
:10B1A00019010BFA01F1594600E002465068C00847
:10B1B000C000584510D002F11003C80F03EB800304
:10B1C000490018680028F0D12869834211D31C6017
:10B1D000A261E460A4600EE0296990688A4228BFF9
:10B1E000884206D3C4609460A060E2600020A06141
:10B1F00001E0FCF7C9FFE86886420DD2801BA9690F
:10B20000E8608A19AA6140F00100506046F0030628
:10B210004E6001F1080801E04FF00008AFF3008034
:10B22000404605B0BDE8F08F002800D170472DE9F9
:10B23000F047A0F10805AFF30080DFF81C65316925
:10B240008D42C0F08482686800F00302012A00F099
:10B250007E82C2084FEAC209C20705EB090839D449
:10B260002C6810F0030F00F06E82604205448D429E
:10B27000A144C0F06C827069854200F0DE80E40871
:10B28000202C72D2D5F80CA0AF68554508BFFCF74A
:10B290007BFFBD4208BFFCF777FF6868C008C000AD
:10B2A000B0EBC40F18BFFCF76FFF06F1280000EBEE
:10B2B000C400874205D031698F4253D3FA68AA424D
:10B2C00050D1BA4540D13068012101FA04F420EA96
:10B2D00004043460454580F03A82D8F80440E00721
:10B2E00040F13582A10700F18381B069804540F0CB
:10B2F000B780F168B5618944C6F80C9049F0010047
:10B30000686071698D4202D100207061B060F1699E
:10B31000494580F01882DFF83C24106808B9FEF730
:10B32000C8FFB169002900F00E82F068292824BF07
:10B330003046FEF7B1FFF069F168884280F0038281
:10B340004FF0FF30F061FEE1824506D03069824562
:10B3500008D3DAF80810A94204D1C7F80CA0CAF83B
:10B360000870B7E7FCF710FFB4E7EC68AF69AC42D0
:10B370000BD0A868884222D3C168A94204BFA26842
:10B38000AA421CD1C460A0601BE005F1140214683D
:10B3900034B905F1100214689CB101E01A46146832
:10B3A00004F114031868002802BF04F110031868A0
:10B3B0000028F3D18A4202D30021116001E0FCF79A
:10B3C000E3FE002F86D0E86906F5987101EB800155
:10B3D0000A6895420AD124BB7268012303FA00F07F
:10B3E00022EA000070600020086073E731698F4234
:10B3F00014D33869A84214BF7C613C61002C3FF42F
:10B4000069AF31698C42ADD3A761286958B18842D0
:10B4100026BF20618461FCF7B7FE04E0FCF7B4FEB0
:10B42000ECE70C60EDE7686900283FF453AF316941
:10B43000884297D3606184614CE798F8040000F07B
:10B44000030003287FF446AFC6F8089049F00101D5
:10B45000D8F8040040084000C8F8040069600AE019
:10B46000706980450AD1B16875618944C6F8089051
:10B4700049F00100686045F8099064E1E408E400DF
:10B48000A144E408202C3AD2D8F80CA0D8F80870CF
:10B49000D04508BFFCF778FEB84508BFFCF774FE3E
:10B4A000D8F80400C008C000B0EBC40F18BFFCF708
:10B4B0006BFE06F1280000EBC400874207D031691B
:10B4C0008F42C0F08880FA68424540F08480BA45D7
:10B4D00007D13068012101FA04F420EA0404346041
:10B4E0007BE0824506D03069824574D3DAF80810D3
:10B4F000414570D1C7F80CA0CAF808706DE0D8F8C3
:10B500000C40D8F8187044450DD0D8F808003169BF
:10B51000884223D3C268424504BFA16841451DD17A
:10B52000C460A0601CE008F114010C6834B908F193
:10B5300010010C68A4B101E011460C6804F114027A
:10B540001068002802BF04F1100210680028F3D12F
:10B550003069814202D300220A6001E0FCF714FE48
:10B56000002F3AD0D8F81C0006F5987101EB800145
:10B570000A6890450AD11CBB7268012303FA00F0E7
:10B5800022EA000070600020086026E031698F42E6
:10B5900013D33869404514BF7C613C61ECB131691B
:10B5A0008C4218D3A761D8F8100058B1884226BF42
:10B5B00020618461FCF7E8FD04E0FCF7E5FDEDE7C0
:10B5C0000C60ECE7D8F8140038B13169884202D336
:10B5D0006061846101E0FCF7D7FD49F0010068601B
:10B5E00045F8099071698D420BD1C6F80890AAE020
:10B5F00064086400C8F8044049F00100686045F838
:10B6000009904FEAD907202F22D206F1280000EB3B
:10B61000C704A046B9F1100F38BFFCF7B5FD30687C
:10B6200020FA07F1CA0705D4012101FA07F70743F9
:10B63000376006E0A068316988422CBF8046FCF77D
:10B64000A3FDA560C8F80C50C5F80880EC607AE04E
:10B650005FEA192008BF002123D0B0F5803F28BF42
:10B660001F211ED2A0F58072120C02F00802904039
:10B67000A0F58051090C01F004018840A0F5804339
:10B680001B0CC2F10E0203F00203521AD21A9840A8
:10B6900002EBD032D01D29FA00F101F0010101EBDB
:10B6A000420106F59872002302EB8100E9616B61AB
:10B6B0002B61726822FA01F3DC0707D4012303FA35
:10B6C00001F1114371600560A8611DE002681F2946
:10B6D0001DBF4908C1F1190109FA01F1494600E00D
:10B6E00002465068C008C000484510D002F110035F
:10B6F000C80F03EB8003490018680028F0D13069B7
:10B70000834211D31D60AA61ED60AD600EE0316926
:10B7100090688A4228BF884206D3C5609560A860B9
:10B72000EA600020A86101E0FCF72EFD306A401EAF
:10B7300008D13062D6F8C80100E080680028FCD14A
:10B740004FF0FF303062AFF30080BDE8F087FCF7C8
:10B750001BFDF8E7602F0020CC2400202DE9F843E2
:10B760008AB080462821684600F072F82B4A10689B
:10B7700008B9FEF79EFDAFF30080DFF8A4E0DEF825
:10B780001820002A40D0DEF80C5005F128060124CC
:10B7900037460EF5E0711CE04FEADC090CF0030CB3
:10B7A000BCF1010F07EBC90704BF06EBC906641C17
:10B7B00003EBC90383420BD3D1F8049081444B457A
:10B7C00006D293421CBFD3F804C0BCF1070FE3D1EB
:10B7D000896861B1086800F1080313F0070F0EBF14
:10B7E0000023C3F1080303F007030344E2E70097D3
:10B7F0000EF5D87001940896099501684268059283
:10B80000CF1B891B04970791AFF300804046694620
:10B81000282200F03DF80BB0BDE8F083602F002037
:10B82000CC2400200749086808B10020704706486A
:10B83000C008C00008600549C908C900091A0160AC
:10B84000704700BF64300020475200204072012042
:10B85000002200F06FB88268521C8260426832B1E8
:10B860000268531C036011704168491E41607047B3
:10B8700062B38B0708D0521E11F8013B00F8013B60
:10B8800000F024808B07F6D1830740F0208000BFB2
:10B89000103A07D330B4B1E83810103AA0E83810A5
:10B8A000F9D230BC530724BFB1E80810A0E8081053
:10B8B00044BF51F8043B40F8043BD20724BF31F8A1
:10B8C000022B20F8022B44BF0B7803707047121F25
:10B8D00017D35B0009D151F8043B20F8023B1B0C45
:10B8E000121F20F8023BF6D20BE051F8043B00F89F
:10B8F000013B1B0A20F8023B1B0C121F00F8013B06
:10B90000F3D238BF121D521E24BF11F8013B00F8BC
:10B91000013BF8D870470268531C036011707047F0
:10B9200080B5AFF30080024A11001820ABBEFBE7E0
:10B930002600020000B500BF130096469446103959
:10B9400028BFA0E80C50FAD85FEA417C28BF0CC0A1
:10B9500048BF40F8042BC90728BF20F8022B48BF76
:10B9600000F8012B00BD0200002070472DE9F14FC7
:10B97000B0B0924604910DF142013A9A2B9199464A
:10B980004A7000200AE01AF8011B0498309A904788
:10B990000028049000F0A6860D98401C0D909AF89F
:10B9A000000050B12528EED1002100220791089215
:10B9B00009910A920B910C9204E00D9800F094BE4C
:10B9C00041F001011AF8010F2028F9D023280CD0EA
:10B9D0002B2804D02D2805D0302809D00BE041F0C9
:10B9E0000201EFE741F00401ECE741F00801E9E76B
:10B9F00041F01001E6E72A280FD1D9F8002052F8CB
:10BA0000040BC9F8002000280F9003D540420F9086
:10BA100041F004010AF1010A14E00F92DFF8243822
:10BA20000AE00F98984205DA00EB800402EB44022A
:10BA3000303A0F920AF1010A9AF80020A2F1300080
:10BA40000A28EED39AF800002E2803D04FF0FF32D8
:10BA50000E9229E01AF8010F2A2809D1D9F800001E
:10BA600050F8042BC9F800000E920AF1010A1BE0FD
:10BA70002D280CBF0AF1010A002000220E92DFF8E7
:10BA8000C4470BE040B90E9AA24205DA02EB8205E8
:10BA900003EB4503303B0E930AF1010A9AF800309C
:10BAA000A3F130020A2AEDD3ADF84010DFF8980771
:10BAB000784400F294709AF8001000F02DFF08B15D
:10BAC0001AF8010B8DF842009DF84200682805D154
:10BAD0009AF8000068280CD1622106E06C2804BFA7
:10BAE0009AF800006C2804D171218DF842100AF1F7
:10BAF000010A12A806901AF801BBBBF125012CD04F
:10BB00001C3900F0CF81091F022940F2CB81133983
:10BB100000F01385093900F0C581891E00F0A88561
:10BB2000491E00F05585491E022940F2BB81091FBC
:10BB300000F04E85491F00F02881491E00F0FD8469
:10BB4000491E00F0D080C91E0DD0891E00F0F5847A
:10BB5000C91E00F0F28400F096BD25238DF8483010
:10BB6000012100F09BBDD9F8000050F8044BC9F842
:10BB70000000002C059440F0A3802B994878002801
:10BB800000F099804FF0FF340FF6643000F0D2FEE1
:10BB9000201A40F0A78500F082BD6D1E40F0998507
:10BBA0003096079D12AF75B1309E17F8012B02A990
:10BBB000304600F063FE002801D46D1EF5D1002848
:10BBC000309640F08F850A9D3020002D8DF80400BE
:10BBD0000CDD309E012301AA02A9304600F05EFE72
:10BBE000002840F07F856D1EF4D13096059F089D9A
:10BBF00075B1309E17F8012B02A9304600F03EFEC9
:10BC0000002801D46D1EF5D10028309640F06A85D9
:10BC10000B9D3020002D8DF804000CDD309E01239B
:10BC200001AA02A9304600F039FE002840F05A85EA
:10BC30006D1EF4D1309605980899099D471875B185
:10BC4000309E17F8012B02A9304600F017FE00289D
:10BC500001D46D1EF5D10028309640F043850C9D2F
:10BC60003020002D8DF804000CDD309E012301AA48
:10BC700002A9304600F012FE002840F033856D1E08
:10BC8000F4D130969DF8400041077FF588AE202022
:10BC9000002C8DF804007FF782AE309D012301AAAD
:10BCA00002A9284600F0FAFD002840F01B85641E1A
:10BCB000F4D1309573E60FF64440059000F0EFBCE8
:10BCC0000E9D002D04D5204600F054FE044607E0EA
:10BCD0002A46204600F06CFE002814BF041B2C46A8
:10BCE000089400F0DCBCD9F8001051F8040BC9F836
:10BCF000001020F00004002121F0FF3512ABCDE947
:10BD000002450593DDE9022306993C2413B90AB9DB
:10BD10000E9898B102F00F053035641EEEB23A2E3F
:10BD2000A8BF2735120942EA03721B090D5508BF47
:10BD3000002A03D005980D19A842EBD308190590E5
:10BD4000C4F13C020E98089282420ADABDF8401013
:10BD5000821A4FF6EF7001400A92ADF8401000F0E1
:10BD60009EBC002840F19B849DF8400000F0140028
:10BD7000102840F094840F9B07990A985B1A1B1AAD
:10BD80009A1A002A40F38B84D5E32B99487820B186
:10BD90004FF0FF340FF63430F8E69DF84200622889
:10BDA00061D0682817D06A283FD06C2806D0712847
:10BDB00047D074282CD07A281DD064E0D9F8001020
:10BDC00051F8040BC9F80010002868D14FF0FF3477
:10BDD0000FF61030DAE6D9F8001051F8040BC9F864
:10BDE000001020B94FF0FF340FF6F820CEE60D9981
:10BDF000018000F054BCD9F8001051F8040BC9F8C8
:10BE0000001000284BD14FF0FF340FF6D820BDE6CC
:10BE1000D9F8001051F8040BC9F8001000283ED1E1
:10BE20004FF0FF340FF6BC20B0E6D9F8001051F8FF
:10BE3000040BC9F8001080B94FF0FF340FF6A420AE
:10BE4000A4E6D9F8001051F8040BC9F8001020B985
:10BE50004FF0FF340FF68C2098E60D9AD317C0E907
:10BE6000002300F01CBCD9F8001051F8040BC9F8ED
:10BE7000001020B94FF0FF340FF6682086E60D99C8
:10BE8000017000F00CBCD9F8001051F8040BC9F88F
:10BE9000001020B94FF0FF340FF6482076E60D99D8
:10BEA0000160FCE3D9F80020D21D22F00702C9F896
:10BEB0000020D2E900010832C9F80020CDE90201D2
:10BEC000C80F02D007982D210AE0BDF84000810775
:10BED00002D507982B2103E0C00705D5079820213C
:10BEE00012AA1154401C079012A807994BF0200287
:10BEF0004318DDE90201CDE92C01612A059321AC4B
:10BF00000BD00E98002802D506200E9005E001BF48
:10BF10004BF02000672801210E91DDE90201480065
:10BF20004015401C0A460DD109030BD0ABF1610549
:10BF300003201A2D089002D20FF6C4110DE00FF65F
:10BF4000C4110AE070B912030CD1ABF161050320F2
:10BF50001A2D08901AD30FF6B41103221846FFF7D2
:10BF600087FC9CE3DDE90201CDE92E01DDE92E230A
:10BF700023F00047B7F5801F22F000060DD2002203
:10BF8000002F08BF002E009203D116E00FF67811A3
:10BF9000E3E76A4600F038FD0FE0DFF8C008DFF89D
:10BFA000C01800EB17500090DDE92E234FF0FF3052
:10BFB0001940DFF8B07810403943CDE902014BF069
:10BFC000200061280DD1059830210170821CBBF141
:10BFD000610F05920CBF7821582141700798801C91
:10BFE0000790DDE9020120F0000231F0004308BFB4
:10BFF000002A02D10026002568E14BF02008B8F1A4
:10C00000610F40F0B4800E98002847BF21210191B4
:10C01000401C0190019FDDE92C017F1C00220023C0
:10C02000DDE9024500F028FD00998DF8842038BF35
:10C0300085F00045091F002F00910DF1850653DDA5
:10C04000204629460022002300F030FD4CD2480053
:10C05000400D00F11C0312D0002B10DD40F2FF70E8
:10C06000834206DBDFF8001805F000421143002090
:10C0700011E06FF31E5141EA035120460BE024F01A
:10C08000000035F0004108BF00280FBF29461C22E0
:10C09000294600F025FD04460D4600F0C1FDFF1FB6
:10C0A000002F804609DD00F0DBFD02460B462046EE
:10C0B000294600F0E9FD04460D46F01D0721B8F1C0
:10C0C000000F0CDD491E5EBF08F00F0200F8012DC5
:10C0D0004FEA2818F3D502E0002200F8012D491E8E
:10C0E000FAD5C61D002FABDC0DF18500361A01987C
:10C0F0008642D8BF304600280DF1850430D4B042C6
:10C1000006DA0DF185010A5C082AA8BF0F2100DAC2
:10C110000021024621AB134400E0401E13F80159F0
:10C12000521E8D42F9D00F2904D10DF185018B5C8F
:10C130005B1C8B54002A04D50099091D21AC401CBE
:10C140000091411E0CD46218ABF13A0613783033DB
:10C15000DDB23A2DA8BFF318491E02F80139F5D512
:10C160000E99002940F1B080421E0E92ACE0009979
:10C17000DFF8F82647F29750414391FBF2F2DDE9F0
:10C180002C45009225F00045D2F1070204DD20463F
:10C19000294600F040FB0BE052420020DFF8D016A9
:10C1A00000F039FB02460B462046294600F0E0FD30
:10C1B0000446B8F1660F0E9806BF009F0A3706279F
:10C1C0003F18142FC8BF142730200D468DF8840067
:10C1D0000DF18506002F39DD2046294600F0EEFEE0
:10C1E00001460A4606F1080304200A26B2FBF6F6C9
:10C1F00006EB860EA2EB4E02303203F8012C0A2227
:10C20000B6FBF2F202EB820EA6EB4E063036401E73
:10C2100003F8026DE9D1083F002F03F10806D9DDCC
:10C22000084600F0DFFE02460B462046294600F095
:10C230002BFD0022DFF83C3600F0E4FE04460D46FC
:10C24000CAE700BFCBCCCC0C5C4C04000DF18500E0
:10C25000361A0DF1850404E00098401E761E009009
:10C26000641C20783028F7D0B8F1660F02D100990D
:10C27000491C04E0B8F1650F0CBF012100210E98A4
:10C2800008188642B8BF701E00281DD4B04204DAD8
:10C29000215C3429C8BF392100DC30210246631EED
:10C2A0009D1800E0401E15F80169521E8E42F9D01B
:10C2B000392902D1A15C491CA154002A04D5009956
:10C2C000491C1C46401C00910646009D0E9F30B242
:10C2D000002802DC01260FF238644BF020006628AB
:10C2E00008BF6D1C15D067280FFA85F841D118F1E9
:10C2F000040F44DBB84542DA9DF840006D1C01078D
:10C3000003D430B2B842B8BF074628B23F1A48BF7C
:10C3100000270FFA85F8B8F1000F00F3AF800898F6
:10C32000411C0891302205990A54002F03DC9DF826
:10C330004000010705D50898411C08912E22059957
:10C340000A5417EB080FB8BF7D4228B2C51932B2A4
:10C35000414295420B91B8BF2E46059B089836B2D4
:10C360000996324621461844FFF782FAAD1B0C9518
:10C37000CCE0BBF1610F15D14FF0700B17E030B27C
:10C38000B84204DA9DF840100A0758BF07467F1EDE
:10C3900048BF0027BBF1670F14BF4FF0450B4FF0AC
:10C3A000650B04E0BBF1410F08BF4FF0500B08983C
:10C3B000411C0891002F059914F8012B0A5403DC45
:10C3C0009DF84000010719D50898411C08912E22BC
:10C3D00005990A54002F11DD761E30B28742059868
:10C3E000089BB8BF3E4632B221461844FFF740FAD8
:10C3F000089836B23018BF1B08900B97059808991B
:10C400000844B8F1000F80F800B003D42B2242702A
:10C41000821C04E02D2145464170821C6D420021A2
:10C420002CAB28460AE004460A2094FBF0F000EB0F
:10C430008005A4EB450403F8014B491C00B2002819
:10C44000F1DC012906DC4BF02000652804BF302018
:10C4500002F8010B00292CAB08D1302002F8010BA7
:10C4600006E0491E585C303002F8010B0029F8DC68
:10C47000059908980844121A099247E030B229B287
:10C4800088421BDA0598089B32B221461844FFF710
:10C49000EFF9089936B27118A8EB0606002F08913B
:10C4A0000B9603DC9DF84000020705D5059A2E2067
:10C4B00050540999491C09910C9727E00598089B4D
:10C4C0002AB221461844FFF7D3F90898761B404456
:10C4D000002F089003DC9DF840100A0704D5411C8A
:10C4E00008912E2205990A5430B287420598089B7C
:10C4F000B8BF3E4632B204EB08011844FFF7B8F962
:10C50000089836B23018BE1B08900B969DF8400074
:10C5100000F01400102840F0C280079A08990B9888
:10C520008A18099982180C988A1882180F988242E2
:10C5300080F2B580821A0A92B1E09DF8420062282A
:10C5400008D068280ED06A2814D06C281FD0712813
:10C5500010D01CE0D9F8001051F8040BC9F80010F5
:10C56000C0B21AE0D9F8001051F8040BC9F8001055
:10C5700080B212E0D9F80020D21D22F00702C9F8DB
:10C580000020D2E900010832C9F8002006E0D9F8FD
:10C59000001051F8040BC9F800100021CDE9020188
:10C5A0009DF8400001075AD5DDE90223002B08BFA2
:10C5B000002A54D04BF02000782850D1079812A9B7
:10C5C00030220A54401C431C079301F800B046E097
:10C5D0009DF84200622808D068280ED06A2814D03E
:10C5E0006C281FD0712810D01CE0D9F8001051F829
:10C5F000040BC9F8001040B21AE0D9F8001051F845
:10C60000040BC9F8001000B212E0D9F80020D21DC6
:10C6100022F00702C9F80020D2E900010832C9F867
:10C62000002006E0D9F8001051F8040BC9F80010FA
:10C63000C117CDE90201002902D507982D210AE092
:10C64000BDF84000810702D507982B2103E0C00701
:10C6500005D50798202112AA1154401C079012A852
:10C6600007990144059102A8594600F04FF816E0D9
:10C6700001200790D9F8000050F8041BC9F8000009
:10C680008DF848100BE025210122BBF1000F8DF839
:10C690004810079203D08DF849B0022107910F9AF4
:10C6A00007980A990C9C121A0898521A0B99121A98
:10C6B0000998521A121A9DF84000141B41073FF5C1
:10C6C00070AA2020002C8DF804007FF76AAA309E03
:10C6D0002546012301AA02A9304600F0DFF8002810
:10C6E0003FF45BAA4FF0FF3031B0BDE8F08F00009F
:10C6F0007072696E74665F733A206261642025739C
:10C7000020617267756D656E740000002DE9FC4351
:10C7100007466F293E6908BF082405D041F0200074
:10C72000782814BF0A2410243C25D7E90023642963
:10C7300018BF69299046994605D1002B03D5D8F139
:10C74000000869EB4909B9F1000F08BFB8F1000F03
:10C750000CD1386B50B9082C39D197F83800010743
:10C7600035D530203B2586F83B0030E08DF80010B1
:10C77000404649462246E31700F018FD3032D0B259
:10C780006D1E3A28019504DB9DF80000A0F15101CF
:10C790008A187255404649462246E31700F006FDC6
:10C7A00080465FEA010908BFB8F1000F03D0F868BE
:10C7B00071198842DCD3082C09D197F83800010799
:10C7C00005D5705D302802D06D1E30207055C5F142
:10C7D0003C02BA617119F960386B824208DA821A38
:10C7E0003A624FF6EF70398F01403987BDE8F38325
:10C7F00000280ED597F8380000F01400102808D152
:10C800007B6B7969386A5B1A1B1A9A1A002AC8BFAF
:10C810003A62BDE8F3832DE9D04306460F4614463D
:10C820004FF00008DFF8509012E0E00707D54246CD
:10C830004B463046394600F0E5FB06460F4640467B
:10C84000494642464B4600F0DDFB6410804689466F
:10C85000002CEAD130463946BDE8D08302FCFFFF08
:10C86000FFFF0F800000E03F0000F07FA086010086
:10C870000000F03F84D797410000244010B50346E4
:10C880000C461146A0689847A06020B1E06A401CA1
:10C89000E062002010BD4FF0FF3010BDF8B5054636
:10C8A0000E4617461C4600205CB117F8011BB06805
:10C8B000A847B06030B1F06A401CF0620020641EEE
:10C8C000F3D1F2BD4FF0FF30F2BD00007072696E1F
:10C8D00074665F733A20256E20646973616C6C6FB7
:10C8E000776564007072696E74663A2062616420D4
:10C8F000256E20617267756D656E74000000000022
:10C900006E616E004E414E00696E6600494E4600F3
:10C910003000010000207047C9B202788A421AB183
:10C920001CBF10F8012FF9E718BF00207047010065
:10C930000020704780B500B906A005490B681BB1FF
:10C9400022220021984701E0FBF71EFC222002BDB5
:10C9500068300020636F6E73747261696E74206852
:10C96000616E646C65723A20626164206D657373F8
:10C970006167650000F10103810704D010F8011B15
:10C98000820781B1FAD10268A2F10131914311F01D
:10C99000803104BF50F8042FF6E709BAB1FA81F1EB
:10C9A00000EBD100401CC01A704701000020704706
:10C9B000C9B2830706D0521E22D310F8013B994218
:10C9C000F7D11FE0083A13D302F1040241EA012132
:10C9D00041EA014150F8043B121F21BF4B40A3F133
:10C9E000013C2CEA030C1CF0803FF3D0C9B2001FBD
:10C9F000083210F8013B521E28BF91EA030FF8D805
:10CA000018BF0120401E704710B5144600F002F810
:10CA1000226010BDC1F30A5343B14A0012F5001F52
:10CA200028D2A3F2FE32A1EB0251704750EA410C2A
:10CA300020D001F0004C31EA0C01B1FA81F204BFC0
:10CA4000B0FA80F3D2180B3AB2F120032CBF00FAEF
:10CA500003F1914041EA0C013EBFC2F1200C20FAE3
:10CA60000CF319439040524240F2FD33D21A01EBCD
:10CA700003517047002270474FF4001C1CEB410F1C
:10CA800094BF1CEB430F09E041EA030C50EA4C0C45
:10CA900052EA0C0C03D2994208BF9042704714BF6F
:10CAA0008B42824270470100002070474FF4001C07
:10CAB0001CEB410F94BF1CEB430F09E041EA030C50
:10CAC00050EA4C0C52EA0C0C03D28B4208BF824253
:10CAD000704714BF99429042704701000020704790
:10CAE000124254D440F2FF7C1CEA11530FD063452C
:10CAF00031D09B1863453CBF01EB0251704701F0F8
:10CB0000004141EA0C51002000F068BC704750EA37
:10CB1000410320D001F0004C91EA0C011CD0B1FA85
:10CB200081F30B3B9A420DD9D21A994051EA0C017C
:10CB3000C3F1200C20FA0CFC61449840531C40F2D5
:10CB4000FF7CD7E7914041EA0C01C2F1200C20FAAA
:10CB50000CF3194390407047B0FA80F31533202B43
:10CB6000E0D3202AEED3203A203B9A4209D9D21AA8
:10CB700000FA03F141EA0C010020531C40F2FF7C53
:10CB8000B8E700FA02F141EA0C0100207047524276
:10CB900040F2FF7C1CEA11530DD06345DBD0B2EBB1
:10CBA000030C3CBFA1EB025170470CF1010221EADA
:10CBB000035141F4801150EA410CCCD001F0004CFB
:10CBC000352A27DC30B481EA0C01B2F1200309DAFE
:10CBD000C2F12003044601FA03F5D0402843D140B6
:10CBE0009C400CE0C3F12002450020FA03F418BF7A
:10CBF00044F0010421FA03F091400C43002174F148
:10CC0000004550F1000051EB0C01244230BC7FF490
:10CC10007BAF70476146002076E701000020704737
:10CC2000C1F30A5340F2FE329B1A14DDD3F1200304
:10CC30004FEAE17208DDC90241EA505141F000407B
:10CC4000D84080185040704703F2E13010B1D24311
:10CC500082F00040704700207047010000207047BC
:10CC6000C11768B14840401AB0FA80F29040D21C17
:10CC7000C907C2F5846241EA025202EBD0214005A5
:10CC8000704701000020704770B44FF0004591EAF2
:10CC9000030F40F1B7836B40841A71EB030603D294
:10CCA000001BB141121973414FF4001C1CEB410FE2
:10CCB00034BF7CEB430442E00C0DA4EB1356352E3D
:10CCC0004FDC45EAC323DB0A45EAC121C912B6F1AC
:10CCD00020050DDD63FA05F6EB4086EA03051242F6
:10CCE00018BF45F00105C01851F100010CD213E046
:10CCF00062FA06F5F2405540F3415A40B340F34022
:10CD00005A408018594107D349085FEA30005FEA6A
:10CD1000350528BF45F0010501F58011420875F180
:10CD2000004250F1000041EB04514E0016F5001F87
:10CD300070BC38BF70470020090D090570471CEB17
:10CD4000410F10D252EA43060BD0BCEB410F05D87D
:10CD50000C0DAB43661E342EB6DD02E0AB438018EB
:10CD6000594170BC704770BC70470100002070478B
:10CD7000F0B540F2FF7581EA030C0CF0004C15EAA7
:10CD800011541DBF15EA1357AC42AF42E5E0BC4158
:10CD9000C1F31301C3F31303801A994143F48013C1
:10CDA00004D2641E4000494180185941C90241EA39
:10CDB0005051B1FBF3F603FB1611A2FB0675D7EB3E
:10CDC000C020A94102D2761E80185941C90241EA09
:10CDD0005051B1FBF3FE03FB1E11A2FB0E75D7EB06
:10CDE000C020A94103D2AEF1010E80185941890239
:10CDF00041EA9051760546EA8E2EB1FBF3F603FB2D
:10CE00001611A2FB0675D7EB8020A94102D2761E2F
:10CE100080185941C90241EA50514EEA060EB1FB51
:10CE2000F3F603FB1611A2FB0675D7EBC020A94150
:10CE300002D2761E80185941C90241EA5051B1FB15
:10CE4000F3F703FB1711A2FB0735D3EBC020A94171
:10CE500067F100070CBF004247F0010766F3D527D2
:10CE60004FEA1E31B80814F5806412DDBD0775F174
:10CE7000004250EB0E5051EB045111F5801F5CBF86
:10CE800041EA0C01F0BD4CF07F6141F0E04100202F
:10CE9000F0BDBD076D0840EA0E5041F48011D4F199
:10CEA0000104B4F120060ADAC4F120060200E040D1
:10CEB00001FA06F3E1401843B24015430EE0342C6A
:10CEC00013DCC6F1200445EA40056D0820FA06F29D
:10CED000154321FA06F0A1400D43002175F10042EF
:10CEE00050F1000051EB0C01F0BD00205FEA0C0195
:10CEF000F0BDCFB992185B41B3FA83F704BFB2FA21
:10CF000082F6BF190B3FB7F120062FBF02FA06F3D6
:10CF1000BB40C7F1200622FA06F638BF3343BA40B9
:10CF20001CB1E419641E33E77F4231F00041B1FACD
:10CF300081F404BFB0FA80F6A4190B3CB4F12006CA
:10CF40002FBF00FA06F1A140C4F1200620FA06F630
:10CF500038BF3143A0403C1B1AE7AC421ABF05EA78
:10CF60001357AF4212E050EA41061CBF52EA430693
:10CF7000BFE750EA4107304661461CBF41EA055110
:10CF8000F0BD52EA430C08BFC143F0BD00204FF48E
:10CF9000001616EB410F98BF16EB430F08BF16EBB8
:10CFA000410F24BFC14305E016EB430F0CBF6146A0
:10CFB0004CEA0551F0BD010000207047400D4918B2
:10CFC00040EA81200CD2490DA1F58061491C40F056
:10CFD000004005DBD1F11F0154BFC840C0177047A6
:10CFE00000207047014648B1B0FA80F18840C91C62
:10CFF000C1F58461090501EBD021400570470100AE
:10D0000000207047B0B581EA030C0CF0004C40F2F0
:10D01000FF7515EA11541DBF15EA1357AC42AF4214
:10D0200039E0E41923EA455343F48013C90241F07F
:10D03000004141EA505EC7021100A7FB020200282E
:10D040004FF00000EEFB01204FF00001E3FB072151
:10D0500018BF42F00102401800214941E3FB0E01D4
:10D06000A4F580640F0302D252004041494154F1BB
:10D0700001046CDD470872F1004250F1000051EBF1
:10D080000451A1F580115CBF41EA0C01B0BD4CEA2E
:10D0900005510020B0BD05EA1357AC4214BFAF42A2
:10D0A00041E050EA410E1CBF52EA430E02E06146E5
:10D0B0000020B0BD24423C441BD15FEA070EF6D0ED
:10D0C000090302BF01460020AEF1140EB1FA81F748
:10D0D000AEEB070401FA07FE0C37C7F1200100FA96
:10D0E00007F7C8404EEA000E23EA455343F4801385
:10D0F000A2E733F00043B3FA83F704BFB2FA82FE2B
:10D1000077440B3FE41BB7F1200E2FBF02FA0EF35A
:10D11000BB40C7F1200E22FA0EFE38BF43EA0E03D1
:10D12000BA40641C82E750EA410E14BF52EA430E33
:10D130006FF000014FF4001717EB430F8ABF194639
:10D1400017EB410FB5E74CEA05510020B0BDD4F113
:10D150000104B4F120070FDAC4F12007520828BFF8
:10D1600042F0010210FA07F501FA07F7E1BF2A437E
:10D17000E0403843E1400FE0352C98DCC7F1200453
:10D1800052EA400220FA07F218BF42F0010231FAD7
:10D1900007F0A1400A43002172F1004250F1000063
:10D1A00051EB0C01B0BD010000207047BBBBE1B1E9
:10D1B000B2F5803F80F07E80022A1ED98C46B1FBFA
:10D1C000F2F102FB11C31B0443EA1043B3FBF2FC70
:10D1D00002FB1C3380B240EA0343B3FBF2F002FBD4
:10D1E000103240EA0C4000237047022A05D98446D9
:10D1F000B0FBF2F002FB10C270474AB105D100F05B
:10D20000010249085FEA300070470022002370479E
:10D2100000F0B0B90B0002000021002070479042DE
:10D2200071EB030CF6D3B3F5803F2FD2F0B5B3FA10
:10D2300083F7B1FA81F4A7F10F0E3D1B5340CEF1F5
:10D24000200602FA0EF2F3415340B5F10F0746D81B
:10D250000F3C2C444140C4F12006A040F141414024
:10D26000B1FBF3F603FB1611A2FB0645001BA94117
:10D2700002D2761E8018594180EA010221FA0EF38B
:10D2800062FA0EF200215A403046F0BD30B4B1FBD4
:10D29000F3FC03FB1C11A2FB0C45001BA94103D2AC
:10D2A000ACF1010C8018594130BC02460B46604677
:10D2B00000217047B2F1807F65D3F0B5B2FA82F7F2
:10D2C000B1FA81F4C7F10F063D1B22FA06F307F10C
:10D2D000110EF24120355A40B5F10F07B8D941403F
:10D2E000C4F12006A040F1414140B1FBF3FC03FB37
:10D2F0001C11A2FB0C45001BA94103D2BCF1010C7F
:10D30000801859410F2F12D30F3FC90341EA5041F2
:10D31000B1FBF3F603FB1611A2FB0645D4EBC030BC
:10D32000A94102D2761E8018594146EACC3C07B387
:10D330004140C7F12006B840F1414140B1FBF3F64E
:10D3400003FB1611A2FB0645001BA94102D2761E63
:10D350008018594180EA010221FA0EF3C7F1200436
:10D3600062FA0EF20CFA07F05A402CFA04F130433C
:10D37000F0BD80EA010221FA0EF3002162FA0EF2FA
:10D3800060465A40F0BD8C46B1FBF2F102FB11C37E
:10D390001B0243EA1063B3FBF2FC02FB1C331B02CB
:10D3A0004CEA002043EA1063B3FBF2FC02FB1C339F
:10D3B0001B024CEA002043EA1063B3FBF2FC02FBC1
:10D3C0001C331B024CEA002043EA1063B3FBF2FC5F
:10D3D00002FB1C324CEA0020002370470FB581B0DD
:10D3E0000020C04605492222425001B00FBD80B541
:10D3F0000020C0460249084402BD00006C300020F5
:10D400006C300020841A71EB030604D26E40001BBE
:10D41000B141121973414FF4001C1CEB410F34BF92
:10D420007CEB430683E00C0DA4EB1356362E00F381
:10D430007C80012E45EAC32341DC43EA525312BFEC
:10D44000D20292025B08240545EAC12141EA50510B
:10D45000D2EBC020994125D407D1B0FA80F610FA5A
:10D4600006F162D00020203608E0B1FA81F6B14022
:10D47000C6F1200220FA02F21143B0404FEAF474E0
:10D48000B4EB465434F001064FEA74040AD8D6F5DA
:10D490000016760D04F00044F04061FA06F25040A8
:10D4A000F1404840C00A40EA415021F0004128BF05
:10D4B0005FEA500550F1000044EBD12135E0DB0A72
:10D4C00045EAC121C90AB6F120050EDD42EA024251
:10D4D000120CC5F1200603FA06F6EB4042EA0605F7
:10D4E0006D42984161F100010DE062FA06F5F240EB
:10D4F000554063FA06FC82EA0C02F3405A406D4242
:10D50000904161EB030111F4801F05D1641E620597
:10D5100002D06D004041494121F48011430875F16A
:10D52000004350F1000041EB045170BC70471CEB0C
:10D53000410F15D223F0004352EA43060BD04FEAC5
:10D540004C0CBCEB410F04D80C0D661E342EB7DD1D
:10D55000EBE7801A994150EA410608BF0021E4E751
:10D5600008BF1CEB430F28BF6FF00001DDE701008F
:10D570000020704770470100002070470000000045
:10D58000E0ED04080100000001000000F0ED0408D7
:10D59000030000000200000000EE04080300000089
:10D5A0000300000010EE0408030000000400000067
:10D5B00020EE0408030000000500000030EE04081F
:10D5C000030000000600000040EE04080300000015
:10D5D0000700000050EE04080300000008000000EF
:10D5E00060EE0408030000000900000070EE04086B
:10D5F000010000000A00000080EE040805000000A1
:10D600000B00000090EE0408030000000C00000076
:10D61000BCA904080C0000000D000000A0EE0408E6
:10D62000050000000E000000B0EE0408030000003A
:10D630000F000000C0EE040803000000100000000E
:10D64000D0EE04080300000011000000E0EE040822
:10D650000300000012000000F0EE040803000000C8
:10D660001300000000EF0408030000001400000095
:10D6700010EF0408030000001500000020EF04086C
:10D68000030000001600000030EF04080300000053
:10D690001700000040EF040803000000180000001D
:10D6A00050EF0408030000001900000060EF0408B8
:10D6B000030000001A00000070EF040803000000DF
:10D6C0001B00000080EF0408030000001C000000A5
:10D6D00090EF0408030000001D000000A0EF040804
:10D6E000030000001E000000B0EF0408030000006B
:10D6F0001F000000C0EF040803000000200000002D
:10D70000D0EF04080400000021000000E0EF04084E
:10D710000400000022000000F0EF040806000000F2
:10D720002300000000F004080800000024000000AE
:10D7300010F004080800000025000000DCA904081F
:10D740000D00000026000000FCA904080A000000EB
:10D750002700000020F0040804000000280000005A
:10D7600030F00408050000002900000040F0040823
:10D77000050000002A00000050F004080600000028
:10D780002B00000060F00408080000002C000000DE
:10D7900070F00408040000002D00000080F0040870
:10D7A000050000002E00000090F0040804000000B6
:10D7B0002F000000A0F00408050000003000000069
:10D7C000B0F004080800000031000000C0F00408B8
:10D7D0000800000032000000D0F00408080000003B
:10D7E00033000000E0F004080800000034000000EE
:10D7F000F0F00408080000003500000000F1040803
:10D80000080000003600000010F1040808000000C5
:10D810003700000020F10408080000003800000074
:10D8200030F10408080000003900000040F104084D
:10D83000080000003A00000050F104080400000055
:10D840003B00000060F10408040000003C00000000
:10D8500070F10408080000003D00000080F1040899
:10D86000080000003E00000090F1040808000000DD
:10D870003F000000A0F10408080000004000000084
:10D880001CAA04080F000000410000003CAA040884
:10D890000A000000420000005CAA04080A00000020
:10D8A000430000007CAA04080A00000044000000B5
:10D8B0009CAA04080B00000045000000BCAA040854
:10D8C0000A00000046000000DCAA0408090000006D
:10D8D00047000000FCAA04080B00000048000000FC
:10D8E0001CAB04080B00000049000000B0F1040864
:10D8F000040000004A000000C0F104080800000015
:10D900004B0000003CAB0408090000004C00000084
:10D91000D0F10408080000004D0000005CAB0408D2
:10D920000C0000004E0000007CAB04080B0000005F
:10D930004F0000009CAB04080B00000050000000EA
:10D94000BCAB04080A00000051000000DCAB040876
:10D950000B00000052000000FCAB04080B000000AC
:10D96000530000001CAC04080A0000005400000032
:10D970003CAC04080A000000550000005CAC040840
:10D980000B000000560000007CAC04080A000000F8
:10D99000570000009CAC04080E0000005800000076
:10D9A000BCAC04080900000059000000DCAC04080D
:10D9B0000A0000005A000000FCAC04080900000046
:10D9C0005B000000E0F10408050000005C000000BE
:10D9D000F0F10408050000005D00000000F20408FA
:10D9E000050000005E00000010F2040808000000BE
:10D9F0005F00000020F20408080000006000000042
:10DA000030F2040805000000610000001CAD0408AD
:10DA100009000000620000003CAD0408090000009D
:10DA20006300000040F204080800000064000000E9
:10DA30005CAD040809000000650000007CAD04082E
:10DA4000090000006600000050F204080400000015
:10DA5000670000009CAD0408090000006800000099
:10DA600060F20408080000006900000070F2040879
:10DA7000040000006A00000080F2040804000000B6
:10DA80006B00000090F20408080000006C00000029
:10DA9000A0F20408040000006D000000BCAD040802
:10DAA0000C0000006E000000B0F204080800000046
:10DAB0006F000000DCAD04080900000070000000E9
:10DAC000FCAD040809000000710000001CAE040851
:10DAD0000900000072000000C0F204080500000008
