:020000040800F2
:108000004052002039F304089D8504089F85040828
:10801000A1850408A3850408A585040800000000C4
:10802000000000000000000000000000A785040818
:10803000A985040800000000AB850408AD8504088C
:10804000B10A0508B50A0508B90A0508BD0A0508F8
:10805000C10A0508C50A0508C90A0508CD0A0508A8
:10806000D10A0508D50A0508D90A0508DD0A050858
:10807000E10A0508E50A0508E90A0508ED0A050808
:10808000F10A0508F50A0508F90A0508FD0A0508B8
:10809000010B0508050B0508090B05080D0B050864
:1080A000110B0508150B0508190B05081D0B050814
:1080B000210B0508250B0508290B05082D0B0508C4
:1080C000310B0508350B0508390B05083D0B050874
:1080D000410B0508DD110408ADD50208450B050864
:1080E000490B05084D0B0508510B0508550B0508F4
:1080F000590B05085D0B0508610B0508650B0508A4
:10810000690B05086D0B0508710B0508750B050853
:10811000790B05087D0B05087D8504086FD50208DD
:10812000810B0508850B0508890B05088D0B0508D3
:10813000910B0508950B0508990B05089D0B050883
:10814000A10B0508A50B0508A90B0508AD0B050833
:10815000B10B0508B50B0508B90B0508BD0B0508E3
:10816000C10B0508C50B0508C90B0508CD0B050893
:10817000D10B0508D50B0508D90B0508DD0B050843
:10818000E10B0508E50B0508012003F0C9BB30B47D
:10819000002513E050F8042BD30744BFA9F10103D5
:1081A0009A18091F042942F8045BFAD213468C0777
:1081B00044BF15809B1CC90748BF1D7050F8041BA5
:1081C0000029E7D130BC704738B504000D00280005
:1081D000C046C0460100200022F0B7FF31BD10B5F7
:1081E000040020002EF00EFD10BD00000048704776
:1081F000CC20002000000000000000000100000072
:10820000AAAAAAAABBBBCCCCD7FFFF7FB0B0A880DC
:10821000E96E0000B0A80180F36E00006C5F0400FE
:1082200009700000E41804003D720000803F040063
:1082300093720000B0AF0280E5730000B0AE05801D
:108240008D75000078040400A9780000B0AA0180B0
:10825000DD78000001000000DF780000B840040075
:1082600015790000B0B0A8801D790000B0AE038081
:108270008F790000B0AB0080CD790000B0AA0180FA
:10828000F3790000B0A90080457A00005C63040027
:10829000417B000000840080B97B0000CC5A0400C0
:1082A000257C0000B0AE0180EB7C0000B0B0AA805D
:1082B0002F7D0000B0A90080F77D0000B0AA0180EA
:1082C0007D7E0000B0B0A8808B7E0000B0A9008049
:1082D000EF7F0000B0AD008071800000B0A8018089
:1082E0007D800000B0AA0580B1820000B0A90080A6
:1082F0008583000080400400A583000090400400B6
:10830000C5830000A0400400E5830000B0400400E5
:1083100005840000C040040025840000BC63040004
:108320003F840000C463040059840000CC6304004F
:10833000D1850000B0B0AA803B860000B0A90080C3
:108340005D870000B0B0AC80BF870000B0B0AA80ED
:1083500043880000B0B0A880E7880000B0B0AE80CD
:108360003B8A000001000000C18A0000B0B0A88074
:10837000418B0000C04D04006D8B0000B0B0AA809E
:10838000218D0000B0B0A880EB8E0000B0AA018063
:10839000B18F0000504804009B900000B0B0AA804C
:1083A00097910000B0AF0280F9910000244D0400C5
:1083B0002B950000084D04004D970000B0B0AC8034
:1083C0001D980000F462040011990000FC62040092
:1083D000B19A0000B0B0A880BD9A0000B0AF0C8088
:1083E000ED9C0000B0AC09802F9E0000B0A9008079
:1083F000519E0000B0B0A880CD9E0000B0AB0080C0
:10840000CB9F0000B0AF008025A30000D84C040033
:10841000F9A40000B0AE01800FA60000010000002A
:108420003BAB0000B0A9008061AB0000B0AA0180A6
:108430008DAB0000B0A9008095AF0000B0AE018008
:1084400057B00000B0AB0080BFB00000B0A9008002
:10845000F5B10000546104005DB20000B0B0A88026
:1084600097B20000B0A9008009B30000B0AB008053
:10847000BDB30000B0AA018045B40000B0B0AA802E
:10848000A1B50000B0A80380BFB50000B0B0A880BF
:10849000C7B50000445D0400F7B500004C5D040062
:1084A00021B60000D01E04004DB70000B0AA018024
:1084B000AFB700008C6C03006DBD000024EB03001F
:1084C00085BE0000345D0400F9BE0000A838040039
:1084D000FDBF000001000000FFBF00000416040003
:1084E00077C00000F01D04007BC10000B0AC058027
:1084F00049C2000018B50300EDC20000449C03000F
:1085000073C60000B0A9008091C6000000840080FE
:108510009FC60000B0AB008001C70000CC5E040025
:108520001BC70000B0AB00804BC70000B0AA05809D
:1085300085C70000C45E0400AFC70000B0A9068074
:1085400065C80000B0AB030021C9000000840080B2
:1085500021C90000A8ED0300E5C90000ECF8030004
:1085600089CA0000F4580400A3CA0000881D040052
:1085700075CB0000E80004003FCC000010010400AF
:1085800015CE0000B0B0A88039CE0000B0A80180A0
:1085900065CE0000D03B0400BBCE0000B0A8018037
:1085A000C5CE0000B0A9048005CF0000D03B040078
:1085B0004BCF0000B0B0A88051CF0000D83B0400E2
:1085C00095CF000054EE030071D0000001000000C0
:1085D0005DD10000C45B0400A9D100005C57040019
:1085E000FBD10000B0B0A880FFD1000034B503007B
:1085F00009D30000B0A8018013D300007C5F040001
:1086000099D30000B0AA0180BDD30000B0B0A8800B
:10861000E1D30000B0A80180E9D30000B0B0AA8087
:108620005DD40000D83C0400D9D40000B0B0A880CC
:1086300005D50000B0A9008019D50000183C040041
:108640007DD50000B0B0A880C1D50000B0AB0280DD
:1086500067D60000B0B0AA8017D70000B0AE018086
:10866000CDD70000B0B0A880E7D70000B0AC038041
:1086700087D90000B0AB008021DA0000B0B0A8803C
:108680002DDA0000B45F04009BDA0000B0A900807E
:10869000B9DA0000883A040079DB00008C56040047
:1086A00075DC0000B0A8018003DF0000B0AD0680DB
:1086B0004BDF0000B0AC0780BFDF0000B03B040020
:1086C00013E00000B0AE0B808DE00000B83B04006A
:1086D0000DE10000F45604001DE10000B0AA058081
:1086E00025E20000B0A9008079E20000B0AA018074
:1086F00029E40000B0A9028073E40000B0A8018062
:108700007FE40000045D0400A1E400000C5D0400AF
:10871000C3E40000145D0400F3E400003C580400CE
:1087200017E50000FC49040035E50000B0AA05800B
:10873000B9E50000B0A80380EBE50000B0B0A88068
:10874000F3E50000445B040029E600004C5B0400F4
:1087500053E60000A01C040003E80000983A04005F
:1087600099E80000B01C04001FE90000C81C0400C8
:10877000A5E90000345B04001BEA0000B0AA0180F8
:108780007BEA0000FCA603005FEC0000C81C0400AC
:10879000E9EC0000245B04005DED00002C360400D1
:1087A00005EE0000B0B0A8800DEE0000A0B60300FA
:1087B000F5EE0000B0B0A88003EF0000BC5A040042
:1087C0007BEF0000101C04001DF00000B0B0A8807A
:1087D00025F00000F45A04009DF00000CC8703004F
:1087E000C9F40000B0B0A880F9F40000D839040042
:1087F000EDF50000C4F60300CDF6000044E70300E9
:1088000029F80000B0B0A88053F80000CC5B040049
:10881000C9F8000014F70300A9F90000A4E9030057
:1088200011FB0000B0B0A88019FB0000B8B5030030
:108830000BFC0000B0B0A88019FC0000A0390400B7
:10884000DDFC0000245A040021FD0000A0FE03000E
:10885000C9FD0000B0A80380FBFD000024B70300A1
:1088600089FE0000B0B0A88091FE00009C5A040070
:10887000BBFE0000A45A0400DBFE00009039040097
:10888000C9FF0000A45A040009000100AC5A04000A
:108890007F000100B0AA0180DF00010040A20300B8
:1088A00029030100A45A040029040100B0A8038090
:1088B00047040100B0B0A8804F040100EC58040048
:1088C0007F040100F4580400A9040100881A040080
:1088D000D5050100B0AA018037060100BC70030075
:1088E0009F0A0100ACE60300B70B0100DC5804004E
:1088F0002B0C010064340400F90C0100B0A80380C3
:10890000170D0100B0B0A8801F0D01002C59040004
:108910004F0D010034590400790D0100981A04002C
:10892000A50E0100B0AA0180070F01007CA403007E
:10893000ED1001004CE70300051201001C59040072
:10894000791201006834040009130100B0A8038003
:1089500027130100B0B0A8802F1301004C5A040067
:108960005F130100545A040089130100081B04001E
:10897000B5140100B0AA018017150100407703006B
:1089800029190100ECE70300411A01003C5A0400D8
:10899000BD1A0100A4340400751B0100B0A80380B7
:1089A000931B0100B0B0A8809B1B01002C59040050
:1089B000CB1B010034590400F51B010074110400A5
:1089C0002F1D0100B0AA0180911D0100F49D03003C
:1089D00015200100FCE603002D2101001C590400B4
:1089E000A12101000034040065220100B0B0A8807C
:1089F0006D220100B0A9008095220100B0B0A880CE
:108A0000A322010020380400672301008C590400D0
:108A1000AB23010028380400EF230100D4F4030045
:108A20000725010090B4030039260100F03304004B
:108A3000A9260100B0B0A880D32601001C110400B3
:108A400049280100B0AA0180AB2801006498030006
:108A5000C32B0100CCE60300DB2C01002C590400E1
:108A60004F2D01009C330400FD2D0100B0A80380B0
:108A70001B2E0100B0B0A880232E01008C570400EB
:108A8000532E0100945704007D2E010008190400A4
:108A9000A72F0100B0AA018009300100B0BD03007A
:108AA000E13001008CE50300F93101007C5704003E
:108AB0006D320100DC320400DD320100B0A900801B
:108AC00015330100B0AA0580BB330100B0AA0180B4
:108AD00053340100D453040075340100DC53040006
:108AE00097340100E4530400B9340100EC5304004E
:108AF000DB340100B0A8018009350100010000004D
:108B00000B350100008400800B350100B0AA058000
:108B100051350100B0A900807935010030360400DC
:108B20000F3601005CF30300CF370100B0AA0180CB
:108B3000F139010001000000073A0100B0B0A8803F
:108B40001B3A0100B0B0AA80233A0100B0B0A8805F
:108B50004F3A0100B0A90080C13A0100B0B0A8802E
:108B60005D3C0100B0AB0A80873C0100B0AB0680E1
:108B7000A93C0100B0AA0580633E0100B0AB0080B3
:108B80000F3F0100B0AA0180213F0100B0B0AC80CE
:108B900027400100B0AA018075400100B0AB008001
:108BA00087410100B0A9008003420100B0B0A88055
:108BB00043420100B0B0AC805B430100B0B0AA807A
:108BC0001F440100B0B0AE8063450100B0AB00802F
:108BD000E9470100B0B0A880F9470100B0B0AA8011
:108BE0008B480100B0B0AE80F9480100B0AA018006
:108BF000F3490100B0AC0180E14B0100B0B0AA80A4
:108C0000014C0100D4E803003B4C0100B0B0A88047
:108C1000534C0100FCF10300394D0100B002A98062
:108C2000614D0100B0AD0080FD4D0100D83404005D
:108C3000294F0100B0A900807D4F0100F8340400E5
:108C4000FD4F010004520400875001008818040001
:108C500073510100B0A801807D510100FCE70300C1
:108C60009D520100145A0400BF5201001C5A040016
:108C700025530100E8360400C553010002A8028014
:108C800019540100B0B0A88039540100B0A9008087
:108C90003F540100B0B0A88095540100B0AB0280F1
:108CA0003B550100B0B0AA80EB550100B0AE018089
:108CB000A1560100B0B0A880BB560100B0AB028045
:108CC0007B570100B0AB008015580100B0B0A88000
:108CD0002558010010360400B158010001000000C1
:108CE000B558010094540400FD58010028160400F2
:108CF0002B5A010040160400095B0100385803009C
:108D0000AF5D0100D44D04001B5E0100B0AF0880D0
:108D100015600100D44D0400F960010020700300CB
:108D20007962010034590400E5620100B0AF0880A7
:108D300061640100345904000965010060350400D4
:108D40006B65010070350400016601000C560400DB
:108D50002366010014560400456601001C560400F9
:108D60002D67010001000000356701008C580400E8
:108D700081670100B0B0A880956701008C5804009D
:108D8000D1670100A835040075680100B0AC01800E
:108D9000D368010000170400DB6901001817040004
:108DA000B56A0100B0AB0080D96A0100B0A90080AB
:108DB0001D6B0100B0B0AA80796B0100B0B0A88033
:108DC000CD6B0100B0B0AC80276D0100B0B0AE80BB
:108DD000276E0100B0AA0180396E0100B0B0A880F2
:108DE000576E0100B0A80180896E0100B0AA018011
:108DF000E96E0100B0AA0580696F0100B0A900808A
:108E0000AD6F0100B0A80180CF6F0100B0AA018052
:108E1000E56F0100B0AA05803F710100B0B0A880E5
:108E200099730100B0B0AC80ED7501005C56040090
:108E30000D760100645604002D7601006C56040086
:108E40004D760100745604006D7601007C560400D6
:108E50008D76010084560400AD760100C0A50300A4
:108E600015770100B0AB0680B57701007C56040091
:108E700025780100B0AA05806D7801007C560400B9
:108E80007D780100B0B0AE8065790100B0AB0480A0
:108E9000097A0100B0AB00809F7A0100B0B0AA80CF
:108EA000197B0100B0B0AC80B77B0100B0B0AA80E4
:108EB000BF7E0100D43E0400217F0100F43E040087
:108EC000FB820100D83E04005D830100F83E0400EF
:108ED0009F860100A03E0400DB860100B0B0AA809E
:108EE0008D8B0100B0AB00806B8C0100B0AF0280B5
:108EF000CD8C010064410400A5920100B0AA01805C
:108F00003D930100B0B0AA80979301007C4D04000E
:108F1000C7930100B0B0A880CD930100DC4D0400E0
:108F20003F9401000084008051950100B0A90A809F
:108F300097950100B0AA0180F7950100B0AB0080C1
:108F400029960100B0AB028051960100B0B0AC8010
:108F50006B9701004457040095970100B0A9008069
:108F6000D7970100A8410400E3990100B0B0AA809E
:108F7000079A0100944B0400799B01002C4C0400DB
:108F8000899B0100B0AF0280799D0100A4400400DC
:108F9000AB9D0100C02E04000F9E0100D42E0400E2
:108FA000959E0100E82E0400DF9E0100CC540400D1
:108FB000499F0100B0AB008043A10100884004003C
:108FC00031A40100503E040071A40100B0B0AA8099
:108FD0007FA40100B0B0A88035A50100B0B0AE807C
:108FE00077A50100B0A900808FA50100B0B0A880CE
:108FF000A5A50100B0AA01802FA60100B0B0AE80E7
:10900000F1A80100B03E04007DAB0100943E0400D5
:10901000ADAE0100B0B0AA80C5AF010001000000F4
:10902000C9AF0100F455040013B00100B0B0A8802E
:1090300027B00100F455040063B00100B0AC01801A
:109040009DB00100B0AB0280BDB00100B0A90080AE
:1090500027B10100B0B0AA8083B10100B0B0A880F0
:10906000DDB1010002A80280FBB10100B0AB0280BB
:1090700097B20100B0AC0180F9B2010002A80280F1
:1090800079B30100010000007DB30100FC5404002D
:10909000AFB3010004550400E9B30100B0AB008098
:1090A00009B40100B0AAD08035B40100B0A9008095
:1090B00079B40100B0B0AA80D5B40100B0B0A880E6
:1090C000B1B5010002A8028007B60100B0AB028072
:1090D00027B60100B0A9008075B60100B0B0AA8023
:1090E00077B7010044540400C1B70100B0AA018061
:1090F00021B80100B002A9804DB80100B0A80980D4
:109100007DB80100B0A90680A9B80100383204007A
:109110002FB90100B0A9008041B901000C3D040045
:10912000A3B90100A43D0400ABBC0100603D0400F4
:109130000DBD0100D03D040015C00100283D040014
:1091400077C00100AC3D0400A5C30100B0AF0280B0
:10915000A1C50100B0B0AE8001C70100B0A9008078
:109160008BC70100B0B0A880EFC70100B0B0AE80DF
:10917000AFC80100B0B0AA8041C90100B0AB008007
:10918000E9C90100B0AE018037CA0100B0AF00806C
:1091900091CD0100443C0400B9CF0100B0AB008088
:1091A00061D00100B0AE0180AFD00100B0AF00804F
:1091B00009D40100383C0400D7D50100B0AA0180D1
:1091C00023D60100B0B0AA8097D70100B0B0A88024
:1091D000D9D70100683C040021D80100003D0400FB
:1091E0008FDB0100B0AB00808DDC0100B0AF0080F0
:1091F000E7DF0100783E040069E50100B0B0AA8015
:1092000031E60100B0B0A88035E60100B0B0AA8018
:109210005FE601004C3B040039E80100B0B0A880D3
:109220007BE80100B0B0AA80E1E80100A0300400B2
:1092300049E90100B0B0AC8081E90100B0B0AA807A
:10924000E7EB0100B0B0AC803BEC0100B0B0AA800D
:109250007FEC0100B0A9008087EC0100B0AB00807A
:1092600035ED0100B0A8018067ED0100B0AB0080D2
:109270007DED0100B0B0AA801BEE010001000000EE
:1092800031EE0100B0B0A88035EE0100B0B0AA8088
:1092900033F50100B0AE018053F60100B0AB0080A1
:1092A00069F60100B0B0A8806DF60100B0B0AA80E8
:1092B000EBF80100183D04004DF90100383D0400B1
:1092C00055FC0100B0AB008097FC0100B0B0AA8053
:1092D000B3FC0100D03C0400ADFD0100DC3C040007
:1092E0000FFE0100FC3C04003B020200B0B0A8806D
:1092F0003F020200B0B0AC80F7030200B0B0A8801B
:10930000FB030200B0B0AC80A7060200B0B0AE8094
:10931000B907020002A80280D10702002C4A04000B
:109320001B080200B0B0A8802F0802002C4A0400DD
:1093300087080200B0B0A88091080200B0AB04809A
:10934000DF080200B0B0AA803B090200B0B0A880DC
:1093500061090200B0A90080690A0200B0B0A880CB
:109360006D0A0200B0B0AA80510B02008C3D0400CF
:10937000B70B0200B0AB0080530C0200B0AE01800E
:10938000A10C0200B0AF0080ED0F02008C3B040086
:10939000A3110200B0AB00803F120200B0AE01800A
:1093A0008D120200B0AF0080D9150200A83B040066
:1093B0008F170200B0AB00802B180200B0AE018006
:1093C00079180200B0AF0080C51B0200743B040096
:1093D0008D1D0200B0AF0280E3200200B0A9008022
:1093E00061210200B0AA01809B210200B0A9008087
:1093F000C1210200E44C0400E9210200FC4A0400FF
:109400001D220200B0A900804B220200B0AE0180F4
:1094100029260200B0A9008057260200B0AE0180C4
:109420003F2A0200B0A90080612A0200B0B0AA80E1
:10943000ED2A0200B0AA0180412B0200B0AB0080EF
:10944000E92B0200B0B0AA80172C0200B0AF008058
:109450006F2F0200D83A040031310200B0A9008019
:10946000033C0200B0B0AA80313C0200B0AB0080E7
:10947000253D0200B0A80180813D0200B0AB008014
:10948000B93D0200B0B0AA80713F0200B0AA0180CD
:109490009F3F0200B0A90A80F3410200B0AA0180F8
:1094A0008B4202007C280400BD450200B0A9008068
:1094B000DB450200B0B0AA80F1450200B0AC0180EB
:1094C00049460200B0B0AA8057460200B0AB008007
:1094D0003B4B0200B0AE0180494C0200B0AC0180B1
:1094E0007D4C0200B0AA01809D4C0200B0B0A88063
:1094F0009B4D0200B0AB0080374E0200B0AE018041
:10950000854E0200B0AF0080D1510200103B040034
:1095100087530200010000001B540200B0B0AC8071
:10952000DB540200B0B0A880DF540200B0AB008072
:10953000FB550200B0AE018049560200B0AF00807A
:10954000A3590200C43A0400095C0200B0AA0180D9
:10955000295C0200283A0400B95D0200B0AA01802B
:10956000D95D0200043A040023610200B0A9008022
:1095700081620200B0B0AA80AF620200B0AB00808E
:1095800079650200B0A90080A7650200B0AE018035
:10959000ED680200B0A900801B690200B0AE018036
:1095A000416C0200B0A900806F6C0200B0AE018077
:1095B00017700200B0AB0080C9700200B0A9008033
:1095C0005B710200D447040051720200B0A9008010
:1095D00075720200E44704006B730200B0A90080BA
:1095E0008F730200C44704002F740200B0A90080EA
:1095F000B9740200B0B0AA80DF770200B0A9008081
:10960000077A0200B0B0A8803D7A0200F03604006C
:10961000857A0200FC360400C57D0200B0B0AA8045
:10962000077E0200B0AC01805D7E0200B0A9008020
:10963000CD7E0200B4460400EF840200B0B0AA80E0
:109640001B860200B0B0AE80B3860200B0A90280D3
:10965000D7860200B0B0A880DB8602009C350400EB
:109660002F870200A8350400238C0200CC4D040093
:10967000A78C0200B0A90280EF8C0200B0A9008084
:10968000FD8C0200B0AA0180C18D0200B0A900804B
:10969000EF8D0200B0AE018035910200B0AB0080CA
:1096A000C191020030360400B9920200B0AA0180D4
:1096B000D9920200B0AC01803D930200B0A90080B5
:1096C0006B930200B0AE018095970200B0A90080B4
:1096D000FD98020001000000F7A50200B0A900807B
:1096E0000FA802009C39040057A80200A839040002
:1096F0000FAC0200B0AC018041AC0200B0A9008008
:1097000065AC0200E447040029AD0200B0A9008066
:109710004DAD020034480400CFAD0200B0A9008076
:10972000F3AD0200044804003DAF0200B0A9008080
:10973000B9AF0200B0AB00805DB00200B0AA0180FA
:10974000B1B00200B0AB0080FDB00200B0AA018051
:1097500051B10200B0AB00809BB10200B0B0A88054
:10976000E3B10200B0A9008015B302009C470400D9
:10977000B1B30200B0AB00804DB50200B0AA0180C9
:1097800079B50200B0AB008021B60200B0B0AA806B
:109790004FB60200B0AF0080A7B9020088350400C0
:1097A0007BBB0200B0A900801FBC0200B0A90280F0
:1097B00051BC0200B0A900809BBC0200B0B0AA80DE
:1097C000E7BC0200782504000BC20200C437040085
:1097D00049C20200B0AA018069C20200B0AB008099
:1097E0001DC30200B0B0AA804BC30200B0AF00801E
:1097F000B3C602002C340400ADCA0200B0AA018036
:10980000D1CA0200FC35040015CB0200B0A90080CB
:109810003FCC0200B448040027CD0200B0A900806C
:10982000B7CE02009448040033CF0200B0A90080F4
:10983000A3CF02004436040009D00200B0A9008082
:1098400079D002000C360400C1D00200B0AB008019
:10985000B5D30200B0AA0180E1D30200B0AB008012
:1098600089D40200B0B0AA80B7D40200B0AF0080A3
:109870000FD80200343804007DDA0200B0AB00805B
:10988000C9DA0200B0AA01801DDB0200B0AB008083
:1098900069DB0200B0AA0180BDDB0200B0AB008032
:1098A00009DC0200B0AA0180D3DC0200DC44040021
:1098B00019DD0200C44404009BDD0200B0AB00804F
:1098C000E1DD0200A44504006DDF0200B0A90080C4
:1098D000B1DF0200B0B0AA80F1E20200B0A90A80B4
:1098E00027E30200683404005DE30200B0AB0080AF
:1098F000DFE30200B0B0AA80CDE40200B0A900808E
:109900001DE50200B0B0AA80EFEA0200B0A9008015
:1099100061EB0200B0AB0080ADEB0200B0AA0180A9
:1099200021EC020060330400BDF20200B0A9008007
:1099300045F30200B0AB008091F30200B0AA0180B1
:10994000D7F30200B0B0AA808DF50200B0A9008064
:10995000D1F50200B0B0AA8029F902003C4504000C
:1099600071F9020024450400B9F90200B0B0AA80E0
:10997000FDF90200B0A801805DFB0200B0A90080E3
:10998000F9FB0200F4420400A3FC0200B0B0AA807C
:1099900019FD0200B0A90080B5FD02005C41040081
:1099A000E7FF02000447040059000300B0B0AA809A
:1099B0006F020300B0A900800B0303005C4B04009E
:1099C000A5030300B0A80180FF030300B0B0A88086
:1099D000D9040300B0AB0080230503008C420400CF
:1099E00075050300B0B0AA80DD050300B0AB0080B0
:1099F00027060300B0A900808F060300EC46040090
:109A0000C9060300B0B0AA80EB0603002C45040091
:109A10001307030004450400BD080300B0AB008039
:109A200007090300E44A04004B090300B0B0A88012
:109A30005B090300B0B0AA8075090300B0A90080DB
:109A4000E3090300544204001D0A03001C41040002
:109A5000A10A030034410400C90A03001C440400A5
:109A6000DF0A0300B0A90080B90B0300CC4A040050
:109A7000F10B0300B0B0AA80150C0300B0B0A880B1
:109A8000B70C0300B0B0AA80190D030048260400EB
:109A9000BB0D0300B0A90080C90D0300B0B0AA80BF
:109AA0002D0E0300B0AA0180790E0300B0B0AA8089
:109AB000350F0300B0A9008007100300B0B0A880E4
:109AC0005B100300B0A90080CB1003000100000070
:109AD000BF170300B0AB00803D4A0300B0A801806F
:109AE0007152030001000000CD520300B0B0A88005
:109AF000E3520300B0B0AA80DF530300DC4104004E
:109B00009D58030001000000995A0300B0A900808D
:109B1000CF5A03000084008061670300B0AC058069
:109B2000BF670300E0AD030007690300B0AA01802E
:109B300029690300B825040085690300B0B0AC8032
:109B4000C16A0300B0AA0180B56B0300B0B0AA805F
:109B5000256C0300B0AB00807D6C0300B0B0A88022
:109B6000436D03000C310400056E0300B0B0AA8001
:109B7000EF6E030038310400476F0300B0AB008084
:109B80005D6F0300F43F0400C16F0300B0A90080C3
:109B900023700300B0AC01806D700300B0A9008099
:109BA00099700300B0AA0380C9700300B0AB0080B5
:109BB000FF7003009430040031710300B0B0AA803C
:109BC0005D710300943F0400BB73030001000000BB
:109BD000757803001CD303002B790300DC3F0400DD
:109BE000D979030000840080EF7A0300B0A90080D7
:109BF0003D7B0300B0AA0180717B0300B80604001E
:109C0000BF7B030058300400BD7C0300B0A9008076
:109C10005D7D0300B0B0A880C57D0300B0AB0080BF
:109C20005B7E03009C3004008B7E0300B0AC01809F
:109C3000CF7E0300B0B0AC80AF7F0300B0A902803C
:109C4000C97F0300A430040023810300E82F04002F
:109C50004D810300B0A90080558103000100000080
:109C60000F8203003430040057820300B0AB008041
:109C7000C3820300B0B0AA80FF8203001C3F04002F
:109C800027830300C43E0400858703000100000011
:109C90009993030088A20300599503000100000076
:109CA0004796030094300400D1960300B0B0A8801A
:109CB0008D98030001000000E9980300B0AB00801C
:109CC000D599030001000000319A0300B0AB008079
:109CD0001D9B030001000000799B0300B0AB0080D6
:109CE000659C030001000000C19C0300B0AB008034
:109CF000F5A2030001000000B5A303003C0004002E
:109D0000B1AC0300B0AC018009AD0300B0A9008084
:109D100083AD0300B0AB008039AE0300B0AC01806E
:109D200091AE0300B0A900800BAF0300B0AB008080
:109D3000BDAF0300B0AC018015B00300B0A9008036
:109D40008FB00300B0AB008041B10300B0AC018024
:109D500099B10300B0A9008013B20300B0AB00803A
:109D6000C9B20300B0AC018021B30300B0A90080E8
:109D70009BB30300B0AB008051B40300B0AC0180D2
:109D8000A9B40300B0A9008023B50300B0AB0080E4
:109D9000D9B50300B0AC018031B60300B0A9008092
:109DA000ABB60300B0AB008061B70300B0AC01807C
:109DB000B9B70300B0A9008033B80300B0AB00808E
:109DC000E9B80300B0AC018041B90300B0A900803C
:109DD000BBB90300B0AB008071BA0300B0AC018026
:109DE000C9BA0300B0A9008043BB0300B0AB008038
:109DF000F9BB0300B0AC018051BC0300B0A90080E6
:109E0000CBBC0300B0AB008081BD0300B0AC0180CF
:109E1000D9BD0300B0A9008053BE0300B0AB0080E1
:109E200009BF0300B0AC018061BF0300B0A900808E
:109E3000DBBF0300B0AB008091C00300B0AC018079
:109E4000E9C00300B0A9008063C10300B0AB00808B
:109E500019C20300B0AC018071C20300B0A9008038
:109E6000EBC20300B0AB0080A1C30300B0AC018023
:109E7000F9C30300B0A9008073C40300B0AB008035
:109E800029C50300B0AC018081C50300B0A90080E2
:109E9000FBC50300B0AB0080B1C60300B0AC0180CD
:109EA00009C70300B0A9008083C70300B0AB0080DE
:109EB00035C80300B0AC01808DC80300B0A9008094
:109EC00007C90300B0AB0080B9C90300B0AC018082
:109ED00011CA0300B0A900808BCA0300B0AB008098
:109EE0003DCB0300B0AC018095CB0300B0A900804E
:109EF0000FCC0300B0AB0080C1CC0300B0AC01803C
:109F000019CD0300B0A9008093CD0300B0AB008051
:109F100045CE0300B0AC01809DCE0300B0A9008007
:109F200017CF0300B0AB008071D50300B0B0AA809A
:109F3000A7DE0300D01D0400B1E40300B0AD008033
:109F4000E7E40300B0B0AC806BE50300B0AD008087
:109F5000A1E50300B0B0AC8079E60300B0B0A88002
:109F6000EDE70300B0B0AC8015E80300B0AD0080B1
:109F70003DE80300B0B0AC80BDE80300B0AD0080A8
:109F8000E5E80300B0B0AC8025FA0300B0AB028076
:109F900025FB0300141F0400E9FB03002C3C040014
:109FA00009FC0300343C040029FC03005C3D040070
:109FB00049FC0300B43F040069FC03003C41040079
:109FC00015150400B0B0AA802D150400B0AB0080B8
:109FD00051150400B0B0AA8081150400B0AB008018
:109FE000A5150400B0B0AA80F3150400B0AB008042
:109FF00017160400B0B0AA8065160400B0AB00804C
:10A0000089160400B0B0AA80D7160400B0AB008057
:10A01000FB160400B0B0AA8049170400B0AB008062
:10A020006D170400B0B0AA80BB170400B0AB00806D
:10A03000DF170400B0B0AA802D180400B0AB008078
:10A0400051180400B0B0AA809F180400B0AB008083
:10A05000C3180400B0B0AA8011190400B0AB00808E
:10A0600035190400B0B0AA8065190400B0AB0080B7
:10A0700089190400B0B0AA80B9190400B0AB0080FF
:10A08000DD190400B0B0AA800D1A0400B0AB008046
:10A09000311A0400B0B0AA80611A0400B0AB00808D
:10A0A000851A0400B0B0AA80B51A0400B0AB0080D5
:10A0B000D91A0400B0B0AA80291B04003C3B04005C
:10A0C0007B1B0400143D0400FD1D04005C3B0400E8
:10A0D000111E0400643B04005D1E04000C3F0400DC
:10A0E000711E0400143F0400052304002C3A0400F0
:10A0F00015230400343A0400252304003C3A0400EC
:10A1000035230400043B0400452304000C3B0400F9
:10A1100055230400343B0400652304003C3B040049
:10A1200075230400843B0400852304008C3B040059
:10A1300095230400943B0400A5230400AC3C0400D8
:10A14000B5230400B43C0400C5230400BC3C040057
:10A15000D5230400C43C0400E5230400CC3C0400E7
:10A16000F5230400D43C0400052404001C3E040034
:10A1700015240400243E0400252404002C3E040081
:10A1800035240400343E0400452404003C3E040011
:10A1900055240400443E0400652404006C3E040081
:10A1A00075240400743E0400852404007C3E0400F1
:10A1B00095240400843E0400A52404008C3E040081
:10A1C000B5240400943E0400C52404009C3E040011
:10A1D000D5240400A43E0400E5240400AC3E0400A1
:10A1E000F5240400B43E0400052504002C3F0400BF
:10A1F00015250400343F0400252504003C3F0400DD
:10A2000035250400443F0400452504004C3F04006C
:10A2100055250400543F0400652504002C42040029
:10A220007525040034420400852504003C420400E6
:10A230009525040014430400A52504001C430400D4
:10A24000B525040024430400C52504006C43040024
:10A25000D525040074430400E52504007C43040074
:10A26000F5250400A44404005D2804007C390400A2
:10A2700081280400A43A04008F280400FC3C040058
:10A280009D280400843E0400D7280400BC43040039
:10A29000E52804001444040000F5E07002689142CF
:10A2A00003D343681A44914202D380680028F5D151
:10A2B00070471849086880B94FF4805048604FF4DF
:10A2C00080324FF0FF30C86008610420124B8A6072
:10A2D0004861C3F8BC01114808600120704701F1D2
:10A2E000080313F0070F0EBF0023C3F1080303F0A8
:10A2F00007031944D21A8161C26042F001034B6026
:10A30000091D4FF0280C41F802C0024A1369C361CD
:10A3100070470000602F0020CC2400206859883C42
:10A320002DE9F84F84B00646AFF30080F52E1E4DA0
:10A3300080F013820B2E31BF10260B36F608F60084
:10A340002868F408E04010F0030F4AD0C04300F042
:10A350000100041905F1280000EBC408E700D8F853
:10A3600008607068C008C000B84218BFFDF70CFF55
:10A37000D6F80890464508BFFDF706FF4E4508BFD2
:10A38000FDF702FF7068C008C000B84218BFFDF7B3
:10A39000FBFEC8450AD12868012101FA04F420EA2D
:10A3A00004042C6010E000BFCC2400202869814503
:10A3B00008D3D9F80C10B14204D1C8F80890C9F8F4
:10A3C0000C8001E0FDF7E0FE47F00300311D7060F6
:10A3D000301DCA5942F00102C25106F1080800F0CE
:10A3E0001DBFA968B14280F0A883002800F0A280B8
:10A3F0004FF0010808FA04F1490000FA04F4484259
:10A4000001430C4060420440641E200B00F0100029
:10A41000C440610901F00801CC40A20802F0040226
:10A42000D440630803F002030818DC401018C4F39A
:10A43000400718183818FC40241805F1280000EBD4
:10A44000C40AE700DAF80890D9F80400C008C00090
:10A45000B84218BFFDF798FED9F808B0D14508BF3B
:10A46000FDF792FED94508BFFDF78EFED9F804002E
:10A47000C008C000B84218BFFDF786FEDA4506D115
:10A48000286808FA04F420EA04042C600DE0296925
:10A490008B4508D3DBF80C00484504D1CAF808B056
:10A4A000CBF80CA001E0FDF76FFEBF1B46F00300E8
:10A4B00009F10402C9F8040047F00101915109EBC8
:10A4C00006020192D751AC684FEAD40ABAF11F0FC5
:10A4D00088BFFDF759FE34B3CDF800A005F1280080
:10A4E0006E6900EBCA0AD346102C38BFFDF74CFE4C
:10A4F0002968009821FA00F2D30704D408FA00F082
:10A500000843286007E0DAF80800296988422CBF70
:10A510008346FDF739FECAF80860CBF80C60C6F830
:10A5200008B0C6F80CA0AF6009F10808019868618E
:10A5300000F074BE6868002800F0208341420840A3
:10A54000401E010B01F01001C840420902F0080250
:10A55000D040830803F00403D840440804F0020408
:10A560005118E0405918C0F34007611805F5987874
:10A570007918F840401858F820104868C008C00002
:10A580008A46A0EB060B08E001464868C008C000F8
:10A59000801B58453CBF83468A4608690028F3D192
:10A5A00049690029F1D128698245C0F0D380DAF8E1
:10A5B0000410C90806EB0B09C900494518BFFDF78F
:10A5C000E3FD0AEB06008245019080F0C380DAF8D3
:10A5D0000C40DAF8187054450DD0DAF808002969F3
:10A5E000884223D3C268524504BFA16851451DD19A
:10A5F000C460A0601CE00AF114010C6834B90AF1CF
:10A6000010010C68A4B101E011460C6804F11402B9
:10A610001068002802BF04F1100210680028F3D16E
:10A620002869814202D300220A6001E0FDF7ACFDF7
:10A63000002F38D0DAF81C0008EB80010A68924538
:10A640000AD11CBB6A68012303FA00F022EA000069
:10A6500068600020086026E029698F4213D33869BA
:10A66000504514BF7C613C61ECB129698C4218D320
:10A67000A761DAF8100058B1884226BF20618461D2
:10A68000FDF782FD04E0FDF77FFDEDE70C60ECE7F0
:10A69000DAF8140038B12969884202D36061846114
:10A6A00001E0FDF771FDBBF1100F0ED249F0030080
:10A6B0000AF10401CAF804000AF1040051F8092063
:10A6C00042F0010240F809203EE046F003010AF1A1
:10A6D0000402CAF804104BF001009051019941F8AE
:10A6E0000BB0A8680090C4081F2C88BFFDF74CFD74
:10A6F000009828B305F1280000996F6900EBC408A1
:10A70000C146102938BFFDF73FFD286820FA04F143
:10A71000CA0705D4012101FA04F404432C6007E0C0
:10A72000D8F80800296988422CBF8146FDF72CFD26
:10A73000C8F80870C9F80C70C7F80890C7F80C8002
:10A74000C5F808B0019868611AF1080800F0F581B1
:10A7500000F064BDFDF718FDEFE116F1400F28BFD2
:10A760004FF0FF3680F0E9810B36F6086B68F60093
:10A77000002B00F0E2810027300AC6F1000908BF73
:10A78000002423D0B0F5803F28BF1F241ED2A0F59F
:10A790008071090C01F008018840A0F58052120C6C
:10A7A00002F004029040A0F58044240CC1F10E0197
:10A7B00004F00204891A091BA04001EBD031C81D26
:10A7C00026FA00F404F0010404EB410405F598783E
:10A7D00058F8240030B31F2C0FBFB4464FEA540C76
:10A7E000CCF1190C06FA0CFCBE46494601E04FEAD2
:10A7F0004C0C4268D208D200921B8A4202D211004D
:10A8000007460CD0426910304FEADC7950F8290035
:10A81000002A1CBF824296460028E8D1704689462D
:10A82000A8BBB7BB012101FA04F4640060420443F1
:10A83000234000F08281584203405B1E180B00F059
:10A840001000C340590901F00801CB409A0802F0FA
:10A850000402D3405C0804F002040818E340101816
:10A86000C3F3400C2018604423FA0CF31B1858F86B
:10A8700023000CE008464168C908C900891B494506
:10A880003CBF8946074601690029F3D14069002889
:10A89000F1D1002F00F05181A868801B814580F024
:10A8A0004C8129698F42FFF455AF7868C008C00019
:10A8B00006EB0901884218BFFDF766FC07EB060BA3
:10A8C0005F45BFF447AFFC68D7F818A0BC420CD076
:10A8D000B8682969884223D3C268BA4204BFA16814
:10A8E000B9421DD1C460A0601CE007F114010C68DE
:10A8F00034B907F110010C68A4B101E011460C68ED
:10A9000004F114021068002802BF04F1100210685C
:10A910000028F3D12869814202D300220A6001E0B5
:10A92000FDF732FCBAF1000F39D0F86908EB80016D
:10A930000A6897420AD134BB6A68012303FA00F01F
:10A9400022EA000068600020086028E029698A4542
:10A9500016D3DAF81000B84214BFCAF81440CAF887
:10A960001040E4B129698C4217D3C4F818A03869A3
:10A9700058B1884226BF20618461FDF705FC04E0E0
:10A98000FDF702FCEDE70C60ECE7786938B1296966
:10A99000884202D36061846101E0FDF7F5FBB9F103
:10A9A000100F0CD2B14449F00300391D7860381DF6
:10A9B00051F8092042F0010240F80920B9E046F0C0
:10A9C00003013A1D796049F0010090514FEAD90026
:10A9D0004BF809901F2822D805F1280101EBC0048B
:10A9E000296821FA00F2D307A04605D4012202FA11
:10A9F00000F00843286006E0A068296988422CBF5F
:10AA00008046FDF7C1FBC4F808B007F10800C8F89C
:10AA10000CB040F8068007F10C018C5189E05FEA28
:10AA2000192008BF002123D0B0F5803F28BF1F2187
:10AA30001ED2A0F58072120C02F008029040A0F520
:10AA40008051090C01F004018840A0F580431B0CE3
:10AA5000C2F10E0203F00203521AD21A984002EB1E
:10AA6000D032D01D29FA00F101F0010101EB4201C1
:10AA700007F11403CBF81C1000229A5107F11003C0
:10AA800008EB81009A516A6822FA01F3DC0711D4BD
:10AA9000012303FA01F111436960C0F800B0CBF85B
:10AAA000180007F1080107F10C0040F806B041F862
:10AAB00006B03EE002681F291DBF4908C1F1190117
:10AAC00009FA01F1494600E002465068C008C0009A
:10AAD000484518D002F11003C80F03EB800349006A
:10AAE00018680028F0D12869834220D3C3F800B049
:10AAF00007F10C01CBF8182041F806B007F1080067
:10AB000040F806B015E0296990688A4228BF88425B
:10AB10000DD3C0F80CB007F10801C2F808B0885195
:10AB200007F10C0082510022CBF8182001E0FDF75C
:10AB30002BFB17F1080840F07183A868B0421DD3C1
:10AB4000811B6A69102909D39319A96041F001009A
:10AB50005860595046F0030656600BE00021A9608A
:10AB600040F00304111D5460141D0E5846F00106F8
:10AB7000265000236B6102F108084FE3E868864223
:10AB8000C0F03C83DFF8CC9BD9F8000008B9FFF790
:10AB900090FBD9F8081088192F30491E20EA0101CE
:10ABA0008E4280F0398305F5D877B86838B13A68B5
:10ABB00089188A4280F030838842C0F02D8300F0EB
:10ABC00031FE00281CBFD0F8008010F1010F00F00A
:10ABD000238339687A68414439608A4238BF796092
:10ABE000AC6904BB296909B1884200D228610021FF
:10ABF0003861C7F81480F9614FF0FF31D9F80020AF
:10AC00006A62296205F1280200219260D26002F195
:10AC1000080353611361891C10321F29F5D9A8F16B
:10AC2000280201461DE005F5E0710A46814600E074
:10AC30009268D2B11068536803449945F8D1107BEB
:10AC4000030712D413689C420FD3D2F804C06344A4
:10AC50009C420AD2C444C2F804C02146E86808EB0A
:10AC600000022846FFF73BFBC5E22869814538BF53
:10AC7000C5F8109009EB080000E08968002900F091
:10AC8000C1810A688242F8D1087B020700F1BA81CB
:10AC90000868C1F800904A6842444A6009F1080116
:10ACA00011F0070F08BFCDF8049006D0C1F10801DC
:10ACB00001F0070109EB0102019200F1080111F016
:10ACC000070F04D0C1F1080101F0070108448046D4
:10ACD0000198A8EB00018419A1EB060B274646F06A
:10ACE00003064660474528BFFDF74EFA98F8040072
:10ACF000C10758BFFDF748FABBF1100F38BFFDF789
:10AD000043FAA869804508D1E9688B44C5F80CB0BE
:10AD1000AF614BF00100786070E1686980450AD14D
:10AD2000A9686F618B44C5F808B04BF001007860EA
:10AD300047F80BB062E1D8F8040000F003010129E4
:10AD400040F0BC80C008C000C1081F29039040D853
:10AD5000D8F808200092D8F80C600291B04508BFDE
:10AD6000FDF712FA0098804508BFFDF70DFAD8F8F4
:10AD700004000299C008C000B0EBC10F18BFFDF776
:10AD800003FA0299009A05F1280000EBC100824203
:10AD900008D011462A699142C0F08B80CA684245AA
:10ADA00040F0878000998E4206D102982A680123DC
:10ADB00083409A432A607EE0864205D029698E420C
:10ADC00077D3B068404574D10098C6600099B160EF
:10ADD00071E0D8F818000090D8F80C6046450DD006
:10ADE000D8F808002969884223D3C268424504BFC5
:10ADF000B16841451DD1C660B0601CE008F1140186
:10AE00000E6836B908F110010E68A6B101E01146CE
:10AE10000E6806F114021068002802BF06F1100245
:10AE200010680028F3D12869814202D300220A6009
:10AE300001E0FDF7A9F9009800283CD0D8F81C00E3
:10AE400005F5987101EB80010A6890450AD12EBB87
:10AE50006A68012303FA00F022EA0000686000201B
:10AE6000086028E000992869814214D308694045A8
:10AE700014BF4E610E61F6B129698E4219D3009854
:10AE8000B061D8F8100058B1884226BF30618661A1
:10AE9000FDF77AF904E0FDF777F9ECE70E60EBE7F0
:10AEA000D8F8140038B12969884202D370618661EC
:10AEB00001E0FDF769F9039988448B44D8F8041040
:10AEC00049084900C8F804104BF0010078604FEAC7
:10AED000DB0647F80BB01F2E22D805F1280000EB47
:10AEE000C604A146BBF1100F38BFFDF74DF9286825
:10AEF00020FA06F1CA0705D4012101FA06F6064335
:10AF00002E6006E0A068296988422CBF8146FDF7C3
:10AF10003BF9A760C9F80C70C7F80890FC606DE0B9
:10AF20005FEA1B2008BF002123D0B0F5803F28BF77
:10AF30001F211ED2A0F58072120C02F00802904070
:10AF4000A0F58051090C01F004018840A0F5804370
:10AF50001B0CC2F10E0203F00203521AD21A9840DF
:10AF600002EBD032D01D2BFA00F101F0010101EB10
:10AF70004201F961002305F598727B6102EB8100C3
:10AF80003B616A6822FA01F3DE0707D4012303FA62
:10AF900001F1114369600760B8611DE002681F2973
:10AFA0001DBF4908C1F119010BFA01F1594600E032
:10AFB00002465068C008C000584510D002F1100386
:10AFC000C80F03EB8003490018680028F0D12869F6
:10AFD000834211D31F60BA61FF60BC600EE0296933
:10AFE00090688A4228BF884206D3C7609760B860DD
:10AFF000FA600020B86101E0FDF7C6F8019800F1A1
:10B0000008080BE121462846FFF746F90168406829
:10B0100008440090A0F1270111F0070000980EBF2E
:10B020000021C1F1080101F007010844A0F12F0B34
:10B0300004F110018B4538BFA3460BF11802002123
:10B0400002920191A8F1280249462846FFF747F9E4
:10B050000BF1080010F0070F18BFFDF795F81B2043
:10B06000CBF8040005F5E07292E809500BF10801F5
:10B0700081E8095000210BF10800F961B861009ADC
:10B0800002980199C7F81090C7F81480072300E0D0
:10B09000001D491C00F1080797424360F8D30129BD
:10B0A000D8BFFDF771F8A34500F0A580ABEB040B0A
:10B0B000201D221D50F80B104908490042F80B10C2
:10B0C0004BF0010060604FEADB0944F80BB0B9F1C6
:10B0D0001F0F22D805F1280000EBC907B846BBF1C5
:10B0E000100F38BFFDF750F8286820FA09F1CA0799
:10B0F00005D4012101FA09F10843286006E0B86887
:10B10000296988422CBF8046FDF73EF8BC60C8F82C
:10B110000C40C4F80880E7606DE05FEA1B2008BFC0
:10B12000002123D0B0F5803F28BF1F211ED2A0F5FB
:10B130008072120C02F008029040A0F58051090CB8
:10B1400001F004018840A0F580431B0CC2F10E02FF
:10B1500003F00203521AD21A984002EBD032D01DEB
:10B160002BFA00F101F0010101EB420105F59872A3
:10B17000002302EB8100E161636123616A6822FAC6
:10B1800001F3DF0707D4012303FA01F111436960DA
:10B190000460A0611DE002681F291DBF4908C1F1BC
:10B1A00019010BFA01F1594600E002465068C00847
:10B1B000C000584510D002F11003C80F03EB800304
:10B1C000490018680028F0D12869834211D31C6017
:10B1D000A261E460A4600EE0296990688A4228BFF9
:10B1E000884206D3C4609460A060E2600020A06141
:10B1F00001E0FCF7C9FFE86886420DD2801BA9690F
:10B20000E8608A19AA6140F00100506046F0030628
:10B210004E6001F1080801E04FF00008AFF3008034
:10B22000404605B0BDE8F08F002800D170472DE9F9
:10B23000F047A0F10805AFF30080DFF81C65316925
:10B240008D42C0F08482686800F00302012A00F099
:10B250007E82C2084FEAC209C20705EB090839D449
:10B260002C6810F0030F00F06E82604205448D429E
:10B27000A144C0F06C827069854200F0DE80E40871
:10B28000202C72D2D5F80CA0AF68554508BFFCF74A
:10B290007BFFBD4208BFFCF777FF6868C008C000AD
:10B2A000B0EBC40F18BFFCF76FFF06F1280000EBEE
:10B2B000C400874205D031698F4253D3FA68AA424D
:10B2C00050D1BA4540D13068012101FA04F420EA96
:10B2D00004043460454580F03A82D8F80440E00721
:10B2E00040F13582A10700F18381B069804540F0CB
:10B2F000B780F168B5618944C6F80C9049F0010047
:10B30000686071698D4202D100207061B060F1699E
:10B31000494580F01882DFF83C24106808B9FEF730
:10B32000C8FFB169002900F00E82F068292824BF07
:10B330003046FEF7B1FFF069F168884280F0038281
:10B340004FF0FF30F061FEE1824506D03069824562
:10B3500008D3DAF80810A94204D1C7F80CA0CAF83B
:10B360000870B7E7FCF710FFB4E7EC68AF69AC42D0
:10B370000BD0A868884222D3C168A94204BFA26842
:10B38000AA421CD1C460A0601BE005F1140214683D
:10B3900034B905F1100214689CB101E01A46146832
:10B3A00004F114031868002802BF04F110031868A0
:10B3B0000028F3D18A4202D30021116001E0FCF79A
:10B3C000E3FE002F86D0E86906F5987101EB800155
:10B3D0000A6895420AD124BB7268012303FA00F07F
:10B3E00022EA000070600020086073E731698F4234
:10B3F00014D33869A84214BF7C613C61002C3FF42F
:10B4000069AF31698C42ADD3A761286958B18842D0
:10B4100026BF20618461FCF7B7FE04E0FCF7B4FEB0
:10B42000ECE70C60EDE7686900283FF453AF316941
:10B43000884297D3606184614CE798F8040000F07B
:10B44000030003287FF446AFC6F8089049F00101D5
:10B45000D8F8040040084000C8F8040069600AE019
:10B46000706980450AD1B16875618944C6F8089051
:10B4700049F00100686045F8099064E1E408E400DF
:10B48000A144E408202C3AD2D8F80CA0D8F80870CF
:10B49000D04508BFFCF778FEB84508BFFCF774FE3E
:10B4A000D8F80400C008C000B0EBC40F18BFFCF708
:10B4B0006BFE06F1280000EBC400874207D031691B
:10B4C0008F42C0F08880FA68424540F08480BA45D7
:10B4D00007D13068012101FA04F420EA0404346041
:10B4E0007BE0824506D03069824574D3DAF80810D3
:10B4F000414570D1C7F80CA0CAF808706DE0D8F8C3
:10B500000C40D8F8187044450DD0D8F808003169BF
:10B51000884223D3C268424504BFA16841451DD17A
:10B52000C460A0601CE008F114010C6834B908F193
:10B5300010010C68A4B101E011460C6804F114027A
:10B540001068002802BF04F1100210680028F3D12F
:10B550003069814202D300220A6001E0FCF714FE48
:10B56000002F3AD0D8F81C0006F5987101EB800145
:10B570000A6890450AD11CBB7268012303FA00F0E7
:10B5800022EA000070600020086026E031698F42E6
:10B5900013D33869404514BF7C613C61ECB131691B
:10B5A0008C4218D3A761D8F8100058B1884226BF42
:10B5B00020618461FCF7E8FD04E0FCF7E5FDEDE7C0
:10B5C0000C60ECE7D8F8140038B13169884202D336
:10B5D0006061846101E0FCF7D7FD49F0010068601B
:10B5E00045F8099071698D420BD1C6F80890AAE020
:10B5F00064086400C8F8044049F00100686045F838
:10B6000009904FEAD907202F22D206F1280000EB3B
:10B61000C704A046B9F1100F38BFFCF7B5FD30687C
:10B6200020FA07F1CA0705D4012101FA07F70743F9
:10B63000376006E0A068316988422CBF8046FCF77D
:10B64000A3FDA560C8F80C50C5F80880EC607AE04E
:10B650005FEA192008BF002123D0B0F5803F28BF42
:10B660001F211ED2A0F58072120C02F00802904039
:10B67000A0F58051090C01F004018840A0F5804339
:10B680001B0CC2F10E0203F00203521AD21A9840A8
:10B6900002EBD032D01D29FA00F101F0010101EBDB
:10B6A000420106F59872002302EB8100E9616B61AB
:10B6B0002B61726822FA01F3DC0707D4012303FA35
:10B6C00001F1114371600560A8611DE002681F2946
:10B6D0001DBF4908C1F1190109FA01F1494600E00D
:10B6E00002465068C008C000484510D002F110035F
:10B6F000C80F03EB8003490018680028F0D13069B7
:10B70000834211D31D60AA61ED60AD600EE0316926
:10B7100090688A4228BF884206D3C5609560A860B9
:10B72000EA600020A86101E0FCF72EFD306A401EAF
:10B7300008D13062D6F8C80100E080680028FCD14A
:10B740004FF0FF303062AFF30080BDE8F087FCF7C8
:10B750001BFDF8E7602F0020CC2400202DE9F843E2
:10B760008AB080462821684600F072F82B4A10689B
:10B7700008B9FEF79EFDAFF30080DFF8A4E0DEF825
:10B780001820002A40D0DEF80C5005F128060124CC
:10B7900037460EF5E0711CE04FEADC090CF0030CB3
:10B7A000BCF1010F07EBC90704BF06EBC906641C17
:10B7B00003EBC90383420BD3D1F8049081444B457A
:10B7C00006D293421CBFD3F804C0BCF1070FE3D1EB
:10B7D000896861B1086800F1080313F0070F0EBF14
:10B7E0000023C3F1080303F007030344E2E70097D3
:10B7F0000EF5D87001940896099501684268059283
:10B80000CF1B891B04970791AFF300804046694620
:10B81000282200F03DF80BB0BDE8F083602F002037
:10B82000CC2400200749086808B10020704706486A
:10B83000C008C00008600549C908C900091A0160AC
:10B84000704700BF64300020475200203F52012063
:10B85000002200F06FB88268521C8260426832B1E8
:10B860000268531C036011704168491E41607047B3
:10B8700062B38B0708D0521E11F8013B00F8013B60
:10B8800000F024808B07F6D1830740F0208000BFB2
:10B89000103A07D330B4B1E83810103AA0E83810A5
:10B8A000F9D230BC530724BFB1E80810A0E8081053
:10B8B00044BF51F8043B40F8043BD20724BF31F8A1
:10B8C000022B20F8022B44BF0B7803707047121F25
:10B8D00017D35B0009D151F8043B20F8023B1B0C45
:10B8E000121F20F8023BF6D20BE051F8043B00F89F
:10B8F000013B1B0A20F8023B1B0C121F00F8013B06
:10B90000F3D238BF121D521E24BF11F8013B00F8BC
:10B91000013BF8D870470268531C036011707047F0
:10B9200080B5AFF30080024A11001820ABBEFBE7E0
:10B930002600020000B500BF130096469446103959
:10B9400028BFA0E80C50FAD85FEA417C28BF0CC0A1
:10B9500048BF40F8042BC90728BF20F8022B48BF76
:10B9600000F8012B00BD0200002070472DE9F14FC7
:10B97000B0B0924604910DF142013A9A2B9199464A
:10B980004A7000200AE01AF8011B0498309A904788
:10B990000028049000F0A6860D98401C0D909AF89F
:10B9A000000050B12528EED1002100220791089215
:10B9B00009910A920B910C9204E00D9800F094BE4C
:10B9C00041F001011AF8010F2028F9D023280CD0EA
:10B9D0002B2804D02D2805D0302809D00BE041F0C9
:10B9E0000201EFE741F00401ECE741F00801E9E76B
:10B9F00041F01001E6E72A280FD1D9F8002052F8CB
:10BA0000040BC9F8002000280F9003D540420F9086
:10BA100041F004010AF1010A14E00F92DFF8243822
:10BA20000AE00F98984205DA00EB800402EB44022A
:10BA3000303A0F920AF1010A9AF80020A2F1300080
:10BA40000A28EED39AF800002E2803D04FF0FF32D8
:10BA50000E9229E01AF8010F2A2809D1D9F800001E
:10BA600050F8042BC9F800000E920AF1010A1BE0FD
:10BA70002D280CBF0AF1010A002000220E92DFF8E7
:10BA8000C4470BE040B90E9AA24205DA02EB8205E8
:10BA900003EB4503303B0E930AF1010A9AF800309C
:10BAA000A3F130020A2AEDD3ADF84010DFF8980771
:10BAB000784400F294709AF8001000F02DFF08B15D
:10BAC0001AF8010B8DF842009DF84200682805D154
:10BAD0009AF8000068280CD1622106E06C2804BFA7
:10BAE0009AF800006C2804D171218DF842100AF1F7
:10BAF000010A12A806901AF801BBBBF125012CD04F
:10BB00001C3900F0CF81091F022940F2CB81133983
:10BB100000F01385093900F0C581891E00F0A88561
:10BB2000491E00F05585491E022940F2BB81091FBC
:10BB300000F04E85491F00F02881491E00F0FD8469
:10BB4000491E00F0D080C91E0DD0891E00F0F5847A
:10BB5000C91E00F0F28400F096BD25238DF8483010
:10BB6000012100F09BBDD9F8000050F8044BC9F842
:10BB70000000002C059440F0A3802B994878002801
:10BB800000F099804FF0FF340FF6643000F0D2FEE1
:10BB9000201A40F0A78500F082BD6D1E40F0998507
:10BBA0003096079D12AF75B1309E17F8012B02A990
:10BBB000304600F063FE002801D46D1EF5D1002848
:10BBC000309640F08F850A9D3020002D8DF80400BE
:10BBD0000CDD309E012301AA02A9304600F05EFE72
:10BBE000002840F07F856D1EF4D13096059F089D9A
:10BBF00075B1309E17F8012B02A9304600F03EFEC9
:10BC0000002801D46D1EF5D10028309640F06A85D9
:10BC10000B9D3020002D8DF804000CDD309E01239B
:10BC200001AA02A9304600F039FE002840F05A85EA
:10BC30006D1EF4D1309605980899099D471875B185
:10BC4000309E17F8012B02A9304600F017FE00289D
:10BC500001D46D1EF5D10028309640F043850C9D2F
:10BC60003020002D8DF804000CDD309E012301AA48
:10BC700002A9304600F012FE002840F033856D1E08
:10BC8000F4D130969DF8400041077FF588AE202022
:10BC9000002C8DF804007FF782AE309D012301AAAD
:10BCA00002A9284600F0FAFD002840F01B85641E1A
:10BCB000F4D1309573E60FF64440059000F0EFBCE8
:10BCC0000E9D002D04D5204600F054FE044607E0EA
:10BCD0002A46204600F06CFE002814BF041B2C46A8
:10BCE000089400F0DCBCD9F8001051F8040BC9F836
:10BCF000001020F00004002121F0FF3512ABCDE947
:10BD000002450593DDE9022306993C2413B90AB9DB
:10BD10000E9898B102F00F053035641EEEB23A2E3F
:10BD2000A8BF2735120942EA03721B090D5508BF47
:10BD3000002A03D005980D19A842EBD308190590E5
:10BD4000C4F13C020E98089282420ADABDF8401013
:10BD5000821A4FF6EF7001400A92ADF8401000F0E1
:10BD60009EBC002840F19B849DF8400000F0140028
:10BD7000102840F094840F9B07990A985B1A1B1AAD
:10BD80009A1A002A40F38B84D5E32B99487820B186
:10BD90004FF0FF340FF63430F8E69DF84200622889
:10BDA00061D0682817D06A283FD06C2806D0712847
:10BDB00047D074282CD07A281DD064E0D9F8001020
:10BDC00051F8040BC9F80010002868D14FF0FF3477
:10BDD0000FF61030DAE6D9F8001051F8040BC9F864
:10BDE000001020B94FF0FF340FF6F820CEE60D9981
:10BDF000018000F054BCD9F8001051F8040BC9F8C8
:10BE0000001000284BD14FF0FF340FF6D820BDE6CC
:10BE1000D9F8001051F8040BC9F8001000283ED1E1
:10BE20004FF0FF340FF6BC20B0E6D9F8001051F8FF
:10BE3000040BC9F8001080B94FF0FF340FF6A420AE
:10BE4000A4E6D9F8001051F8040BC9F8001020B985
:10BE50004FF0FF340FF68C2098E60D9AD317C0E907
:10BE6000002300F01CBCD9F8001051F8040BC9F8ED
:10BE7000001020B94FF0FF340FF6682086E60D99C8
:10BE8000017000F00CBCD9F8001051F8040BC9F88F
:10BE9000001020B94FF0FF340FF6482076E60D99D8
:10BEA0000160FCE3D9F80020D21D22F00702C9F896
:10BEB0000020D2E900010832C9F80020CDE90201D2
:10BEC000C80F02D007982D210AE0BDF84000810775
:10BED00002D507982B2103E0C00705D5079820213C
:10BEE00012AA1154401C079012A807994BF0200287
:10BEF0004318DDE90201CDE92C01612A059321AC4B
:10BF00000BD00E98002802D506200E9005E001BF48
:10BF10004BF02000672801210E91DDE90201480065
:10BF20004015401C0A460DD109030BD0ABF1610549
:10BF300003201A2D089002D20FF6C4110DE00FF65F
:10BF4000C4110AE070B912030CD1ABF161050320F2
:10BF50001A2D08901AD30FF6B41103221846FFF7D2
:10BF600087FC9CE3DDE90201CDE92E01DDE92E230A
:10BF700023F00047B7F5801F22F000060DD2002203
:10BF8000002F08BF002E009203D116E00FF67811A3
:10BF9000E3E76A4600F038FD0FE0DFF8C008DFF89D
:10BFA000C01800EB17500090DDE92E234FF0FF3052
:10BFB0001940DFF8B07810403943CDE902014BF069
:10BFC000200061280DD1059830210170821CBBF141
:10BFD000610F05920CBF7821582141700798801C91
:10BFE0000790DDE9020120F0000231F0004308BFB4
:10BFF000002A02D10026002568E14BF02008B8F1A4
:10C00000610F40F0B4800E98002847BF21210191B4
:10C01000401C0190019FDDE92C017F1C00220023C0
:10C02000DDE9024500F028FD00998DF8842038BF35
:10C0300085F00045091F002F00910DF1850653DDA5
:10C04000204629460022002300F030FD4CD2480053
:10C05000400D00F11C0312D0002B10DD40F2FF70E8
:10C06000834206DBDFF8001805F000421143002090
:10C0700011E06FF31E5141EA035120460BE024F01A
:10C08000000035F0004108BF00280FBF29461C22E0
:10C09000294600F025FD04460D4600F0C1FDFF1FB6
:10C0A000002F804609DD00F0DBFD02460B462046EE
:10C0B000294600F0E9FD04460D46F01D0721B8F1C0
:10C0C000000F0CDD491E5EBF08F00F0200F8012DC5
:10C0D0004FEA2818F3D502E0002200F8012D491E8E
:10C0E000FAD5C61D002FABDC0DF18500361A01987C
:10C0F0008642D8BF304600280DF1850430D4B042C6
:10C1000006DA0DF185010A5C082AA8BF0F2100DAC2
:10C110000021024621AB134400E0401E13F80159F0
:10C12000521E8D42F9D00F2904D10DF185018B5C8F
:10C130005B1C8B54002A04D50099091D21AC401CBE
:10C140000091411E0CD46218ABF13A0613783033DB
:10C15000DDB23A2DA8BFF318491E02F80139F5D512
:10C160000E99002940F1B080421E0E92ACE0009979
:10C17000DFF8F82647F29750414391FBF2F2DDE9F0
:10C180002C45009225F00045D2F1070204DD20463F
:10C19000294600F040FB0BE052420020DFF8D016A9
:10C1A00000F039FB02460B462046294600F0E0FD30
:10C1B0000446B8F1660F0E9806BF009F0A3706279F
:10C1C0003F18142FC8BF142730200D468DF8840067
:10C1D0000DF18506002F39DD2046294600F0EEFEE0
:10C1E00001460A4606F1080304200A26B2FBF6F6C9
:10C1F00006EB860EA2EB4E02303203F8012C0A2227
:10C20000B6FBF2F202EB820EA6EB4E063036401E73
:10C2100003F8026DE9D1083F002F03F10806D9DDCC
:10C22000084600F0DFFE02460B462046294600F095
:10C230002BFD0022DFF83C3600F0E4FE04460D46FC
:10C24000CAE700BFCBCCCC0C384804000DF1850008
:10C25000361A0DF1850404E00098401E761E009009
:10C26000641C20783028F7D0B8F1660F02D100990D
:10C27000491C04E0B8F1650F0CBF012100210E98A4
:10C2800008188642B8BF701E00281DD4B04204DAD8
:10C29000215C3429C8BF392100DC30210246631EED
:10C2A0009D1800E0401E15F80169521E8E42F9D01B
:10C2B000392902D1A15C491CA154002A04D5009956
:10C2C000491C1C46401C00910646009D0E9F30B242
:10C2D000002802DC01260FF238644BF020006628AB
:10C2E00008BF6D1C15D067280FFA85F841D118F1E9
:10C2F000040F44DBB84542DA9DF840006D1C01078D
:10C3000003D430B2B842B8BF074628B23F1A48BF7C
:10C3100000270FFA85F8B8F1000F00F3AF800898F6
:10C32000411C0891302205990A54002F03DC9DF826
:10C330004000010705D50898411C08912E22059957
:10C340000A5417EB080FB8BF7D4228B2C51932B2A4
:10C35000414295420B91B8BF2E46059B089836B2D4
:10C360000996324621461844FFF782FAAD1B0C9518
:10C37000CCE0BBF1610F15D14FF0700B17E030B27C
:10C38000B84204DA9DF840100A0758BF07467F1EDE
:10C3900048BF0027BBF1670F14BF4FF0450B4FF0AC
:10C3A000650B04E0BBF1410F08BF4FF0500B08983C
:10C3B000411C0891002F059914F8012B0A5403DC45
:10C3C0009DF84000010719D50898411C08912E22BC
:10C3D00005990A54002F11DD761E30B28742059868
:10C3E000089BB8BF3E4632B221461844FFF740FAD8
:10C3F000089836B23018BF1B08900B97059808991B
:10C400000844B8F1000F80F800B003D42B2242702A
:10C41000821C04E02D2145464170821C6D420021A2
:10C420002CAB28460AE004460A2094FBF0F000EB0F
:10C430008005A4EB450403F8014B491C00B2002819
:10C44000F1DC012906DC4BF02000652804BF302018
:10C4500002F8010B00292CAB08D1302002F8010BA7
:10C4600006E0491E585C303002F8010B0029F8DC68
:10C47000059908980844121A099247E030B229B287
:10C4800088421BDA0598089B32B221461844FFF710
:10C49000EFF9089936B27118A8EB0606002F08913B
:10C4A0000B9603DC9DF84000020705D5059A2E2067
:10C4B00050540999491C09910C9727E00598089B4D
:10C4C0002AB221461844FFF7D3F90898761B404456
:10C4D000002F089003DC9DF840100A0704D5411C8A
:10C4E00008912E2205990A5430B287420598089B7C
:10C4F000B8BF3E4632B204EB08011844FFF7B8F962
:10C50000089836B23018BE1B08900B969DF8400074
:10C5100000F01400102840F0C280079A08990B9888
:10C520008A18099982180C988A1882180F988242E2
:10C5300080F2B580821A0A92B1E09DF8420062282A
:10C5400008D068280ED06A2814D06C281FD0712813
:10C5500010D01CE0D9F8001051F8040BC9F80010F5
:10C56000C0B21AE0D9F8001051F8040BC9F8001055
:10C5700080B212E0D9F80020D21D22F00702C9F8DB
:10C580000020D2E900010832C9F8002006E0D9F8FD
:10C59000001051F8040BC9F800100021CDE9020188
:10C5A0009DF8400001075AD5DDE90223002B08BFA2
:10C5B000002A54D04BF02000782850D1079812A9B7
:10C5C00030220A54401C431C079301F800B046E097
:10C5D0009DF84200622808D068280ED06A2814D03E
:10C5E0006C281FD0712810D01CE0D9F8001051F829
:10C5F000040BC9F8001040B21AE0D9F8001051F845
:10C60000040BC9F8001000B212E0D9F80020D21DC6
:10C6100022F00702C9F80020D2E900010832C9F867
:10C62000002006E0D9F8001051F8040BC9F80010FA
:10C63000C117CDE90201002902D507982D210AE092
:10C64000BDF84000810702D507982B2103E0C00701
:10C6500005D50798202112AA1154401C079012A852
:10C6600007990144059102A8594600F04FF816E0D9
:10C6700001200790D9F8000050F8041BC9F8000009
:10C680008DF848100BE025210122BBF1000F8DF839
:10C690004810079203D08DF849B0022107910F9AF4
:10C6A00007980A990C9C121A0898521A0B99121A98
:10C6B0000998521A121A9DF84000141B41073FF5C1
:10C6C00070AA2020002C8DF804007FF76AAA309E03
:10C6D0002546012301AA02A9304600F0DFF8002810
:10C6E0003FF45BAA4FF0FF3031B0BDE8F08F00009F
:10C6F0007072696E74665F733A206261642025739C
:10C7000020617267756D656E740000002DE9FC4351
:10C7100007466F293E6908BF082405D041F0200074
:10C72000782814BF0A2410243C25D7E90023642963
:10C7300018BF69299046994605D1002B03D5D8F139
:10C74000000869EB4909B9F1000F08BFB8F1000F03
:10C750000CD1386B50B9082C39D197F83800010743
:10C7600035D530203B2586F83B0030E08DF80010B1
:10C77000404649462246E31700F018FD3032D0B259
:10C780006D1E3A28019504DB9DF80000A0F15101CF
:10C790008A187255404649462246E31700F006FDC6
:10C7A00080465FEA010908BFB8F1000F03D0F868BE
:10C7B00071198842DCD3082C09D197F83800010799
:10C7C00005D5705D302802D06D1E30207055C5F142
:10C7D0003C02BA617119F960386B824208DA821A38
:10C7E0003A624FF6EF70398F01403987BDE8F38325
:10C7F00000280ED597F8380000F01400102808D152
:10C800007B6B7969386A5B1A1B1A9A1A002AC8BFAF
:10C810003A62BDE8F3832DE9D04306460F4614463D
:10C820004FF00008DFF8509012E0E00707D54246CD
:10C830004B463046394600F0E5FB06460F4640467B
:10C84000494642464B4600F0DDFB6410804689466F
:10C85000002CEAD130463946BDE8D08302FCFFFF08
:10C86000FFFF0F800000E03F0000F07FA086010086
:10C870000000F03F84D797410000244010B50346E4
:10C880000C461146A0689847A06020B1E06A401CA1
:10C89000E062002010BD4FF0FF3010BDF8B5054636
:10C8A0000E4617461C4600205CB117F8011BB06805
:10C8B000A847B06030B1F06A401CF0620020641EEE
:10C8C000F3D1F2BD4FF0FF30F2BD00007072696E1F
:10C8D00074665F733A20256E20646973616C6C6FB7
:10C8E000776564007072696E74663A2062616420D4
:10C8F000256E20617267756D656E74000000000022
:10C900006E616E004E414E00696E6600494E4600F3
:10C910003000010000207047C9B202788A421AB183
:10C920001CBF10F8012FF9E718BF00207047010065
:10C930000020704780B500B906A005490B681BB1FF
:10C9400022220021984701E0FBF71EFC222002BDB5
:10C9500068300020636F6E73747261696E74206852
:10C96000616E646C65723A20626164206D657373F8
:10C970006167650000F10103810704D010F8011B15
:10C98000820781B1FAD10268A2F10131914311F01D
:10C99000803104BF50F8042FF6E709BAB1FA81F1EB
:10C9A00000EBD100401CC01A704701000020704706
:10C9B000C9B2830706D0521E22D310F8013B994218
:10C9C000F7D11FE0083A13D302F1040241EA012132
:10C9D00041EA014150F8043B121F21BF4B40A3F133
:10C9E000013C2CEA030C1CF0803FF3D0C9B2001FBD
:10C9F000083210F8013B521E28BF91EA030FF8D805
:10CA000018BF0120401E704710B5144600F002F810
:10CA1000226010BDC1F30A5343B14A0012F5001F52
:10CA200028D2A3F2FE32A1EB0251704750EA410C2A
:10CA300020D001F0004C31EA0C01B1FA81F204BFC0
:10CA4000B0FA80F3D2180B3AB2F120032CBF00FAEF
:10CA500003F1914041EA0C013EBFC2F1200C20FAE3
:10CA60000CF319439040524240F2FD33D21A01EBCD
:10CA700003517047002270474FF4001C1CEB410F1C
:10CA800094BF1CEB430F09E041EA030C50EA4C0C45
:10CA900052EA0C0C03D2994208BF9042704714BF6F
:10CAA0008B42824270470100002070474FF4001C07
:10CAB0001CEB410F94BF1CEB430F09E041EA030C50
:10CAC00050EA4C0C52EA0C0C03D28B4208BF824253
:10CAD000704714BF99429042704701000020704790
:10CAE000124254D440F2FF7C1CEA11530FD063452C
:10CAF00031D09B1863453CBF01EB0251704701F0F8
:10CB0000004141EA0C51002000F068BC704750EA37
:10CB1000410320D001F0004C91EA0C011CD0B1FA85
:10CB200081F30B3B9A420DD9D21A994051EA0C017C
:10CB3000C3F1200C20FA0CFC61449840531C40F2D5
:10CB4000FF7CD7E7914041EA0C01C2F1200C20FAAA
:10CB50000CF3194390407047B0FA80F31533202B43
:10CB6000E0D3202AEED3203A203B9A4209D9D21AA8
:10CB700000FA03F141EA0C010020531C40F2FF7C53
:10CB8000B8E700FA02F141EA0C0100207047524276
:10CB900040F2FF7C1CEA11530DD06345DBD0B2EBB1
:10CBA000030C3CBFA1EB025170470CF1010221EADA
:10CBB000035141F4801150EA410CCCD001F0004CFB
:10CBC000352A27DC30B481EA0C01B2F1200309DAFE
:10CBD000C2F12003044601FA03F5D0402843D140B6
:10CBE0009C400CE0C3F12002450020FA03F418BF7A
:10CBF00044F0010421FA03F091400C43002174F148
:10CC0000004550F1000051EB0C01244230BC7FF490
:10CC10007BAF70476146002076E701000020704737
:10CC2000C1F30A5340F2FE329B1A14DDD3F1200304
:10CC30004FEAE17208DDC90241EA505141F000407B
:10CC4000D84080185040704703F2E13010B1D24311
:10CC500082F00040704700207047010000207047BC
:10CC6000C11768B14840401AB0FA80F29040D21C17
:10CC7000C907C2F5846241EA025202EBD0214005A5
:10CC8000704701000020704770B44FF0004591EAF2
:10CC9000030F40F1B7836B40841A71EB030603D294
:10CCA000001BB141121973414FF4001C1CEB410FE2
:10CCB00034BF7CEB430442E00C0DA4EB1356352E3D
:10CCC0004FDC45EAC323DB0A45EAC121C912B6F1AC
:10CCD00020050DDD63FA05F6EB4086EA03051242F6
:10CCE00018BF45F00105C01851F100010CD213E046
:10CCF00062FA06F5F2405540F3415A40B340F34022
:10CD00005A408018594107D349085FEA30005FEA6A
:10CD1000350528BF45F0010501F58011420875F180
:10CD2000004250F1000041EB04514E0016F5001F87
:10CD300070BC38BF70470020090D090570471CEB17
:10CD4000410F10D252EA43060BD0BCEB410F05D87D
:10CD50000C0DAB43661E342EB6DD02E0AB438018EB
:10CD6000594170BC704770BC70470100002070478B
:10CD7000F0B540F2FF7581EA030C0CF0004C15EAA7
:10CD800011541DBF15EA1357AC42AF42E5E0BC4158
:10CD9000C1F31301C3F31303801A994143F48013C1
:10CDA00004D2641E4000494180185941C90241EA39
:10CDB0005051B1FBF3F603FB1611A2FB0675D7EB3E
:10CDC000C020A94102D2761E80185941C90241EA09
:10CDD0005051B1FBF3FE03FB1E11A2FB0E75D7EB06
:10CDE000C020A94103D2AEF1010E80185941890239
:10CDF00041EA9051760546EA8E2EB1FBF3F603FB2D
:10CE00001611A2FB0675D7EB8020A94102D2761E2F
:10CE100080185941C90241EA50514EEA060EB1FB51
:10CE2000F3F603FB1611A2FB0675D7EBC020A94150
:10CE300002D2761E80185941C90241EA5051B1FB15
:10CE4000F3F703FB1711A2FB0735D3EBC020A94171
:10CE500067F100070CBF004247F0010766F3D527D2
:10CE60004FEA1E31B80814F5806412DDBD0775F174
:10CE7000004250EB0E5051EB045111F5801F5CBF86
:10CE800041EA0C01F0BD4CF07F6141F0E04100202F
:10CE9000F0BDBD076D0840EA0E5041F48011D4F199
:10CEA0000104B4F120060ADAC4F120060200E040D1
:10CEB00001FA06F3E1401843B24015430EE0342C6A
:10CEC00013DCC6F1200445EA40056D0820FA06F29D
:10CED000154321FA06F0A1400D43002175F10042EF
:10CEE00050F1000051EB0C01F0BD00205FEA0C0195
:10CEF000F0BDCFB992185B41B3FA83F704BFB2FA21
:10CF000082F6BF190B3FB7F120062FBF02FA06F3D6
:10CF1000BB40C7F1200622FA06F638BF3343BA40B9
:10CF20001CB1E419641E33E77F4231F00041B1FACD
:10CF300081F404BFB0FA80F6A4190B3CB4F12006CA
:10CF40002FBF00FA06F1A140C4F1200620FA06F630
:10CF500038BF3143A0403C1B1AE7AC421ABF05EA78
:10CF60001357AF4212E050EA41061CBF52EA430693
:10CF7000BFE750EA4107304661461CBF41EA055110
:10CF8000F0BD52EA430C08BFC143F0BD00204FF48E
:10CF9000001616EB410F98BF16EB430F08BF16EBB8
:10CFA000410F24BFC14305E016EB430F0CBF6146A0
:10CFB0004CEA0551F0BD010000207047400D4918B2
:10CFC00040EA81200CD2490DA1F58061491C40F056
:10CFD000004005DBD1F11F0154BFC840C0177047A6
:10CFE00000207047014648B1B0FA80F18840C91C62
:10CFF000C1F58461090501EBD021400570470100AE
:10D0000000207047B0B581EA030C0CF0004C40F2F0
:10D01000FF7515EA11541DBF15EA1357AC42AF4214
:10D0200039E0E41923EA455343F48013C90241F07F
:10D03000004141EA505EC7021100A7FB020200282E
:10D040004FF00000EEFB01204FF00001E3FB072151
:10D0500018BF42F00102401800214941E3FB0E01D4
:10D06000A4F580640F0302D252004041494154F1BB
:10D0700001046CDD470872F1004250F1000051EBF1
:10D080000451A1F580115CBF41EA0C01B0BD4CEA2E
:10D0900005510020B0BD05EA1357AC4214BFAF42A2
:10D0A00041E050EA410E1CBF52EA430E02E06146E5
:10D0B0000020B0BD24423C441BD15FEA070EF6D0ED
:10D0C000090302BF01460020AEF1140EB1FA81F748
:10D0D000AEEB070401FA07FE0C37C7F1200100FA96
:10D0E00007F7C8404EEA000E23EA455343F4801385
:10D0F000A2E733F00043B3FA83F704BFB2FA82FE2B
:10D1000077440B3FE41BB7F1200E2FBF02FA0EF35A
:10D11000BB40C7F1200E22FA0EFE38BF43EA0E03D1
:10D12000BA40641C82E750EA410E14BF52EA430E33
:10D130006FF000014FF4001717EB430F8ABF194639
:10D1400017EB410FB5E74CEA05510020B0BDD4F113
:10D150000104B4F120070FDAC4F12007520828BFF8
:10D1600042F0010210FA07F501FA07F7E1BF2A437E
:10D17000E0403843E1400FE0352C98DCC7F1200453
:10D1800052EA400220FA07F218BF42F0010231FAD7
:10D1900007F0A1400A43002172F1004250F1000063
:10D1A00051EB0C01B0BD010000207047BBBBE1B1E9
:10D1B000B2F5803F80F07E80022A1ED98C46B1FBFA
:10D1C000F2F102FB11C31B0443EA1043B3FBF2FC70
:10D1D00002FB1C3380B240EA0343B3FBF2F002FBD4
:10D1E000103240EA0C4000237047022A05D98446D9
:10D1F000B0FBF2F002FB10C270474AB105D100F05B
:10D20000010249085FEA300070470022002370479E
:10D2100000F0B0B90B0002000021002070479042DE
:10D2200071EB030CF6D3B3F5803F2FD2F0B5B3FA10
:10D2300083F7B1FA81F4A7F10F0E3D1B5340CEF1F5
:10D24000200602FA0EF2F3415340B5F10F0746D81B
:10D250000F3C2C444140C4F12006A040F141414024
:10D26000B1FBF3F603FB1611A2FB0645001BA94117
:10D2700002D2761E8018594180EA010221FA0EF38B
:10D2800062FA0EF200215A403046F0BD30B4B1FBD4
:10D29000F3FC03FB1C11A2FB0C45001BA94103D2AC
:10D2A000ACF1010C8018594130BC02460B46604677
:10D2B00000217047B2F1807F65D3F0B5B2FA82F7F2
:10D2C000B1FA81F4C7F10F063D1B22FA06F307F10C
:10D2D000110EF24120355A40B5F10F07B8D941403F
:10D2E000C4F12006A040F1414140B1FBF3FC03FB37
:10D2F0001C11A2FB0C45001BA94103D2BCF1010C7F
:10D30000801859410F2F12D30F3FC90341EA5041F2
:10D31000B1FBF3F603FB1611A2FB0645D4EBC030BC
:10D32000A94102D2761E8018594146EACC3C07B387
:10D330004140C7F12006B840F1414140B1FBF3F64E
:10D3400003FB1611A2FB0645001BA94102D2761E63
:10D350008018594180EA010221FA0EF3C7F1200436
:10D3600062FA0EF20CFA07F05A402CFA04F130433C
:10D37000F0BD80EA010221FA0EF3002162FA0EF2FA
:10D3800060465A40F0BD8C46B1FBF2F102FB11C37E
:10D390001B0243EA1063B3FBF2FC02FB1C331B02CB
:10D3A0004CEA002043EA1063B3FBF2FC02FB1C339F
:10D3B0001B024CEA002043EA1063B3FBF2FC02FBC1
:10D3C0001C331B024CEA002043EA1063B3FBF2FC5F
:10D3D00002FB1C324CEA0020002370470FB581B0DD
:10D3E0000020C04605492222425001B00FBD80B541
:10D3F0000020C0460249084402BD00006C300020F5
:10D400006C300020841A71EB030604D26E40001BBE
:10D41000B141121973414FF4001C1CEB410F34BF92
:10D420007CEB430683E00C0DA4EB1356362E00F381
:10D430007C80012E45EAC32341DC43EA525312BFEC
:10D44000D20292025B08240545EAC12141EA50510B
:10D45000D2EBC020994125D407D1B0FA80F610FA5A
:10D4600006F162D00020203608E0B1FA81F6B14022
:10D47000C6F1200220FA02F21143B0404FEAF474E0
:10D48000B4EB465434F001064FEA74040AD8D6F5DA
:10D490000016760D04F00044F04061FA06F25040A8
:10D4A000F1404840C00A40EA415021F0004128BF05
:10D4B0005FEA500550F1000044EBD12135E0DB0A72
:10D4C00045EAC121C90AB6F120050EDD42EA024251
:10D4D000120CC5F1200603FA06F6EB4042EA0605F7
:10D4E0006D42984161F100010DE062FA06F5F240EB
:10D4F000554063FA06FC82EA0C02F3405A406D4242
:10D50000904161EB030111F4801F05D1641E620597
:10D5100002D06D004041494121F48011430875F16A
:10D52000004350F1000041EB045170BC70471CEB0C
:10D53000410F15D223F0004352EA43060BD04FEAC5
:10D540004C0CBCEB410F04D80C0D661E342EB7DD1D
:10D55000EBE7801A994150EA410608BF0021E4E751
:10D5600008BF1CEB430F28BF6FF00001DDE701008F
:10D570000020704770470100002070470000000045
:10D58000F8E90408010000000100000008EA0408AE
:10D59000030000000200000018EA04080300000075
:10D5A0000300000028EA0408030000000400000053
:10D5B00038EA0408030000000500000048EA0408F7
:10D5C000030000000600000058EA04080300000001
:10D5D0000700000068EA04080300000008000000DB
:10D5E00078EA0408030000000900000088EA040843
:10D5F000010000000A00000098EA0408050000008D
:10D600000B000000A8EA0408030000000C00000062
:10D6100034A604080C0000000D000000B8EA04085D
:10D62000050000000E000000C8EA04080300000026
:10D630000F000000D8EA04080300000010000000FA
:10D64000E8EA04080300000011000000F8EA0408FA
:10D65000030000001200000008EB040803000000B3
:10D660001300000018EB0408030000001400000081
:10D6700028EB0408030000001500000038EB040844
:10D68000030000001600000048EB0408030000003F
:10D690001700000058EB0408030000001800000009
:10D6A00068EB0408030000001900000078EB040890
:10D6B000030000001A00000088EB040803000000CB
:10D6C0001B00000098EB0408030000001C00000091
:10D6D000A8EB0408030000001D000000B8EB0408DC
:10D6E000030000001E000000C8EB04080300000057
:10D6F0001F000000D8EB0408030000002000000019
:10D70000E8EB04080400000021000000F8EB040826
:10D71000040000002200000008EC040806000000DD
:10D720002300000018EC040808000000240000009A
:10D7300028EC0408080000002500000054A6040896
:10D740000D0000002600000074A604080A00000076
:10D750002700000038EC0408040000002800000046
:10D7600048EC0408050000002900000058EC0408FB
:10D77000050000002A00000068EC04080600000014
:10D780002B00000078EC0408080000002C000000CA
:10D7900088EC0408040000002D00000098EC040848
:10D7A000050000002E000000A8EC040804000000A2
:10D7B0002F000000B8EC0408050000003000000055
:10D7C000C8EC04080800000031000000D8EC040890
:10D7D0000800000032000000E8EC04080800000027
:10D7E00033000000F8EC04080800000034000000DA
:10D7F00008ED0408080000003500000018ED0408DA
:10D80000080000003600000028ED040808000000B1
:10D810003700000038ED0408080000003800000060
:10D8200048ED0408080000003900000058ED040825
:10D83000080000003A00000068ED04080400000041
:10D840003B00000078ED0408040000003C000000EC
:10D8500088ED0408080000003D00000098ED040871
:10D86000080000003E000000A8ED040808000000C9
:10D870003F000000B8ED0408080000004000000070
:10D8800094A604080F00000041000000B4A604089C
:10D890000A00000042000000D4A604080A000000AC
:10D8A00043000000F4A604080A0000004400000041
:10D8B00014A704080B0000004500000034A704086A
:10D8C0000A0000004600000054A7040809000000F8
:10D8D0004700000074A704080B0000004800000087
:10D8E00094A704080B00000049000000C8ED0408DC
:10D8F000040000004A000000D8ED04080800000001
:10D900004B000000B4A70408090000004C00000010
:10D91000E8ED0408080000004D000000D4A704084A
:10D920000C0000004E000000F4A704080B000000EB
:10D930004F00000014A804080B0000005000000075
:10D9400034A804080A0000005100000054A804088C
:10D950000B0000005200000074A804080B00000037
:10D960005300000094A804080A00000054000000BE
:10D97000B4A804080A00000055000000D4A8040858
:10D980000B00000056000000F4A804080A00000084
:10D990005700000014A904080E0000005800000001
:10D9A00034A90408090000005900000054A9040823
:10D9B0000A0000005A00000074A9040809000000D1
:10D9C0005B000000F8ED0408050000005C000000AA
:10D9D00008EE0408050000005D00000018EE0408D1
:10D9E000050000005E00000028EE040808000000AA
:10D9F0005F00000038EE040808000000600000002E
:10DA000048EE0408050000006100000094A9040825
:10DA10000900000062000000B4A904080900000029
:10DA20006300000058EE04080800000064000000D5
:10DA3000D4A904080900000065000000F4A9040846
:10DA4000090000006600000068EE04080400000001
:10DA50006700000014AA0408090000006800000024
:10DA600078EE0408080000006900000088EE040851
:10DA7000040000006A00000098EE040804000000A2
:10DA80006B000000A8EE0408080000006C00000015
:10DA9000B8EE0408040000006D00000034AA040879
:10DAA0000C0000006E000000C8EE04080800000032
:10DAB0006F00000054AA0408090000007000000074
:10DAC00074AA0408090000007100000094AA040868
:10DAD0000900000072000000D8EE040805000000F4
