:020000040800F2
:10800000385200207DE80408DD8E0408DF8E040865
:10801000E18E0408E38E0408E58E040800000000E9
:10802000000000000000000000000000E78E0408CF
:10803000E98E040800000000EB8E0408ED8E0408B1
:10804000D1FF0408D5FF0408D9FF0408DDFF0408A8
:10805000E1FF0408E5FF0408E9FF0408EDFF040858
:10806000F1FF0408F5FF0408F9FF0408FDFF040808
:108070000100050805000508090005080D000508B0
:108080001100050815000508190005081D00050860
:108090002100050825000508290005082D00050810
:1080A0003100050835000508390005083D000508C0
:1080B0004100050845000508490005084D00050870
:1080C0005100050855000508590005085D00050820
:1080D00061000508351A040865CE02086500050828
:1080E000690005086D0005087100050875000508A0
:1080F000790005087D000508810005088500050850
:10810000890005088D0005089100050895000508FF
:10811000990005089D000508C18E040827CE0208B5
:10812000A1000508A5000508A9000508AD0005087F
:10813000B1000508B5000508B9000508BD0005082F
:10814000C1000508C5000508C9000508CD000508DF
:10815000D1000508D5000508D9000508DD0005088F
:10816000E1000508E5000508E9000508ED0005083F
:10817000F1000508F5000508F9000508FD000508EF
:108180000101050805010508012003F095BB30B485
:10819000002513E050F8042BD30744BFA9F10103D5
:1081A0009A18091F042942F8045BFAD213468C0777
:1081B00044BF15809B1CC90748BF1D7050F8041BA5
:1081C0000029E7D130BC704770B504000D001600DF
:1081D000256031002000C046C046200070BD70B54B
:1081E00004000D00160029002000C046C046030010
:1081F000320029002000C046C04670BD00000000CB
:10820000AAAAAAAABBBBCCCC896E0000B0A80180E8
:10821000936E0000E8540400A96F0000DC0E040017
:10822000DD7100001435040033720000B0AF02802D
:1082300085730000B0AE05802D75000008FB0300BB
:1082400049780000B0AA01807D780000010000009C
:108250007F78000034360400B5780000B0B0A88004
:10826000BD780000B0AE03802F790000B0AB008075
:108270006D790000B0AA018093790000B0A9008058
:10828000E5790000C8580400E17A0000008400800D
:10829000597B000048500400C57B0000B0AE01804F
:1082A0008B7C0000B0B0AA80CF7C0000B0A9008019
:1082B000977D0000B0AA0180237E0000B0A9008055
:1082C000877F0000B0AD008009800000B0A8018069
:1082D00015800000B0AA058049820000B0A9008086
:1082E0001D830000043604003D83000014360400A2
:1082F0005D830000243604007D83000034360400D2
:108300009D83000044360400BD8300003059040002
:10831000D783000038590400F1830000405904005D
:1083200069850000B0B0AA80D3850000B0A90080A4
:10833000F5860000B0B0AC8057870000B0B0AA80CE
:10834000DB870000B0B0A8807F880000B0B0AE80AE
:10835000D389000001000000598A0000B0B0A88055
:10836000D98A000044430400058B0000B0B0AA8005
:10837000B98C0000B0B0A880838E0000B0AA018044
:10838000498F0000D43D040033900000B0B0AA80B3
:108390002F910000B0AF028091910000A84204002C
:1083A000C39400008C420400E5960000B0B0AC809D
:1083B000B597000068580400A998000070580400A0
:1083C000499A0000B0B0A880559A0000B0AF0C8068
:1083D000859C0000B0AC0980C79D0000B0A900805A
:1083E000E99D0000B0B0A880659E0000B0AB0080A1
:1083F000639F0000B0AF0080BDA200005C4204009B
:1084000091A40000B0AE0180A7A50000010000000B
:10841000D3AA0000B0A90080F9AA0000B0AA018088
:1084200025AB0000B0A900802DAF0000B0AE0180E8
:10843000EFAF0000B0AB008057B00000B0A90080E3
:108440008DB10000C8560400F5B10000B0B0A8809E
:108450002FB20000B0A90080A1B20000B0AB008034
:1084600055B30000B0AA0180DDB30000B0B0AA800F
:1084700039B50000B0A8038057B50000B0B0A8809F
:108480005FB50000C85204008FB50000D052040050
:10849000B9B50000AC140400E5B60000B0AA018034
:1084A00047B70000A063030005BD0000E0E3030040
:1084B0001DBE0000B852040091BE0000442E04000E
:1084C00095BF00000100000097BF0000040C0400ED
:1084D0000FC00000CC13040013C10000B0AC058035
:1084E000E1C10000C4AE030085C200003893030060
:1084F0000BC60000B0A9008029C6000000840080DF
:1085000037C60000B0AB008099C60000405404009C
:10851000B3C60000B0AB0080E3C60000B0AA05807F
:108520001DC700003854040047C70000B0A90680EA
:10853000FDC700005CA50300B9C8000000840080EE
:10854000B9C8000064E603007DC9000064F00300C0
:1085500021CA0000784E04003BCA000064130400E6
:108560000DCB000080F70300D7CB0000A8F7030075
:10857000ADCD0000B0B0A880D1CD0000B0A8018082
:10858000FDCD00006C31040053CE0000B0A8018086
:108590005DCE0000B0A904809DCE00006C310400C7
:1085A000E3CE0000B0B0A880E9CE00007431040032
:1085B0002DCF000010E7030009D0000001000000EB
:1085C000F5D000004851040041D10000E04C040007
:1085D00093D10000E8AE030099D20000B0A801805A
:1085E000A3D20000F854040029D30000B0AA0180EF
:1085F0004DD30000B0B0A88071D30000B0A80180B6
:1086000079D30000B0B0AA80EDD30000643204003A
:1086100069D40000B0B0A88095D40000B0A9008053
:10862000A9D40000A43104000DD50000B0B0A8808A
:1086300051D50000B0AB0280F7D50000B0B0AA80E1
:10864000A7D60000B0AE01805DD70000B0B0A88012
:1086500077D70000B0AC038017D90000B0AB008022
:10866000B1D90000B0B0A880BDD9000030550400D9
:108670002BDA0000B0A9008049DA00002C30040099
:1086800009DB0000184C040005DC0000B0A80180E4
:1086900093DE0000B0AD0680DBDE0000B0AC0780EA
:1086A0004FDF00003C310400A3DF0000B0AE0B80C0
:1086B0001DE00000443104009DE00000804C0400F7
:1086C000ADE00000B0AA0580B5E10000B0A90080CF
:1086D00009E20000B0AA0180B9E30000B0A902805D
:1086E00003E40000B0A801800FE400008052040001
:1086F00031E400008852040053E40000905204006A
:1087000083E40000C84D0400A7E40000883F040093
:10871000C5E40000B0AA058049E50000B0A80380C8
:1087200067E50000B0B0A8806FE50000D0500400FD
:108730009FE50000D8500400C9E500008412040041
:10874000F5E60000B0AA018055E70000D0A00300C4
:1087500039E900008C120400B7E90000C0500400A1
:108760002BEA0000F02B0400B9EA0000B0B0A880AA
:10877000C1EA000024B10300A9EB0000B0B0A8805A
:10878000B7EB0000685004002FEC00001412040046
:10879000D1EC0000B0B0A880D9EC000090500400EB
:1087A00051ED0000748003007DF10000B0B0A8809E
:1087B000ADF100009C2F0400A1F2000064EE030064
:1087C00081F3000028E00300DDF40000B0B0A880D1
:1087D00007F50000685104007DF50000B4EE0300C9
:1087E0005DF6000088E20300C5F70000B0B0A88085
:1087F000CDF700003CB00300BFF80000B0B0A88087
:10880000CDF80000642F040091F90000D04F04005F
:10881000D5F9000060F503007DFA0000B0A80380E0
:10882000AFFA0000A8B103003DFB0000B0B0A88083
:1088300045FB0000385004006FFB0000405004006E
:108840008FFB00003C2F04007DFC00004050040022
:10885000BDFC00004850040033FD0000B0AA0180B8
:1088600093FD0000149C0300DDFF00004050040055
:10887000DD000100B0A80380FB000100B0B0A880BB
:1088800003010100984E040033010100A04E0400D2
:108890005D0101008C10040089020100B0AA018072
:1088A000EB020100BC6B03005307010090DF0300E3
:1088B0006B080100884E0400DF080100282A04002C
:1088C000AD090100B0A80380CB090100B0B0A880B9
:1088D000D3090100D84E0400030A0100E04E040051
:1088E0002D0A01009C100400590B0100B0AA018060
:1088F000BB0B0100509E0300A10D010030E00300FE
:10890000B90E0100C84E04002D0F01002C2A0400EE
:10891000BD0F0100B0A80380DB0F0100B0B0A8803C
:10892000E30F0100E84F040013100100F04F0400B2
:108930003D100100CC10040069110100B0AA0180B3
:10894000CB11010040720300DD150100D0E00300EF
:10895000F5160100D84F040071170100682A0400C1
:1089600029180100B0A8038047180100B0B0A88002
:108970004F180100C84E04007F180100D04E0400BB
:10898000A91801009C070400E3190100B0AA0180A6
:10899000451A0100C8970300C91C0100E0DF03006D
:1089A000E11D0100B84E0400551E0100C429040059
:1089B000191F0100B0B0A880211F0100B0A90080DC
:1089C000491F0100B0B0A880571F0100CC2D040042
:1089D0001B200100284F04005F200100D42D04005B
:1089E000A320010074EC0300BB21010014AF0300BD
:1089F000ED220100B42904005D230100B0B0A8807D
:108A00008723010044070400FD240100B0AA01806F
:108A10005F250100E890030077280100B0DF030024
:108A20008F290100C84E0400032A010060290400B8
:108A3000B12A0100B0A80380CF2A0100B0B0A880FD
:108A4000D72A0100384D0400072B0100404D0400D7
:108A5000312B01000C0F04005B2C0100B0AA018037
:108A6000BD2C010034B80300952D010070DE030019
:108A7000AD2E0100284D0400212F0100A028040084
:108A8000912F0100B0A90080C92F0100B0AA058074
:108A90006F300100B0AA0180073101008049040055
:108AA00029310100884904004B310100904904003C
:108AB0006D310100984904008F310100B0A8018098
:108AC000BD31010001000000BF31010000840080C1
:108AD000BF310100B0AA058005320100B0A90080B5
:108AE0002D320100F42B0400C3320100FCEA030024
:108AF00083340100B0AA0180A53601000100000006
:108B0000BB360100B0B0A880CF360100B0B0AA805B
:108B1000D7360100B0B0A88003370100B0A90080AB
:108B200075370100B0B0A88011390100B0AB0A80E0
:108B30003B390100B0AB06805D390100B0AA058069
:108B4000173B0100B0AB0080C33B0100B0AA01801D
:108B5000D53B0100B0B0AC80DB3C0100B0AA018085
:108B6000293D0100B0AB00803B3E0100B0A9008070
:108B7000B73E0100B0B0A880F73E0100B0B0AC80B5
:108B80000F400100B0B0AA80D3400100B0B0AE8069
:108B900017420100B0AB00809D440100B0B0A88036
:108BA000AD440100B0B0AA803F450100B0B0AE8036
:108BB000C14501000C2B040041460100004804009F
:108BC000CB4601009C0E0400B7470100B0A801800D
:108BD000C147010030E10300E148010000500400FA
:108BE000034901000850040069490100E42C040015
:108BF000094A010002A802805D4A0100B0B0A880C5
:108C00007D4A0100B0A90080834A0100B0B0A8806D
:108C1000D94A0100B0AB02807F4B0100B0B0AA80FE
:108C20002F4C0100B0AE0180E54C0100B0B0A8802F
:108C3000FF4C0100B0AB0280BF4D0100B0AB008023
:108C4000594E0100B0B0A880694E01000C2C040000
:108C5000F54E010001000000F94E0100904A0400A9
:108C6000414F01007C0C04006F500100940C040083
:108C70004D510100B4530300F3530100D0430400ED
:108C80005F540100B0AF088059560100D043040082
:108C90003D570100706B0300BD580100204F0400D8
:108CA00029590100B0AF0880A55A0100204F0400E7
:108CB0004D5B01005C2B0400AF5B01006C2B0400DA
:108CC000535C0100F84B0400755C0100004C04008B
:108CD000975C0100084C0400F15C0100B0B0AA8070
:108CE000115D0100A0E003004B5D0100B0B0A88061
:108CF000635D010084E80300495E0100B002A980C1
:108D0000715E0100B0AD00800D5F01008429040098
:108D100039600100B0A90080F56001000100000089
:108D2000FD600100384E040049610100B0B0A88028
:108D30005D610100384E040099610100642B04005C
:108D40003D620100B0AC01809B620100D40C0400C4
:108D5000A3630100EC0C04007D640100B0AB008053
:108D6000A1640100B0A90080E5640100B0B0AA8050
:108D700041650100B0B0A88095650100B0B0AC803D
:108D8000EF660100B0B0AE80EF670100B0AA0180CD
:108D900001680100B0B0A8801F680100B0A8018080
:108DA00051680100B0AA0180B1680100B0AA058035
:108DB00031690100B0A9008075690100B0A8018087
:108DC00081690100B0AA0180656A0100B0AA05802E
:108DD000BF6B0100B0B0A880196E0100B0B0AC80CC
:108DE0006D700100084C04008D700100104C0400EF
:108DF000AD700100184C0400CD700100204C04003F
:108E0000ED700100284C04000D710100304C04008D
:108E10002D710100A49F030095710100B0AB068085
:108E200035720100284C0400A5720100B0AA05802B
:108E3000ED720100284C0400FD720100B0B0AE805C
:108E4000E5730100B0AB048089740100B0AB008011
:108E50001F750100B0B0AA8099750100B0B0AC8058
:108E600037760100B0B0AA803F7901009034040049
:108E7000A1790100B03404007B7D0100943404002A
:108E8000DD7D0100B43404001F8101005C34040066
:108E90005B810100B0B0AA800D860100B0AB0080FC
:108EA000EB860100B0AF02804D870100203704003F
:108EB000858A0100B0B0AC809F8B0100404D04005A
:108EC000C98B0100B0A900800B8C0100B4370400ED
:108ED000B58D0100B0AB0280338E0100B0B0AA8026
:108EE000578E010098410400D58F010030420400E4
:108EF000E58F0100B0AF028069910100B0B0AA8097
:108F0000C3910100F8420400F3910100B0B0A880C1
:108F1000F9910100584304006B9201000084008025
:108F20007D930100B0A90A80C3930100B0AA01801B
:108F300023940100B0AB00800D9501006836040059
:108F40003F9501009C240400A3950100B024040077
:108F500029960100C424040073960100804A04008D
:108F6000ED960100B0AB0080E79801004C3604009C
:108F7000D59B010014340400159C0100B0B0AA80F8
:108F8000239C0100B0B0A880D99C0100B0B0AE8095
:108F90001B9D0100B0A90080339D0100B0B0A880E6
:108FA000379F0100B0AA0180C19F0100B0B0AE8020
:108FB00083A20100743404000FA50100583404009A
:108FC0003FA80100B0B0AA8059A90100010000002B
:108FD0005DA90100A84B0400A7A90100B0B0A880BA
:108FE000BBA90100A84B0400F7A90100B0AC0180A7
:108FF00031AA0100B0AB028051AA0100B0A90080E3
:10900000BBAA0100B0B0AA8017AB0100B0B0A88025
:1090100071AB010002A802808FAB0100B0AB0280EF
:109020002BAC0100B0AC01808DAC010002A8028025
:109030000DAD01000100000011AD0100B04A0400B7
:1090400043AD0100B84A04007DAD0100B0AB008023
:109050009DAD0100B0AAD080C9AD0100B0A90080CB
:109060000DAE0100B0B0AA8069AE0100B0B0A8801A
:1090700045AF010002A802809BAF0100B0AB0280A7
:10908000BBAF0100B0A9008009B00100B0B0AA8058
:109090000BB10100F849040055B10100B0AA0180EC
:1090A000B5B10100B002A980E1B10100B0A809800A
:1090B00011B20100B0A906803DB20100FC270400F6
:1090C000C3B20100B0A90080D5B20100D0320400C3
:1090D00037B30100683304003FB6010024330400B5
:1090E000A1B6010094330400A9B90100EC320400D8
:1090F0000BBA0100703304004FBD0100B0AF028015
:1091000035BF0100B0B0AE8077C00100B0A90080CB
:1091100001C10100B0B0A88065C10100B0B0AE804F
:1091200025C20100B0B0AA80B7C20100B0AB008078
:109130005FC30100B0AE0180ADC30100B0AF0080DD
:1091400007C70100083204002FC90100B0AB00803E
:10915000D7C90100B0AE018025CA0100B0AF0080C0
:109160007FCD0100FC3104004DCF0100B0AA018089
:1091700099CF0100B0B0AA800DD10100B0B0A88095
:109180004FD101002C32040097D10100C4320400F9
:1091900005D50100B0AB008003D60100B0AF008060
:1091A0005DD901003C34040079DB0100B0B0AA8035
:1091B000BDDB0100B0A90080C5DB0100B0AB0080C1
:1091C00073DC0100B0A80180A5DC0100B0AB008019
:1091D000BBDC0100B0B0AA804BDD0100B0B0AC80B8
:1091E0009BDD010001000000B1DD0100B0B0A880EE
:1091F000B5DD0100B0B0AA80BFE20100B0B0A88028
:10920000C3E20100B0B0AA80EDE20100C830040062
:10921000C5E40100B0B0A88007E50100B0B0AA80A5
:109220006DE501001C260400D5E50100B0B0AC805E
:109230000DE60100B0B0AA80E7E90100B0AC018002
:10924000C3EC0100B0AE0180E3ED0100B0AB0080E3
:10925000F9ED0100B0B0A880FDED0100B0B0AA802A
:109260007BF00100DC320400DDF00100FC32040080
:10927000E5F30100B0AB008027F40100B0B0AA8094
:10928000BFF7010094320400B9F80100A0320400D5
:109290001BF90100C032040047FD0100B0B0A880F6
:1092A0004BFD0100B0B0AC8003FF0100B0B0A8805E
:1092B00007FF0100B0B0AC80B3010200B0B0AE80D7
:1092C000C502020002A80280DD020200F03F040095
:1092D00027030200B0B0A8803B030200F03F040067
:1092E00093030200B0B0A8809D030200B0AB0480DD
:1092F000EB030200B0B0AA8047040200B0B0A8801F
:109300006D040200B0A9008075050200B0B0A8800D
:1093100079050200B0B0AA805D0602005033040057
:10932000C3060200B0AB00805F070200B0AE018050
:10933000AD070200B0AF0080F90A0200503104000E
:10934000AF0C0200B0AB00804B0D0200B0AE01804C
:10935000990D0200B0AF0080E51002006C310400EE
:109360009B120200B0AB008037130200B0AE018048
:1093700085130200B0AF0080D1160200383104001E
:1093800099180200B0AF0280EF1B0200B0A9008064
:109390006D1C0200B0AA0180A71C0200B0A90080C9
:1093A000CD1C0200A8420400F51C0200C0400400CD
:1093B000291D0200B0A90080571D0200B0AE018037
:1093C00035210200B0A9008063210200B0AE018007
:1093D0004B250200B0A900806D250200B0B0AA8024
:1093E000F9250200B0AA01804D260200B0AB008032
:1093F000F5260200B0B0AA8023270200B0AF00809B
:109400007B2A02009C3004003D2C0200B0A90080A1
:10941000F3300200B0B0AA8009310200B0AC018084
:1094200061310200B0B0AA806F310200B0AB0080A1
:10943000EB340200B0B0AA8019350200B0AB008056
:109440000D360200B0A8018069360200B0AB008082
:10945000A1360200B0B0AA8059380200B0AA01803B
:1094600087380200B0A90A80DB3A0200B0AA018066
:10947000733B0200381E040041400200B0AA018084
:1094800003410200B0AE018011420200B0AC018085
:1094900045420200B0AA018065420200B0B0A88037
:1094A00063430200B0AB0080FF430200B0AE018016
:1094B0004D440200B0AF008099470200D430040050
:1094C0004F49020001000000E3490200B0B0AC8047
:1094D000A34A0200B0B0A88089500200B0AB00805F
:1094E000A5510200B0AE0180F3510200B0AF008080
:1094F0004D55020088300400B5570200B0AA018023
:10950000D5570200EC2F040065590200B0AA018073
:1095100085590200C82F0400CF5C0200B0A900806A
:109520002D5E0200B0B0AA805B5E0200B0AB00808E
:1095300025610200B0A9008053610200B0AE018035
:1095400099640200B0A90080C7640200B0AE018037
:10955000ED670200B0A900801B680200B0AE018078
:10956000C36B0200B0AB0080756C0200B0A9008034
:10957000076D0200983D0400FD6D0200B0A9008057
:10958000216E0200A83D0400176F0200B0A9008000
:109590003B6F0200883D0400DB6F0200B0A9008031
:1095A00065700200B0B0AA808B730200B0A9008081
:1095B000FF740200B0B0AE80BB750200B0A902809B
:1095C000DF750200B0B0A880E3750200A02B040094
:1095D00037760200AC2B04008D7A0200B0B0A88070
:1095E000C37A02008C2C04000B7B0200982C040030
:1095F0004D7E0200B0B0AA808F7E0200B0AC018028
:10960000E57E0200B0A90080557F0200503C0400B6
:1096100077850200B0B0AA80EF8702008043040083
:1096200073880200B0A90280BB880200B0A9008044
:10963000C9880200B0AA01808D890200B0A900800B
:10964000BB890200B0AE0180018D0200B0AB00808A
:109650008D8D0200F42B0400858E0200B0AA0180DB
:10966000A58E0200B0AC0180098F0200B0A9008075
:10967000378F0200B0AE018061930200B0A9008074
:10968000C994020001000000C3A10200B0A900803B
:10969000A9A30200B0B0A880DFA30200582F0400E5
:1096A00027A40200642F0400DFA70200B0AC0180F1
:1096B00011A80200B0A9008035A80200A03D040056
:1096C000F9A80200B0A900801DA90200F03D040025
:1096D0009FA90200B0A90080C3A90200C03D0400F8
:1096E0000DAB0200B0A9008089AB0200B0AB0080D6
:1096F0002DAC0200B0AA018081AC0200B0AB0080AA
:10970000CDAC0200B0AA018021AD0200B0AB008058
:109710006BAD0200B0B0A880B3AD0200B0A900806C
:10972000E5AE0200583D040081AF0200B0AB0080FE
:1097300061B00200D02D04009DB00200B0AA0180EB
:10974000BDB00200B0AB008071B10200B0B0AA8021
:109750009FB10200B0AF008007B50200382A0400B4
:1097600025B80200B0AA018051B80200B0AB008059
:10977000F9B80200B0B0AA8027B90200B0AF0080EB
:109780007FBC0200142B040053BE0200B0A900806D
:10979000F7BE0200B0A9028029BF0200B0A9008074
:1097A00073BF0200B0B0AA80BFBF02001C1B040040
:1097B00041C60200B0AA018065C60200B82B0400B1
:1097C000A9C60200B0A90080D3C70200703E040001
:1097D000BBC80200B0A900804BCA0200503E040082
:1097E000C7CA0200B0A9008037CB0200002C0400D9
:1097F0009DCB0200B0A900800DCC0200C82B040054
:1098000055CC0200B0AB008049CF0200B0AA018065
:1098100075CF0200B0AB00801DD00200B0B0AA80AE
:109820004BD00200B0AF0080A3D30200F02D0400A3
:1098300011D60200B0AB00805DD60200B0AA018054
:10984000B1D60200B0AB0080FDD60200B0AA018004
:1098500051D70200B0AB00809DD70200B0AA0180B2
:1098600067D80200983A0400ADD80200803A04009C
:109870002FD90200B0AB008075D90200603B040014
:1098800071DA0200B0A90080C1DA0200B0B0AA808B
:1098900059DF0200B0A900809DDF0200B0B0AA80AD
:1098A000DDE20200B0A90A8013E30200142A0400DA
:1098B00049E30200B0AB0080CBE30200B0B0AA8065
:1098C00047E60200B0A90080B9E60200B0AB008014
:1098D00005E70200B0AA018079E702001C29040014
:1098E00015EE0200B0A900809DEE0200B0AB008032
:1098F000E9EE0200B0AA01802FEF0200B0B0AA800A
:10990000E5F00200B0A9008029F10200B0B0AA8001
:1099100081F40200F83A0400C9F40200E03A0400BD
:1099200011F50200B0B0AA8055F50200B0A8018080
:1099300011F60200B0A90080ADF602003037040035
:109940008FF80200B0A900802BF90200A0380400B3
:10995000D5F90200B0B0AA801DFB0200C03C040093
:109960008DFB0200B0B0AA80A3FD0200B0A9008068
:109970003FFE020008410400D9FE0200B0A80180A9
:1099800033FF0200B0B0A88091FF0200B0AB0080AE
:10999000DBFF0200B0A90080D5000300B0AB00805F
:1099A0001F0103003838040071010300B0B0AA8021
:1099B000C1010300A83C0400FB010300B0B0AA8071
:1099C0001D020300E83A040045020300C03A040007
:1099D000ED030300B0AB00803704030090400400A7
:1099E0007B040300B0B0A8808B040300B0B0AA8051
:1099F000A5040300B0A900803D0503001038040051
:109A000075050300D8360400CF050300F0360400C6
:109A1000F7050300D83904000D060300B0A9008043
:109A2000E70603007840040021070300B0B0AA80D5
:109A300045070300B0B0A880FD070300B0B0AA80BE
:109A4000610803001C1C0400ED080300B0A900809D
:109A5000FB080300B0B0AA805D090300B0AA018032
:109A6000A9090300B0B0AA80650A0300B0A900806C
:109A7000370B0300B0B0A8808B0B0300B0A90080A7
:109A8000FB0B030001000000EF120300B0AB0080ED
:109A900079450300B0A801800950030001000000CF
:109AA0003D500300B0B0A88053500300B0B0AA806E
:109AB0004F51030098370400AD530300010000002C
:109AC000A9550300B0A90080DF5503000084008081
:109AD00071620300B0AC0580CF62030074A803007C
:109AE00017640300B0AA0180396403008C1B0400D2
:109AF00095640300B0B0AC80D1650300B0AA0180CA
:109B0000C5660300B0B0AA8035670300B0AB008023
:109B10008D670300B0B0A88053680300C826040016
:109B200015690300B0B0AA80FF690300F4260400A1
:109B3000576A0300B0AB00806D6A0300B0350400C3
:109B4000D16A0300B0A90080336B0300B0AC018080
:109B50007D6B0300B0A90080A96B0300B0AA03804D
:109B6000D96B0300B0AB00800F6C030050260400DB
:109B7000416C0300B0B0AA806D6C03005035040046
:109B80002D6E030001000000A16F030010CC030044
:109B900057700300983504000571030000840080AD
:109BA0001B720300B0A9008069720300B0AA018093
:109BB0009D720300CCFC0300EB720300142604002A
:109BC000E9730300B0A9008089740300B0B0A880D5
:109BD000F1740300B0AB00808775030058260400C1
:109BE000B7750300B0AC0180FB750300B0B0AC806A
:109BF000DB760300B0A90280F5760300602604003E
:109C00004F780300A425040079780300B0A90080F0
:109C100081780300010000003B790300F025040077
:109C200083790300B0AB0080EF790300B0B0AA8065
:109C30002B7A0300D8340400537A030080340400E4
:109C400069810300010000007D8D03001C9D03005D
:109C50003D8F0300010000002B90030050260400FC
:109C6000B5900300B0B0A88071920300010000001D
:109C7000CD920300B0AB0080B99303000100000057
:109C800015940300B0AB00800195030001000000B3
:109C90005D950300B0AB0080499603000100000011
:109CA000A5960300B0AB0080639B03000100000099
:109CB000499E030074F6030045A70300B0AC018081
:109CC0009DA70300B0A9008017A80300B0AB0080D7
:109CD000CDA80300B0AC018025A90300B0A9008085
:109CE0009FA90300B0AB008051AA0300B0AC018073
:109CF000A9AA0300B0A9008023AB0300B0AB008089
:109D0000D5AB0300B0AC01802DAC0300B0A900803E
:109D1000A7AC0300B0AB00805DAD0300B0AC018028
:109D2000B5AD0300B0A900802FAE0300B0AB00803A
:109D3000E5AE0300B0AC01803DAF0300B0A90080E8
:109D4000B7AF0300B0AB00806DB00300B0AC0180D2
:109D5000C5B00300B0A900803FB10300B0AB0080E4
:109D6000F5B10300B0AC01804DB20300B0A9008092
:109D7000C7B20300B0AB00807DB30300B0AC01807C
:109D8000D5B30300B0A900804FB40300B0AB00808E
:109D900005B50300B0AC01805DB50300B0A900803B
:109DA000D7B50300B0AB00808DB60300B0AC018026
:109DB000E5B60300B0A900805FB70300B0AB008038
:109DC00015B80300B0AC01806DB80300B0A90080E5
:109DD000E7B80300B0AB00809DB90300B0AC0180D0
:109DE000F5B90300B0A900806FBA0300B0AB0080E2
:109DF00025BB0300B0AC01807DBB0300B0A900808F
:109E0000F7BB0300B0AB0080ADBC0300B0AC018079
:109E100005BD0300B0A900807FBD0300B0AB00808A
:109E200035BE0300B0AC01808DBE0300B0A9008038
:109E300007BF0300B0AB0080BDBF0300B0AC018022
:109E400015C00300B0A900808FC00300B0AB008034
:109E500041C10300B0AC018099C10300B0A90080EA
:109E600013C20300B0AB0080C5C20300B0AC0180D8
:109E70001DC30300B0A9008097C30300B0AB0080EE
:109E800049C40300B0AC0180A1C40300B0A90080A4
:109E90001BC50300B0AB0080CDC50300B0AC018092
:109EA00025C60300B0A900809FC60300B0AB0080A8
:109EB00051C70300B0AC0180A9C70300B0A900805E
:109EC00023C80300B0AB00807DCE0300B0B0AA80F1
:109ED0006FD60300BC13040079DC0300B0AD008032
:109EE000AFDC0300B0B0AC8033DD0300B0AD008068
:109EF00069DD0300B0B0AC800DDF0300B0AD0080C1
:109F000035DF0300B0B0AC80B5DF0300B0AD00803A
:109F1000DDDF0300B0B0AC80F1EF0300B0B0A8808B
:109F20007DF00300B0AB02807DF103000815040052
:109F300041F203000832040061F203001032040011
:109F400081F2030038330400A1F2030090350400CD
:109F5000C1F2030018370400090B0400B0B0AA8056
:109F6000210B0400B0AB0080450B0400B0B0AA8008
:109F7000750B0400B0AB0080990B0400B0B0AA8050
:109F8000E70B0400B0AB00800B0C0400B0B0AA805B
:109F9000590C0400B0AB00807D0C0400B0B0AA8066
:109FA000CB0C0400B0AB0080EF0C0400B0B0AA8072
:109FB0003D0D0400B0AB0080610D0400B0B0AA807C
:109FC000AF0D0400B0AB0080D30D0400B0B0AA8088
:109FD000210E0400B0AB0080450E0400B0B0AA8092
:109FE000930E0400B0AB0080B70E0400B0B0AA809E
:109FF000050F0400B0AB0080290F0400B0B0AA80A8
:10A00000590F0400B0AB00807D0F0400B0B0AA80EF
:10A01000AD0F0400B0AB0080D10F0400B0B0AA8037
:10A0200001100400B0AB008025100400B0B0AA807D
:10A0300055100400B0AB008079100400B0B0AA80C5
:10A04000A9100400B0AB0080CD100400B0B0AA800D
:10A050001D110400183104006F110400F0320400D7
:10A06000F1130400383104000514040040310400E9
:10A0700051140400E834040065140400F0340400B2
:10A08000E118040008300400F11804001030040046
:10A09000011904001830040011190400E030040014
:10A0A00021190400E83004003119040010310400C3
:10A0B00041190400183104005119040060310400F2
:10A0C0006119040068310400711904007031040042
:10A0D00081190400883204009119040090320400B0
:10A0E000A119040098320400B1190400A032040040
:10A0F000C1190400A8320400D1190400B0320400D0
:10A10000E1190400F8330400F119040000340400DC
:10A11000011A040008340400111A04001034040069
:10A12000211A040018340400311A040020340400F9
:10A13000411A040048340400511A04005034040049
:10A14000611A040058340400711A040060340400D9
:10A15000811A040068340400911A04007034040069
:10A16000A11A040078340400B11A040080340400F9
:10A17000C11A040088340400D11A04009034040089
:10A18000E11A040008350400F11A04001035040037
:10A19000011B040018350400111B040020350400C5
:10A1A000211B040028350400311B04003035040055
:10A1B000411B0400F8370400511B04000038040060
:10A1C000611B040008380400711B0400E03804001F
:10A1D000811B0400E8380400911B0400F0380400DF
:10A1E000A11B040038390400B11B040040390400ED
:10A1F000C11B040048390400D11B0400703A04005C
:10A20000391E0400582F04005D1E04008030040035
:10A210006B1E0400D8320400791E04006034040070
:10A22000B31E040088390400C11E0400E039040094
:10A2300000F5E0700268914203D343681A449142EA
:10A2400002D380680028F5D170471849086880B9A2
:10A250004FF4805048604FF480324FF0FF30C860B8
:10A2600008610420124B8A604861C3F8BC011148A0
:10A2700008600120704701F1080313F0070F0EBFBB
:10A280000023C3F1080303F007031944D21A8161C4
:10A29000C26042F001034B60091D4FF0280C41F8E9
:10A2A00002C0024A1369C36170470000582F0020A2
:10A2B000C82400206859883C2DE9F84F84B0064630
:10A2C000AFF30080F52E1E4D80F013820B2E31BFB0
:10A2D00010260B36F608F6002868F408E04010F067
:10A2E000030F4AD0C04300F00100041905F1280013
:10A2F00000EBC408E700D8F808607068C008C00028
:10A30000B84218BFFDF740FFD6F80890464508BF91
:10A31000FDF73AFF4E4508BFFDF736FF7068C008ED
:10A32000C000B84218BFFDF72FFFC8450AD1286802
:10A33000012101FA04F420EA04042C6010E000BFBB
:10A34000C82400202869814508D3D9F80C10B142EF
:10A3500004D1C8F80890C9F80C8001E0FDF714FF9B
:10A3600047F00300311D7060301DCA5942F00102F0
:10A37000C25106F1080800F01DBFA968B14280F083
:10A38000A883002800F0A2804FF0010808FA04F129
:10A39000490000FA04F4484201430C406042044082
:10A3A000641E200B00F01000C440610901F0080198
:10A3B000CC40A20802F00402D440630803F0020378
:10A3C0000818DC401018C4F3400718183818FC406F
:10A3D000241805F1280000EBC40AE700DAF8089019
:10A3E000D9F80400C008C000B84218BFFDF7CCFE81
:10A3F000D9F808B0D14508BFFDF7C6FED94508BF5A
:10A40000FDF7C2FED9F80400C008C000B84218BF6A
:10A41000FDF7BAFEDA4506D1286808FA04F420EA06
:10A4200004042C600DE029698B4508D3DBF80C008F
:10A43000484504D1CAF808B0CBF80CA001E0FDF7FC
:10A44000A3FEBF1B46F0030009F10402C9F8040093
:10A4500047F00101915109EB06020192D751AC6816
:10A460004FEAD40ABAF11F0F88BFFDF78DFE34B34F
:10A47000CDF800A005F128006E6900EBCA0AD346AA
:10A48000102C38BFFDF780FE2968009821FA00F2F1
:10A49000D30704D408FA00F00843286007E0DAF88C
:10A4A0000800296988422CBF8346FDF76DFECAF873
:10A4B0000860CBF80C60C6F808B0C6F80CA0AF6016
:10A4C00009F108080198686100F074BE6868002806
:10A4D00000F0208341420840401E010B01F01001B2
:10A4E000C840420902F00802D040830803F0040388
:10A4F000D840440804F002045118E0405918C0F351
:10A500004007611805F598787918F840401858F810
:10A5100020104868C008C0008A46A0EB060B08E07F
:10A5200001464868C008C000801B58453CBF8346B0
:10A530008A4608690028F3D149690029F1D12869C0
:10A540008245C0F0D380DAF80410C90806EB0B0985
:10A55000C900494518BFFDF717FE0AEB0600824502
:10A56000019080F0C380DAF80C40DAF81870544596
:10A570000DD0DAF808002969884223D3C268524511
:10A5800004BFA16851451DD1C460A0601CE00AF160
:10A5900014010C6834B90AF110010C68A4B101E08F
:10A5A00011460C6804F114021068002802BF04F17F
:10A5B000100210680028F3D12869814202D30022DA
:10A5C0000A6001E0FDF7E0FD002F38D0DAF81C004A
:10A5D00008EB80010A6892450AD11CBB6A68012316
:10A5E00003FA00F022EA000068600020086026E01C
:10A5F00029698F4213D33869504514BF7C613C618F
:10A60000ECB129698C4218D3A761DAF8100058B16F
:10A61000884226BF20618461FDF7B6FD04E0FDF7A6
:10A62000B3FDEDE70C60ECE7DAF8140038B1296906
:10A63000884202D36061846101E0FDF7A5FDBBF1B2
:10A64000100F0ED249F003000AF10401CAF8040009
:10A650000AF1040051F8092042F0010240F80920F3
:10A660003EE046F003010AF10402CAF804104BF080
:10A6700001009051019941F80BB0A8680090C408FE
:10A680001F2C88BFFDF780FD009828B305F1280036
:10A6900000996F6900EBC408C146102938BFFDF767
:10A6A00073FD286820FA04F1CA0705D4012101FAD4
:10A6B00004F404432C6007E0D8F8080029698842B4
:10A6C0002CBF8146FDF760FDC8F80870C9F80C7012
:10A6D000C7F80890C7F80C80C5F808B00198686101
:10A6E0001AF1080800F0F58100F064BDFDF74CFD9B
:10A6F000EFE116F1400F28BF4FF0FF3680F0E981FF
:10A700000B36F6086B68F600002B00F0E28100279C
:10A71000300AC6F1000908BF002423D0B0F5803FFD
:10A7200028BF1F241ED2A0F58071090C01F008017A
:10A730008840A0F58052120C02F004029040A0F56F
:10A740008044240CC1F10E0104F00204891A091B93
:10A75000A04001EBD031C81D26FA00F404F001043A
:10A7600004EB410405F5987858F8240030B31F2C09
:10A770000FBFB4464FEA540CCCF1190C06FA0CFC8E
:10A78000BE46494601E04FEA4C0C4268D208D2006E
:10A79000921B8A4202D2110007460CD04269103047
:10A7A0004FEADC7950F82900002A1CBF8242964605
:10A7B0000028E8D170468946A8BBB7BB012101FA41
:10A7C00004F4640060420443234000F08281584254
:10A7D00003405B1E180B00F01000C340590901F044
:10A7E0000801CB409A0802F00402D3405C0804F050
:10A7F00002040818E3401018C3F3400C201860440A
:10A8000023FA0CF31B1858F823000CE008464168A3
:10A81000C908C900891B49453CBF894607460169EB
:10A820000029F3D140690028F1D1002F00F05181B7
:10A83000A868801B814580F04C8129698F42FFF414
:10A8400055AF7868C008C00006EB0901884218BF00
:10A85000FDF79AFC07EB060B5F45BFF447AFFC68BA
:10A86000D7F818A0BC420CD0B8682969884223D315
:10A87000C268BA4204BFA168B9421DD1C460A060D9
:10A880001CE007F114010C6834B907F110010C68E1
:10A89000A4B101E011460C6804F11402106800280C
:10A8A00002BF04F1100210680028F3D12869814228
:10A8B00002D300220A6001E0FDF766FCBAF1000F46
:10A8C00039D0F86908EB80010A6897420AD134BB95
:10A8D0006A68012303FA00F022EA000068600020A1
:10A8E000086028E029698A4516D3DAF81000B842D2
:10A8F00014BFCAF81440CAF81040E4B129698C4268
:10A9000017D3C4F818A0386958B1884226BF20610F
:10A910008461FDF739FC04E0FDF736FCEDE70C60DF
:10A92000ECE7786938B12969884202D360618461B3
:10A9300001E0FDF729FCB9F1100F0CD2B14449F048
:10A940000300391D7860381D51F8092042F00102DA
:10A9500040F80920B9E046F003013A1D796049F05A
:10A96000010090514FEAD9004BF809901F2822D8D6
:10A9700005F1280101EBC004296821FA00F2D30790
:10A98000A04605D4012202FA00F00843286006E040
:10A99000A068296988422CBF8046FDF7F5FBC4F802
:10A9A00008B007F10800C8F80CB040F8068007F1BD
:10A9B0000C018C5189E05FEA192008BF002123D0E7
:10A9C000B0F5803F28BF1F211ED2A0F58072120C67
:10A9D00002F008029040A0F58051090C01F004013A
:10A9E0008840A0F580431B0CC2F10E0203F0020365
:10A9F000521AD21A984002EBD032D01D29FA00F137
:10AA000001F0010101EB420107F11403CBF81C1026
:10AA100000229A5107F1100308EB81009A516A68ED
:10AA200022FA01F3DC0711D4012303FA01F11143E7
:10AA30006960C0F800B0CBF8180007F1080107F111
:10AA40000C0040F806B041F806B03EE002681F294D
:10AA50001DBF4908C1F1190109FA01F1494600E099
:10AA600002465068C008C000484518D002F11003E3
:10AA7000C80F03EB8003490018680028F0D128694B
:10AA8000834220D3C3F800B007F10C01CBF81820A3
:10AA900041F806B007F1080040F806B015E0296952
:10AAA00090688A4228BF88420DD3C0F80CB007F1E5
:10AAB0000801C2F808B0885107F10C008251002249
:10AAC000CBF8182001E0FDF75FFB17F1080840F014
:10AAD0007183A868B0421DD3811B6A69102909D30C
:10AAE0009319A96041F001005860595046F00306DF
:10AAF00056600BE00021A96040F00304111D546072
:10AB0000141D0E5846F00106265000236B6102F119
:10AB100008084FE3E8688642C0F03C83DFF8CC9B2E
:10AB2000D9F8000008B9FFF790FBD9F80810881988
:10AB30002F30491E20EA01018E4280F0398305F54D
:10AB4000D877B86838B13A6889188A4280F030837B
:10AB50008842C0F02D8300F031FE00281CBFD0F8E1
:10AB6000008010F1010F00F0238339687A684144B6
:10AB700039608A4238BF7960AC6904BB296909B180
:10AB8000884200D2286100213861C7F81480F96139
:10AB90004FF0FF31D9F800206A62296205F12802DE
:10ABA00000219260D26002F1080353611361891C95
:10ABB00010321F29F5D9A8F1280201461DE005F53C
:10ABC000E0710A46814600E09268D2B1106853688D
:10ABD00003449945F8D1107B030712D413689C42B3
:10ABE0000FD3D2F804C063449C420AD2C444C2F8D2
:10ABF00004C02146E86808EB00022846FFF73BFB4B
:10AC0000C5E22869814538BFC5F8109009EB0800F6
:10AC100000E08968002900F0C1810A688242F8D109
:10AC2000087B020700F1BA810868C1F800904A6801
:10AC300042444A6009F1080111F0070F08BFCDF83E
:10AC4000049006D0C1F1080101F0070109EB0102EF
:10AC5000019200F1080111F0070F04D0C1F10801C1
:10AC600001F00701084480460198A8EB000184190F
:10AC7000A1EB060B274646F003064660474528BF72
:10AC8000FDF782FA98F80400C10758BFFDF77CFA77
:10AC9000BBF1100F38BFFDF777FAA869804508D1DE
:10ACA000E9688B44C5F80CB0AF614BF001007860E7
:10ACB00070E1686980450AD1A9686F618B44C5F865
:10ACC00008B04BF00100786047F80BB062E1D8F8AB
:10ACD000040000F00301012940F0BC80C008C0005E
:10ACE000C1081F29039040D8D8F808200092D8F84E
:10ACF0000C600291B04508BFFDF746FA0098804508
:10AD000008BFFDF741FAD8F804000299C008C00056
:10AD1000B0EBC10F18BFFDF737FA0299009A05F1A1
:10AD2000280000EBC100824208D011462A699142F6
:10AD3000C0F08B80CA68424540F0878000998E42FF
:10AD400006D102982A68012383409A432A607EE054
:10AD5000864205D029698E4277D3B068404574D1C8
:10AD60000098C6600099B16071E0D8F818000090B2
:10AD7000D8F80C6046450DD0D8F8080029698842FB
:10AD800023D3C268424504BFB16841451DD1C660A6
:10AD9000B0601CE008F114010E6836B908F110012A
:10ADA0000E68A6B101E011460E6806F114021068A3
:10ADB000002802BF06F1100210680028F3D12869AC
:10ADC000814202D300220A6001E0FDF7DDF900981C
:10ADD00000283CD0D8F81C0005F5987101EB8001E3
:10ADE0000A6890450AD12EBB6A68012303FA00F075
:10ADF00022EA000068600020086028E000992869C5
:10AE0000814214D30869404514BF4E610E61F6B10A
:10AE100029698E4219D30098B061D8F8100058B152
:10AE2000884226BF30618661FDF7AEF904E0FDF788
:10AE3000ABF9ECE70E60EBE7D8F8140038B12969FC
:10AE4000884202D37061866101E0FDF79DF90399A4
:10AE500088448B44D8F8041049084900C8F8041005
:10AE60004BF0010078604FEADB0647F80BB01F2E6D
:10AE700022D805F1280000EBC604A146BBF1100F53
:10AE800038BFFDF781F9286820FA06F1CA0705D412
:10AE9000012101FA06F606432E6006E0A068296942
:10AEA00088422CBF8146FDF76FF9A760C9F80C7086
:10AEB000C7F80890FC606DE05FEA1B2008BF002126
:10AEC00023D0B0F5803F28BF1F211ED2A0F580728D
:10AED000120C02F008029040A0F58051090C01F01C
:10AEE00004018840A0F580431B0CC2F10E0203F060
:10AEF0000203521AD21A984002EBD032D01D2BFA1C
:10AF000000F101F0010101EB4201F961002305F5B7
:10AF100098727B6102EB81003B616A6822FA01F35F
:10AF2000DE0707D4012303FA01F1114369600760CA
:10AF3000B8611DE002681F291DBF4908C1F1190150
:10AF40000BFA01F1594600E002465068C008C00003
:10AF5000584510D002F11003C80F03EB80034900DD
:10AF600018680028F0D12869834211D31F60BA61A4
:10AF7000FF60BC600EE0296990688A4228BF884261
:10AF800006D3C7609760B860FA600020B86101E03E
:10AF9000FDF7FAF8019800F108080BE12146284670
:10AFA000FFF746F90168406808440090A0F12701C6
:10AFB00011F0070000980EBF0021C1F1080101F057
:10AFC00007010844A0F12F0B04F110018B4538BF95
:10AFD000A3460BF11802002102920191A8F1280268
:10AFE00049462846FFF747F90BF1080010F0070F14
:10AFF00018BFFDF7C9F81B20CBF8040005F5E07277
:10B0000092E809500BF1080181E8095000210BF189
:10B010000800F961B861009A02980199C7F8109088
:10B02000C7F81480072300E0001D491C00F1080741
:10B0300097424360F8D30129D8BFFDF7A5F8A3458F
:10B0400000F0A580ABEB040B201D221D50F80B1067
:10B050004908490042F80B104BF0010060604FEACC
:10B06000DB0944F80BB0B9F11F0F22D805F1280015
:10B0700000EBC907B846BBF1100F38BFFDF784F8E5
:10B08000286820FA09F1CA0705D4012101FA09F15B
:10B090000843286006E0B868296988422CBF8046CA
:10B0A000FDF772F8BC60C8F80C40C4F80880E7608F
:10B0B0006DE05FEA1B2008BF002123D0B0F5803F80
:10B0C00028BF1F211ED2A0F58072120C02F00802C8
:10B0D0009040A0F58051090C01F004018840A0F5D2
:10B0E00080431B0CC2F10E0203F00203521AD21A63
:10B0F000984002EBD032D01D2BFA00F101F0010193
:10B1000001EB420105F59872002302EB8100E16139
:10B11000636123616A6822FA01F3DF0707D4012320
:10B1200003FA01F1114369600460A0611DE0026847
:10B130001F291DBF4908C1F119010BFA01F1594638
:10B1400000E002465068C008C000584510D002F127
:10B150001003C80F03EB8003490018680028F0D1E2
:10B160002869834211D31C60A261E460A4600EE0F0
:10B17000296990688A4228BF884206D3C4609460D7
:10B18000A060E2600020A06101E0FCF7FDFFE8683C
:10B1900086420DD2801BA969E8608A19AA6140F035
:10B1A0000100506046F003064E6001F1080801E01E
:10B1B0004FF00008AFF30080404605B0BDE8F08FC7
:10B1C000002800D170472DE9F047A0F10805AFF342
:10B1D0000080DFF81C6531698D42C0F084826868A8
:10B1E00000F00302012A00F07E82C2084FEAC20981
:10B1F000C20705EB090839D42C6810F0030F00F0E2
:10B200006E82604205448D42A144C0F06C82706938
:10B21000854200F0DE80E408202C72D2D5F80CA024
:10B22000AF68554508BFFCF7AFFFBD4208BFFCF74C
:10B23000ABFF6868C008C000B0EBC40F18BFFCF7D4
:10B24000A3FF06F1280000EBC400874205D0316956
:10B250008F4253D3FA68AA4250D1BA4540D13068E0
:10B26000012101FA04F420EA04043460454580F029
:10B270003A82D8F80440E00740F13582A10700F196
:10B280008381B069804540F0B780F168B561894439
:10B29000C6F80C9049F00100686071698D4202D1D6
:10B2A00000207061B060F169494580F01882DFF8D4
:10B2B0003C24106808B9FEF7C8FFB169002900F006
:10B2C0000E82F068292824BF3046FEF7B1FFF069EE
:10B2D000F168884280F003824FF0FF30F061FEE1B8
:10B2E000824506D03069824508D3DAF80810A942B1
:10B2F00004D1C7F80CA0CAF80870B7E7FCF744FF00
:10B30000B4E7EC68AF69AC420BD0A868884222D39E
:10B31000C168A94204BFA268AA421CD1C460A0604F
:10B320001BE005F11402146834B905F11002146829
:10B330009CB101E01A46146804F11403186800284F
:10B3400002BF04F1100318680028F3D18A4202D327
:10B350000021116001E0FCF717FF002F86D0E8699B
:10B3600006F5987101EB80010A6895420AD124BB69
:10B370007268012303FA00F022EA000070600020E6
:10B38000086073E731698F4214D33869A84214BF4B
:10B390007C613C61002C3FF469AF31698C42ADD3D4
:10B3A000A761286958B1884226BF20618461FCF7F3
:10B3B000EBFE04E0FCF7E8FEECE70C60EDE7686903
:10B3C00000283FF453AF3169884297D360618461AC
:10B3D0004CE798F8040000F0030003287FF446AF20
:10B3E000C6F8089049F00101D8F804004008400070
:10B3F000C8F8040069600AE0706980450AD1B16844
:10B4000075618944C6F8089049F00100686045F804
:10B41000099064E1E408E400A144E408202C3AD255
:10B42000D8F80CA0D8F80870D04508BFFCF7ACFEDF
:10B43000B84508BFFCF7A8FED8F80400C008C00053
:10B44000B0EBC40F18BFFCF79FFE06F1280000EB1D
:10B45000C400874207D031698F42C0F08880FA6803
:10B46000424540F08480BA4507D13068012101FA95
:10B4700004F420EA040434607BE0824506D030699D
:10B48000824574D3DAF80810414570D1C7F80CA092
:10B49000CAF808706DE0D8F80C40D8F81870444528
:10B4A0000DD0D8F808003169884223D3C2684245DC
:10B4B00004BFA16841451DD1C460A0601CE008F133
:10B4C00014010C6834B908F110010C68A4B101E052
:10B4D00011460C6804F114021068002802BF04F140
:10B4E000100210680028F3D13069814202D3002293
:10B4F0000A6001E0FCF748FE002F3AD0D8F81C00A3
:10B5000006F5987101EB80010A6890450AD11CBBD1
:10B510007268012303FA00F022EA00007060002044
:10B52000086026E031698F4213D33869404514BF63
:10B530007C613C61ECB131698C4218D3A761D8F8C9
:10B54000100058B1884226BF20618461FCF71CFEC0
:10B5500004E0FCF719FEEDE70C60ECE7D8F8140006
:10B5600038B13169884202D36061846101E0FCF73F
:10B570000BFE49F00100686045F8099071698D4241
:10B580000BD1C6F80890AAE064086400C8F804402B
:10B5900049F00100686045F809904FEAD907202F6B
:10B5A00022D206F1280000EBC704A046B9F1100F23
:10B5B00038BFFCF7E9FD306820FA07F1CA0705D467
:10B5C000012101FA07F70743376006E0A0683169F7
:10B5D00088422CBF8046FCF7D7FDA560C8F80C5008
:10B5E000C5F80880EC607AE05FEA192008BF002106
:10B5F00023D0B0F5803F28BF1F211ED2A0F5807256
:10B60000120C02F008029040A0F58051090C01F0E4
:10B6100004018840A0F580431B0CC2F10E0203F028
:10B620000203521AD21A984002EBD032D01D29FAE6
:10B6300000F101F0010101EB420106F598720023CF
:10B6400002EB8100E9616B612B61726822FA01F300
:10B65000DC0707D4012303FA01F11143716005608F
:10B66000A8611DE002681F291DBF4908C1F1190129
:10B6700009FA01F1494600E002465068C008C000DE
:10B68000484510D002F11003C80F03EB80034900B6
:10B6900018680028F0D13069834211D31D60AA6177
:10B6A000ED60AD600EE0316990688A4228BF884243
:10B6B00006D3C5609560A860EA600020A86101E03B
:10B6C000FCF762FD306A401E08D13062D6F8C8012E
:10B6D00000E080680028FCD14FF0FF303062AFF30B
:10B6E0000080BDE8F087FCF74FFDF8E7582F0020F9
:10B6F000C82400202DE9F8438AB0804628216846F6
:10B7000000F072F82B4A106808B9FEF79EFDAFF3FF
:10B710000080DFF8A4E0DEF81820002A40D0DEF830
:10B720000C5005F12806012437460EF5E0711CE0A7
:10B730004FEADC090CF0030CBCF1010F07EBC90761
:10B7400004BF06EBC906641C03EBC90383420BD399
:10B75000D1F8049081444B4506D293421CBFD3F8E4
:10B7600004C0BCF1070FE3D1896861B1086800F13A
:10B77000080313F0070F0EBF0023C3F1080303F003
:10B7800007030344E2E700970EF5D870019408968A
:10B790000995016842680592CF1B891B04970791A0
:10B7A000AFF3008040466946282200F03DF80BB018
:10B7B000BDE8F083582F0020C824002007490868FE
:10B7C00008B1002070470648C008C000086005495D
:10B7D000C908C900091A0160704700BF5C30002029
:10B7E0003F52002037520120002200F06FB88268DB
:10B7F000521C8260426832B10268531C03601170AF
:10B800004168491E4160704762B38B0708D0521EE1
:10B8100011F8013B00F8013B00F024808B07F6D1C2
:10B82000830740F0208000BF103A07D330B4B1E85E
:10B830003810103AA0E83810F9D230BC530724BFB2
:10B84000B1E80810A0E8081044BF51F8043B40F8E4
:10B85000043BD20724BF31F8022B20F8022B44BF4F
:10B860000B7803707047121F17D35B0009D151F892
:10B87000043B20F8023B1B0C121F20F8023BF6D2BF
:10B880000BE051F8043B00F8013B1B0A20F8023B97
:10B890001B0C121F00F8013BF3D238BF121D521EC1
:10B8A00024BF11F8013B00F8013BF8D8704702684B
:10B8B000531C03601170704780B5AFF30080024ADB
:10B8C00011001820ABBEFBE72600020000B500BF48
:10B8D000130096469446103928BFA0E80C50FAD8B9
:10B8E0005FEA417C28BF0CC048BF40F8042BC90761
:10B8F00028BF20F8022B48BF00F8012B00BD020032
:10B90000002070472DE9F14FB0B0924604910DF13F
:10B9100042013A9A2B9199464A7000200AE01AF89F
:10B92000011B0498309A90470028049000F0A686E6
:10B930000D98401C0D909AF8000050B12528EED1CA
:10B94000002100220791089209910A920B910C9212
:10B9500004E00D9800F094BE41F001011AF8010FC7
:10B960002028F9D023280CD02B2804D02D2805D04E
:10B97000302809D00BE041F00201EFE741F004016B
:10B98000ECE741F00801E9E741F01001E6E72A2879
:10B990000FD1D9F8002052F8040BC9F80020002874
:10B9A0000F9003D540420F9041F004010AF1010AC3
:10B9B00014E00F92DFF824380AE00F98984205DA75
:10B9C00000EB800402EB4402303A0F920AF1010AC4
:10B9D0009AF80020A2F130000A28EED39AF800006D
:10B9E0002E2803D04FF0FF320E9229E01AF8010FF3
:10B9F0002A2809D1D9F8000050F8042BC9F8000012
:10BA00000E920AF1010A1BE02D280CBF0AF1010A6F
:10BA1000002000220E92DFF8C4470BE040B90E9AD6
:10BA2000A24205DA02EB820503EB4503303B0E939D
:10BA30000AF1010A9AF80030A3F130020A2AEDD384
:10BA4000ADF84010DFF89807784400F294709AF847
:10BA5000001000F02DFF08B11AF8010B8DF842001C
:10BA60009DF84200682805D19AF8000068280CD19A
:10BA7000622106E06C2804BF9AF800006C2804D10B
:10BA800071218DF842100AF1010A12A806901AF8E5
:10BA900001BBBBF125012CD01C3900F0CF81091F5F
:10BAA000022940F2CB81133900F01385093900F0E7
:10BAB000C581891E00F0A885491E00F05585491EE4
:10BAC000022940F2BB81091F00F04E85491F00F09A
:10BAD0002881491E00F0FD84491E00F0D080C91E57
:10BAE0000DD0891E00F0F584C91E00F0F28400F02C
:10BAF00096BD25238DF84830012100F09BBDD9F873
:10BB0000000050F8044BC9F80000002C059440F0E8
:10BB1000A3802B994878002800F099804FF0FF34DB
:10BB20000FF6643000F0D2FE201A40F0A78500F036
:10BB300082BD6D1E40F099853096079D12AF75B19C
:10BB4000309E17F8012B02A9304600F063FE002852
:10BB500001D46D1EF5D10028309640F08F850A9DE6
:10BB60003020002D8DF804000CDD309E012301AA49
:10BB700002A9304600F05EFE002840F07F856D1E71
:10BB8000F4D13096059F089D75B1309E17F8012BB2
:10BB900002A9304600F03EFE002801D46D1EF5D10A
:10BBA0000028309640F06A850B9D3020002D8DF8DE
:10BBB00004000CDD309E012301AA02A9304600F0EA
:10BBC00039FE002840F05A856D1EF4D13096059854
:10BBD0000899099D471875B1309E17F8012B02A9E5
:10BBE000304600F017FE002801D46D1EF5D1002864
:10BBF000309640F043850C9D3020002D8DF80400D8
:10BC00000CDD309E012301AA02A9304600F012FE8D
:10BC1000002840F033856D1EF4D130969DF8400029
:10BC200041077FF588AE2020002C8DF804007FF7B7
:10BC300082AE309D012301AA02A9284600F0FAFD38
:10BC4000002840F01B85641EF4D1309573E60FF692
:10BC50004440059000F0EFBC0E9D002D04D5204619
:10BC600000F054FE044607E02A46204600F06CFE31
:10BC7000002814BF041B2C46089400F0DCBCD9F843
:10BC8000001051F8040BC9F8001020F00004002146
:10BC900021F0FF3512ABCDE902450593DDE9022322
:10BCA00006993C2413B90AB90E9898B102F00F0511
:10BCB0003035641EEEB23A2EA8BF2735120942EA8B
:10BCC00003721B090D5508BF002A03D005980D19F2
:10BCD000A842EBD308190590C4F13C020E980892D3
:10BCE00082420ADABDF84010821A4FF6EF70014026
:10BCF0000A92ADF8401000F09EBC002840F19B84F1
:10BD00009DF8400000F01400102840F094840F9B30
:10BD100007990A985B1A1B1A9A1A002A40F38B8417
:10BD2000D5E32B99487820B14FF0FF340FF634302B
:10BD3000F8E69DF84200622861D0682817D06A288A
:10BD40003FD06C2806D0712847D074282CD07A2890
:10BD50001DD064E0D9F8001051F8040BC9F80010A8
:10BD6000002868D14FF0FF340FF61030DAE6D9F82A
:10BD7000001051F8040BC9F8001020B94FF0FF343F
:10BD80000FF6F820CEE60D99018000F054BCD9F8EA
:10BD9000001051F8040BC9F8001000284BD14FF0E7
:10BDA000FF340FF6D820BDE6D9F8001051F8040B87
:10BDB000C9F8001000283ED14FF0FF340FF6BC2028
:10BDC000B0E6D9F8001051F8040BC9F8001080B99A
:10BDD0004FF0FF340FF6A420A4E6D9F8001051F874
:10BDE000040BC9F8001020B94FF0FF340FF68C2077
:10BDF00098E60D9AD317C0E9002300F01CBCD9F8CF
:10BE0000001051F8040BC9F8001020B94FF0FF34AE
:10BE10000FF6682086E60D99017000F00CBCD9F889
:10BE2000001051F8040BC9F8001020B94FF0FF348E
:10BE30000FF6482076E60D990160FCE3D9F8002062
:10BE4000D21D22F00702C9F80020D2E90001083211
:10BE5000C9F80020CDE90201C80F02D007982D21B2
:10BE60000AE0BDF84000810702D507982B2103E0C6
:10BE7000C00705D50798202112AA1154401C07902D
:10BE800012A807994BF020024318DDE90201CDE921
:10BE90002C01612A059321AC0BD00E98002802D505
:10BEA00006200E9005E001BF4BF02000672801211D
:10BEB0000E91DDE9020148004015401C0A460DD1F3
:10BEC00009030BD0ABF1610503201A2D089002D2B3
:10BED0000FF6C4110DE00FF6C4110AE070B9120399
:10BEE0000CD1ABF1610503201A2D08901AD30FF67F
:10BEF000B41103221846FFF787FC9CE3DDE9020139
:10BF0000CDE92E01DDE92E2323F00047B7F5801F90
:10BF100022F000060DD20022002F08BF002E009252
:10BF200003D116E00FF67811E3E76A4600F038FD1A
:10BF30000FE0DFF8C008DFF8C01800EB17500090E2
:10BF4000DDE92E234FF0FF301940DFF8B0781040C4
:10BF50003943CDE902014BF0200061280DD105984D
:10BF600030210170821CBBF1610F05920CBF78215A
:10BF7000582141700798801C0790DDE9020120F0EC
:10BF8000000231F0004308BF002A02D1002600253C
:10BF900068E14BF02008B8F1610F40F0B4800E98D2
:10BFA000002847BF21210191401C0190019FDDE93C
:10BFB0002C017F1C00220023DDE9024500F028FD52
:10BFC00000998DF8842038BF85F00045091F002FA7
:10BFD00000910DF1850653DD2046294600220023FD
:10BFE00000F030FD4CD24800400D00F11C0312D08F
:10BFF000002B10DD40F2FF70834206DBDFF80018F3
:10C0000005F000421143002011E06FF31E5141EA98
:10C01000035120460BE024F0000035F0004108BF3A
:10C0200000280FBF29461C22294600F025FD0446A2
:10C030000D4600F0C1FDFF1F002F804609DD00F016
:10C04000DBFD02460B462046294600F0E9FD04468A
:10C050000D46F01D0721B8F1000F0CDD491E5EBF33
:10C0600008F00F0200F8012D4FEA2818F3D502E07E
:10C07000002200F8012D491EFAD5C61D002FABDCA9
:10C080000DF18500361A01988642D8BF3046002847
:10C090000DF1850430D4B04206DA0DF185010A5C59
:10C0A000082AA8BF0F2100DA0021024621AB134461
:10C0B00000E0401E13F80159521E8D42F9D00F299D
:10C0C00004D10DF185018B5C5B1C8B54002A04D5D7
:10C0D0000099091D21AC401C0091411E0CD462182E
:10C0E000ABF13A0613783033DDB23A2DA8BFF3181E
:10C0F000491E02F80139F5D50E99002940F1B080AA
:10C10000421E0E92ACE00099DFF8F82647F29750F5
:10C11000414391FBF2F2DDE92C45009225F0004508
:10C12000D2F1070204DD2046294600F040FB0BE077
:10C1300052420020DFF8D01600F039FB02460B46D1
:10C140002046294600F0E0FD0446B8F1660F0E983F
:10C1500006BF009F0A3706273F18142FC8BF1427B1
:10C1600030200D468DF884000DF18506002F39DD55
:10C170002046294600F0EEFE01460A4606F1080375
:10C1800004200A26B2FBF6F606EB860EA2EB4E0260
:10C19000303203F8012C0A22B6FBF2F202EB820ED7
:10C1A000A6EB4E063036401E03F8026DE9D1083F7B
:10C1B000002F03F10806D9DD084600F0DFFE024635
:10C1C0000B462046294600F02BFD0022DFF83C36C6
:10C1D00000F0E4FE04460D46CAE700BFCBCCCC0C11
:10C1E000CC3D04000DF18500361A0DF1850404E004
:10C1F0000098401E761E0090641C20783028F7D0EE
:10C20000B8F1660F02D10099491C04E0B8F1650F3E
:10C210000CBF012100210E9808188642B8BF701E7D
:10C2200000281DD4B04204DA215C3429C8BF39216A
:10C2300000DC30210246631E9D1800E0401E15F808
:10C240000169521E8E42F9D0392902D1A15C491CE4
:10C25000A154002A04D50099491C1C46401C009199
:10C260000646009D0E9F30B2002802DC01260FF228
:10C2700038644BF02000662808BF6D1C15D0672875
:10C280000FFA85F841D118F1040F44DBB84542DAC2
:10C290009DF840006D1C010703D430B2B842B8BF0E
:10C2A000074628B23F1A48BF00270FFA85F8B8F1B1
:10C2B000000F00F3AF800898411C089130220599C7
:10C2C0000A54002F03DC9DF84000010705D50898AB
:10C2D000411C08912E2205990A5417EB080FB8BF8C
:10C2E0007D4228B2C51932B2414295420B91B8BF86
:10C2F0002E46059B089836B20996324621461844C8
:10C30000FFF782FAAD1B0C95CCE0BBF1610F15D1A4
:10C310004FF0700B17E030B2B84204DA9DF84010CD
:10C320000A0758BF07467F1E48BF0027BBF1670FAB
:10C3300014BF4FF0450B4FF0650B04E0BBF1410F0C
:10C3400008BF4FF0500B0898411C0891002F059929
:10C3500014F8012B0A5403DC9DF84000010719D59D
:10C360000898411C08912E2205990A54002F11DDCE
:10C37000761E30B287420598089BB8BF3E4632B25F
:10C3800021461844FFF740FA089836B23018BF1B10
:10C3900008900B97059808990844B8F1000F80F8A9
:10C3A00000B003D42B224270821C04E02D214546AC
:10C3B0004170821C6D4200212CAB28460AE00446E5
:10C3C0000A2094FBF0F000EB8005A4EB450403F891
:10C3D000014B491C00B20028F1DC012906DC4BF0BE
:10C3E0002000652804BF302002F8010B00292CAB87
:10C3F00008D1302002F8010B06E0491E585C3030AD
:10C4000002F8010B0029F8DC059908980844121A73
:10C41000099247E030B229B288421BDA0598089B9E
:10C4200032B221461844FFF7EFF9089936B2711875
:10C43000A8EB0606002F08910B9603DC9DF8400040
:10C44000020705D5059A2E2050540999491C0991D7
:10C450000C9727E00598089B2AB221461844FFF75D
:10C46000D3F90898761B4044002F089003DC9DF810
:10C4700040100A0704D5411C08912E2205990A5440
:10C4800030B287420598089BB8BF3E4632B204EBF3
:10C4900008011844FFF7B8F9089836B23018BE1BE7
:10C4A00008900B969DF8400000F01400102840F012
:10C4B000C280079A08990B988A18099982180C98D3
:10C4C0008A1882180F98824280F2B580821A0A92E6
:10C4D000B1E09DF84200622808D068280ED06A2892
:10C4E00014D06C281FD0712810D01CE0D9F800108F
:10C4F00051F8040BC9F80010C0B21AE0D9F80010C6
:10C5000051F8040BC9F8001080B212E0D9F80020ED
:10C51000D21D22F00702C9F80020D2E9000108323A
:10C52000C9F8002006E0D9F8001051F8040BC9F84A
:10C5300000100021CDE902019DF8400001075AD505
:10C54000DDE90223002B08BF002A54D04BF0200065
:10C55000782850D1079812A930220A54401C431C55
:10C56000079301F800B046E09DF84200622808D029
:10C5700068280ED06A2814D06C281FD0712810D0DB
:10C580001CE0D9F8001051F8040BC9F8001040B2B3
:10C590001AE0D9F8001051F8040BC9F8001000B2E5
:10C5A00012E0D9F80020D21D22F00702C9F80020BD
:10C5B000D2E900010832C9F8002006E0D9F80010DD
:10C5C00051F8040BC9F80010C117CDE90201002988
:10C5D00002D507982D210AE0BDF84000810702D559
:10C5E00007982B2103E0C00705D50798202112AA40
:10C5F0001154401C079012A807990144059102A804
:10C60000594600F04FF816E001200790D9F80000D5
:10C6100050F8041BC9F800008DF848100BE02521E4
:10C620000122BBF1000F8DF84810079203D08DF85E
:10C6300049B0022107910F9A07980A990C9C121A87
:10C640000898521A0B99121A0998521A121A9DF840
:10C650004000141B41073FF570AA2020002C8DF8E4
:10C6600004007FF76AAA309E2546012301AA02A989
:10C67000304600F0DFF800283FF45BAA4FF0FF30AF
:10C6800031B0BDE8F08F00007072696E74665F7340
:10C690003A2062616420257320617267756D656E52
:10C6A000740000002DE9FC4307466F293E6908BF6E
:10C6B000082405D041F02000782814BF0A24102453
:10C6C0003C25D7E90023642918BF6929904699467B
:10C6D00005D1002B03D5D8F1000869EB4909B9F160
:10C6E000000F08BFB8F1000F0CD1386B50B9082CFF
:10C6F00039D197F83800010735D530203B2586F829
:10C700003B0030E08DF80010404649462246E317D2
:10C7100000F018FD3032D0B26D1E3A28019504DBCE
:10C720009DF80000A0F151018A1872554046494613
:10C730002246E31700F006FD80465FEA010908BFC4
:10C74000B8F1000F03D0F86871198842DCD3082CC7
:10C7500009D197F83800010705D5705D302802D05F
:10C760006D1E30207055C5F13C02BA617119F96037
:10C77000386B824208DA821A3A624FF6EF70398FCC
:10C7800001403987BDE8F38300280ED597F83800BB
:10C7900000F01400102808D17B6B7969386A5B1AA5
:10C7A0001B1A9A1A002AC8BF3A62BDE8F3832DE922
:10C7B000D04306460F4614464FF00008DFF850906D
:10C7C00012E0E00707D542464B463046394600F0B6
:10C7D000E5FB06460F464046494642464B4600F0BA
:10C7E000DDFB641080468946002CEAD1304639468C
:10C7F000BDE8D08302FCFFFFFFFF0F800000E03F99
:10C800000000F07FA08601000000F03F84D7974130
:10C810000000244010B503460C461146A068984716
:10C82000A06020B1E06A401CE062002010BD4FF023
:10C83000FF3010BDF8B505460E4617461C460020D1
:10C840005CB117F8011BB068A847B06030B1F06A5E
:10C85000401CF0620020641EF3D1F2BD4FF0FF30A7
:10C86000F2BD00007072696E74665F733A20256EC7
:10C8700020646973616C6C6F776564007072696EB7
:10C8800074663A2062616420256E20617267756D5E
:10C89000656E7400000000006E616E004E414E0037
:10C8A000696E6600494E4600300001000020704766
:10C8B000C9B202788A421AB11CBF10F8012FF9E7F9
:10C8C00018BF0020704701000020704780B500B9F4
:10C8D00006A005490B681BB122220021984701E000
:10C8E000FBF752FC222002BD60300020636F6E73A4
:10C8F000747261696E742068616E646C65723A204E
:10C90000626164206D6573736167650000F1010306
:10C91000810704D010F8011B820781B1FAD10268A7
:10C92000A2F10131914311F0803104BF50F8042F7E
:10C93000F6E709BAB1FA81F100EBD100401CC01A48
:10C940007047010000207047C9B2830706D0521E0D
:10C9500022D310F8013B9942F7D11FE0083A13D3D4
:10C9600002F1040241EA012141EA014150F8043B8D
:10C97000121F21BF4B40A3F1013C2CEA030C1CF019
:10C98000803FF3D0C9B2001F083210F8013B521E9D
:10C9900028BF91EA030FF8D818BF0120401E704746
:10C9A00010B5144600F002F8226010BDC1F30A531E
:10C9B00043B14A0012F5001F28D2A3F2FE32A1EBC8
:10C9C0000251704750EA410C20D001F0004C31EA8E
:10C9D0000C01B1FA81F204BFB0FA80F3D2180B3A1D
:10C9E000B2F120032CBF00FA03F1914041EA0C019F
:10C9F0003EBFC2F1200C20FA0CF319439040524282
:10CA000040F2FD33D21A01EB035170470022704708
:10CA10004FF4001C1CEB410F94BF1CEB430F09E0CB
:10CA200041EA030C50EA4C0C52EA0C0C03D2994236
:10CA300008BF9042704714BF8B428242704701008A
:10CA4000002070474FF4001C1CEB410F94BF1CEBFF
:10CA5000430F09E041EA030C50EA4C0C52EA0C0C7B
:10CA600003D28B4208BF8242704714BF9942904262
:10CA70007047010000207047124254D440F2FF7CFE
:10CA80001CEA11530FD0634531D09B1863453CBF5E
:10CA900001EB0251704701F0004141EA0C510020C6
:10CAA00000F068BC704750EA410320D001F0004C10
:10CAB00091EA0C011CD0B1FA81F30B3B9A420DD9DB
:10CAC000D21A994051EA0C01C3F1200C20FA0CFC57
:10CAD00061449840531C40F2FF7CD7E7914041EA03
:10CAE0000C01C2F1200C20FA0CF31943904070475E
:10CAF000B0FA80F31533202BE0D3202AEED3203A6E
:10CB0000203B9A4209D9D21A00FA03F141EA0C01FA
:10CB10000020531C40F2FF7CB8E700FA02F141EA22
:10CB20000C0100207047524240F2FF7C1CEA115376
:10CB30000DD06345DBD0B2EB030C3CBFA1EB02513F
:10CB400070470CF1010221EA035141F4801150EACF
:10CB5000410CCCD001F0004C352A27DC30B481EAFE
:10CB60000C01B2F1200309DAC2F12003044601FAF4
:10CB700003F5D0402843D1409C400CE0C3F1200293
:10CB8000450020FA03F418BF44F0010421FA03F031
:10CB900091400C43002174F1004550F1000051EB2D
:10CBA0000C01244230BC7FF47BAF7047614600200B
:10CBB00076E7010000207047C1F30A5340F2FE32CD
:10CBC0009B1A14DDD3F120034FEAE17208DDC9029C
:10CBD00041EA505141F00040D84080185040704721
:10CBE00003F2E13010B1D24382F0004070470020E0
:10CBF0007047010000207047C11768B14840401AD3
:10CC0000B0FA80F29040D21CC907C2F5846241EAB2
:10CC1000025202EBD021400570470100002070470E
:10CC200070B44FF0004591EA030F40F1B7836B40B9
:10CC3000841A71EB030603D2001BB1411219734130
:10CC40004FF4001C1CEB410F34BF7CEB430442E06B
:10CC50000C0DA4EB1356352E4FDC45EAC323DB0A3B
:10CC600045EAC121C912B6F120050DDD63FA05F6CA
:10CC7000EB4086EA0305124218BF45F00105C018D3
:10CC800051F100010CD213E062FA06F5F240554072
:10CC9000F3415A40B340F3405A408018594107D3FA
:10CCA00049085FEA30005FEA350528BF45F0010515
:10CCB00001F58011420875F1004250F1000041EB8E
:10CCC00004514E0016F5001F70BC38BF704700209D
:10CCD000090D090570471CEB410F10D252EA4306BB
:10CCE0000BD0BCEB410F05D80C0DAB43661E342EA8
:10CCF000B6DD02E0AB438018594170BC704770BC90
:10CD00007047010000207047F0B540F2FF7581EADE
:10CD1000030C0CF0004C15EA11541DBF15EA135713
:10CD2000AC42AF42E5E0BC41C1F31301C3F31303CE
:10CD3000801A994143F4801304D2641E4000494193
:10CD400080185941C90241EA5051B1FBF3F603FB87
:10CD50001611A2FB0675D7EBC020A94102D2761EA0
:10CD600080185941C90241EA5051B1FBF3FE03FB5F
:10CD70001E11A2FB0E75D7EBC020A94103D2AEF164
:10CD8000010E80185941890241EA9051760546EA20
:10CD90008E2EB1FBF3F603FB1611A2FB0675D7EB43
:10CDA0008020A94102D2761E80185941C90241EA69
:10CDB00050514EEA060EB1FBF3F603FB1611A2FB2F
:10CDC0000675D7EBC020A94102D2761E80185941C2
:10CDD000C90241EA5051B1FBF3F703FB1711A2FB63
:10CDE0000735D3EBC020A94167F100070CBF004213
:10CDF00047F0010766F3D5274FEA1E31B80814F54E
:10CE0000806412DDBD0775F1004250EB0E5051EB0E
:10CE1000045111F5801F5CBF41EA0C01F0BD4CF0DC
:10CE20007F6141F0E0410020F0BDBD076D0840EAA0
:10CE30000E5041F48011D4F10104B4F120060ADA55
:10CE4000C4F120060200E04001FA06F3E140184375
:10CE5000B24015430EE0342C13DCC6F1200445EA41
:10CE600040056D0820FA06F2154321FA06F0A140AC
:10CE70000D43002175F1004250F1000051EB0C010F
:10CE8000F0BD00205FEA0C01F0BDCFB992185B4104
:10CE9000B3FA83F704BFB2FA82F6BF190B3FB7F1BA
:10CEA00020062FBF02FA06F3BB40C7F1200622FA84
:10CEB00006F638BF3343BA401CB1E419641E33E7A9
:10CEC0007F4231F00041B1FA81F404BFB0FA80F63C
:10CED000A4190B3CB4F120062FBF00FA06F1A140C3
:10CEE000C4F1200620FA06F638BF3143A0403C1BAF
:10CEF0001AE7AC421ABF05EA1357AF4212E050EAF4
:10CF000041061CBF52EA4306BFE750EA41073046DC
:10CF100061461CBF41EA0551F0BD52EA430C08BF0F
:10CF2000C143F0BD00204FF4001616EB410F98BF2F
:10CF300016EB430F08BF16EB410F24BFC14305E0BA
:10CF400016EB430F0CBF61464CEA0551F0BD0100E2
:10CF500000207047400D491840EA81200CD2490D4D
:10CF6000A1F58061491C40F0004005DBD1F11F01B3
:10CF700054BFC840C017704700207047014648B1F1
:10CF8000B0FA80F18840C91CC1F58461090501EB44
:10CF9000D02140057047010000207047B0B581EAFC
:10CFA000030C0CF0004C40F2FF7515EA11541DBF44
:10CFB00015EA1357AC42AF4239E0E41923EA45536E
:10CFC00043F48013C90241F0004141EA505EC702B8
:10CFD0001100A7FB020200284FF00000EEFB012029
:10CFE0004FF00001E3FB072118BF42F00102401897
:10CFF00000214941E3FB0E01A4F580640F0302D236
:10D0000052004041494154F101046CDD470872F17E
:10D01000004250F1000051EB0451A1F580115CBFBA
:10D0200041EA0C01B0BD4CEA05510020B0BD05EA53
:10D030001357AC4214BFAF4241E050EA410E1CBF4F
:10D0400052EA430E02E061460020B0BD24423C4457
:10D050001BD15FEA070EF6D0090302BF014600208C
:10D06000AEF1140EB1FA81F7AEEB070401FA07FE38
:10D070000C37C7F1200100FA07F7C8404EEA000E4E
:10D0800023EA455343F48013A2E733F00043B3FA95
:10D0900083F704BFB2FA82FE77440B3FE41BB7F17B
:10D0A000200E2FBF02FA0EF3BB40C7F1200E22FA6A
:10D0B0000EFE38BF43EA0E03BA40641C82E750EA12
:10D0C000410E14BF52EA430E6FF000014FF40017F7
:10D0D00017EB430F8ABF194617EB410FB5E74CEA30
:10D0E00005510020B0BDD4F10104B4F120070FDADE
:10D0F000C4F12007520828BF42F0010210FA07F5D8
:10D1000001FA07F7E1BF2A43E0403843E1400FE06E
:10D11000352C98DCC7F1200452EA400220FA07F2CD
:10D1200018BF42F0010231FA07F0A1400A43002182
:10D1300072F1004250F1000051EB0C01B0BD010052
:10D1400000207047BBBBE1B1B2F5803F80F07E802C
:10D15000022A1ED98C46B1FBF2F102FB11C31B045B
:10D1600043EA1043B3FBF2FC02FB1C3380B240EAFB
:10D170000343B3FBF2F002FB103240EA0C40002301
:10D180007047022A05D98446B0FBF2F002FB10C2B8
:10D1900070474AB105D100F0010249085FEA30004A
:10D1A000704700220023704700F0B0B90B00020066
:10D1B000002100207047904271EB030CF6D3B3F5C9
:10D1C000803F2FD2F0B5B3FA83F7B1FA81F4A7F11B
:10D1D0000F0E3D1B5340CEF1200602FA0EF2F34132
:10D1E0005340B5F10F0746D80F3C2C444140C4F1E1
:10D1F0002006A040F1414140B1FBF3F603FB1611BC
:10D20000A2FB0645001BA94102D2761E8018594197
:10D2100080EA010221FA0EF362FA0EF200215A406E
:10D220003046F0BD30B4B1FBF3FC03FB1C11A2FB94
:10D230000C45001BA94103D2ACF1010C80185941E7
:10D2400030BC02460B46604600217047B2F1807F39
:10D2500065D3F0B5B2FA82F7B1FA81F4C7F10F06DF
:10D260003D1B22FA06F307F1110EF24120355A4018
:10D27000B5F10F07B8D94140C4F12006A040F141F3
:10D280004140B1FBF3FC03FB1C11A2FB0C45001B4E
:10D29000A94103D2BCF1010C801859410F2F12D3C0
:10D2A0000F3FC90341EA5041B1FBF3F603FB1611EE
:10D2B000A2FB0645D4EBC030A94102D2761E8018ED
:10D2C000594146EACC3C07B34140C7F12006B8407B
:10D2D000F1414140B1FBF3F603FB1611A2FB0645F9
:10D2E000001BA94102D2761E8018594180EA010232
:10D2F00021FA0EF3C7F1200462FA0EF20CFA07F0DD
:10D300005A402CFA04F13043F0BD80EA010221FAC0
:10D310000EF3002162FA0EF260465A40F0BD8C46D0
:10D32000B1FBF2F102FB11C31B0243EA1063B3FB32
:10D33000F2FC02FB1C331B024CEA002043EA1063A0
:10D34000B3FBF2FC02FB1C331B024CEA002043EA55
:10D350001063B3FBF2FC02FB1C331B024CEA0020FF
:10D3600043EA1063B3FBF2FC02FB1C324CEA0020E0
:10D37000002370470FB581B00020C0460549222226
:10D38000425001B00FBD80B50020C046024908449C
:10D3900002BD00006430002064300020841A71EB6C
:10D3A000030604D26E40001BB141121973414FF4C1
:10D3B000001C1CEB410F34BF7CEB430683E00C0DDB
:10D3C000A4EB1356362E00F37C80012E45EAC323CE
:10D3D00041DC43EA525312BFD20292025B08240599
:10D3E00045EAC12141EA5051D2EBC020994125D4F0
:10D3F00007D1B0FA80F610FA06F162D0002020368C
:10D4000008E0B1FA81F6B140C6F1200220FA02F23A
:10D410001143B0404FEAF474B4EB465434F00106C3
:10D420004FEA74040AD8D6F50016760D04F00044CD
:10D43000F04061FA06F25040F1404840C00A40EA2C
:10D44000415021F0004128BF5FEA500550F1000033
:10D4500044EBD12135E0DB0A45EAC121C90AB6F126
:10D4600020050EDD42EA0242120CC5F1200603FA45
:10D4700006F6EB4042EA06056D42984161F1000173
:10D480000DE062FA06F5F240554063FA06FC82EAC6
:10D490000C02F3405A406D42904161EB030111F4DC
:10D4A000801F05D1641E620502D06D0040414941D4
:10D4B00021F48011430875F1004350F1000041EB65
:10D4C000045170BC70471CEB410F15D223F0004390
:10D4D00052EA43060BD04FEA4C0CBCEB410F04D888
:10D4E0000C0D661E342EB7DDEBE7801A994150EA29
:10D4F000410608BF0021E4E708BF1CEB430F28BF2B
:10D500006FF00001DDE70100002070477047010067
:10D5100000207047000000003CDF0408010000000C
:10D52000010000004CDF04080300000002000000BE
:10D530005CDF040803000000030000006CDF040847
:10D5400003000000040000007CDF0408030000006A
:10D55000050000008CDF0408030000000600000046
:10D560009CDF04080300000007000000ACDF040893
:10D570000300000008000000BCDF040803000000F6
:10D5800009000000CCDF0408010000000A000000D0
:10D59000DCDF0408050000000B000000ECDF0408DD
:10D5A000030000000C000000C09B04080C000000F9
:10D5B0000D000000FCDF0408050000000E00000064
:10D5C0000CE00408030000000F0000001CE0040849
:10D5D00003000000100000002CE00408030000001D
:10D5E000110000003CE004080300000012000000ED
:10D5F0004CE0040803000000130000005CE0040895
:10D6000003000000140000006CE0040803000000A8
:10D61000150000007CE00408030000001600000074
:10D620008CE0040803000000170000009CE00408E0
:10D630000300000018000000ACE004080300000034
:10D6400019000000BCE00408030000001A000000FC
:10D65000CCE00408030000001B000000DCE004082C
:10D66000030000001C000000ECE0040803000000C0
:10D670001D000000FCE00408030000001E00000084
:10D680000CE10408030000001F0000001CE1040876
:10D6900003000000200000002CE10408040000004A
:10D6A000210000003CE1040804000000220000000A
:10D6B0004CE1040806000000230000005CE10408BF
:10D6C00008000000240000006CE1040808000000CD
:10D6D00025000000E09B04080D000000260000006B
:10D6E000009C04080A000000270000007CE10408F8
:10D6F00004000000280000008CE104080500000080
:10D70000290000009CE10408050000002A00000038
:10D71000ACE10408060000002B000000BCE1040896
:10D72000080000002C000000CCE104080400000008
:10D730002D000000DCE10408050000002E000000C0
:10D74000ECE10408040000002F000000FCE10408E4
:10D7500005000000300000000CE204080800000092
:10D76000310000001CE20408080000003200000044
:10D770002CE2040808000000330000003CE204082A
:10D7800008000000340000004CE20408080000001B
:10D79000350000005CE204080800000036000000CC
:10D7A0006CE2040808000000370000007CE2040876
:10D7B00008000000380000008CE2040808000000A7
:10D7C000390000009CE20408080000003A00000054
:10D7D000ACE20408040000003B000000BCE20408C6
:10D7E000040000003C000000CCE204080800000037
:10D7F0003D000000DCE20408080000003E000000DC
:10D80000ECE20408080000003F000000FCE204080D
:10D810000800000040000000209C04080F000000E9
:10D8200041000000409C04080A0000004200000083
:10D83000609C04080A00000043000000809C04086B
:10D840000A00000044000000A09C04080B00000037
:10D8500045000000C09C04080A00000046000000CB
:10D86000E09C04080900000047000000009D040837
:10D870000B00000048000000209D04080B00000081
:10D88000490000000CE30408040000004A00000006
:10D890001CE30408080000004B000000409D040841
:10D8A000090000004C0000002CE304080800000000
:10D8B0004D000000609D04080C0000004E000000B8
:10D8C000809D04080B0000004F000000A09D04088C
:10D8D0000B00000050000000C09D04080A0000007A
:10D8E00051000000E09D04080B0000005200000001
:10D8F000009E04080B00000053000000209E040856
:10D900000A00000054000000409E04080A000000C5
:10D9100055000000609E04080B0000005600000047
:10D92000809E04080A00000057000000A09E040822
:10D930000E00000058000000C09E0408090000000E
:10D9400059000000E09E04080A0000005A00000090
:10D95000009F0408090000005B0000003CE304088D
:10D96000050000005C0000004CE304080500000016
:10D970005D0000005CE30408050000005E0000009C
:10D980006CE30408080000005F0000007CE304086A
:10D9900008000000600000008CE30408050000009F
:10D9A00061000000209F04080900000062000000E0
:10D9B000409F040809000000630000009CE3040885
:10D9C0000800000064000000609F040809000000D7
:10D9D00065000000809F0408090000006600000048
:10D9E000ACE304080400000067000000A09F0408E6
:10D9F0000900000068000000BCE304080800000003
:10DA000069000000CCE30408040000006A00000084
:10DA1000DCE30408040000006B000000ECE30408F1
:10DA2000080000006C000000FCE304080400000093
:10DA30006D000000C09F04080C0000006E00000094
:10DA40000CE40408080000006F000000E09F0408D8
:10DA5000090000007000000000A004080900000098
:10DA60007100000020A004080900000072000000FE
:10DA70001CE4040805000000730000002CE4040806
:10DA800008000000740000003CE4040804000000EA
:10DA9000750000004CE40408080000007600000057
:10DAA0005CE40408080000007700000040A00408BF
:10DAB0000A000000780000006CE404080700000081
:10DAC000790000007CE40408080000007A000000EF
:10DAD0008CE40408070000007B0000009CE40408BC
