:020000040800F2
:1080000040520020A5FD0408A18E0408A38E040898
:10801000A58E0408A78E0408A98E0408000000009D
:10802000000000000000000000000000AB8E04080B
:10803000AD8E040800000000AF8E0408B18E040865
:10804000A5150508A9150508AD150508B1150508FC
:10805000B5150508B9150508BD150508C1150508AC
:10806000C5150508C9150508CD150508D11505085C
:10807000D5150508D9150508DD150508E11505080C
:10808000E5150508E9150508ED150508F1150508BC
:10809000F5150508F9150508FD150508011605086B
:1080A00005160508091605080D1605081116050818
:1080B00015160508191605081D16050821160508C8
:1080C00025160508291605082D1605083116050878
:1080D000351605089518040835DB02083916050819
:1080E0003D160508411605084516050849160508F8
:1080F0004D160508511605085516050859160508A8
:108100005D16050861160508651605086916050857
:108110006D16050871160508818E0408F7DA020845
:1081200075160508791605087D16050881160508D7
:1081300085160508891605088D1605089116050887
:1081400095160508991605089D160508A116050837
:10815000A5160508A9160508AD160508B1160508E7
:10816000B5160508B9160508BD160508C116050897
:10817000C5160508C9160508CD160508D116050847
:10818000D5160508D9160508012003F0D1BB30B477
:10819000002513E050F8042BD30744BFA9F10103D5
:1081A0009A18091F042942F8045BFAD213468C0777
:1081B00044BF15809B1CC90748BF1D7050F8041BA5
:1081C0000029E7D130BC704710B50400200028F02A
:1081D0004CFA200010BD10B5040020000C30C04641
:1081E00010BD000000487047CC20002000000000B7
:1081F0000068002801D0012000E00020C0B27047D4
:10820000AAAAAAAABBBBCCCC016F0000B0A801806F
:108210000B6F0000B069040021700000F021040021
:108220005572000008490400AB720000B0AF028034
:10823000FD730000B0AE0580A5750000840D04003C
:10824000C1780000B0AA0180F578000001000000AC
:10825000F7780000404A04002D790000B0B0A880F3
:1082600035790000B0AE0380A7790000B0AB008084
:10827000E5790000B0AA01800B7A0000B0A9008067
:108280005D7A0000A06D0400597B0000008400802E
:10829000D17B0000106504003D7C0000B0AE018081
:1082A000037D0000B0B0AA80477D0000B0A9008027
:1082B0000F7E0000B0AA0180957E0000B0B0A880BB
:1082C000A37E0000B0A9008007800000B0AD008050
:1082D00089800000B0A8018095800000B0AA0580C8
:1082E000C9820000B0A900809D830000084A0400F4
:1082F000BD830000184A0400DD830000284A040002
:10830000FD830000384A04001D840000484A040030
:108310003D840000006E040057840000086E0400D5
:1083200071840000106E0400E9850000B0B0AA80DE
:1083300053860000B0A9008075870000B0B0AC8003
:10834000D7870000B0B0AA805B880000B0B0A880DA
:10835000FF880000B0B0AE80538A0000010000002A
:10836000D98A0000B0B0A880598B0000A85704003B
:10837000858B0000B0B0AA80398D0000B0B0A88015
:10838000038F0000B0AA0180C98F0000385204009A
:10839000B3900000B0B0AA80AF910000B0AF0280EF
:1083A000119200000C57040043950000F0560400A1
:1083B00065970000B0B0AC8035980000386D0400BF
:1083C00029990000406D0400C99A0000B0B0A8804F
:1083D000D59A0000B0AF0C80059D0000B0AC0980BC
:1083E000479E0000B0A90080699E0000B0B0A88040
:1083F000E59E0000B0AB0080E39F0000B0AF0080BE
:108400003DA30000C056040011A50000B0AE0180DD
:1084100027A600000100000053AB0000B0A90080B7
:1084200079AB0000B0AA0180A5AB0000B0A9008024
:10843000ADAF0000B0AE01806FB00000B0AB008007
:10844000D7B00000B0A900800DB20000986B040006
:1084500075B20000B0B0A880AFB20000B0A9008033
:1084600021B30000B0AB0080D5B30000B0AA0180FA
:108470005DB40000B0B0AA80B9B50000B0A8038018
:10848000D7B50000B0B0A880DFB500005867040081
:108490000FB600006067040039B60000E42704004E
:1084A00065B70000B0AA0180C7B700008C6E03005A
:1084B000E9BD0000A0F3030001BF0000486704000D
:1084C00075BF0000C041040089C000000100000029
:1084D0008BC00000101F040003C10000242704000B
:1084E00007C20000B0AC0580D5C20000E4BD0300A7
:1084F00079C300008C9403003BC70000B0A9008042
:1085000059C700000084008067C70000B0AB00803E
:10851000C9C7000010690400E3C70000B0AB0080C9
:1085200013C80000B0AA05804DC800000869040007
:1085300077C80000B0A9068031C900007CB40300F0
:10854000EDC9000000840080EDC9000074F603004E
:10855000B1CA00003002040055CB000038630400AB
:108560006FCB0000BC26040041CC0000F4090400DD
:108570000BCD00001C0A0400E1CE0000B0B0A880C2
:1085800005CF0000B0A8018031CF0000584504009D
:1085900087CF0000B0A8018091CF0000B0A904806F
:1085A000D1CF00005845040017D00000B0B0A8801B
:1085B0001DD000006045040061D0000020F70300DA
:1085C0003DD100000100000029D20000086604002F
:1085D00075D20000A0610400C7D20000B0B0A8802E
:1085E000CBD2000000BE0300D5D30000B0A80180AC
:1085F000DFD30000C069040065D40000B0AA018088
:1086000089D40000B0B0A880ADD40000B0A801802B
:10861000B5D40000B0B0AA8029D50000604604009F
:10862000A5D50000B0B0A880D1D50000B0A90080C9
:10863000E5D50000A045040049D60000B0B0A880F0
:108640008DD60000B0AB028033D70000B0B0AA8056
:10865000E3D70000B0AE018099D80000B0B0A88088
:10866000B3D80000B0AC038053DA0000B0AB008098
:10867000EDDA0000B0B0A880F9DA0000F869040073
:1086800067DB0000B0A9008085DB00001044040017
:1086900045DC0000D060040041DD0000B0A801808E
:1086A000CFDF0000B0AD068017E00000B0AC07805F
:1086B0008BE0000038450400DFE00000B0AE0B8026
:1086C00059E1000040450400D9E100003861040090
:1086D000E9E10000B0AA0580F1E20000B0A9008045
:1086E00045E30000B0AA0180F5E40000B0A90280D3
:1086F0003FE50000B0A801804BE50000486704009A
:108700006DE50000506704008FE500005867040025
:10871000BFE5000080620400E3E50000E4530400CC
:1087200001E60000B0AA058085E60000B0A803803D
:10873000B7E60000B0B0A880BFE60000886504007E
:10874000F5E60000906504001FE70000D425040052
:1087500035E9000020440400E1E90000E4250400BC
:108760009FEA0000FC2504005DEB00007865040032
:10877000E3EB0000B0AA018043EC0000C0AF0300AF
:1087800027EE0000FC250400B7EE00006865040039
:108790002BEF0000603F0400E1EF0000B0B0A880C4
:1087A000E9EF00006CBF0300D1F00000B0B0A8807A
:1087B000DFF000000065040057F1000044250400CC
:1087C000F9F10000B0B0A88001F2000038650400A3
:1087D00079F200003C810300FDF60000B0B0A880F3
:1087E0002DF700006043040021F800000800040099
:1087F00001F9000010F003005DFA0000B0B0A8809D
:1088000087FA000010660400FDFA0000580004001A
:10881000DDFB000070F203001DFD0000B0A8038026
:1088200027FD0000B0B0A8805BFD0000E8630400F5
:108830008DFD0000F0630400B7FD00006424040017
:10884000E3FE0000B0AA018045FF00006875030048
:108850000504010050F003001D050100D863040069
:10886000910501003C3E040089060100B0B0A880DB
:108870009106010034BE030083070100B0B0A88058
:1088800091070100D8420400550801001864040053
:10889000990801005C07040041090100B0A80380A9
:1088A00073090100A0BF0300010A0100B0B0A88055
:1088B000090A010090640400330A0100986404006E
:1088C000530A0100C8420400410B010098640400EF
:1088D000810B0100A0640400F70B0100B0AA018025
:1088E000570C0100CCA90300A10E010098640400FC
:1088F000A10F0100B0A80380BF0F0100B0B0A88095
:10890000C70F010070630400F70F010078630400D3
:1089100021100100CC2304004D110100B0AA0180F8
:10892000AF11010040AD03009513010018F00300E2
:10893000AD14010060630400211501009C3D04009A
:10894000B1150100B0A80380CF150100B0B0A88018
:10895000D715010090640400071601009864040014
:10896000311601003C2404005D170100B0AA01800B
:10897000BF170100E07D0300D11B0100B8F0030028
:10898000E91C010080640400651D0100D83D04005D
:108990001D1E0100B0A803803B1E0100B0B0A880DE
:1089A000431E010070630400731E0100786304001D
:1089B0009D1E0100801A0400D71F0100B0AA01808B
:1089C00039200100CCA40300BD220100C8EF030040
:1089D000D52301006063040049240100343D0400F4
:1089E0000D250100B0B0A88015250100B0A90080B8
:1089F0003D250100B0B0A8804B250100A84104002E
:108A00000F260100D063040053260100B04104008A
:108A10009726010018FE0300AF2701005CBD03008C
:108A2000E1280100243D040051290100B0B0A880D4
:108A30007B290100281A0400F12A0100B0AA018054
:108A4000532B01003C9F03006B2E010098EF0300A5
:108A5000832F010070630400F72F0100D03C040055
:108A6000A5300100B0A80380C3300100B0B0A880D9
:108A7000CB300100D0610400FB300100D86104005C
:108A8000253101003C2204004F320100B0AA0180D0
:108A9000B13201007CC603008933010058EE0300A7
:108AA000A1340100C061040015350100103C040030
:108AB00085350100D0190400FF35010058AD0300D1
:108AC00021380100B0A9008059380100B0AA058002
:108AD000FF380100B0AA018097390100085E040048
:108AE000B9390100105E0400DB390100185E040092
:108AF000FD390100205E04001F3A0100B0A801808A
:108B00004D3A0100010000004F3A0100008400804E
:108B10004F3A0100B0AA0580953A0100B0A9008043
:108B2000BD3A0100A83F0400533B010090FC030044
:108B3000133D0100B0AA0180353F01000100000093
:108B40004B3F0100B0B0A8805F3F0100B0B0AA80E9
:108B5000673F0100B0B0A880933F0100B0A900803A
:108B600005400100B0B0A880A1410100B0AB0A806F
:108B7000CB410100B0AB0680ED410100B0AA0580F9
:108B8000A7430100B0AB008053440100B0AA0180AC
:108B900065440100B0B0AC806B450100B0AA018013
:108BA000B9450100B0AB0080CB460100B0A9008000
:108BB00047470100B0B0A88087470100B0B0AC8043
:108BC0009F480100B0B0AA8063490100B0B0AE80F8
:108BD000A74A0100B0AB00802D4D0100B0B0A880C5
:108BE0003D4D0100B0B0AA80CF4D0100B0B0AE80C5
:108BF0003D4E0100B0AA0180374F0100B0AC0180AA
:108C000025510100B0B0AA804551010090F1030048
:108C10007F510100B0B0A8809751010030FB0300E4
:108C20007D520100B002A980A5520100B0AD0080C4
:108C300041530100503E04006D540100B0A9008072
:108C4000C1540100703E040041550100385C04002D
:108C5000CB550100AC210400B7560100B0A801803B
:108C6000C1560100B8F00300E15701004864040058
:108C7000035801005064040069580100604004007A
:108C80000959010002A802805D590100B0B0A88016
:108C90007D590100B0A9008083590100B0B0A880BF
:108CA000D9590100B0AB02807F5A0100B0B0AA8050
:108CB0002F5B0100B0AE0180E55B0100B0B0A88081
:108CC000FF5B0100B0AB0280BF5C0100B0AB008075
:108CD000595D0100B0B0A880695D0100883F0400C3
:108CE000F55D010001000000F95D0100C85E0400AF
:108CF000415E01004C1F04006F5F0100641F04000F
:108D00004D600100F05D0300F362010008580400AB
:108D10005F630100B0AF0880596501000858040086
:108D20003D6601008C720300F56701006863040072
:108D300061680100B0AF0880DD690100686304006C
:108D4000A96A0100D83E04000B6B0100E83E040054
:108D5000A16B010040600400C36B01004860040087
:108D6000E56B010050600400B16C010001000000DF
:108D7000B96C0100C0620400056D0100B0B0A880AC
:108D8000196D0100C0620400556D0100203F040010
:108D9000F96D0100B0AC0180576E01002420040081
:108DA0005F6F01003C20040039700100B0AB00800F
:108DB0005D700100B0A90080A1700100B0B0AA8070
:108DC000FD700100B0B0A88051710100B0B0AC805E
:108DD000AB720100B0B0AE80AB730100B0AA0180ED
:108DE000BD730100B0B0A880DB730100B0A80180A2
:108DF0000D740100B0AA01806D740100B0AA058055
:108E0000ED740100B0A9008031750100B0A80180A7
:108E100053750100B0AA018069750100B0AA0580F0
:108E2000C3760100B0B0A8801D790100B0B0AC805D
:108E3000717B010090600400917B01009860040048
:108E4000B17B0100A0600400D17B0100A860040098
:108E5000F17B0100B0600400117C0100B8600400E7
:108E6000317C01007CAE0300997C0100B0AB068030
:108E7000397D0100B0600400A97D0100B0AA058021
:108E8000F17D0100B0600400017E0100B0B0AE8051
:108E9000E97E0100B0AB04808D7F0100B0AB0080A3
:108EA00023800100B0B0AA809D800100B0B0AC80EA
:108EB0003B810100B0B0AA8043840100AC480400AB
:108EC000A5840100CC4804007F880100B04804005C
:108ED000E1880100D0480400238C01007848040098
:108EE0005F8C0100B0B0AA8011910100B0AB00808E
:108EF000EF910100B0AF0280519201003C4B0400A1
:108F000029980100B0AA0180C1980100B0B0AA80E0
:108F10001B990100B05704004B990100B0B0A88024
:108F20005199010010580400C39901000084008089
:108F3000D59A0100B0A90A801B9B0100B0AA01804C
:108F40007B9B0100B0AB0080AD9B0100B0AB028009
:108F5000D59B0100B0B0AC80EF9C010078610400AB
:108F6000199D0100B0A900805B9D0100804B0400A9
:108F7000679F0100B0B0AA808B9F0100C855040014
:108F800015A101006056040025A10100B0AF0280C8
:108F9000FDA201007C4A04002FA30100E437040075
:108FA00093A30100F837040019A401000C38040051
:108FB00063A40100005F0400CDA40100B0AB0080F9
:108FC000C7A60100604A0400B5A9010028480400B2
:108FD000F5A90100B0B0AA8003AA0100B0B0A88032
:108FE000B9AA0100B0B0AE80FBAA0100B0A9008010
:108FF00013AB0100B0B0A88029AB0100B0AA01807A
:10900000B3AB0100B0B0AE8075AE0100884804007B
:1090100001B101006C48040031B40100B0B0AA8075
:1090200049B50100010000004DB5010028600400B1
:1090300097B50100B0B0A880ABB50100286004006E
:10904000E7B50100B0AC018021B60100B0AB0280F1
:1090500041B60100B0A90080ABB60100B0B0AA8053
:1090600007B70100B0B0A88061B7010002A8028074
:109070007FB70100B0AB02801BB80100B0AC01802B
:109080007DB8010002A80280FDB8010001000000C7
:1090900001B90100305F040033B90100385F0400FA
:1090A0006DB90100B0AB00808DB90100B0AAD080CD
:1090B000B9B90100B0A90080FDB90100B0B0AA8023
:1090C00059BA0100B0B0A88035BB010002A80280E7
:1090D0008BBB0100B0AB0280ABBB0100B0A900802C
:1090E000F9BB0100B0B0AA80FBBC0100785E0400AF
:1090F00045BD0100B0AA0180A5BD0100B002A98054
:10910000D1BD0100B0A8098001BE0100B0A9068050
:109110002DBE0100B03B0400B3BE0100B0A9008029
:10912000C5BE0100E446040027BF01007C470400DF
:109130002FC201003847040091C20100A847040073
:1091400099C5010000470400FBC5010084470400E5
:109150003FC90100B0AF02803BCB0100B0B0AE8090
:109160009BCC0100B0A9008025CD0100B0B0A88043
:1091700089CD0100B0B0AE8049CE0100B0B0AA8068
:10918000DBCE0100B0AB008083CF0100B0AE018028
:10919000D1CF0100B0AF00802BD301001C460400EA
:1091A00053D50100B0AB0080FBD50100B0AE01800B
:1091B00049D60100B0AF0080A3D9010010460400D9
:1091C00071DB0100B0AA0180BDDB0100B0B0AA8054
:1091D00031DD0100B0B0A88073DD0100404604001D
:1091E000BBDD0100D846040029E10100B0AB0080DE
:1091F00027E20100B0AF008081E501005048040083
:1092000001EB0100B0B0AA80C9EB0100B0B0A880AA
:10921000CDEB0100B0B0AA80F7EB010024450400BB
:10922000D1ED0100B0B0A88013EE0100B0B0AA806B
:1092300079EE0100183A0400E1EE0100B0B0AC8014
:1092400019EF0100B0B0AA807FF10100B0B0AC808E
:10925000D3F10100B0B0AA8017F20100B0A90080DC
:109260001FF20100B0AB0080CDF20100B0A8018078
:10927000FFF20100B0AB008015F30100B0B0AA808E
:10928000B3F3010001000000C9F30100B0B0A880F1
:10929000CDF30100B0B0AA80CBFA0100B0AE0180DE
:1092A000EBFB0100B0AB008001FC0100B0B0A88076
:1092B00005FC0100B0B0AA8083FE0100F046040066
:1092C000E5FE010010470400ED010200B0AB008094
:1092D0002F020200B0B0AA804B020200A846040090
:1092E00045030200B4460400A7030200D44604006C
:1092F000D3070200B0B0A880D7070200B0B0AC809E
:109300008F090200B0B0A88093090200B0B0AC8011
:109310003F0C0200B0B0AE80510D020002A80280E6
:10932000690D020060540400B30D0200B0B0A880C3
:10933000C70D0200605404001F0E0200B0B0A880E8
:10934000290E0200B0AB0480770E0200B0B0AA80F4
:10935000D30E0200B0B0A880F90E0200B0A90080C0
:1093600001100200B0B0A88005100200B0B0AA80C1
:10937000E9100200644704004F110200B0AB008006
:10938000EB110200B0AE018039120200B0AF0080D4
:1093900085150200644504003B170200B0AB008055
:1093A000D7170200B0AE018025180200B0AF0080D0
:1093B000631B020080450400191D0200B0AB008051
:1093C000A91D0200B0AE0180F71D0200B0AF008001
:1093D000432102004C4504000B230200B0AF028081
:1093E00061260200B0A90080E1260200B0AA018037
:1093F0001B270200B0A90080412702001857040073
:1094000069270200305504009D270200B0A90080A2
:10941000CB270200B0AE0180A92B0200B0A90080CA
:10942000D72B0200B0AE0180BF2F0200B0A9008090
:10943000E12F0200B0B0AA806D300200B0AA018016
:10944000C1300200B0AB008069310200B0B0AA8028
:1094500097310200B0AF0080EF340200B044040046
:10946000B1360200B0A9008083410200B0B0AA80EA
:10947000B1410200B0AB0080A5420200B0A801805B
:1094800001430200B0AB008039430200B0B0AA80B3
:10949000F1440200B0AA01801F450200B0A90A8071
:1094A00073470200B0AA01800B480200A0310400FB
:1094B0003D4B0200B0A900805B4B0200B0B0AA8017
:1094C000714B0200B0AC0180C94B0200B0B0AA8061
:1094D000D74B0200B0AB0080BB500200B0AE0180A1
:1094E000C9510200B0AC0180FD510200B0AA018058
:1094F0001D520200B0B0A8801B530200B0AB008028
:10950000B7530200B0AE018005540200B0AF008036
:1095100051570200E844040007590200010000000E
:109520009B590200B0B0AC805B5A0200B0B0A8807A
:109530005F5A0200B0AB00807B5B0200B0AE0180DE
:10954000C95B0200B0AF0080235F02009C440400AE
:1095500089610200B0AA0180A961020000440400F0
:1095600039630200B0AA018059630200DC430400A1
:10957000A3660200B0A9008001680200B0B0AA8012
:109580002F680200B0AB0080F96A0200B0A9008029
:10959000276B0200B0AE01806D6E0200B0A90080A2
:1095A0009B6E0200B0AE0180C1710200B0A90080C4
:1095B000EF710200B0AE018097750200B0AB008081
:1095C00049760200B0A90080DB7602000852040050
:1095D000D1770200B0A90080F5770200185204008C
:1095E000EB780200B0A900800F790200F851040066
:1095F000AF790200B0A90080397A0200B0B0AA8029
:109600005F7D0200B0A90080877F0200B0B0A88013
:10961000BD7F0200C840040005800200D440040061
:1096200045830200B0B0AA8087830200B0AC0180FD
:10963000DD830200B0A900804D840200E8500400E0
:109640006F8A0200B0B0AA809B8B0200B0B0AE80DF
:10965000338C0200B0A90280578C0200B0B0A88001
:109660005B8C0200743F0400AF8C0200803F04005A
:10967000A39102000058040027920200B0A90280C2
:109680006F920200B0A900807D920200B0AA018012
:1096900041930200B0A900806F930200B0AE018038
:1096A000B5960200B0AB008041970200084004006C
:1096B00039980200B0AA018059980200B0AC01802C
:1096C000BD980200B0A90080EB980200B0AE018006
:1096D000159D0200B0A900807D9E020001000000DF
:1096E00077AB0200B0A900805DAD0200B0B0A880E9
:1096F00093AD02006C430400DBAD0200784304002C
:1097000093B10200B0AC0180C5B10200B0A90080E5
:10971000E9B1020010520400ADB20200B0A900800D
:10972000D1B202006052040053B30200B0A900801D
:1097300077B3020030520400C1B40200B0A9008027
:109740003DB50200B0AB0080E1B50200B0AA0180D7
:1097500035B60200B0AB008081B60200B0AA01802D
:10976000D5B60200B0AB00801FB70200B0B0A88031
:1097700067B70200B0A9008099B80200C851040080
:1097800035B90200B0AB0080D1BA0200B0AA0180A6
:10979000FDBA0200B0AB0080A5BB0200B0B0AA8049
:1097A000D3BB0200B0AF00802BBF0200583F0400C3
:1097B000FFC00200B0A90080A3C10200B0A90280CE
:1097C000D5C10200B0A900801FC20200B0B0AA80BB
:1097D0006BC20200942E04008FC702009441040063
:1097E000CDC70200B0AA0180EDC70200B0AB008077
:1097F000A1C80200B0B0AA80CFC80200B0AF0080FC
:1098000037CC0200FC3D040031D00200B0AA018038
:1098100055D00200CC3F040099D00200B0A90080CE
:10982000C3D10200E0520400ABD20200B0A9008014
:109830003BD40200C0520400B7D40200B0A900809B
:1098400027D50200144004008DD50200B0A9008085
:10985000FDD50200DC3F040045D60200B0AB00801D
:1098600039D90200B0AA018065D90200B0AB0080EE
:109870000DDA0200B0B0AA803BDA0200B0AF00807F
:1098800093DD02000442040001E00200B0AB00805E
:109890004DE00200B0AA0180A1E00200B0AB008060
:1098A000EDE00200B0AA018041E10200B0AB00800F
:1098B0008DE10200B0AA018057E20200084F0400C7
:1098C0009DE20200F04E04001FE30200B0AB0080F6
:1098D00065E30200D04F0400F1E40200B0A900806B
:1098E00035E50200B0B0AA8075E80200B0A90A8090
:1098F000ABE80200383E0400E1E80200B0AB0080B3
:1099000063E90200B0B0AA8051EA0200B0A9008069
:10991000A1EA0200B0B0AA8073F00200B0A90080F2
:10992000E5F00200B0AB008031F10200B0AA018086
:10993000A5F10200303D040041F80200B0A900800A
:10994000C9F80200B0AB008015F90200B0AA01808E
:109950005BF90200B0B0AA8011FB0200B0A9008040
:1099600055FB0200B0B0AA80ADFE0200684F0400B3
:10997000F5FE0200504F04003DFF0200B0B0AA8087
:1099800081FF0200B0A80180E1000300B0A90080BF
:109990007D010300204D040027020300B0B0AA801F
:1099A0009D020300B0A9008039030300884B040026
:1099B0006B05030030510400DD050300B0B0AA8040
:1099C000F3070300B0A900808F0803008855040046
:1099D00029090300B0A8018083090300B0B0A88062
:1099E0005D0A0300B0AB0080A70A0300B84C040076
:1099F000F90A0300B0B0AA80610B0300B0AB00808D
:109A0000AB0B0300B0A90080130C03001851040035
:109A10004D0C0300B0B0AA806F0C0300584F040037
:109A2000970C0300304F0400410E0300B0AB0080E0
:109A30008B0E030010550400CF0E0300B0B0A880B9
:109A4000DF0E0300B0B0AA80F90E0300B0A90080B9
:109A5000670F0300804C0400A10F0300484B040073
:109A600025100300604B04004D100300484E040015
:109A700063100300B0A900803D110300F8540400F6
:109A800075110300B0B0AA8099110300B0B0A8808E
:109A90003B120300B0B0AA809D120300B82F04004F
:109AA0003F130300B0A900804D130300B0B0AA809B
:109AB000B1130300B0AA0180FD130300B0B0AA8067
:109AC000B9140300B0A900808B150300B0B0A880C2
:109AD000DF150300B0A900804F160300010000004D
:109AE000431D0300B0AB0080ED4F0300B0A8018020
:109AF000C55A030001000000215B0300B0B0A8803C
:109B0000375B0300B0B0AA80335C0300084C04004C
:109B1000855E0300010000009D600300B0A9008085
:109B2000D3600300008400809D6F0300B0AC05800B
:109B3000FB6F030094B6030043710300B0AA0180D9
:109B400065710300282F0400C1710300B0B0AC8020
:109B5000FD720300B0AA0180F1730300B0B0AA80C7
:109B600061740300B0AB0080B9740300B0B0A8808A
:109B70007F750300DC3A040041760300B0B0AA8090
:109B80002B770300083B040083770300B0AB008011
:109B900099770300204A0400FD770300B0A90080F4
:109BA0005F780300B0AC0180A9780300B0A9008001
:109BB000D5780300B0AA038005790300B0AB00801C
:109BC0003B790300643A04006D790300B0B0AA80C9
:109BD00099790300C0490400F77B030001000000ED
:109BE000A5800300D0DB03005B810300084A04006A
:109BF00009820300008400801F830300B0A9008055
:109C00006D830300B0AA0180A1830300D40F040078
:109C1000EF830300283A0400ED840300B0A900801C
:109C20008D850300B0B0A880F5850300B0AB00803F
:109C30008B8603006C3A0400BB860300B0AC018045
:109C4000FF860300B0B0AC80DF870300B0A90280BC
:109C5000F9870300743A040053890300B8390400FB
:109C60007D890300B0A90080858903000100000000
:109C70003F8A0300043A0400878A0300B0AB0080E7
:109C8000F38A0300B0B0AA802F8B03004849040078
:109C9000578B0300F0480400458E030001000000CC
:109CA0004D9C03003CAB03000D9E0300010000002F
:109CB000FB9E0300643A0400859F0300B0B0A880B7
:109CC00041A10300010000009DA10300B0AB008092
:109CD00089A2030001000000E5A20300B0AB0080F0
:109CE000D1A30300010000002DA40300B0AB00804D
:109CF00019A503000100000075A50300B0AB0080AA
:109D0000A9AB03000100000069AC0300580904007E
:109D100065B50300B0AC0180BDB50300B0A90080FB
:109D200037B60300B0AB0080EDB60300B0AC0180E5
:109D300045B70300B0A90080BFB70300B0AB0080F7
:109D400071B80300B0AC0180C9B80300B0A90080AD
:109D500043B90300B0AB0080F5B90300B0AC01809B
:109D60004DBA0300B0A90080C7BA0300B0AB0080B1
:109D70007DBB0300B0AC0180D5BB0300B0A900805F
:109D80004FBC0300B0AB008005BD0300B0AC018048
:109D90005DBD0300B0A90080D7BD0300B0AB00805B
:109DA0008DBE0300B0AC0180E5BE0300B0A9008009
:109DB0005FBF0300B0AB008015C00300B0AC0180F2
:109DC0006DC00300B0A90080E7C00300B0AB008005
:109DD0009DC10300B0AC0180F5C10300B0A90080B3
:109DE0006FC20300B0AB008025C30300B0AC01809C
:109DF0007DC30300B0A90080F7C30300B0AB0080AF
:109E0000ADC40300B0AC018005C50300B0A900805B
:109E10007FC50300B0AB008035C60300B0AC018045
:109E20008DC60300B0A9008007C70300B0AB008057
:109E3000BDC70300B0AC018015C80300B0A9008005
:109E40008FC80300B0AB008045C90300B0AC0180EF
:109E50009DC90300B0A9008017CA0300B0AB008001
:109E6000CDCA0300B0AC018025CB0300B0A90080AF
:109E70009FCB0300B0AB008055CC0300B0AC018099
:109E8000ADCC0300B0A9008027CD0300B0AB0080AB
:109E9000DDCD0300B0AC018035CE0300B0A9008059
:109EA000AFCE0300B0AB008065CF0300B0AC018043
:109EB000BDCF0300B0A9008037D00300B0AB008055
:109EC000E9D00300B0AC018041D10300B0A900800B
:109ED000BBD10300B0AB00806DD20300B0AC0180F9
:109EE000C5D20300B0A900803FD30300B0AB00800F
:109EF000F1D30300B0AC018049D40300B0A90080C5
:109F0000C3D40300B0AB008075D50300B0AC0180B2
:109F1000CDD50300B0A9008047D60300B0AB0080C8
:109F2000F9D60300B0AC018051D70300B0A900807E
:109F3000CBD70300B0AB008025DE0300B0B0AA8011
:109F4000D3E70300EC260400A5ED0300B0AD0080CC
:109F5000DBED0300B0B0AC805FEE0300B0AD00807D
:109F600095EE0300B0B0AC806DEF0300B0B0A880F8
:109F7000E1F00300B0B0AC8009F10300B0AD0080A7
:109F800031F10300B0B0AC80B1F10300B0AD00809E
:109F9000D9F10300B0B0AC8019030400B0AB02806B
:109FA0001904040030280400050504005846040084
:109FB00025050400604604004505040088470400A8
:109FC00065050400E049040085050400684B0400B1
:109FD000311E0400B0B0AA80491E0400B0AB00805E
:109FE0006D1E0400B0B0AA809D1E0400B0AB0080BE
:109FF000C11E0400B0B0AA800F1F0400B0AB0080E7
:10A00000331F0400B0B0AA80811F0400B0AB0080F1
:10A01000A51F0400B0B0AA80F31F0400B0AB0080FD
:10A0200017200400B0B0AA8065200400B0AB008007
:10A0300089200400B0B0AA80D7200400B0AB008013
:10A04000FB200400B0B0AA8049210400B0AB00801E
:10A050006D210400B0B0AA80BB210400B0AB008029
:10A06000DF210400B0B0AA802D220400B0AB008034
:10A0700051220400B0B0AA8081220400B0AB00805D
:10A08000A5220400B0B0AA80D5220400B0AB0080A5
:10A09000F9220400B0B0AA8029230400B0AB0080EC
:10A0A0004D230400B0B0AA807D230400B0AB008033
:10A0B000A1230400B0B0AA80D1230400B0AB00807B
:10A0C000F5230400B0B0AA804524040068450400CC
:10A0D0009724040040470400192704008845040021
:10A0E0002D27040090450400792704003849040016
:10A0F0008D27040040490400752C040058440400D6
:10A10000852C040060440400952C0400684404007D
:10A11000A52C040030450400B52C0400384504008B
:10A12000C52C040060450400D52C040068450400DB
:10A13000E52C0400B0450400F52C0400B8450400EB
:10A14000052D0400C0450400152D0400D846040068
:10A15000252D0400E0460400352D0400E8460400E7
:10A16000452D0400F0460400552D0400F846040077
:10A17000652D040000470400752D040048480400C4
:10A18000852D040050480400952D04005848040013
:10A19000A52D040060480400B52D040068480400A3
:10A1A000C52D040070480400D52D04009848040013
:10A1B000E52D0400A0480400F52D0400A848040083
:10A1C000052E0400B0480400152E0400B848040011
:10A1D000252E0400C0480400352E0400C8480400A1
:10A1E000452E0400D0480400552E0400D848040031
:10A1F000652E0400E0480400752E04005849040050
:10A20000852E040060490400952E0400684904006E
:10A21000A52E040070490400B52E040078490400FE
:10A22000C52E040080490400D52E0400584C0400BB
:10A23000E52E0400604C0400F52E0400684C040078
:10A24000052F0400404D0400152F0400484D040064
:10A25000252F0400504D0400352F0400984D0400B4
:10A26000452F0400A04D0400552F0400A84D040004
:10A27000652F0400D04E04002D320400A8430400D2
:10A2800051320400D04404005F3204002847040027
:10A290006D320400B0480400A7320400E84D040009
:10A2A000B5320400404E040000F5E07002689142AF
:10A2B00003D343681A44914202D380680028F5D141
:10A2C00070471849086880B94FF4805048604FF4CF
:10A2D00080324FF0FF30C86008610420124B8A6062
:10A2E0004861C3F8BC01114808600120704701F1C2
:10A2F000080313F0070F0EBF0023C3F1080303F098
:10A3000007031944D21A8161C26042F001034B6015
:10A31000091D4FF0280C41F802C0024A1369C361BD
:10A3200070470000602F0020CC2400206859883C32
:10A330002DE9F84F84B00646AFF30080F52E1E4D90
:10A3400080F013820B2E31BF10260B36F608F60074
:10A350002868F408E04010F0030F4AD0C04300F032
:10A360000100041905F1280000EBC408E700D8F843
:10A3700008607068C008C000B84218BFFDF704FF4D
:10A38000D6F80890464508BFFDF7FEFE4E4508BFCB
:10A39000FDF7FAFE7068C008C000B84218BFFDF7AC
:10A3A000F3FEC8450AD12868012101FA04F420EA25
:10A3B00004042C6010E000BFCC24002028698145F3
:10A3C00008D3D9F80C10B14204D1C8F80890C9F8E4
:10A3D0000C8001E0FDF7D8FE47F00300311D7060EE
:10A3E000301DCA5942F00102C25106F1080800F0BE
:10A3F0001DBFA968B14280F0A883002800F0A280A8
:10A400004FF0010808FA04F1490000FA04F4484248
:10A4100001430C4060420440641E200B00F0100019
:10A42000C440610901F00801CC40A20802F0040216
:10A43000D440630803F002030818DC401018C4F38A
:10A44000400718183818FC40241805F1280000EBC4
:10A45000C40AE700DAF80890D9F80400C008C00080
:10A46000B84218BFFDF790FED9F808B0D14508BF33
:10A47000FDF78AFED94508BFFDF786FED9F804002E
:10A48000C008C000B84218BFFDF77EFEDA4506D10D
:10A49000286808FA04F420EA04042C600DE0296915
:10A4A0008B4508D3DBF80C00484504D1CAF808B046
:10A4B000CBF80CA001E0FDF767FEBF1B46F00300E0
:10A4C00009F10402C9F8040047F00101915109EBB8
:10A4D00006020192D751AC684FEAD40ABAF11F0FB5
:10A4E00088BFFDF751FE34B3CDF800A005F1280078
:10A4F0006E6900EBCA0AD346102C38BFFDF744FE44
:10A500002968009821FA00F2D30704D408FA00F071
:10A510000843286007E0DAF80800296988422CBF60
:10A520008346FDF731FECAF80860CBF80C60C6F828
:10A5300008B0C6F80CA0AF6009F10808019868617E
:10A5400000F074BE6868002800F020834142084093
:10A55000401E010B01F01001C840420902F0080240
:10A56000D040830803F00403D840440804F00204F8
:10A570005118E0405918C0F34007611805F5987864
:10A580007918F840401858F820104868C008C000F2
:10A590008A46A0EB060B08E001464868C008C000E8
:10A5A000801B58453CBF83468A4608690028F3D182
:10A5B00049690029F1D128698245C0F0D380DAF8D1
:10A5C0000410C90806EB0B09C900494518BFFDF77F
:10A5D000DBFD0AEB06008245019080F0C380DAF8CB
:10A5E0000C40DAF8187054450DD0DAF808002969E3
:10A5F000884223D3C268524504BFA16851451DD18A
:10A60000C460A0601CE00AF114010C6834B90AF1BE
:10A6100010010C68A4B101E011460C6804F11402A9
:10A620001068002802BF04F1100210680028F3D15E
:10A630002869814202D300220A6001E0FDF7A4FDEF
:10A64000002F38D0DAF81C0008EB80010A68924528
:10A650000AD11CBB6A68012303FA00F022EA000059
:10A6600068600020086026E029698F4213D33869AA
:10A67000504514BF7C613C61ECB129698C4218D310
:10A68000A761DAF8100058B1884226BF20618461C2
:10A69000FDF77AFD04E0FDF777FDEDE70C60ECE7F0
:10A6A000DAF8140038B12969884202D36061846104
:10A6B00001E0FDF769FDBBF1100F0ED249F0030078
:10A6C0000AF10401CAF804000AF1040051F8092053
:10A6D00042F0010240F809203EE046F003010AF191
:10A6E0000402CAF804104BF001009051019941F89E
:10A6F0000BB0A8680090C4081F2C88BFFDF744FD6C
:10A70000009828B305F1280000996F6900EBC40890
:10A71000C146102938BFFDF737FD286820FA04F13B
:10A72000CA0705D4012101FA04F404432C6007E0B0
:10A73000D8F80800296988422CBF8146FDF724FD1E
:10A74000C8F80870C9F80C70C7F80890C7F80C80F2
:10A75000C5F808B0019868611AF1080800F0F581A1
:10A7600000F064BDFDF710FDEFE116F1400F28BFCA
:10A770004FF0FF3680F0E9810B36F6086B68F60083
:10A78000002B00F0E2810027300AC6F1000908BF63
:10A79000002423D0B0F5803F28BF1F241ED2A0F58F
:10A7A0008071090C01F008018840A0F58052120C5C
:10A7B00002F004029040A0F58044240CC1F10E0187
:10A7C00004F00204891A091BA04001EBD031C81D16
:10A7D00026FA00F404F0010404EB410405F598782E
:10A7E00058F8240030B31F2C0FBFB4464FEA540C66
:10A7F000CCF1190C06FA0CFCBE46494601E04FEAC2
:10A800004C0C4268D208D200921B8A4202D211003C
:10A8100007460CD0426910304FEADC7950F8290025
:10A82000002A1CBF824296460028E8D1704689461D
:10A83000A8BBB7BB012101FA04F4640060420443E1
:10A84000234000F08281584203405B1E180B00F049
:10A850001000C340590901F00801CB409A0802F0EA
:10A860000402D3405C0804F002040818E340101806
:10A87000C3F3400C2018604423FA0CF31B1858F85B
:10A8800023000CE008464168C908C900891B4945F6
:10A890003CBF8946074601690029F3D14069002879
:10A8A000F1D1002F00F05181A868801B814580F014
:10A8B0004C8129698F42FFF455AF7868C008C00009
:10A8C00006EB0901884218BFFDF75EFC07EB060B9B
:10A8D0005F45BFF447AFFC68D7F818A0BC420CD066
:10A8E000B8682969884223D3C268BA4204BFA16804
:10A8F000B9421DD1C460A0601CE007F114010C68CE
:10A9000034B907F110010C68A4B101E011460C68DC
:10A9100004F114021068002802BF04F1100210684C
:10A920000028F3D12869814202D300220A6001E0A5
:10A93000FDF72AFCBAF1000F39D0F86908EB800165
:10A940000A6897420AD134BB6A68012303FA00F00F
:10A9500022EA000068600020086028E029698A4532
:10A9600016D3DAF81000B84214BFCAF81440CAF877
:10A970001040E4B129698C4217D3C4F818A0386993
:10A9800058B1884226BF20618461FDF7FDFB04E0D9
:10A99000FDF7FAFBEDE70C60ECE7786938B129695F
:10A9A000884202D36061846101E0FDF7EDFBB9F1FB
:10A9B000100F0CD2B14449F00300391D7860381DE6
:10A9C00051F8092042F0010240F80920B9E046F0B0
:10A9D00003013A1D796049F0010090514FEAD90016
:10A9E0004BF809901F2822D805F1280101EBC0047B
:10A9F000296821FA00F2D307A04605D4012202FA01
:10AA000000F00843286006E0A068296988422CBF4E
:10AA10008046FDF7B9FBC4F808B007F10800C8F894
:10AA20000CB040F8068007F10C018C5189E05FEA18
:10AA3000192008BF002123D0B0F5803F28BF1F2177
:10AA40001ED2A0F58072120C02F008029040A0F510
:10AA50008051090C01F004018840A0F580431B0CD3
:10AA6000C2F10E0203F00203521AD21A984002EB0E
:10AA7000D032D01D29FA00F101F0010101EB4201B1
:10AA800007F11403CBF81C1000229A5107F11003B0
:10AA900008EB81009A516A6822FA01F3DC0711D4AD
:10AAA000012303FA01F111436960C0F800B0CBF84B
:10AAB000180007F1080107F10C0040F806B041F852
:10AAC00006B03EE002681F291DBF4908C1F1190107
:10AAD00009FA01F1494600E002465068C008C0008A
:10AAE000484518D002F11003C80F03EB800349005A
:10AAF00018680028F0D12869834220D3C3F800B039
:10AB000007F10C01CBF8182041F806B007F1080056
:10AB100040F806B015E0296990688A4228BF88424B
:10AB20000DD3C0F80CB007F10801C2F808B0885185
:10AB300007F10C0082510022CBF8182001E0FDF74C
:10AB400023FB17F1080840F07183A868B0421DD3B9
:10AB5000811B6A69102909D39319A96041F001008A
:10AB60005860595046F0030656600BE00021A9607A
:10AB700040F00304111D5460141D0E5846F00106E8
:10AB8000265000236B6102F108084FE3E868864213
:10AB9000C0F03C83DFF8CC9BD9F8000008B9FFF780
:10ABA00090FBD9F8081088192F30491E20EA0101BE
:10ABB0008E4280F0398305F5D877B86838B13A68A5
:10ABC00089188A4280F030838842C0F02D8300F0DB
:10ABD00031FE00281CBFD0F8008010F1010F00F0FA
:10ABE000238339687A68414439608A4238BF796082
:10ABF000AC6904BB296909B1884200D228610021EF
:10AC00003861C7F81480F9614FF0FF31D9F800209E
:10AC10006A62296205F1280200219260D26002F185
:10AC2000080353611361891C10321F29F5D9A8F15B
:10AC3000280201461DE005F5E0710A46814600E064
:10AC40009268D2B11068536803449945F8D1107BDB
:10AC5000030712D413689C420FD3D2F804C0634494
:10AC60009C420AD2C444C2F804C02146E86808EBFA
:10AC700000022846FFF73BFBC5E22869814538BF43
:10AC8000C5F8109009EB080000E08968002900F081
:10AC9000C1810A688242F8D1087B020700F1BA81BB
:10ACA0000868C1F800904A6842444A6009F1080106
:10ACB00011F0070F08BFCDF8049006D0C1F10801CC
:10ACC00001F0070109EB0102019200F1080111F006
:10ACD000070F04D0C1F1080101F0070108448046C4
:10ACE0000198A8EB00018419A1EB060B274646F05A
:10ACF00003064660474528BFFDF746FA98F804006A
:10AD0000C10758BFFDF740FABBF1100F38BFFDF780
:10AD10003BFAA869804508D1E9688B44C5F80CB0B6
:10AD2000AF614BF00100786070E1686980450AD13D
:10AD3000A9686F618B44C5F808B04BF001007860DA
:10AD400047F80BB062E1D8F8040000F003010129D4
:10AD500040F0BC80C008C000C1081F29039040D843
:10AD6000D8F808200092D8F80C600291B04508BFCE
:10AD7000FDF70AFA0098804508BFFDF705FAD8F8F4
:10AD800004000299C008C000B0EBC10F18BFFDF766
:10AD9000FBF90299009A05F1280000EBC1008242FC
:10ADA00008D011462A699142C0F08B80CA6842459A
:10ADB00040F0878000998E4206D102982A680123CC
:10ADC00083409A432A607EE0864205D029698E42FC
:10ADD00077D3B068404574D10098C6600099B160DF
:10ADE00071E0D8F818000090D8F80C6046450DD0F6
:10ADF000D8F808002969884223D3C268424504BFB5
:10AE0000B16841451DD1C660B0601CE008F1140175
:10AE10000E6836B908F110010E68A6B101E01146BE
:10AE20000E6806F114021068002802BF06F1100235
:10AE300010680028F3D12869814202D300220A60F9
:10AE400001E0FDF7A1F9009800283CD0D8F81C00DB
:10AE500005F5987101EB80010A6890450AD12EBB77
:10AE60006A68012303FA00F022EA0000686000200B
:10AE7000086028E000992869814214D30869404598
:10AE800014BF4E610E61F6B129698E4219D3009844
:10AE9000B061D8F8100058B1884226BF3061866191
:10AEA000FDF772F904E0FDF76FF9ECE70E60EBE7F0
:10AEB000D8F8140038B12969884202D370618661DC
:10AEC00001E0FDF761F9039988448B44D8F8041038
:10AED00049084900C8F804104BF0010078604FEAB7
:10AEE000DB0647F80BB01F2E22D805F1280000EB37
:10AEF000C604A146BBF1100F38BFFDF745F928681D
:10AF000020FA06F1CA0705D4012101FA06F6064324
:10AF10002E6006E0A068296988422CBF8146FDF7B3
:10AF200033F9A760C9F80C70C7F80890FC606DE0B1
:10AF30005FEA1B2008BF002123D0B0F5803F28BF67
:10AF40001F211ED2A0F58072120C02F00802904060
:10AF5000A0F58051090C01F004018840A0F5804360
:10AF60001B0CC2F10E0203F00203521AD21A9840CF
:10AF700002EBD032D01D2BFA00F101F0010101EB00
:10AF80004201F961002305F598727B6102EB8100B3
:10AF90003B616A6822FA01F3DE0707D4012303FA52
:10AFA00001F1114369600760B8611DE002681F2963
:10AFB0001DBF4908C1F119010BFA01F1594600E022
:10AFC00002465068C008C000584510D002F1100376
:10AFD000C80F03EB8003490018680028F0D12869E6
:10AFE000834211D31F60BA61FF60BC600EE0296923
:10AFF00090688A4228BF884206D3C7609760B860CD
:10B00000FA600020B86101E0FDF7BEF8019800F198
:10B0100008080BE121462846FFF746F90168406819
:10B0200008440090A0F1270111F0070000980EBF1E
:10B030000021C1F1080101F007010844A0F12F0B24
:10B0400004F110018B4538BFA3460BF11802002113
:10B0500002920191A8F1280249462846FFF747F9D4
:10B060000BF1080010F0070F18BFFDF78DF81B203B
:10B07000CBF8040005F5E07292E809500BF10801E5
:10B0800081E8095000210BF10800F961B861009ACC
:10B0900002980199C7F81090C7F81480072300E0C0
:10B0A000001D491C00F1080797424360F8D30129AD
:10B0B000D8BFFDF769F8A34500F0A580ABEB040B02
:10B0C000201D221D50F80B104908490042F80B10B2
:10B0D0004BF0010060604FEADB0944F80BB0B9F1B6
:10B0E0001F0F22D805F1280000EBC907B846BBF1B5
:10B0F000100F38BFFDF748F8286820FA09F1CA0791
:10B1000005D4012101FA09F10843286006E0B86876
:10B11000296988422CBF8046FDF736F8BC60C8F824
:10B120000C40C4F80880E7606DE05FEA1B2008BFB0
:10B13000002123D0B0F5803F28BF1F211ED2A0F5EB
:10B140008072120C02F008029040A0F58051090CA8
:10B1500001F004018840A0F580431B0CC2F10E02EF
:10B1600003F00203521AD21A984002EBD032D01DDB
:10B170002BFA00F101F0010101EB420105F5987293
:10B18000002302EB8100E161636123616A6822FAB6
:10B1900001F3DF0707D4012303FA01F111436960CA
:10B1A0000460A0611DE002681F291DBF4908C1F1AC
:10B1B00019010BFA01F1594600E002465068C00837
:10B1C000C000584510D002F11003C80F03EB8003F4
:10B1D000490018680028F0D12869834211D31C6007
:10B1E000A261E460A4600EE0296990688A4228BFE9
:10B1F000884206D3C4609460A060E2600020A06131
:10B2000001E0FCF7C1FFE86886420DD2801BA96906
:10B21000E8608A19AA6140F00100506046F0030618
:10B220004E6001F1080801E04FF00008AFF3008024
:10B23000404605B0BDE8F08F002800D170472DE9E9
:10B24000F047A0F10805AFF30080DFF81C65316915
:10B250008D42C0F08482686800F00302012A00F089
:10B260007E82C2084FEAC209C20705EB090839D439
:10B270002C6810F0030F00F06E82604205448D428E
:10B28000A144C0F06C827069854200F0DE80E40861
:10B29000202C72D2D5F80CA0AF68554508BFFCF73A
:10B2A00073FFBD4208BFFCF76FFF6868C008C000AD
:10B2B000B0EBC40F18BFFCF767FF06F1280000EBE6
:10B2C000C400874205D031698F4253D3FA68AA423D
:10B2D00050D1BA4540D13068012101FA04F420EA86
:10B2E00004043460454580F03A82D8F80440E00711
:10B2F00040F13582A10700F18381B069804540F0BB
:10B30000B780F168B5618944C6F80C9049F0010036
:10B31000686071698D4202D100207061B060F1698E
:10B32000494580F01882DFF83C24106808B9FEF720
:10B33000C8FFB169002900F00E82F068292824BFF7
:10B340003046FEF7B1FFF069F168884280F0038271
:10B350004FF0FF30F061FEE1824506D03069824552
:10B3600008D3DAF80810A94204D1C7F80CA0CAF82B
:10B370000870B7E7FCF708FFB4E7EC68AF69AC42C8
:10B380000BD0A868884222D3C168A94204BFA26832
:10B39000AA421CD1C460A0601BE005F1140214682D
:10B3A00034B905F1100214689CB101E01A46146822
:10B3B00004F114031868002802BF04F11003186890
:10B3C0000028F3D18A4202D30021116001E0FCF78A
:10B3D000DBFE002F86D0E86906F5987101EB80014D
:10B3E0000A6895420AD124BB7268012303FA00F06F
:10B3F00022EA000070600020086073E731698F4224
:10B4000014D33869A84214BF7C613C61002C3FF41E
:10B4100069AF31698C42ADD3A761286958B18842C0
:10B4200026BF20618461FCF7AFFE04E0FCF7ACFEB0
:10B43000ECE70C60EDE7686900283FF453AF316931
:10B44000884297D3606184614CE798F8040000F06B
:10B45000030003287FF446AFC6F8089049F00101C5
:10B46000D8F8040040084000C8F8040069600AE009
:10B47000706980450AD1B16875618944C6F8089041
:10B4800049F00100686045F8099064E1E408E400CF
:10B49000A144E408202C3AD2D8F80CA0D8F80870BF
:10B4A000D04508BFFCF770FEB84508BFFCF76CFE3E
:10B4B000D8F80400C008C000B0EBC40F18BFFCF7F8
:10B4C00063FE06F1280000EBC400874207D0316913
:10B4D0008F42C0F08880FA68424540F08480BA45C7
:10B4E00007D13068012101FA04F420EA0404346031
:10B4F0007BE0824506D03069824574D3DAF80810C3
:10B50000414570D1C7F80CA0CAF808706DE0D8F8B2
:10B510000C40D8F8187044450DD0D8F808003169AF
:10B52000884223D3C268424504BFA16841451DD16A
:10B53000C460A0601CE008F114010C6834B908F183
:10B5400010010C68A4B101E011460C6804F114026A
:10B550001068002802BF04F1100210680028F3D11F
:10B560003069814202D300220A6001E0FCF70CFE40
:10B57000002F3AD0D8F81C0006F5987101EB800135
:10B580000A6890450AD11CBB7268012303FA00F0D7
:10B5900022EA000070600020086026E031698F42D6
:10B5A00013D33869404514BF7C613C61ECB131690B
:10B5B0008C4218D3A761D8F8100058B1884226BF32
:10B5C00020618461FCF7E0FD04E0FCF7DDFDEDE7C0
:10B5D0000C60ECE7D8F8140038B13169884202D326
:10B5E0006061846101E0FCF7CFFD49F00100686013
:10B5F00045F8099071698D420BD1C6F80890AAE010
:10B6000064086400C8F8044049F00100686045F827
:10B6100009904FEAD907202F22D206F1280000EB2B
:10B62000C704A046B9F1100F38BFFCF7ADFD306874
:10B6300020FA07F1CA0705D4012101FA07F70743E9
:10B64000376006E0A068316988422CBF8046FCF76D
:10B650009BFDA560C8F80C50C5F80880EC607AE046
:10B660005FEA192008BF002123D0B0F5803F28BF32
:10B670001F211ED2A0F58072120C02F00802904029
:10B68000A0F58051090C01F004018840A0F5804329
:10B690001B0CC2F10E0203F00203521AD21A984098
:10B6A00002EBD032D01D29FA00F101F0010101EBCB
:10B6B000420106F59872002302EB8100E9616B619B
:10B6C0002B61726822FA01F3DC0707D4012303FA25
:10B6D00001F1114371600560A8611DE002681F2936
:10B6E0001DBF4908C1F1190109FA01F1494600E0FD
:10B6F00002465068C008C000484510D002F110034F
:10B70000C80F03EB8003490018680028F0D13069A6
:10B71000834211D31D60AA61ED60AD600EE0316916
:10B7200090688A4228BF884206D3C5609560A860A9
:10B73000EA600020A86101E0FCF726FD306A401EA7
:10B7400008D13062D6F8C80100E080680028FCD13A
:10B750004FF0FF303062AFF30080BDE8F087FCF7B8
:10B7600013FDF8E7602F0020CC2400202DE9F843DA
:10B770008AB080462821684600F072F82B4A10688B
:10B7800008B9FEF79EFDAFF30080DFF8A4E0DEF815
:10B790001820002A40D0DEF80C5005F128060124BC
:10B7A00037460EF5E0711CE04FEADC090CF0030CA3
:10B7B000BCF1010F07EBC90704BF06EBC906641C07
:10B7C00003EBC90383420BD3D1F8049081444B456A
:10B7D00006D293421CBFD3F804C0BCF1070FE3D1DB
:10B7E000896861B1086800F1080313F0070F0EBF04
:10B7F0000023C3F1080303F007030344E2E70097C3
:10B800000EF5D87001940896099501684268059272
:10B81000CF1B891B04970791AFF300804046694610
:10B82000282200F03DF80BB0BDE8F083602F002027
:10B83000CC2400200749086808B10020704706485A
:10B84000C008C00008600549C908C900091A01609C
:10B85000704700BF64300020475200204072012032
:10B86000002200F06FB88268521C8260426832B1D8
:10B870000268531C036011704168491E41607047A3
:10B8800062B38B0708D0521E11F8013B00F8013B50
:10B8900000F024808B07F6D1830740F0208000BFA2
:10B8A000103A07D330B4B1E83810103AA0E8381095
:10B8B000F9D230BC530724BFB1E80810A0E8081043
:10B8C00044BF51F8043B40F8043BD20724BF31F891
:10B8D000022B20F8022B44BF0B7803707047121F15
:10B8E00017D35B0009D151F8043B20F8023B1B0C35
:10B8F000121F20F8023BF6D20BE051F8043B00F88F
:10B90000013B1B0A20F8023B1B0C121F00F8013BF5
:10B91000F3D238BF121D521E24BF11F8013B00F8AC
:10B92000013BF8D870470268531C036011707047E0
:10B9300080B5AFF30080024A11001820ABBEFBE7D0
:10B940002600020000B500BF130096469446103949
:10B9500028BFA0E80C50FAD85FEA417C28BF0CC091
:10B9600048BF40F8042BC90728BF20F8022B48BF66
:10B9700000F8012B00BD0200002070472DE9F14FB7
:10B98000B0B0924604910DF142013A9A2B9199463A
:10B990004A7000200AE01AF8011B0498309A904778
:10B9A0000028049000F0A6860D98401C0D909AF88F
:10B9B000000050B12528EED1002100220791089205
:10B9C00009910A920B910C9204E00D9800F094BE3C
:10B9D00041F001011AF8010F2028F9D023280CD0DA
:10B9E0002B2804D02D2805D0302809D00BE041F0B9
:10B9F0000201EFE741F00401ECE741F00801E9E75B
:10BA000041F01001E6E72A280FD1D9F8002052F8BA
:10BA1000040BC9F8002000280F9003D540420F9076
:10BA200041F004010AF1010A14E00F92DFF8243812
:10BA30000AE00F98984205DA00EB800402EB44021A
:10BA4000303A0F920AF1010A9AF80020A2F1300070
:10BA50000A28EED39AF800002E2803D04FF0FF32C8
:10BA60000E9229E01AF8010F2A2809D1D9F800000E
:10BA700050F8042BC9F800000E920AF1010A1BE0ED
:10BA80002D280CBF0AF1010A002000220E92DFF8D7
:10BA9000C4470BE040B90E9AA24205DA02EB8205D8
:10BAA00003EB4503303B0E930AF1010A9AF800308C
:10BAB000A3F130020A2AEDD3ADF84010DFF8980761
:10BAC000784400F294709AF8001000F02DFF08B14D
:10BAD0001AF8010B8DF842009DF84200682805D144
:10BAE0009AF8000068280CD1622106E06C2804BF97
:10BAF0009AF800006C2804D171218DF842100AF1E7
:10BB0000010A12A806901AF801BBBBF125012CD03E
:10BB10001C3900F0CF81091F022940F2CB81133973
:10BB200000F01385093900F0C581891E00F0A88551
:10BB3000491E00F05585491E022940F2BB81091FAC
:10BB400000F04E85491F00F02881491E00F0FD8459
:10BB5000491E00F0D080C91E0DD0891E00F0F5846A
:10BB6000C91E00F0F28400F096BD25238DF8483000
:10BB7000012100F09BBDD9F8000050F8044BC9F832
:10BB80000000002C059440F0A3802B9948780028F1
:10BB900000F099804FF0FF340FF6643000F0D2FED1
:10BBA000201A40F0A78500F082BD6D1E40F09985F7
:10BBB0003096079D12AF75B1309E17F8012B02A980
:10BBC000304600F063FE002801D46D1EF5D1002838
:10BBD000309640F08F850A9D3020002D8DF80400AE
:10BBE0000CDD309E012301AA02A9304600F05EFE62
:10BBF000002840F07F856D1EF4D13096059F089D8A
:10BC000075B1309E17F8012B02A9304600F03EFEB8
:10BC1000002801D46D1EF5D10028309640F06A85C9
:10BC20000B9D3020002D8DF804000CDD309E01238B
:10BC300001AA02A9304600F039FE002840F05A85DA
:10BC40006D1EF4D1309605980899099D471875B175
:10BC5000309E17F8012B02A9304600F017FE00288D
:10BC600001D46D1EF5D10028309640F043850C9D1F
:10BC70003020002D8DF804000CDD309E012301AA38
:10BC800002A9304600F012FE002840F033856D1EF8
:10BC9000F4D130969DF8400041077FF588AE202012
:10BCA000002C8DF804007FF782AE309D012301AA9D
:10BCB00002A9284600F0FAFD002840F01B85641E0A
:10BCC000F4D1309573E60FF64440059000F0EFBCD8
:10BCD0000E9D002D04D5204600F054FE044607E0DA
:10BCE0002A46204600F06CFE002814BF041B2C4698
:10BCF000089400F0DCBCD9F8001051F8040BC9F826
:10BD0000001020F00004002121F0FF3512ABCDE936
:10BD100002450593DDE9022306993C2413B90AB9CB
:10BD20000E9898B102F00F053035641EEEB23A2E2F
:10BD3000A8BF2735120942EA03721B090D5508BF37
:10BD4000002A03D005980D19A842EBD308190590D5
:10BD5000C4F13C020E98089282420ADABDF8401003
:10BD6000821A4FF6EF7001400A92ADF8401000F0D1
:10BD70009EBC002840F19B849DF8400000F0140018
:10BD8000102840F094840F9B07990A985B1A1B1A9D
:10BD90009A1A002A40F38B84D5E32B99487820B176
:10BDA0004FF0FF340FF63430F8E69DF84200622879
:10BDB00061D0682817D06A283FD06C2806D0712837
:10BDC00047D074282CD07A281DD064E0D9F8001010
:10BDD00051F8040BC9F80010002868D14FF0FF3467
:10BDE0000FF61030DAE6D9F8001051F8040BC9F854
:10BDF000001020B94FF0FF340FF6F820CEE60D9971
:10BE0000018000F054BCD9F8001051F8040BC9F8B7
:10BE1000001000284BD14FF0FF340FF6D820BDE6BC
:10BE2000D9F8001051F8040BC9F8001000283ED1D1
:10BE30004FF0FF340FF6BC20B0E6D9F8001051F8EF
:10BE4000040BC9F8001080B94FF0FF340FF6A4209E
:10BE5000A4E6D9F8001051F8040BC9F8001020B975
:10BE60004FF0FF340FF68C2098E60D9AD317C0E9F7
:10BE7000002300F01CBCD9F8001051F8040BC9F8DD
:10BE8000001020B94FF0FF340FF6682086E60D99B8
:10BE9000017000F00CBCD9F8001051F8040BC9F87F
:10BEA000001020B94FF0FF340FF6482076E60D99C8
:10BEB0000160FCE3D9F80020D21D22F00702C9F886
:10BEC0000020D2E900010832C9F80020CDE90201C2
:10BED000C80F02D007982D210AE0BDF84000810765
:10BEE00002D507982B2103E0C00705D5079820212C
:10BEF00012AA1154401C079012A807994BF0200277
:10BF00004318DDE90201CDE92C01612A059321AC3A
:10BF10000BD00E98002802D506200E9005E001BF38
:10BF20004BF02000672801210E91DDE90201480055
:10BF30004015401C0A460DD109030BD0ABF1610539
:10BF400003201A2D089002D20FF6C4110DE00FF64F
:10BF5000C4110AE070B912030CD1ABF161050320E2
:10BF60001A2D08901AD30FF6B41103221846FFF7C2
:10BF700087FC9CE3DDE90201CDE92E01DDE92E23FA
:10BF800023F00047B7F5801F22F000060DD20022F3
:10BF9000002F08BF002E009203D116E00FF6781193
:10BFA000E3E76A4600F038FD0FE0DFF8C008DFF88D
:10BFB000C01800EB17500090DDE92E234FF0FF3042
:10BFC0001940DFF8B07810403943CDE902014BF059
:10BFD000200061280DD1059830210170821CBBF131
:10BFE000610F05920CBF7821582141700798801C81
:10BFF0000790DDE9020120F0000231F0004308BFA4
:10C00000002A02D10026002568E14BF02008B8F193
:10C01000610F40F0B4800E98002847BF21210191A4
:10C02000401C0190019FDDE92C017F1C00220023B0
:10C03000DDE9024500F028FD00998DF8842038BF25
:10C0400085F00045091F002F00910DF1850653DD95
:10C05000204629460022002300F030FD4CD2480043
:10C06000400D00F11C0312D0002B10DD40F2FF70D8
:10C07000834206DBDFF8001805F000421143002080
:10C0800011E06FF31E5141EA035120460BE024F00A
:10C09000000035F0004108BF00280FBF29461C22D0
:10C0A000294600F025FD04460D4600F0C1FDFF1FA6
:10C0B000002F804609DD00F0DBFD02460B462046DE
:10C0C000294600F0E9FD04460D46F01D0721B8F1B0
:10C0D000000F0CDD491E5EBF08F00F0200F8012DB5
:10C0E0004FEA2818F3D502E0002200F8012D491E7E
:10C0F000FAD5C61D002FABDC0DF18500361A01986C
:10C100008642D8BF304600280DF1850430D4B042B5
:10C1100006DA0DF185010A5C082AA8BF0F2100DAB2
:10C120000021024621AB134400E0401E13F80159E0
:10C13000521E8D42F9D00F2904D10DF185018B5C7F
:10C140005B1C8B54002A04D50099091D21AC401CAE
:10C150000091411E0CD46218ABF13A0613783033CB
:10C16000DDB23A2DA8BFF318491E02F80139F5D502
:10C170000E99002940F1B080421E0E92ACE0009969
:10C18000DFF8F82647F29750414391FBF2F2DDE9E0
:10C190002C45009225F00045D2F1070204DD20462F
:10C1A000294600F040FB0BE052420020DFF8D01699
:10C1B00000F039FB02460B462046294600F0E0FD20
:10C1C0000446B8F1660F0E9806BF009F0A3706278F
:10C1D0003F18142FC8BF142730200D468DF8840057
:10C1E0000DF18506002F39DD2046294600F0EEFED0
:10C1F00001460A4606F1080304200A26B2FBF6F6B9
:10C2000006EB860EA2EB4E02303203F8012C0A2216
:10C21000B6FBF2F202EB820EA6EB4E063036401E63
:10C2200003F8026DE9D1083F002F03F10806D9DDBC
:10C23000084600F0DFFE02460B462046294600F085
:10C240002BFD0022DFF83C3600F0E4FE04460D46EC
:10C25000CAE700BFCBCCCC0C105304000DF1850015
:10C26000361A0DF1850404E00098401E761E0090F9
:10C27000641C20783028F7D0B8F1660F02D10099FD
:10C28000491C04E0B8F1650F0CBF012100210E9894
:10C2900008188642B8BF701E00281DD4B04204DAC8
:10C2A000215C3429C8BF392100DC30210246631EDD
:10C2B0009D1800E0401E15F80169521E8E42F9D00B
:10C2C000392902D1A15C491CA154002A04D5009946
:10C2D000491C1C46401C00910646009D0E9F30B232
:10C2E000002802DC01260FF238644BF0200066289B
:10C2F00008BF6D1C15D067280FFA85F841D118F1D9
:10C30000040F44DBB84542DA9DF840006D1C01077C
:10C3100003D430B2B842B8BF074628B23F1A48BF6C
:10C3200000270FFA85F8B8F1000F00F3AF800898E6
:10C33000411C0891302205990A54002F03DC9DF816
:10C340004000010705D50898411C08912E22059947
:10C350000A5417EB080FB8BF7D4228B2C51932B294
:10C36000414295420B91B8BF2E46059B089836B2C4
:10C370000996324621461844FFF782FAAD1B0C9508
:10C38000CCE0BBF1610F15D14FF0700B17E030B26C
:10C39000B84204DA9DF840100A0758BF07467F1ECE
:10C3A00048BF0027BBF1670F14BF4FF0450B4FF09C
:10C3B000650B04E0BBF1410F08BF4FF0500B08982C
:10C3C000411C0891002F059914F8012B0A5403DC35
:10C3D0009DF84000010719D50898411C08912E22AC
:10C3E00005990A54002F11DD761E30B28742059858
:10C3F000089BB8BF3E4632B221461844FFF740FAC8
:10C40000089836B23018BF1B08900B97059808990A
:10C410000844B8F1000F80F800B003D42B2242701A
:10C42000821C04E02D2145464170821C6D42002192
:10C430002CAB28460AE004460A2094FBF0F000EBFF
:10C440008005A4EB450403F8014B491C00B2002809
:10C45000F1DC012906DC4BF02000652804BF302008
:10C4600002F8010B00292CAB08D1302002F8010B97
:10C4700006E0491E585C303002F8010B0029F8DC58
:10C48000059908980844121A099247E030B229B277
:10C4900088421BDA0598089B32B221461844FFF700
:10C4A000EFF9089936B27118A8EB0606002F08912B
:10C4B0000B9603DC9DF84000020705D5059A2E2057
:10C4C00050540999491C09910C9727E00598089B3D
:10C4D0002AB221461844FFF7D3F90898761B404446
:10C4E000002F089003DC9DF840100A0704D5411C7A
:10C4F00008912E2205990A5430B287420598089B6C
:10C50000B8BF3E4632B204EB08011844FFF7B8F951
:10C51000089836B23018BE1B08900B969DF8400064
:10C5200000F01400102840F0C280079A08990B9878
:10C530008A18099982180C988A1882180F988242D2
:10C5400080F2B580821A0A92B1E09DF8420062281A
:10C5500008D068280ED06A2814D06C281FD0712803
:10C5600010D01CE0D9F8001051F8040BC9F80010E5
:10C57000C0B21AE0D9F8001051F8040BC9F8001045
:10C5800080B212E0D9F80020D21D22F00702C9F8CB
:10C590000020D2E900010832C9F8002006E0D9F8ED
:10C5A000001051F8040BC9F800100021CDE9020178
:10C5B0009DF8400001075AD5DDE90223002B08BF92
:10C5C000002A54D04BF02000782850D1079812A9A7
:10C5D00030220A54401C431C079301F800B046E087
:10C5E0009DF84200622808D068280ED06A2814D02E
:10C5F0006C281FD0712810D01CE0D9F8001051F819
:10C60000040BC9F8001040B21AE0D9F8001051F834
:10C61000040BC9F8001000B212E0D9F80020D21DB6
:10C6200022F00702C9F80020D2E900010832C9F857
:10C63000002006E0D9F8001051F8040BC9F80010EA
:10C64000C117CDE90201002902D507982D210AE082
:10C65000BDF84000810702D507982B2103E0C007F1
:10C6600005D50798202112AA1154401C079012A842
:10C6700007990144059102A8594600F04FF816E0C9
:10C6800001200790D9F8000050F8041BC9F80000F9
:10C690008DF848100BE025210122BBF1000F8DF829
:10C6A0004810079203D08DF849B0022107910F9AE4
:10C6B00007980A990C9C121A0898521A0B99121A88
:10C6C0000998521A121A9DF84000141B41073FF5B1
:10C6D00070AA2020002C8DF804007FF76AAA309EF3
:10C6E0002546012301AA02A9304600F0DFF8002800
:10C6F0003FF45BAA4FF0FF3031B0BDE8F08F00008F
:10C700007072696E74665F733A206261642025738B
:10C7100020617267756D656E740000002DE9FC4341
:10C7200007466F293E6908BF082405D041F0200064
:10C73000782814BF0A2410243C25D7E90023642953
:10C7400018BF69299046994605D1002B03D5D8F129
:10C75000000869EB4909B9F1000F08BFB8F1000FF3
:10C760000CD1386B50B9082C39D197F83800010733
:10C7700035D530203B2586F83B0030E08DF80010A1
:10C78000404649462246E31700F018FD3032D0B249
:10C790006D1E3A28019504DB9DF80000A0F15101BF
:10C7A0008A187255404649462246E31700F006FDB6
:10C7B00080465FEA010908BFB8F1000F03D0F868AE
:10C7C00071198842DCD3082C09D197F83800010789
:10C7D00005D5705D302802D06D1E30207055C5F132
:10C7E0003C02BA617119F960386B824208DA821A28
:10C7F0003A624FF6EF70398F01403987BDE8F38315
:10C8000000280ED597F8380000F01400102808D141
:10C810007B6B7969386A5B1A1B1A9A1A002AC8BF9F
:10C820003A62BDE8F3832DE9D04306460F4614462D
:10C830004FF00008DFF8509012E0E00707D54246BD
:10C840004B463046394600F0E5FB06460F4640466B
:10C85000494642464B4600F0DDFB6410804689465F
:10C86000002CEAD130463946BDE8D08302FCFFFFF8
:10C87000FFFF0F800000E03F0000F07FA086010076
:10C880000000F03F84D797410000244010B50346D4
:10C890000C461146A0689847A06020B1E06A401C91
:10C8A000E062002010BD4FF0FF3010BDF8B5054626
:10C8B0000E4617461C4600205CB117F8011BB068F5
:10C8C000A847B06030B1F06A401CF0620020641EDE
:10C8D000F3D1F2BD4FF0FF30F2BD00007072696E0F
:10C8E00074665F733A20256E20646973616C6C6FA7
:10C8F000776564007072696E74663A2062616420C4
:10C90000256E20617267756D656E74000000000011
:10C910006E616E004E414E00696E6600494E4600E3
:10C920003000010000207047C9B202788A421AB173
:10C930001CBF10F8012FF9E718BF00207047010055
:10C940000020704780B500B906A005490B681BB1EF
:10C9500022220021984701E0FBF716FC222002BDAD
:10C9600068300020636F6E73747261696E74206842
:10C97000616E646C65723A20626164206D657373E8
:10C980006167650000F10103810704D010F8011B05
:10C99000820781B1FAD10268A2F10131914311F00D
:10C9A000803104BF50F8042FF6E709BAB1FA81F1DB
:10C9B00000EBD100401CC01A7047010000207047F6
:10C9C000C9B2830706D0521E22D310F8013B994208
:10C9D000F7D11FE0083A13D302F1040241EA012122
:10C9E00041EA014150F8043B121F21BF4B40A3F123
:10C9F000013C2CEA030C1CF0803FF3D0C9B2001FAD
:10CA0000083210F8013B521E28BF91EA030FF8D8F4
:10CA100018BF0120401E704710B5144600F002F800
:10CA2000226010BDC1F30A5343B14A0012F5001F42
:10CA300028D2A3F2FE32A1EB0251704750EA410C1A
:10CA400020D001F0004C31EA0C01B1FA81F204BFB0
:10CA5000B0FA80F3D2180B3AB2F120032CBF00FADF
:10CA600003F1914041EA0C013EBFC2F1200C20FAD3
:10CA70000CF319439040524240F2FD33D21A01EBBD
:10CA800003517047002270474FF4001C1CEB410F0C
:10CA900094BF1CEB430F09E041EA030C50EA4C0C35
:10CAA00052EA0C0C03D2994208BF9042704714BF5F
:10CAB0008B42824270470100002070474FF4001CF7
:10CAC0001CEB410F94BF1CEB430F09E041EA030C40
:10CAD00050EA4C0C52EA0C0C03D28B4208BF824243
:10CAE000704714BF99429042704701000020704780
:10CAF000124254D440F2FF7C1CEA11530FD063451C
:10CB000031D09B1863453CBF01EB0251704701F0E7
:10CB1000004141EA0C51002000F068BC704750EA27
:10CB2000410320D001F0004C91EA0C011CD0B1FA75
:10CB300081F30B3B9A420DD9D21A994051EA0C016C
:10CB4000C3F1200C20FA0CFC61449840531C40F2C5
:10CB5000FF7CD7E7914041EA0C01C2F1200C20FA9A
:10CB60000CF3194390407047B0FA80F31533202B33
:10CB7000E0D3202AEED3203A203B9A4209D9D21A98
:10CB800000FA03F141EA0C010020531C40F2FF7C43
:10CB9000B8E700FA02F141EA0C0100207047524266
:10CBA00040F2FF7C1CEA11530DD06345DBD0B2EBA1
:10CBB000030C3CBFA1EB025170470CF1010221EACA
:10CBC000035141F4801150EA410CCCD001F0004CEB
:10CBD000352A27DC30B481EA0C01B2F1200309DAEE
:10CBE000C2F12003044601FA03F5D0402843D140A6
:10CBF0009C400CE0C3F12002450020FA03F418BF6A
:10CC000044F0010421FA03F091400C43002174F137
:10CC1000004550F1000051EB0C01244230BC7FF480
:10CC20007BAF70476146002076E701000020704727
:10CC3000C1F30A5340F2FE329B1A14DDD3F12003F4
:10CC40004FEAE17208DDC90241EA505141F000406B
:10CC5000D84080185040704703F2E13010B1D24301
:10CC600082F00040704700207047010000207047AC
:10CC7000C11768B14840401AB0FA80F29040D21C07
:10CC8000C907C2F5846241EA025202EBD021400595
:10CC9000704701000020704770B44FF0004591EAE2
:10CCA000030F40F1B7836B40841A71EB030603D284
:10CCB000001BB141121973414FF4001C1CEB410FD2
:10CCC00034BF7CEB430442E00C0DA4EB1356352E2D
:10CCD0004FDC45EAC323DB0A45EAC121C912B6F19C
:10CCE00020050DDD63FA05F6EB4086EA03051242E6
:10CCF00018BF45F00105C01851F100010CD213E036
:10CD000062FA06F5F2405540F3415A40B340F34011
:10CD10005A408018594107D349085FEA30005FEA5A
:10CD2000350528BF45F0010501F58011420875F170
:10CD3000004250F1000041EB04514E0016F5001F77
:10CD400070BC38BF70470020090D090570471CEB07
:10CD5000410F10D252EA43060BD0BCEB410F05D86D
:10CD60000C0DAB43661E342EB6DD02E0AB438018DB
:10CD7000594170BC704770BC70470100002070477B
:10CD8000F0B540F2FF7581EA030C0CF0004C15EA97
:10CD900011541DBF15EA1357AC42AF42E5E0BC4148
:10CDA000C1F31301C3F31303801A994143F48013B1
:10CDB00004D2641E4000494180185941C90241EA29
:10CDC0005051B1FBF3F603FB1611A2FB0675D7EB2E
:10CDD000C020A94102D2761E80185941C90241EAF9
:10CDE0005051B1FBF3FE03FB1E11A2FB0E75D7EBF6
:10CDF000C020A94103D2AEF1010E80185941890229
:10CE000041EA9051760546EA8E2EB1FBF3F603FB1C
:10CE10001611A2FB0675D7EB8020A94102D2761E1F
:10CE200080185941C90241EA50514EEA060EB1FB41
:10CE3000F3F603FB1611A2FB0675D7EBC020A94140
:10CE400002D2761E80185941C90241EA5051B1FB05
:10CE5000F3F703FB1711A2FB0735D3EBC020A94161
:10CE600067F100070CBF004247F0010766F3D527C2
:10CE70004FEA1E31B80814F5806412DDBD0775F164
:10CE8000004250EB0E5051EB045111F5801F5CBF76
:10CE900041EA0C01F0BD4CF07F6141F0E04100201F
:10CEA000F0BDBD076D0840EA0E5041F48011D4F189
:10CEB0000104B4F120060ADAC4F120060200E040C1
:10CEC00001FA06F3E1401843B24015430EE0342C5A
:10CED00013DCC6F1200445EA40056D0820FA06F28D
:10CEE000154321FA06F0A1400D43002175F10042DF
:10CEF00050F1000051EB0C01F0BD00205FEA0C0185
:10CF0000F0BDCFB992185B41B3FA83F704BFB2FA10
:10CF100082F6BF190B3FB7F120062FBF02FA06F3C6
:10CF2000BB40C7F1200622FA06F638BF3343BA40A9
:10CF30001CB1E419641E33E77F4231F00041B1FABD
:10CF400081F404BFB0FA80F6A4190B3CB4F12006BA
:10CF50002FBF00FA06F1A140C4F1200620FA06F620
:10CF600038BF3143A0403C1B1AE7AC421ABF05EA68
:10CF70001357AF4212E050EA41061CBF52EA430683
:10CF8000BFE750EA4107304661461CBF41EA055100
:10CF9000F0BD52EA430C08BFC143F0BD00204FF47E
:10CFA000001616EB410F98BF16EB430F08BF16EBA8
:10CFB000410F24BFC14305E016EB430F0CBF614690
:10CFC0004CEA0551F0BD010000207047400D4918A2
:10CFD00040EA81200CD2490DA1F58061491C40F046
:10CFE000004005DBD1F11F0154BFC840C017704796
:10CFF00000207047014648B1B0FA80F18840C91C52
:10D00000C1F58461090501EBD0214005704701009D
:10D0100000207047B0B581EA030C0CF0004C40F2E0
:10D02000FF7515EA11541DBF15EA1357AC42AF4204
:10D0300039E0E41923EA455343F48013C90241F06F
:10D04000004141EA505EC7021100A7FB020200281E
:10D050004FF00000EEFB01204FF00001E3FB072141
:10D0600018BF42F00102401800214941E3FB0E01C4
:10D07000A4F580640F0302D252004041494154F1AB
:10D0800001046CDD470872F1004250F1000051EBE1
:10D090000451A1F580115CBF41EA0C01B0BD4CEA1E
:10D0A00005510020B0BD05EA1357AC4214BFAF4292
:10D0B00041E050EA410E1CBF52EA430E02E06146D5
:10D0C0000020B0BD24423C441BD15FEA070EF6D0DD
:10D0D000090302BF01460020AEF1140EB1FA81F738
:10D0E000AEEB070401FA07FE0C37C7F1200100FA86
:10D0F00007F7C8404EEA000E23EA455343F4801375
:10D10000A2E733F00043B3FA83F704BFB2FA82FE1A
:10D1100077440B3FE41BB7F1200E2FBF02FA0EF34A
:10D12000BB40C7F1200E22FA0EFE38BF43EA0E03C1
:10D13000BA40641C82E750EA410E14BF52EA430E23
:10D140006FF000014FF4001717EB430F8ABF194629
:10D1500017EB410FB5E74CEA05510020B0BDD4F103
:10D160000104B4F120070FDAC4F12007520828BFE8
:10D1700042F0010210FA07F501FA07F7E1BF2A436E
:10D18000E0403843E1400FE0352C98DCC7F1200443
:10D1900052EA400220FA07F218BF42F0010231FAC7
:10D1A00007F0A1400A43002172F1004250F1000053
:10D1B00051EB0C01B0BD010000207047BBBBE1B1D9
:10D1C000B2F5803F80F07E80022A1ED98C46B1FBEA
:10D1D000F2F102FB11C31B0443EA1043B3FBF2FC60
:10D1E00002FB1C3380B240EA0343B3FBF2F002FBC4
:10D1F000103240EA0C4000237047022A05D98446C9
:10D20000B0FBF2F002FB10C270474AB105D100F04A
:10D21000010249085FEA300070470022002370478E
:10D2200000F0B0B90B0002000021002070479042CE
:10D2300071EB030CF6D3B3F5803F2FD2F0B5B3FA00
:10D2400083F7B1FA81F4A7F10F0E3D1B5340CEF1E5
:10D25000200602FA0EF2F3415340B5F10F0746D80B
:10D260000F3C2C444140C4F12006A040F141414014
:10D27000B1FBF3F603FB1611A2FB0645001BA94107
:10D2800002D2761E8018594180EA010221FA0EF37B
:10D2900062FA0EF200215A403046F0BD30B4B1FBC4
:10D2A000F3FC03FB1C11A2FB0C45001BA94103D29C
:10D2B000ACF1010C8018594130BC02460B46604667
:10D2C00000217047B2F1807F65D3F0B5B2FA82F7E2
:10D2D000B1FA81F4C7F10F063D1B22FA06F307F1FC
:10D2E000110EF24120355A40B5F10F07B8D941402F
:10D2F000C4F12006A040F1414140B1FBF3FC03FB27
:10D300001C11A2FB0C45001BA94103D2BCF1010C6E
:10D31000801859410F2F12D30F3FC90341EA5041E2
:10D32000B1FBF3F603FB1611A2FB0645D4EBC030AC
:10D33000A94102D2761E8018594146EACC3C07B377
:10D340004140C7F12006B840F1414140B1FBF3F63E
:10D3500003FB1611A2FB0645001BA94102D2761E53
:10D360008018594180EA010221FA0EF3C7F1200426
:10D3700062FA0EF20CFA07F05A402CFA04F130432C
:10D38000F0BD80EA010221FA0EF3002162FA0EF2EA
:10D3900060465A40F0BD8C46B1FBF2F102FB11C36E
:10D3A0001B0243EA1063B3FBF2FC02FB1C331B02BB
:10D3B0004CEA002043EA1063B3FBF2FC02FB1C338F
:10D3C0001B024CEA002043EA1063B3FBF2FC02FBB1
:10D3D0001C331B024CEA002043EA1063B3FBF2FC4F
:10D3E00002FB1C324CEA0020002370470FB581B0CD
:10D3F0000020C04605492222425001B00FBD80B531
:10D400000020C0460249084402BD00006C300020E4
:10D410006C300020841A71EB030604D26E40001BAE
:10D42000B141121973414FF4001C1CEB410F34BF82
:10D430007CEB430683E00C0DA4EB1356362E00F371
:10D440007C80012E45EAC32341DC43EA525312BFDC
:10D45000D20292025B08240545EAC12141EA5051FB
:10D46000D2EBC020994125D407D1B0FA80F610FA4A
:10D4700006F162D00020203608E0B1FA81F6B14012
:10D48000C6F1200220FA02F21143B0404FEAF474D0
:10D49000B4EB465434F001064FEA74040AD8D6F5CA
:10D4A0000016760D04F00044F04061FA06F2504098
:10D4B000F1404840C00A40EA415021F0004128BFF5
:10D4C0005FEA500550F1000044EBD12135E0DB0A62
:10D4D00045EAC121C90AB6F120050EDD42EA024241
:10D4E000120CC5F1200603FA06F6EB4042EA0605E7
:10D4F0006D42984161F100010DE062FA06F5F240DB
:10D50000554063FA06FC82EA0C02F3405A406D4231
:10D51000904161EB030111F4801F05D1641E620587
:10D5200002D06D004041494121F48011430875F15A
:10D53000004350F1000041EB045170BC70471CEBFC
:10D54000410F15D223F0004352EA43060BD04FEAB5
:10D550004C0CBCEB410F04D80C0D661E342EB7DD0D
:10D56000EBE7801A994150EA410608BF0021E4E741
:10D5700008BF1CEB430F28BF6FF00001DDE701007F
:10D580000020704770470100002070470000000035
:10D5900064F40408010000000100000074F40408B1
:10D5A000030000000200000084F4040803000000EF
:10D5B0000300000094F404080300000004000000CD
:10D5C000A4F404080300000005000000B4F40408FB
:10D5D0000300000006000000C4F40408030000007B
:10D5E00007000000D4F40408030000000800000055
:10D5F000E4F404080300000009000000F4F4040847
:10D60000010000000A00000004F504080500000005
:10D610000B00000014F50408030000000C000000DB
:10D6200060AF04080C0000000D00000024F50408A1
:10D63000050000000E00000034F50408030000009F
:10D640000F00000044F50408030000001000000073
:10D6500054F50408030000001100000064F50408FC
:10D66000030000001200000074F50408030000002D
:10D670001300000084F504080300000014000000FB
:10D6800094F504080300000015000000A4F5040848
:10D690000300000016000000B4F5040803000000B9
:10D6A00017000000C4F50408030000001800000083
:10D6B000D4F504080300000019000000E4F5040894
:10D6C000030000001A000000F4F504080300000045
:10D6D0001B00000004F60408030000001C0000000A
:10D6E00014F60408030000001D00000024F60408DE
:10D6F000030000001E00000034F6040803000000D0
:10D700001F00000044F60408030000002000000091
:10D7100054F60408040000002100000064F6040828
:10D72000040000002200000074F604080600000057
:10D730002300000084F60408080000002400000014
:10D7400094F60408080000002500000080AF0408DB
:10D750000D00000026000000A0AF04080A00000031
:10D7600027000000A4F604080400000028000000C0
:10D77000B4F604080500000029000000C4F60408FF
:10D78000050000002A000000D4F60408060000008E
:10D790002B000000E4F60408080000002C00000044
:10D7A000F4F60408040000002D00000004F704084B
:10D7B000050000002E00000014F70408040000001B
:10D7C0002F00000024F704080500000030000000CE
:10D7D00034F70408080000003100000044F7040892
:10D7E000080000003200000054F7040808000000A0
:10D7F0003300000064F70408080000003400000053
:10D8000074F70408080000003500000084F70408DD
:10D81000080000003600000094F70408080000002B
:10D8200037000000A4F704080800000038000000DA
:10D83000B4F704080800000039000000C4F7040829
:10D84000080000003A000000D4F7040804000000BB
:10D850003B000000E4F70408040000003C00000066
:10D86000F4F70408080000003D00000004F8040874
:10D87000080000003E00000014F804080800000042
:10D880003F00000024F804080800000040000000E9
:10D89000C0AF04080F00000041000000E0AF040822
:10D8A0000A0000004200000000B004080A00000066
:10D8B0004300000020B004080A00000044000000FB
:10D8C00040B004080B0000004500000060B00408F0
:10D8D0000A0000004600000080B0040809000000B3
:10D8E00047000000A0B004080B0000004800000042
:10D8F000C0B004080B0000004900000034F8040820
:10D90000040000004A00000044F804080800000079
:10D910004B000000E0B00408090000004C000000CB
:10D9200054F80408080000004D00000000B104088D
:10D930000C0000004E00000020B104080B000000A5
:10D940004F00000040B104080B0000005000000030
:10D9500060B104080A0000005100000080B1040812
:10D960000B00000052000000A0B104080B000000F2
:10D9700053000000C0B104080A0000005400000079
:10D98000E0B104080A0000005500000000B20408DD
:10D990000B0000005600000020B204080A0000003E
:10D9A0005700000040B204080E00000058000000BC
:10D9B00060B20408090000005900000080B20408A9
:10D9C0000A0000005A000000A0B20408090000008C
:10D9D0005B00000064F80408050000005C00000023
:10D9E00074F80408050000005D00000084F80408D5
:10D9F000050000005E00000094F804080800000024
:10DA00005F000000A4F804080800000060000000A7
:10DA1000B4F804080500000061000000C0B204086A
:10DA20000900000062000000E0B2040809000000E4
:10DA300063000000C4F8040808000000640000004F
:10DA400000B30408090000006500000020B30408CA
:10DA50000900000066000000D4F80408040000007B
:10DA60006700000040B304080900000068000000DF
:10DA7000E4F804080800000069000000F4F8040855
:10DA8000040000006A00000004F90408040000001B
:10DA90006B00000014F90408080000006C0000008E
:10DAA00024F90408040000006D00000060B30408BD
:10DAB0000C0000006E00000034F9040808000000AB
:10DAC0006F00000080B3040809000000700000002F
:10DAD000A0B304080900000071000000C0B30408EE
