:020000040800F2
:108000003856002019EA0408599004085B900408C7
:108010005D9004085F90040861900408000000006F
:108020000000000000000000000000006390040851
:108030006590040800000000679004086990040837
:108040007D010508810105088501050889010508EC
:108050008D0105089101050895010508990105089C
:108060009D010508A1010508A5010508A90105084C
:10807000AD010508B1010508B5010508B9010508FC
:10808000BD010508C1010508C5010508C9010508AC
:10809000CD010508D1010508D5010508D90105085C
:1080A000DD010508E1010508E5010508E90105080C
:1080B000ED010508F1010508F5010508F9010508BC
:1080C000FD01050801020508050205080902050869
:1080D0000D0205080D1D040885CE020811020508D1
:1080E00015020508190205081D02050821020508E8
:1080F00025020508290205082D0205083102050898
:1081000035020508390205083D0205084102050847
:1081100045020508490205083D90040847CE0208BB
:108120004D020508510205085502050859020508C7
:108130005D02050861020508650205086902050877
:108140006D02050871020508750205087902050827
:108150007D020508810205088502050889020508D7
:108160008D02050891020508950205089902050887
:108170009D020508A1020508A5020508A902050837
:10818000AD020508B1020508012003F095BB30B42B
:10819000002513E050F8042BD30744BFA9F10103D5
:1081A0009A18091F042942F8045BFAD213468C0777
:1081B00044BF15809B1CC90748BF1D7050F8041BA5
:1081C0000029E7D130BC704770B504000D001600DF
:1081D000256031002000C046C046200070BD70B54B
:1081E00004000D00160029002000C046C046030010
:1081F000320029002000C046C04670BD00000000CB
:10820000AAAAAAAABBBBCCCC896E0000B0A80180E8
:10821000936E000064560400A96F0000581004001B
:10822000DD7100009036040033720000B0AF0280B0
:1082300085730000B0AE05802D75000084FC03003E
:1082400049780000B0AA01807D780000010000009C
:108250007F780000B0370400B5780000B0B0A88087
:10826000BD780000B0AE03802F790000B0AB008075
:108270006D790000B0AA018093790000B0A9008058
:10828000E5790000445A0400E17A0000008400808F
:10829000597B0000C4510400C57B0000B0AE0180D2
:1082A000777C0000B0B0AA80BB7C0000B0A9008041
:1082B000837D0000B0AA01800F7E0000B0A900807D
:1082C000737F0000B0AD0080F57F0000B0A8018092
:1082D00001800000B0AA058035820000B0A90080AE
:1082E00009830000803704002983000090370400D0
:1082F00049830000A037040069830000B037040000
:1083000089830000C0370400A9830000AC5A040030
:10831000C3830000B45A0400DD830000BC5A04008B
:1083200055850000B0B0AA80BF850000B0A90080CC
:10833000E1860000B0B0AC8043870000B0B0AA80F6
:10834000C7870000B0B0A8806B880000B0B0AE80D6
:10835000BF89000001000000458A0000B0B0A8807D
:10836000C58A0000C0440400F18A0000B0B0AA80B1
:10837000A58C0000B0B0A8806F8E0000B0AA01806C
:10838000358F0000503F04001F900000B0B0AA805D
:108390001B910000B0AF02807D91000024440400D6
:1083A000AF94000008440400D1960000B0B0AC8047
:1083B000A1970000E459040095980000EC590400CE
:1083C000359A0000B0B0A880419A0000B0AF0C8090
:1083D000719C0000B0AC0980B39D0000B0A9008082
:1083E000D59D0000B0B0A880519E0000B0AB0080C9
:1083F0004F9F0000B0AF0080A9A20000D843040046
:108400007DA40000B0AE018093A500000100000033
:10841000BFAA0000B0A90080E5AA0000B0AA0180B0
:1084200011AB0000B0A9008019AF0000B0AE018010
:10843000DBAF0000B0AB008043B00000B0A900800B
:1084400079B1000044580400E1B10000B0B0A88048
:108450001BB20000B0A900808DB20000B0AB00805C
:1084600041B30000B0AA0180C9B30000B0B0AA8037
:1084700025B50000B0A8038043B50000B0B0A880C7
:108480004BB50000445404007BB500004C5404007C
:10849000A5B5000028160400D1B60000B0AA0180DE
:1084A00033B70000D0630300F1BC00005CE50300BB
:1084B00009BE0000345404007DBE0000C02F04003B
:1084C00081BF00000100000083BF0000800D040098
:1084D000FBBF000048150400FFC00000B0AC0580E1
:1084E000CDC1000040B0030071C20000109603002F
:1084F000F7C50000B0A9008015C600000084008008
:1085000023C60000B0AB008085C60000BC55040047
:108510009FC60000B0AB0080CFC60000B0AA0580A7
:1085200009C70000B455040033C70000B0A9068095
:10853000E9C70000D8A60300A5C800000084008099
:10854000A5C80000E0E7030069C90000E0F10300EE
:108550000DCA0000F44F040027CA0000E014040014
:10856000F9CA0000FCF80300C3CB000024F90300A3
:1085700099CD0000B0B0A880BDCD0000B0A80180AA
:10858000E9CD0000E83204003FCE0000B0A8018031
:1085900049CE0000B0A9048089CE0000E832040072
:1085A000CFCE0000B0B0A880D5CE0000F0320400DD
:1085B00019CF00008CE80300F5CF00000100000097
:1085C000E1D00000C45204002DD100005C4E040034
:1085D0007FD1000064B0030085D20000B0A8018004
:1085E0008FD200007456040015D30000B0AA018099
:1085F00039D30000B0B0A8805DD30000B0A80180DE
:1086000065D30000B0B0AA80D9D30000E0330400E5
:1086100055D40000B0B0A88081D40000B0A900807B
:1086200095D4000020330400F9D40000B0B0A88035
:108630003DD50000B0AB0280E3D50000B0B0AA8009
:1086400093D60000B0AE018049D70000B0B0A8803A
:1086500063D70000B0AC038003D90000B0AB00804A
:108660009DD90000B0B0A880A9D90000AC56040084
:1086700017DA0000B0A9008035DA0000A831040044
:10868000F5DA0000944D0400F1DB0000B0A8018091
:108690007FDE0000B0AD0680C7DE0000B0AC078012
:1086A0003BDF0000B83204008FDF0000B0AE0B806B
:1086B00009E00000C032040089E00000FC4D040025
:1086C00099E00000B0AA0580A1E10000B0A90080F7
:1086D000F5E10000B0AA0180A5E30000B0A9028086
:1086E000EFE30000B0A80180FBE30000FC530400AE
:1086F0001DE40000045404003FE400000C54040096
:108700006FE40000444F040093E4000004410400BF
:10871000B1E40000B0AA058035E50000B0A80380F0
:1087200053E50000B0B0A8805BE500004C520400A7
:108730008BE5000054520400B5E50000001404006D
:10874000E1E60000B0AA018041E700004CA203006E
:1087500025E9000008140400A3E900003C520400CD
:1087600017EA00006C2D0400A5EA0000B0B0A88054
:10877000ADEA0000A0B2030095EB0000B0B0A88005
:10878000A3EB0000E45104001BEC00009013040074
:10879000BDEC0000B0B0A880C5EC00000C52040095
:1087A0003DED00006C84030069F10000B0B0A880CA
:1087B00099F10000183104008DF20000E0EF030091
:1087C0006DF30000A4E10300C9F40000B0B0A8807C
:1087D000F3F40000E452040069F5000030F00300F7
:1087E00049F6000004E40300B1F70000B0B0A8802F
:1087F000B9F70000B8B10300ABF80000B0B0A88032
:10880000B9F80000E03004007DF900004C5104008C
:10881000C1F90000DCF6030069FA0000B0A803808B
:108820009BFA000024B3030029FB0000B0B0A8802D
:1088300031FB0000B45104005BFB0000BC5104009C
:108840007BFB0000B830040069FC0000BC51040050
:10885000A9FC0000C45104001FFD0000B0AA018063
:108860007FFD0000909D0300C9FF0000BC51040083
:10887000C9000100B0A80380E7000100B0B0A880E3
:10888000EF000100145004001F0101001C500400FF
:10889000490101000812040075020100B0AA01801C
:1088A000D7020100486C03003F0701000CE1030000
:1088B0005708010004500400CB080100A42B040059
:1088C00099090100B0A80380B7090100B0B0A880E1
:1088D000BF09010054500400EF0901005C5004007E
:1088E000190A010018120400450B0100B0AA01800A
:1088F000A70B0100CC9F03008D0D0100ACE103002C
:10890000A50E010044500400190F0100A82B04001B
:10891000A90F0100B0A80380C70F0100B0B0A88064
:10892000CF0F010064510400FF0F01006C510400DF
:10893000291001004812040055110100B0AA01805D
:10894000B71101009C740300C91501004CE203003B
:10895000E1160100545104005D170100E42B0400EE
:1089600015180100B0A8038033180100B0B0A8802A
:108970003B180100445004006B1801004C500400E7
:108980009518010018090400CF190100B0AA018050
:10899000311A010044990300B51C01005CE1030099
:1089A000CD1D010034500400411E0100402B040085
:1089B000051F0100B0B0A8800D1F0100B0A9008004
:1089C000351F0100B0B0A880431F0100482F0400EC
:1089D00007200100A45004004B200100502F040088
:1089E0008F200100F0ED0300A721010090B00300EB
:1089F000D9220100302B040049230100B0B0A88027
:108A000073230100C0080400E9240100B0AA01801A
:108A10004B250100608003000F2901002CE10300B9
:108A2000272A0100445004009B2A0100DC2A04008C
:108A3000592B0100B0A80380772B0100B0B0A880AB
:108A40007F2B0100B44E0400AF2B0100BC4E04008C
:108A5000D92B010088100400032D0100B0AA018069
:108A6000652D0100B0B903003D2E0100ECDF0300CD
:108A7000552F0100A44E0400C92F01001C2A040038
:108A800039300100B0A9008071300100B0AA058022
:108A900017310100B0AA0180AF310100FC4A040087
:108AA000D1310100044B0400F33101000C4B0400F0
:108AB00015320100144B040037320100B0A80180C8
:108AC000653201000100000067320100008400806F
:108AD00067320100B0AA0580AD320100B0A9008064
:108AE000D5320100702D04006B33010078EC0300D7
:108AF0002B350100B0AA01804D37010001000000B4
:108B000063370100B0B0A88077370100B0B0AA8009
:108B10007F370100B0B0A880AB370100B0A900805A
:108B20001D380100B0B0A880B9390100B0AB0A808F
:108B3000E3390100B0AB0680053A0100B0AA058018
:108B4000BF3B0100B0AB00806B3C0100B0AA0180CC
:108B50007D3C0100B0B0AC80833D0100B0AA018033
:108B6000D13D0100B0AB0080E33E0100B0A9008020
:108B70005F3F0100B0B0A8809F3F0100B0B0AC8063
:108B8000B7400100B0B0AA807B410100B0B0AE8018
:108B9000BF420100B0AB008045450100B0B0A880E5
:108BA00055450100B0B0AA80E7450100B0B0AE80E5
:108BB00069460100882C0400E94601007C49040054
:108BC00073470100181004005F480100B0A801803D
:108BD00069480100ACE20300894901007C510400AE
:108BE000AB49010084510400114A0100602E0400C9
:108BF000B14A010002A80280054B0100B0B0A88074
:108C0000254B0100B0A900802B4B0100B0B0A8801B
:108C1000814B0100B0AB0280274C0100B0AB00805B
:108C2000D94C0100B0AE01808F4D0100B0B0A880DA
:108C3000A94D0100B0AB0280694E0100B0AB0080CD
:108C4000034F0100B0B0A880134F0100882D04002D
:108C50009D4F010001000000A14F01000C4C0400D9
:108C6000E94F0100F80D040017510100100E040037
:108C7000F5510100E45303009B5401004C450400EE
:108C800007550100B0AF0880015701004C450400B2
:108C9000D1570100CC6D0300515901009C500400D4
:108CA000BD590100B0AF0880395B01009C50040041
:108CB000E15B0100D82C0400435C0100E82C0400B7
:108CC000E75C0100744D0400095D01007C4D040067
:108CD0002B5D0100844D0400855D0100B0B0AA80C9
:108CE000A55D01001CE20300DF5D0100B0B0A880BB
:108CF000F75D010000EA0300DD5E0100B002A9801B
:108D0000055F0100B0AD0080A15F0100002B0400F1
:108D1000CD600100B0A90080896101000100000060
:108D200091610100B44F0400DD610100B0B0A88082
:108D3000F1610100B44F04002D620100E02C040039
:108D4000D1620100B0AC01802F630100500E04001D
:108D500037640100680E040011650100B0AB0080AB
:108D600035650100B0A9008079650100B0B0AA8026
:108D7000D5650100B0B0A88029660100B0B0AC8014
:108D800083670100B0B0AE8083680100B0AA0180A3
:108D900095680100B0B0A880B3680100B0A8018058
:108DA000E5680100B0AA018045690100B0AA05800C
:108DB000C5690100B0A90080096A0100B0A801805E
:108DC000156A0100B0AA0180F96A0100B0AA058005
:108DD000536C0100B0B0A880AD6E0100B0B0AC80A3
:108DE00001710100844D0400217101008C4D0400CB
:108DF00041710100944D0400617101009C4D04001B
:108E000081710100A44D0400A1710100AC4D04006A
:108E1000C171010020A1030029720100B0AB0680DE
:108E2000C9720100A44D040039730100B0AA058085
:108E300081730100A44D040091730100B0B0AE80B5
:108E400079740100B0AB04801D750100B0AB0080E7
:108E5000B3750100B0B0AA802D760100B0B0AC802F
:108E6000CB760100B0B0AA80D37901000C360400A3
:108E7000357A01002C3604000F7E01001036040004
:108E8000717E010030360400B3810100D835040042
:108E9000EF810100B0B0AA80A1860100B0AB0080D4
:108EA0007F870100B0AF0280E18701009C38040099
:108EB000198B0100B0B0AC80338C0100BC4E0400B3
:108EC0005D8C0100B0A900809F8C01003039040046
:108ED000498E0100B0AB0280C78E0100B0B0AA80FD
:108EE000EB8E010014430400F58F0100AC43040035
:108EF00005900100B0AF028089910100B0B0AA8056
:108F0000E39101007444040013920100B0B0A88002
:108F100019920100D44404008B9201000084008067
:108F20009D930100B0A90A80E3930100B0AA0180DB
:108F300043940100B0AB00802D950100E43704009C
:108F40005F95010018260400C39501002C2604003B
:108F5000499601004026040093960100FC4B040052
:108F60000D970100B0AB008007990100C8370400DD
:108F7000F59B010090350400359C0100B0B0AA803B
:108F8000439C0100B0B0A880F99C0100B0B0AE8055
:108F90003B9D0100B0A90080539D0100B0B0A880A6
:108FA000579F0100B0AA0180E19F0100B0B0AE80E0
:108FB000A3A20100F03504002FA50100D435040060
:108FC0005FA80100B0B0AA8079A9010001000000EB
:108FD0007DA90100244D0400C7A90100B0B0A880FC
:108FE000DBA90100244D040017AA0100B0AC0180E8
:108FF00051AA0100B0AB028071AA0100B0A90080A3
:10900000DBAA0100B0B0AA8037AB0100B0B0A880E5
:1090100091AB010002A80280AFAB0100B0AB0280AF
:109020004BAC0100B0AC0180ADAC010002A80280E5
:109030002DAD01000100000031AD01002C4C0400F9
:1090400063AD0100344C04009DAD0100B0AB008065
:10905000BDAD0100B0AAD080E9AD0100B0A900808B
:109060002DAE0100B0B0AA8089AE0100B0B0A880DA
:1090700065AF010002A80280BBAF0100B0AB028067
:10908000DBAF0100B0A9008029B00100B0B0AA8018
:109090002BB10100744B040075B10100B0AA01802E
:1090A000D5B10100B002A98001B20100B0A80980C9
:1090B00031B20100B0A906805DB201007829040038
:1090C000E3B20100B0A90080F5B201004C34040005
:1090D00057B30100E43404005FB60100A03404007B
:1090E000C1B6010010350400C9B90100683404009C
:1090F0002BBA0100EC3404006FBD0100B0AF028058
:1091000055BF0100B0B0AE8097C00100B0A900808B
:1091100021C10100B0B0A88085C10100B0B0AE800F
:1091200045C20100B0B0AA80D7C20100B0AB008038
:109130007FC30100B0AE0180CDC30100B0AF00809D
:1091400027C70100843304004FC90100B0AB008081
:10915000F7C90100B0AE018045CA0100B0AF008080
:109160009FCD0100783304006DCF0100B0AA0180CB
:10917000B9CF0100B0B0AA802DD10100B0B0A88055
:109180006FD10100A8330400B7D1010040340400BE
:1091900025D50100B0AB008023D60100B0AF008020
:1091A0007DD90100B835040099DB0100B0B0AA8078
:1091B000DDDB0100B0A90080E5DB0100B0AB008081
:1091C00093DC0100B0A80180C5DC0100B0AB0080D9
:1091D000DBDC0100B0B0AA806BDD0100B0B0AC8078
:1091E000BBDD010001000000D1DD0100B0B0A880AE
:1091F000D5DD0100B0B0AA80DFE20100B0B0A880E8
:10920000E3E20100B0B0AA800DE3010044320400A3
:10921000E5E40100B0B0A88027E50100B0B0AA8065
:109220008DE5010098270400F5E50100B0B0AC80A1
:109230002DE60100B0B0AA8007EA0100B0AC0180C1
:10924000E3EC0100B0AE018003EE0100B0AB0080A2
:1092500019EE0100B0B0A8801DEE0100B0B0AA80E8
:109260009BF0010058340400FDF001007834040044
:1092700005F40100B0AB008047F40100B0B0AA8053
:10928000DFF7010010340400D9F801001C34040099
:109290003BF901003C34040067FD0100B0B0A88038
:1092A0006BFD0100B0B0AC8023FF0100B0B0A8801E
:1092B00027FF0100B0B0AC80D3010200B0B0AE8097
:1092C000E502020002A80280FD0202006C410400D7
:1092D00047030200B0B0A8805B0302006C410400A9
:1092E000B3030200B0B0A880BD030200B0AB04809D
:1092F0000B040200B0B0AA8067040200B0B0A880DE
:109300008D040200B0A9008095050200B0B0A880CD
:1093100099050200B0B0AA807D060200CC3404009A
:10932000E3060200B0AB00807F070200B0AE018010
:10933000CD070200B0AF0080190B0200CC32040050
:10934000CF0C0200B0AB00806B0D0200B0AE01800C
:10935000B90D0200B0AF008005110200E832040030
:10936000BB120200B0AB008057130200B0AE018008
:10937000A5130200B0AF0080F1160200B432040061
:10938000B9180200B0AF02800F1C0200B0A9008023
:109390008D1C0200B0AA0180C71C0200B0A9008089
:1093A000ED1C020024440400151D02003C42040090
:1093B000491D0200B0A90080771D0200B0AE0180F7
:1093C00055210200B0A9008083210200B0AE0180C7
:1093D0006B250200B0A900808D250200B0B0AA80E4
:1093E00019260200B0AA01806D260200B0AB0080F1
:1093F00015270200B0B0AA8043270200B0AF00805A
:109400009B2A0200183204005D2C0200B0A90080E3
:1094100013310200B0B0AA8029310200B0AC018043
:1094200081310200B0B0AA808F310200B0AB008061
:109430000B350200B0B0AA8039350200B0AB008015
:109440002D360200B0A8018089360200B0AB008042
:10945000C1360200B0B0AA8079380200B0AA0180FB
:10946000A7380200B0A90A80FB3A0200B0AA018026
:10947000933B0200B41F040061400200B0AA0180C7
:1094800023410200B0AE018031420200B0AC018045
:1094900065420200B0AA018085420200B0B0A880F7
:1094A00083430200B0AB00801F440200B0AE0180D5
:1094B0006D440200B0AF0080B94702005032040092
:1094C0006F49020001000000034A0200B0B0AC8006
:1094D000C34A0200B0B0A880A9500200B0AB00801F
:1094E000C5510200B0AE018013520200B0AF00803F
:1094F0006D55020004320400D5570200B0AA018065
:10950000F55702006831040085590200B0AA0180B5
:10951000A559020044310400EF5C0200B0A90080AC
:109520004D5E0200B0B0AA807B5E0200B0AB00804E
:1095300045610200B0A9008073610200B0AE0180F5
:10954000B9640200B0A90080E7640200B0AE0180F7
:109550000D680200B0A900803B680200B0AE018037
:10956000E36B0200B0AB0080956C0200B0A90080F4
:10957000276D0200143F04001D6E0200B0A9008098
:10958000416E0200243F0400376F0200B0A9008042
:109590005B6F0200043F0400FB6F0200B0A9008073
:1095A00085700200B0B0AA80AB730200B0A9008041
:1095B0001F750200B0B0AE80DB750200B0A902805A
:1095C000FF750200B0B0A880037602001C2D0400D5
:1095D00057760200282D0400AD7A0200B0B0A880B2
:1095E000E37A0200082E04002B7B0200142E0400F4
:1095F0006D7E0200B0B0AA80AF7E0200B0AC0180E8
:10960000057F0200B0A90080757F0200CC3D0400F8
:1096100097850200B0B0AA800F880200FC440400C5
:1096200093880200B0A90280DB880200B0A9008004
:10963000E9880200B0AA0180AD890200B0A90080CB
:10964000DB890200B0AE0180218D0200B0AB00804A
:10965000AD8D0200702D0400A58E0200B0AA01801D
:10966000C58E0200B0AC0180298F0200B0A9008035
:10967000578F0200B0AE018081930200B0A9008034
:10968000E994020001000000E3A10200B0A90080FB
:10969000C9A30200B0B0A880FFA30200D430040028
:1096A00047A40200E0300400FFA70200B0AC018034
:1096B00031A80200B0A9008055A802001C3F040098
:1096C00019A90200B0A900803DA902006C3F040066
:1096D000BFA90200B0A90080E3A902003C3F04003A
:1096E0002DAB0200B0A90080A9AB0200B0AB008096
:1096F0004DAC0200B0AA0180A1AC0200B0AB00806A
:10970000EDAC0200B0AA018041AD0200B0AB008018
:109710008BAD0200B0B0A880D3AD0200B0A900802C
:1097200005AF0200D43E0400A1AF0200B0AB008040
:1097300081B002004C2F0400BDB00200B0AA01802D
:10974000DDB00200B0AB008091B10200B0B0AA80E1
:10975000BFB10200B0AF008027B50200B42B0400F7
:1097600045B80200B0AA018071B80200B0AB008019
:1097700019B90200B0B0AA8047B90200B0AF0080AA
:109780009FBC0200902C040073BE0200B0A90080B0
:1097900017BF0200B0A9028049BF0200B0A9008033
:1097A00093BF0200B0B0AA80DFBF0200981C040083
:1097B00061C60200B0AA018085C60200342D0400F3
:1097C000C9C60200B0A90080F3C70200EC3F040044
:1097D000DBC80200B0A900806BCA0200CC3F0400C5
:1097E000E7CA0200B0A9008057CB02007C2D04001C
:1097F000BDCB0200B0A900802DCC0200442D040096
:1098000075CC0200B0AB008069CF0200B0AA018025
:1098100095CF0200B0AB00803DD00200B0B0AA806E
:109820006BD00200B0AF0080C3D302006C2F0400E5
:1098300031D60200B0AB00807DD60200B0AA018014
:10984000D1D60200B0AB00801DD70200B0AA0180C3
:1098500071D70200B0AB0080BDD70200B0AA018072
:1098600087D80200143C0400CDD80200FC3B040061
:109870004FD90200B0AB008095D90200DC3C040057
:1098800091DA0200B0A90080E1DA0200B0B0AA804B
:1098900079DF0200B0A90080BDDF0200B0B0AA806D
:1098A000FDE20200B0A90A8033E30200902B04001D
:1098B00069E30200B0AB0080EBE30200B0B0AA8025
:1098C00067E60200B0A90080D9E60200B0AB0080D4
:1098D00025E70200B0AA018099E70200982A040057
:1098E00035EE0200B0A90080BDEE0200B0AB0080F2
:1098F00009EF0200B0AA01804FEF0200B0B0AA80C9
:1099000005F10200B0A9008049F10200B0B0AA80C0
:10991000A1F40200743C0400E9F402005C3C040081
:1099200031F50200B0B0AA8075F50200B0A8018040
:1099300031F60200B0A90080CDF60200AC38040078
:10994000AFF80200B0A900804BF902001C3A0400F5
:10995000F5F90200B0B0AA803DFB02003C3E0400D5
:10996000ADFB0200B0B0AA80C3FD0200B0A9008028
:109970005FFE020084420400F9FE0200B0A80180EC
:1099800053FF0200B0B0A880B1FF0200B0AB00806E
:10999000FBFF0200B0A90080F5000300B0AB00801F
:1099A0003F010300B439040091010300B0B0AA8064
:1099B000E1010300243E04001B020300B0B0AA80B2
:1099C0003D020300643C0400650203003C3C0400CB
:1099D0000D040300B0AB0080570403000C420400E8
:1099E0009B040300B0B0A880AB040300B0B0AA8011
:1099F000C5040300B0A900805D0503008C39040094
:109A00009505030054380400EF0503006C3804008A
:109A100017060300543B04002D060300B0A9008084
:109A200007070300F441040041070300B0B0AA8017
:109A300065070300B0B0A8801D080300B0B0AA807D
:109A400081080300981D04000D090300B0A90080DF
:109A50001B090300B0B0AA807D090300B0AA0180F1
:109A6000C9090300B0B0AA80850A0300B0A900802C
:109A7000570B0300B0B0A880AB0B0300B0A9008067
:109A80001B0C0300010000000F130300B0AB0080AB
:109A9000A9450300B0A80180815203000100000025
:109AA000B5520300B0B0A880CB520300B0B0AA807A
:109AB000C75303001439040025560300B0A90080E1
:109AC0005B56030000840080215803000100000061
:109AD0006B5D0300B0A90080C5640300B0AC0580D5
:109AE00023650300E8A903006B660300B0AA0180A8
:109AF0008D660300001D0400E9660300B0B0AC8071
:109B000025680300B0AA018019690300B0B0AA80DB
:109B100089690300B0AB0080E1690300B0B0A880A0
:109B2000A76A03003C280400696B0300B0B0AA8058
:109B3000536C030068280400AB6C0300B0AB0080DA
:109B4000C16C030024370400256D0300B0A9008018
:109B5000876D0300B0AC0180D16D0300B0A9008017
:109B6000FD6D0300B0AA03802D6E0300B0AB008032
:109B7000636E0300C4270400956E0300B0B0AA8092
:109B8000C16E0300C43604001D7203000100000012
:109B90009173030084CD0300477403000C37040065
:109BA000F574030000840080F5740300B0AA0180FE
:109BB0002975030048FE0300777503009027040011
:109BC00075760300B0A9008061770300B0B0A8806B
:109BD000C9770300B0AB00805F780300D42704008E
:109BE0008F780300B0AC0180D3780300B0B0AC80B4
:109BF000B3790300B0A90280CD790300DC2704000B
:109C0000277B030020270400517B0300B0A90080BC
:109C1000597B030001000000137C03006C27040043
:109C20005B7C0300B0AB0080C77C0300B0B0AA80AF
:109C3000037D0300543604002B7D0300FC35040033
:109C4000E582030001000000F98E0300989E0300E6
:109C5000B990030001000000A7910300CC27040085
:109C600031920300B0B0A880ED9303000100000022
:109C700049940300B0AB008035950300010000005B
:109C800091950300B0AB00807D96030001000000B9
:109C9000D9960300B0AB0080C59703000100000017
:109CA00021980300B0AB0080DF9C0300010000009E
:109CB000C59F0300F0F70300C1A80300B0AC01800A
:109CC00019A90300B0A9008093A90300B0AB0080DC
:109CD00049AA0300B0AC0180A1AA0300B0A900808A
:109CE0001BAB0300B0AB0080CDAB0300B0AC018078
:109CF00025AC0300B0A900809FAC0300B0AB00808E
:109D000051AD0300B0AC0180A9AD0300B0A9008043
:109D100023AE0300B0AB0080D9AE0300B0AC01802D
:109D200031AF0300B0A90080ABAF0300B0AB00803F
:109D300061B00300B0AC0180B9B00300B0A90080ED
:109D400033B10300B0AB0080E9B10300B0AC0180D7
:109D500041B20300B0A90080BBB20300B0AB0080E9
:109D600071B30300B0AC0180C9B30300B0A9008097
:109D700043B40300B0AB0080F9B40300B0AC018081
:109D800051B50300B0A90080CBB50300B0AB008093
:109D900081B60300B0AC0180D9B60300B0A9008041
:109DA00053B70300B0AB008009B80300B0AC01802A
:109DB00061B80300B0A90080DBB80300B0AB00803D
:109DC00091B90300B0AC0180E9B90300B0A90080EB
:109DD00063BA0300B0AB008019BB0300B0AC0180D4
:109DE00071BB0300B0A90080EBBB0300B0AB0080E7
:109DF000A1BC0300B0AC0180F9BC0300B0A9008095
:109E000073BD0300B0AB008029BE0300B0AC01807D
:109E100081BE0300B0A90080FBBE0300B0AB008090
:109E2000B1BF0300B0AC018009C00300B0A900803D
:109E300083C00300B0AB008039C10300B0AC018027
:109E400091C10300B0A900800BC20300B0AB008039
:109E5000BDC20300B0AC018015C30300B0A90080EF
:109E60008FC30300B0AB008041C40300B0AC0180DD
:109E700099C40300B0A9008013C50300B0AB0080F3
:109E8000C5C50300B0AC01801DC60300B0A90080A9
:109E900097C60300B0AB008049C70300B0AC018097
:109EA000A1C70300B0A900801BC80300B0AB0080AD
:109EB000CDC80300B0AC018025C90300B0A9008063
:109EC0009FC90300B0AB0080F9CF0300B0B0AA80F7
:109ED000EBD7030038150400F5DD0300B0AD0080BA
:109EE0002BDE0300B0B0AC80AFDE0300B0AD00806D
:109EF000E5DE0300B0B0AC8089E00300B0AD0080C7
:109F0000B1E00300B0B0AC8031E10300B0AD00803F
:109F100059E10300B0B0AC806DF10300B0B0A8808F
:109F2000F9F10300B0AB0280F9F2030084160400DB
:109F3000BDF3030084330400DDF303008C3304001D
:109F4000FDF30300B43404001DF403000C370400D7
:109F50003DF4030094380400850C0400B0B0AA80DE
:109F60009D0C0400B0AB0080C10C0400B0B0AA800E
:109F7000F10C0400B0AB0080150D0400B0B0AA8055
:109F8000630D0400B0AB0080870D0400B0B0AA8060
:109F9000D50D0400B0AB0080F90D0400B0B0AA806C
:109FA000470E0400B0AB00806B0E0400B0B0AA8076
:109FB000B90E0400B0AB0080DD0E0400B0B0AA8082
:109FC0002B0F0400B0AB00804F0F0400B0B0AA808C
:109FD0009D0F0400B0AB0080C10F0400B0B0AA8098
:109FE0000F100400B0AB008033100400B0B0AA80A2
:109FF00081100400B0AB0080A5100400B0B0AA80AE
:10A00000D5100400B0AB0080F9100400B0B0AA80F5
:10A0100029110400B0AB00804D110400B0B0AA803B
:10A020007D110400B0AB0080A1110400B0B0AA8083
:10A03000D1110400B0AB0080F5110400B0B0AA80CB
:10A0400025120400B0AB008049120400B0B0AA8011
:10A050009912040094320400EB1204006C340400E2
:10A060006D150400B432040081150400BC320400F4
:10A07000CD15040064360400E11504006C360400BC
:10A080005D1A0400843104006D1A04008C31040050
:10A090007D1A0400943104008D1A04005C3204001F
:10A0A0009D1A040064320400AD1A04008C320400CE
:10A0B000BD1A040094320400CD1A0400DC320400FE
:10A0C000DD1A0400E4320400ED1A0400EC3204004E
:10A0D000FD1A0400043404000D1B04000C340400B9
:10A0E0001D1B0400143404002D1B04001C34040048
:10A0F0003D1B0400243404004D1B04002C340400D8
:10A100005D1B0400743504006D1B04007C350400E5
:10A110007D1B0400843504008D1B04008C35040075
:10A120009D1B040094350400AD1B04009C35040005
:10A13000BD1B0400C4350400CD1B0400CC35040055
:10A14000DD1B0400D4350400ED1B0400DC350400E5
:10A15000FD1B0400E43504000D1C0400EC35040074
:10A160001D1C0400F43504002D1C0400FC35040003
:10A170003D1C0400043604004D1C04000C36040091
:10A180005D1C0400843604006D1C04008C36040041
:10A190007D1C0400943604008D1C04009C360400D1
:10A1A0009D1C0400A4360400AD1C0400AC36040061
:10A1B000BD1C040074390400CD1C04007C3904006B
:10A1C000DD1C040084390400ED1C04005C3A04002A
:10A1D000FD1C0400643A04000D1D04006C3A0400E8
:10A1E0001D1D0400B43A04002D1D0400BC3A0400F7
:10A1F0003D1D0400C43A04004D1D0400EC3B040066
:10A20000B51F0400D4300400D91F0400FC31040041
:10A21000E71F040054340400F51F0400DC3504007B
:10A220002F200400043B04003D2004005C3B04009C
:10A2300000F5E0700268914203D343681A449142EA
:10A2400002D380680028F5D170471849086880B9A2
:10A250004FF4805048604FF480324FF0FF30C860B8
:10A2600008610420124B8A604861C3F8BC011148A0
:10A2700008600120704701F1080313F0070F0EBFBB
:10A280000023C3F1080303F007031944D21A8161C4
:10A29000C26042F001034B60091D4FF0280C41F8E9
:10A2A00002C0024A1369C36170470000583300209E
:10A2B000C82800206859883C2DE9F84F84B006462C
:10A2C000AFF30080F52E1E4D80F013820B2E31BFB0
:10A2D00010260B36F608F6002868F408E04010F067
:10A2E000030F4AD0C04300F00100041905F1280013
:10A2F00000EBC408E700D8F808607068C008C00028
:10A30000B84218BFFDF740FFD6F80890464508BF91
:10A31000FDF73AFF4E4508BFFDF736FF7068C008ED
:10A32000C000B84218BFFDF72FFFC8450AD1286802
:10A33000012101FA04F420EA04042C6010E000BFBB
:10A34000C82800202869814508D3D9F80C10B142EB
:10A3500004D1C8F80890C9F80C8001E0FDF714FF9B
:10A3600047F00300311D7060301DCA5942F00102F0
:10A37000C25106F1080800F01DBFA968B14280F083
:10A38000A883002800F0A2804FF0010808FA04F129
:10A39000490000FA04F4484201430C406042044082
:10A3A000641E200B00F01000C440610901F0080198
:10A3B000CC40A20802F00402D440630803F0020378
:10A3C0000818DC401018C4F3400718183818FC406F
:10A3D000241805F1280000EBC40AE700DAF8089019
:10A3E000D9F80400C008C000B84218BFFDF7CCFE81
:10A3F000D9F808B0D14508BFFDF7C6FED94508BF5A
:10A40000FDF7C2FED9F80400C008C000B84218BF6A
:10A41000FDF7BAFEDA4506D1286808FA04F420EA06
:10A4200004042C600DE029698B4508D3DBF80C008F
:10A43000484504D1CAF808B0CBF80CA001E0FDF7FC
:10A44000A3FEBF1B46F0030009F10402C9F8040093
:10A4500047F00101915109EB06020192D751AC6816
:10A460004FEAD40ABAF11F0F88BFFDF78DFE34B34F
:10A47000CDF800A005F128006E6900EBCA0AD346AA
:10A48000102C38BFFDF780FE2968009821FA00F2F1
:10A49000D30704D408FA00F00843286007E0DAF88C
:10A4A0000800296988422CBF8346FDF76DFECAF873
:10A4B0000860CBF80C60C6F808B0C6F80CA0AF6016
:10A4C00009F108080198686100F074BE6868002806
:10A4D00000F0208341420840401E010B01F01001B2
:10A4E000C840420902F00802D040830803F0040388
:10A4F000D840440804F002045118E0405918C0F351
:10A500004007611805F598787918F840401858F810
:10A5100020104868C008C0008A46A0EB060B08E07F
:10A5200001464868C008C000801B58453CBF8346B0
:10A530008A4608690028F3D149690029F1D12869C0
:10A540008245C0F0D380DAF80410C90806EB0B0985
:10A55000C900494518BFFDF717FE0AEB0600824502
:10A56000019080F0C380DAF80C40DAF81870544596
:10A570000DD0DAF808002969884223D3C268524511
:10A5800004BFA16851451DD1C460A0601CE00AF160
:10A5900014010C6834B90AF110010C68A4B101E08F
:10A5A00011460C6804F114021068002802BF04F17F
:10A5B000100210680028F3D12869814202D30022DA
:10A5C0000A6001E0FDF7E0FD002F38D0DAF81C004A
:10A5D00008EB80010A6892450AD11CBB6A68012316
:10A5E00003FA00F022EA000068600020086026E01C
:10A5F00029698F4213D33869504514BF7C613C618F
:10A60000ECB129698C4218D3A761DAF8100058B16F
:10A61000884226BF20618461FDF7B6FD04E0FDF7A6
:10A62000B3FDEDE70C60ECE7DAF8140038B1296906
:10A63000884202D36061846101E0FDF7A5FDBBF1B2
:10A64000100F0ED249F003000AF10401CAF8040009
:10A650000AF1040051F8092042F0010240F80920F3
:10A660003EE046F003010AF10402CAF804104BF080
:10A6700001009051019941F80BB0A8680090C408FE
:10A680001F2C88BFFDF780FD009828B305F1280036
:10A6900000996F6900EBC408C146102938BFFDF767
:10A6A00073FD286820FA04F1CA0705D4012101FAD4
:10A6B00004F404432C6007E0D8F8080029698842B4
:10A6C0002CBF8146FDF760FDC8F80870C9F80C7012
:10A6D000C7F80890C7F80C80C5F808B00198686101
:10A6E0001AF1080800F0F58100F064BDFDF74CFD9B
:10A6F000EFE116F1400F28BF4FF0FF3680F0E981FF
:10A700000B36F6086B68F600002B00F0E28100279C
:10A71000300AC6F1000908BF002423D0B0F5803FFD
:10A7200028BF1F241ED2A0F58071090C01F008017A
:10A730008840A0F58052120C02F004029040A0F56F
:10A740008044240CC1F10E0104F00204891A091B93
:10A75000A04001EBD031C81D26FA00F404F001043A
:10A7600004EB410405F5987858F8240030B31F2C09
:10A770000FBFB4464FEA540CCCF1190C06FA0CFC8E
:10A78000BE46494601E04FEA4C0C4268D208D2006E
:10A79000921B8A4202D2110007460CD04269103047
:10A7A0004FEADC7950F82900002A1CBF8242964605
:10A7B0000028E8D170468946A8BBB7BB012101FA41
:10A7C00004F4640060420443234000F08281584254
:10A7D00003405B1E180B00F01000C340590901F044
:10A7E0000801CB409A0802F00402D3405C0804F050
:10A7F00002040818E3401018C3F3400C201860440A
:10A8000023FA0CF31B1858F823000CE008464168A3
:10A81000C908C900891B49453CBF894607460169EB
:10A820000029F3D140690028F1D1002F00F05181B7
:10A83000A868801B814580F04C8129698F42FFF414
:10A8400055AF7868C008C00006EB0901884218BF00
:10A85000FDF79AFC07EB060B5F45BFF447AFFC68BA
:10A86000D7F818A0BC420CD0B8682969884223D315
:10A87000C268BA4204BFA168B9421DD1C460A060D9
:10A880001CE007F114010C6834B907F110010C68E1
:10A89000A4B101E011460C6804F11402106800280C
:10A8A00002BF04F1100210680028F3D12869814228
:10A8B00002D300220A6001E0FDF766FCBAF1000F46
:10A8C00039D0F86908EB80010A6897420AD134BB95
:10A8D0006A68012303FA00F022EA000068600020A1
:10A8E000086028E029698A4516D3DAF81000B842D2
:10A8F00014BFCAF81440CAF81040E4B129698C4268
:10A9000017D3C4F818A0386958B1884226BF20610F
:10A910008461FDF739FC04E0FDF736FCEDE70C60DF
:10A92000ECE7786938B12969884202D360618461B3
:10A9300001E0FDF729FCB9F1100F0CD2B14449F048
:10A940000300391D7860381D51F8092042F00102DA
:10A9500040F80920B9E046F003013A1D796049F05A
:10A96000010090514FEAD9004BF809901F2822D8D6
:10A9700005F1280101EBC004296821FA00F2D30790
:10A98000A04605D4012202FA00F00843286006E040
:10A99000A068296988422CBF8046FDF7F5FBC4F802
:10A9A00008B007F10800C8F80CB040F8068007F1BD
:10A9B0000C018C5189E05FEA192008BF002123D0E7
:10A9C000B0F5803F28BF1F211ED2A0F58072120C67
:10A9D00002F008029040A0F58051090C01F004013A
:10A9E0008840A0F580431B0CC2F10E0203F0020365
:10A9F000521AD21A984002EBD032D01D29FA00F137
:10AA000001F0010101EB420107F11403CBF81C1026
:10AA100000229A5107F1100308EB81009A516A68ED
:10AA200022FA01F3DC0711D4012303FA01F11143E7
:10AA30006960C0F800B0CBF8180007F1080107F111
:10AA40000C0040F806B041F806B03EE002681F294D
:10AA50001DBF4908C1F1190109FA01F1494600E099
:10AA600002465068C008C000484518D002F11003E3
:10AA7000C80F03EB8003490018680028F0D128694B
:10AA8000834220D3C3F800B007F10C01CBF81820A3
:10AA900041F806B007F1080040F806B015E0296952
:10AAA00090688A4228BF88420DD3C0F80CB007F1E5
:10AAB0000801C2F808B0885107F10C008251002249
:10AAC000CBF8182001E0FDF75FFB17F1080840F014
:10AAD0007183A868B0421DD3811B6A69102909D30C
:10AAE0009319A96041F001005860595046F00306DF
:10AAF00056600BE00021A96040F00304111D546072
:10AB0000141D0E5846F00106265000236B6102F119
:10AB100008084FE3E8688642C0F03C83DFF8CC9B2E
:10AB2000D9F8000008B9FFF790FBD9F80810881988
:10AB30002F30491E20EA01018E4280F0398305F54D
:10AB4000D877B86838B13A6889188A4280F030837B
:10AB50008842C0F02D8300F031FE00281CBFD0F8E1
:10AB6000008010F1010F00F0238339687A684144B6
:10AB700039608A4238BF7960AC6904BB296909B180
:10AB8000884200D2286100213861C7F81480F96139
:10AB90004FF0FF31D9F800206A62296205F12802DE
:10ABA00000219260D26002F1080353611361891C95
:10ABB00010321F29F5D9A8F1280201461DE005F53C
:10ABC000E0710A46814600E09268D2B1106853688D
:10ABD00003449945F8D1107B030712D413689C42B3
:10ABE0000FD3D2F804C063449C420AD2C444C2F8D2
:10ABF00004C02146E86808EB00022846FFF73BFB4B
:10AC0000C5E22869814538BFC5F8109009EB0800F6
:10AC100000E08968002900F0C1810A688242F8D109
:10AC2000087B020700F1BA810868C1F800904A6801
:10AC300042444A6009F1080111F0070F08BFCDF83E
:10AC4000049006D0C1F1080101F0070109EB0102EF
:10AC5000019200F1080111F0070F04D0C1F10801C1
:10AC600001F00701084480460198A8EB000184190F
:10AC7000A1EB060B274646F003064660474528BF72
:10AC8000FDF782FA98F80400C10758BFFDF77CFA77
:10AC9000BBF1100F38BFFDF777FAA869804508D1DE
:10ACA000E9688B44C5F80CB0AF614BF001007860E7
:10ACB00070E1686980450AD1A9686F618B44C5F865
:10ACC00008B04BF00100786047F80BB062E1D8F8AB
:10ACD000040000F00301012940F0BC80C008C0005E
:10ACE000C1081F29039040D8D8F808200092D8F84E
:10ACF0000C600291B04508BFFDF746FA0098804508
:10AD000008BFFDF741FAD8F804000299C008C00056
:10AD1000B0EBC10F18BFFDF737FA0299009A05F1A1
:10AD2000280000EBC100824208D011462A699142F6
:10AD3000C0F08B80CA68424540F0878000998E42FF
:10AD400006D102982A68012383409A432A607EE054
:10AD5000864205D029698E4277D3B068404574D1C8
:10AD60000098C6600099B16071E0D8F818000090B2
:10AD7000D8F80C6046450DD0D8F8080029698842FB
:10AD800023D3C268424504BFB16841451DD1C660A6
:10AD9000B0601CE008F114010E6836B908F110012A
:10ADA0000E68A6B101E011460E6806F114021068A3
:10ADB000002802BF06F1100210680028F3D12869AC
:10ADC000814202D300220A6001E0FDF7DDF900981C
:10ADD00000283CD0D8F81C0005F5987101EB8001E3
:10ADE0000A6890450AD12EBB6A68012303FA00F075
:10ADF00022EA000068600020086028E000992869C5
:10AE0000814214D30869404514BF4E610E61F6B10A
:10AE100029698E4219D30098B061D8F8100058B152
:10AE2000884226BF30618661FDF7AEF904E0FDF788
:10AE3000ABF9ECE70E60EBE7D8F8140038B12969FC
:10AE4000884202D37061866101E0FDF79DF90399A4
:10AE500088448B44D8F8041049084900C8F8041005
:10AE60004BF0010078604FEADB0647F80BB01F2E6D
:10AE700022D805F1280000EBC604A146BBF1100F53
:10AE800038BFFDF781F9286820FA06F1CA0705D412
:10AE9000012101FA06F606432E6006E0A068296942
:10AEA00088422CBF8146FDF76FF9A760C9F80C7086
:10AEB000C7F80890FC606DE05FEA1B2008BF002126
:10AEC00023D0B0F5803F28BF1F211ED2A0F580728D
:10AED000120C02F008029040A0F58051090C01F01C
:10AEE00004018840A0F580431B0CC2F10E0203F060
:10AEF0000203521AD21A984002EBD032D01D2BFA1C
:10AF000000F101F0010101EB4201F961002305F5B7
:10AF100098727B6102EB81003B616A6822FA01F35F
:10AF2000DE0707D4012303FA01F1114369600760CA
:10AF3000B8611DE002681F291DBF4908C1F1190150
:10AF40000BFA01F1594600E002465068C008C00003
:10AF5000584510D002F11003C80F03EB80034900DD
:10AF600018680028F0D12869834211D31F60BA61A4
:10AF7000FF60BC600EE0296990688A4228BF884261
:10AF800006D3C7609760B860FA600020B86101E03E
:10AF9000FDF7FAF8019800F108080BE12146284670
:10AFA000FFF746F90168406808440090A0F12701C6
:10AFB00011F0070000980EBF0021C1F1080101F057
:10AFC00007010844A0F12F0B04F110018B4538BF95
:10AFD000A3460BF11802002102920191A8F1280268
:10AFE00049462846FFF747F90BF1080010F0070F14
:10AFF00018BFFDF7C9F81B20CBF8040005F5E07277
:10B0000092E809500BF1080181E8095000210BF189
:10B010000800F961B861009A02980199C7F8109088
:10B02000C7F81480072300E0001D491C00F1080741
:10B0300097424360F8D30129D8BFFDF7A5F8A3458F
:10B0400000F0A580ABEB040B201D221D50F80B1067
:10B050004908490042F80B104BF0010060604FEACC
:10B06000DB0944F80BB0B9F11F0F22D805F1280015
:10B0700000EBC907B846BBF1100F38BFFDF784F8E5
:10B08000286820FA09F1CA0705D4012101FA09F15B
:10B090000843286006E0B868296988422CBF8046CA
:10B0A000FDF772F8BC60C8F80C40C4F80880E7608F
:10B0B0006DE05FEA1B2008BF002123D0B0F5803F80
:10B0C00028BF1F211ED2A0F58072120C02F00802C8
:10B0D0009040A0F58051090C01F004018840A0F5D2
:10B0E00080431B0CC2F10E0203F00203521AD21A63
:10B0F000984002EBD032D01D2BFA00F101F0010193
:10B1000001EB420105F59872002302EB8100E16139
:10B11000636123616A6822FA01F3DF0707D4012320
:10B1200003FA01F1114369600460A0611DE0026847
:10B130001F291DBF4908C1F119010BFA01F1594638
:10B1400000E002465068C008C000584510D002F127
:10B150001003C80F03EB8003490018680028F0D1E2
:10B160002869834211D31C60A261E460A4600EE0F0
:10B17000296990688A4228BF884206D3C4609460D7
:10B18000A060E2600020A06101E0FCF7FDFFE8683C
:10B1900086420DD2801BA969E8608A19AA6140F035
:10B1A0000100506046F003064E6001F1080801E01E
:10B1B0004FF00008AFF30080404605B0BDE8F08FC7
:10B1C000002800D170472DE9F047A0F10805AFF342
:10B1D0000080DFF81C6531698D42C0F084826868A8
:10B1E00000F00302012A00F07E82C2084FEAC20981
:10B1F000C20705EB090839D42C6810F0030F00F0E2
:10B200006E82604205448D42A144C0F06C82706938
:10B21000854200F0DE80E408202C72D2D5F80CA024
:10B22000AF68554508BFFCF7AFFFBD4208BFFCF74C
:10B23000ABFF6868C008C000B0EBC40F18BFFCF7D4
:10B24000A3FF06F1280000EBC400874205D0316956
:10B250008F4253D3FA68AA4250D1BA4540D13068E0
:10B26000012101FA04F420EA04043460454580F029
:10B270003A82D8F80440E00740F13582A10700F196
:10B280008381B069804540F0B780F168B561894439
:10B29000C6F80C9049F00100686071698D4202D1D6
:10B2A00000207061B060F169494580F01882DFF8D4
:10B2B0003C24106808B9FEF7C8FFB169002900F006
:10B2C0000E82F068292824BF3046FEF7B1FFF069EE
:10B2D000F168884280F003824FF0FF30F061FEE1B8
:10B2E000824506D03069824508D3DAF80810A942B1
:10B2F00004D1C7F80CA0CAF80870B7E7FCF744FF00
:10B30000B4E7EC68AF69AC420BD0A868884222D39E
:10B31000C168A94204BFA268AA421CD1C460A0604F
:10B320001BE005F11402146834B905F11002146829
:10B330009CB101E01A46146804F11403186800284F
:10B3400002BF04F1100318680028F3D18A4202D327
:10B350000021116001E0FCF717FF002F86D0E8699B
:10B3600006F5987101EB80010A6895420AD124BB69
:10B370007268012303FA00F022EA000070600020E6
:10B38000086073E731698F4214D33869A84214BF4B
:10B390007C613C61002C3FF469AF31698C42ADD3D4
:10B3A000A761286958B1884226BF20618461FCF7F3
:10B3B000EBFE04E0FCF7E8FEECE70C60EDE7686903
:10B3C00000283FF453AF3169884297D360618461AC
:10B3D0004CE798F8040000F0030003287FF446AF20
:10B3E000C6F8089049F00101D8F804004008400070
:10B3F000C8F8040069600AE0706980450AD1B16844
:10B4000075618944C6F8089049F00100686045F804
:10B41000099064E1E408E400A144E408202C3AD255
:10B42000D8F80CA0D8F80870D04508BFFCF7ACFEDF
:10B43000B84508BFFCF7A8FED8F80400C008C00053
:10B44000B0EBC40F18BFFCF79FFE06F1280000EB1D
:10B45000C400874207D031698F42C0F08880FA6803
:10B46000424540F08480BA4507D13068012101FA95
:10B4700004F420EA040434607BE0824506D030699D
:10B48000824574D3DAF80810414570D1C7F80CA092
:10B49000CAF808706DE0D8F80C40D8F81870444528
:10B4A0000DD0D8F808003169884223D3C2684245DC
:10B4B00004BFA16841451DD1C460A0601CE008F133
:10B4C00014010C6834B908F110010C68A4B101E052
:10B4D00011460C6804F114021068002802BF04F140
:10B4E000100210680028F3D13069814202D3002293
:10B4F0000A6001E0FCF748FE002F3AD0D8F81C00A3
:10B5000006F5987101EB80010A6890450AD11CBBD1
:10B510007268012303FA00F022EA00007060002044
:10B52000086026E031698F4213D33869404514BF63
:10B530007C613C61ECB131698C4218D3A761D8F8C9
:10B54000100058B1884226BF20618461FCF71CFEC0
:10B5500004E0FCF719FEEDE70C60ECE7D8F8140006
:10B5600038B13169884202D36061846101E0FCF73F
:10B570000BFE49F00100686045F8099071698D4241
:10B580000BD1C6F80890AAE064086400C8F804402B
:10B5900049F00100686045F809904FEAD907202F6B
:10B5A00022D206F1280000EBC704A046B9F1100F23
:10B5B00038BFFCF7E9FD306820FA07F1CA0705D467
:10B5C000012101FA07F70743376006E0A0683169F7
:10B5D00088422CBF8046FCF7D7FDA560C8F80C5008
:10B5E000C5F80880EC607AE05FEA192008BF002106
:10B5F00023D0B0F5803F28BF1F211ED2A0F5807256
:10B60000120C02F008029040A0F58051090C01F0E4
:10B6100004018840A0F580431B0CC2F10E0203F028
:10B620000203521AD21A984002EBD032D01D29FAE6
:10B6300000F101F0010101EB420106F598720023CF
:10B6400002EB8100E9616B612B61726822FA01F300
:10B65000DC0707D4012303FA01F11143716005608F
:10B66000A8611DE002681F291DBF4908C1F1190129
:10B6700009FA01F1494600E002465068C008C000DE
:10B68000484510D002F11003C80F03EB80034900B6
:10B6900018680028F0D13069834211D31D60AA6177
:10B6A000ED60AD600EE0316990688A4228BF884243
:10B6B00006D3C5609560A860EA600020A86101E03B
:10B6C000FCF762FD306A401E08D13062D6F8C8012E
:10B6D00000E080680028FCD14FF0FF303062AFF30B
:10B6E0000080BDE8F087FCF74FFDF8E758330020F5
:10B6F000C82800202DE9F8438AB0804628216846F2
:10B7000000F072F82B4A106808B9FEF79EFDAFF3FF
:10B710000080DFF8A4E0DEF81820002A40D0DEF830
:10B720000C5005F12806012437460EF5E0711CE0A7
:10B730004FEADC090CF0030CBCF1010F07EBC90761
:10B7400004BF06EBC906641C03EBC90383420BD399
:10B75000D1F8049081444B4506D293421CBFD3F8E4
:10B7600004C0BCF1070FE3D1896861B1086800F13A
:10B77000080313F0070F0EBF0023C3F1080303F003
:10B7800007030344E2E700970EF5D870019408968A
:10B790000995016842680592CF1B891B04970791A0
:10B7A000AFF3008040466946282200F03DF80BB018
:10B7B000BDE8F08358330020C828002007490868F6
:10B7C00008B1002070470648C008C000086005495D
:10B7D000C908C900091A0160704700BF5C34002025
:10B7E0003F56002037560120002200F06FB88268D3
:10B7F000521C8260426832B10268531C03601170AF
:10B800004168491E4160704762B38B0708D0521EE1
:10B8100011F8013B00F8013B00F024808B07F6D1C2
:10B82000830740F0208000BF103A07D330B4B1E85E
:10B830003810103AA0E83810F9D230BC530724BFB2
:10B84000B1E80810A0E8081044BF51F8043B40F8E4
:10B85000043BD20724BF31F8022B20F8022B44BF4F
:10B860000B7803707047121F17D35B0009D151F892
:10B87000043B20F8023B1B0C121F20F8023BF6D2BF
:10B880000BE051F8043B00F8013B1B0A20F8023B97
:10B890001B0C121F00F8013BF3D238BF121D521EC1
:10B8A00024BF11F8013B00F8013BF8D8704702684B
:10B8B000531C03601170704780B5AFF30080024ADB
:10B8C00011001820ABBEFBE72600020000B500BF48
:10B8D000130096469446103928BFA0E80C50FAD8B9
:10B8E0005FEA417C28BF0CC048BF40F8042BC90761
:10B8F00028BF20F8022B48BF00F8012B00BD020032
:10B90000002070472DE9F14FB0B0924604910DF13F
:10B9100042013A9A2B9199464A7000200AE01AF89F
:10B92000011B0498309A90470028049000F0A686E6
:10B930000D98401C0D909AF8000050B12528EED1CA
:10B94000002100220791089209910A920B910C9212
:10B9500004E00D9800F094BE41F001011AF8010FC7
:10B960002028F9D023280CD02B2804D02D2805D04E
:10B97000302809D00BE041F00201EFE741F004016B
:10B98000ECE741F00801E9E741F01001E6E72A2879
:10B990000FD1D9F8002052F8040BC9F80020002874
:10B9A0000F9003D540420F9041F004010AF1010AC3
:10B9B00014E00F92DFF824380AE00F98984205DA75
:10B9C00000EB800402EB4402303A0F920AF1010AC4
:10B9D0009AF80020A2F130000A28EED39AF800006D
:10B9E0002E2803D04FF0FF320E9229E01AF8010FF3
:10B9F0002A2809D1D9F8000050F8042BC9F8000012
:10BA00000E920AF1010A1BE02D280CBF0AF1010A6F
:10BA1000002000220E92DFF8C4470BE040B90E9AD6
:10BA2000A24205DA02EB820503EB4503303B0E939D
:10BA30000AF1010A9AF80030A3F130020A2AEDD384
:10BA4000ADF84010DFF89807784400F294709AF847
:10BA5000001000F02DFF08B11AF8010B8DF842001C
:10BA60009DF84200682805D19AF8000068280CD19A
:10BA7000622106E06C2804BF9AF800006C2804D10B
:10BA800071218DF842100AF1010A12A806901AF8E5
:10BA900001BBBBF125012CD01C3900F0CF81091F5F
:10BAA000022940F2CB81133900F01385093900F0E7
:10BAB000C581891E00F0A885491E00F05585491EE4
:10BAC000022940F2BB81091F00F04E85491F00F09A
:10BAD0002881491E00F0FD84491E00F0D080C91E57
:10BAE0000DD0891E00F0F584C91E00F0F28400F02C
:10BAF00096BD25238DF84830012100F09BBDD9F873
:10BB0000000050F8044BC9F80000002C059440F0E8
:10BB1000A3802B994878002800F099804FF0FF34DB
:10BB20000FF6643000F0D2FE201A40F0A78500F036
:10BB300082BD6D1E40F099853096079D12AF75B19C
:10BB4000309E17F8012B02A9304600F063FE002852
:10BB500001D46D1EF5D10028309640F08F850A9DE6
:10BB60003020002D8DF804000CDD309E012301AA49
:10BB700002A9304600F05EFE002840F07F856D1E71
:10BB8000F4D13096059F089D75B1309E17F8012BB2
:10BB900002A9304600F03EFE002801D46D1EF5D10A
:10BBA0000028309640F06A850B9D3020002D8DF8DE
:10BBB00004000CDD309E012301AA02A9304600F0EA
:10BBC00039FE002840F05A856D1EF4D13096059854
:10BBD0000899099D471875B1309E17F8012B02A9E5
:10BBE000304600F017FE002801D46D1EF5D1002864
:10BBF000309640F043850C9D3020002D8DF80400D8
:10BC00000CDD309E012301AA02A9304600F012FE8D
:10BC1000002840F033856D1EF4D130969DF8400029
:10BC200041077FF588AE2020002C8DF804007FF7B7
:10BC300082AE309D012301AA02A9284600F0FAFD38
:10BC4000002840F01B85641EF4D1309573E60FF692
:10BC50004440059000F0EFBC0E9D002D04D5204619
:10BC600000F054FE044607E02A46204600F06CFE31
:10BC7000002814BF041B2C46089400F0DCBCD9F843
:10BC8000001051F8040BC9F8001020F00004002146
:10BC900021F0FF3512ABCDE902450593DDE9022322
:10BCA00006993C2413B90AB90E9898B102F00F0511
:10BCB0003035641EEEB23A2EA8BF2735120942EA8B
:10BCC00003721B090D5508BF002A03D005980D19F2
:10BCD000A842EBD308190590C4F13C020E980892D3
:10BCE00082420ADABDF84010821A4FF6EF70014026
:10BCF0000A92ADF8401000F09EBC002840F19B84F1
:10BD00009DF8400000F01400102840F094840F9B30
:10BD100007990A985B1A1B1A9A1A002A40F38B8417
:10BD2000D5E32B99487820B14FF0FF340FF634302B
:10BD3000F8E69DF84200622861D0682817D06A288A
:10BD40003FD06C2806D0712847D074282CD07A2890
:10BD50001DD064E0D9F8001051F8040BC9F80010A8
:10BD6000002868D14FF0FF340FF61030DAE6D9F82A
:10BD7000001051F8040BC9F8001020B94FF0FF343F
:10BD80000FF6F820CEE60D99018000F054BCD9F8EA
:10BD9000001051F8040BC9F8001000284BD14FF0E7
:10BDA000FF340FF6D820BDE6D9F8001051F8040B87
:10BDB000C9F8001000283ED14FF0FF340FF6BC2028
:10BDC000B0E6D9F8001051F8040BC9F8001080B99A
:10BDD0004FF0FF340FF6A420A4E6D9F8001051F874
:10BDE000040BC9F8001020B94FF0FF340FF68C2077
:10BDF00098E60D9AD317C0E9002300F01CBCD9F8CF
:10BE0000001051F8040BC9F8001020B94FF0FF34AE
:10BE10000FF6682086E60D99017000F00CBCD9F889
:10BE2000001051F8040BC9F8001020B94FF0FF348E
:10BE30000FF6482076E60D990160FCE3D9F8002062
:10BE4000D21D22F00702C9F80020D2E90001083211
:10BE5000C9F80020CDE90201C80F02D007982D21B2
:10BE60000AE0BDF84000810702D507982B2103E0C6
:10BE7000C00705D50798202112AA1154401C07902D
:10BE800012A807994BF020024318DDE90201CDE921
:10BE90002C01612A059321AC0BD00E98002802D505
:10BEA00006200E9005E001BF4BF02000672801211D
:10BEB0000E91DDE9020148004015401C0A460DD1F3
:10BEC00009030BD0ABF1610503201A2D089002D2B3
:10BED0000FF6C4110DE00FF6C4110AE070B9120399
:10BEE0000CD1ABF1610503201A2D08901AD30FF67F
:10BEF000B41103221846FFF787FC9CE3DDE9020139
:10BF0000CDE92E01DDE92E2323F00047B7F5801F90
:10BF100022F000060DD20022002F08BF002E009252
:10BF200003D116E00FF67811E3E76A4600F038FD1A
:10BF30000FE0DFF8C008DFF8C01800EB17500090E2
:10BF4000DDE92E234FF0FF301940DFF8B0781040C4
:10BF50003943CDE902014BF0200061280DD105984D
:10BF600030210170821CBBF1610F05920CBF78215A
:10BF7000582141700798801C0790DDE9020120F0EC
:10BF8000000231F0004308BF002A02D1002600253C
:10BF900068E14BF02008B8F1610F40F0B4800E98D2
:10BFA000002847BF21210191401C0190019FDDE93C
:10BFB0002C017F1C00220023DDE9024500F028FD52
:10BFC00000998DF8842038BF85F00045091F002FA7
:10BFD00000910DF1850653DD2046294600220023FD
:10BFE00000F030FD4CD24800400D00F11C0312D08F
:10BFF000002B10DD40F2FF70834206DBDFF80018F3
:10C0000005F000421143002011E06FF31E5141EA98
:10C01000035120460BE024F0000035F0004108BF3A
:10C0200000280FBF29461C22294600F025FD0446A2
:10C030000D4600F0C1FDFF1F002F804609DD00F016
:10C04000DBFD02460B462046294600F0E9FD04468A
:10C050000D46F01D0721B8F1000F0CDD491E5EBF33
:10C0600008F00F0200F8012D4FEA2818F3D502E07E
:10C07000002200F8012D491EFAD5C61D002FABDCA9
:10C080000DF18500361A01988642D8BF3046002847
:10C090000DF1850430D4B04206DA0DF185010A5C59
:10C0A000082AA8BF0F2100DA0021024621AB134461
:10C0B00000E0401E13F80159521E8D42F9D00F299D
:10C0C00004D10DF185018B5C5B1C8B54002A04D5D7
:10C0D0000099091D21AC401C0091411E0CD462182E
:10C0E000ABF13A0613783033DDB23A2DA8BFF3181E
:10C0F000491E02F80139F5D50E99002940F1B080AA
:10C10000421E0E92ACE00099DFF8F82647F29750F5
:10C11000414391FBF2F2DDE92C45009225F0004508
:10C12000D2F1070204DD2046294600F040FB0BE077
:10C1300052420020DFF8D01600F039FB02460B46D1
:10C140002046294600F0E0FD0446B8F1660F0E983F
:10C1500006BF009F0A3706273F18142FC8BF1427B1
:10C1600030200D468DF884000DF18506002F39DD55
:10C170002046294600F0EEFE01460A4606F1080375
:10C1800004200A26B2FBF6F606EB860EA2EB4E0260
:10C19000303203F8012C0A22B6FBF2F202EB820ED7
:10C1A000A6EB4E063036401E03F8026DE9D1083F7B
:10C1B000002F03F10806D9DD084600F0DFFE024635
:10C1C0000B462046294600F02BFD0022DFF83C36C6
:10C1D00000F0E4FE04460D46CAE700BFCBCCCC0C11
:10C1E000783F04000DF18500361A0DF1850404E056
:10C1F0000098401E761E0090641C20783028F7D0EE
:10C20000B8F1660F02D10099491C04E0B8F1650F3E
:10C210000CBF012100210E9808188642B8BF701E7D
:10C2200000281DD4B04204DA215C3429C8BF39216A
:10C2300000DC30210246631E9D1800E0401E15F808
:10C240000169521E8E42F9D0392902D1A15C491CE4
:10C25000A154002A04D50099491C1C46401C009199
:10C260000646009D0E9F30B2002802DC01260FF228
:10C2700038644BF02000662808BF6D1C15D0672875
:10C280000FFA85F841D118F1040F44DBB84542DAC2
:10C290009DF840006D1C010703D430B2B842B8BF0E
:10C2A000074628B23F1A48BF00270FFA85F8B8F1B1
:10C2B000000F00F3AF800898411C089130220599C7
:10C2C0000A54002F03DC9DF84000010705D50898AB
:10C2D000411C08912E2205990A5417EB080FB8BF8C
:10C2E0007D4228B2C51932B2414295420B91B8BF86
:10C2F0002E46059B089836B20996324621461844C8
:10C30000FFF782FAAD1B0C95CCE0BBF1610F15D1A4
:10C310004FF0700B17E030B2B84204DA9DF84010CD
:10C320000A0758BF07467F1E48BF0027BBF1670FAB
:10C3300014BF4FF0450B4FF0650B04E0BBF1410F0C
:10C3400008BF4FF0500B0898411C0891002F059929
:10C3500014F8012B0A5403DC9DF84000010719D59D
:10C360000898411C08912E2205990A54002F11DDCE
:10C37000761E30B287420598089BB8BF3E4632B25F
:10C3800021461844FFF740FA089836B23018BF1B10
:10C3900008900B97059808990844B8F1000F80F8A9
:10C3A00000B003D42B224270821C04E02D214546AC
:10C3B0004170821C6D4200212CAB28460AE00446E5
:10C3C0000A2094FBF0F000EB8005A4EB450403F891
:10C3D000014B491C00B20028F1DC012906DC4BF0BE
:10C3E0002000652804BF302002F8010B00292CAB87
:10C3F00008D1302002F8010B06E0491E585C3030AD
:10C4000002F8010B0029F8DC059908980844121A73
:10C41000099247E030B229B288421BDA0598089B9E
:10C4200032B221461844FFF7EFF9089936B2711875
:10C43000A8EB0606002F08910B9603DC9DF8400040
:10C44000020705D5059A2E2050540999491C0991D7
:10C450000C9727E00598089B2AB221461844FFF75D
:10C46000D3F90898761B4044002F089003DC9DF810
:10C4700040100A0704D5411C08912E2205990A5440
:10C4800030B287420598089BB8BF3E4632B204EBF3
:10C4900008011844FFF7B8F9089836B23018BE1BE7
:10C4A00008900B969DF8400000F01400102840F012
:10C4B000C280079A08990B988A18099982180C98D3
:10C4C0008A1882180F98824280F2B580821A0A92E6
:10C4D000B1E09DF84200622808D068280ED06A2892
:10C4E00014D06C281FD0712810D01CE0D9F800108F
:10C4F00051F8040BC9F80010C0B21AE0D9F80010C6
:10C5000051F8040BC9F8001080B212E0D9F80020ED
:10C51000D21D22F00702C9F80020D2E9000108323A
:10C52000C9F8002006E0D9F8001051F8040BC9F84A
:10C5300000100021CDE902019DF8400001075AD505
:10C54000DDE90223002B08BF002A54D04BF0200065
:10C55000782850D1079812A930220A54401C431C55
:10C56000079301F800B046E09DF84200622808D029
:10C5700068280ED06A2814D06C281FD0712810D0DB
:10C580001CE0D9F8001051F8040BC9F8001040B2B3
:10C590001AE0D9F8001051F8040BC9F8001000B2E5
:10C5A00012E0D9F80020D21D22F00702C9F80020BD
:10C5B000D2E900010832C9F8002006E0D9F80010DD
:10C5C00051F8040BC9F80010C117CDE90201002988
:10C5D00002D507982D210AE0BDF84000810702D559
:10C5E00007982B2103E0C00705D50798202112AA40
:10C5F0001154401C079012A807990144059102A804
:10C60000594600F04FF816E001200790D9F80000D5
:10C6100050F8041BC9F800008DF848100BE02521E4
:10C620000122BBF1000F8DF84810079203D08DF85E
:10C6300049B0022107910F9A07980A990C9C121A87
:10C640000898521A0B99121A0998521A121A9DF840
:10C650004000141B41073FF570AA2020002C8DF8E4
:10C6600004007FF76AAA309E2546012301AA02A989
:10C67000304600F0DFF800283FF45BAA4FF0FF30AF
:10C6800031B0BDE8F08F00007072696E74665F7340
:10C690003A2062616420257320617267756D656E52
:10C6A000740000002DE9FC4307466F293E6908BF6E
:10C6B000082405D041F02000782814BF0A24102453
:10C6C0003C25D7E90023642918BF6929904699467B
:10C6D00005D1002B03D5D8F1000869EB4909B9F160
:10C6E000000F08BFB8F1000F0CD1386B50B9082CFF
:10C6F00039D197F83800010735D530203B2586F829
:10C700003B0030E08DF80010404649462246E317D2
:10C7100000F018FD3032D0B26D1E3A28019504DBCE
:10C720009DF80000A0F151018A1872554046494613
:10C730002246E31700F006FD80465FEA010908BFC4
:10C74000B8F1000F03D0F86871198842DCD3082CC7
:10C7500009D197F83800010705D5705D302802D05F
:10C760006D1E30207055C5F13C02BA617119F96037
:10C77000386B824208DA821A3A624FF6EF70398FCC
:10C7800001403987BDE8F38300280ED597F83800BB
:10C7900000F01400102808D17B6B7969386A5B1AA5
:10C7A0001B1A9A1A002AC8BF3A62BDE8F3832DE922
:10C7B000D04306460F4614464FF00008DFF850906D
:10C7C00012E0E00707D542464B463046394600F0B6
:10C7D000E5FB06460F464046494642464B4600F0BA
:10C7E000DDFB641080468946002CEAD1304639468C
:10C7F000BDE8D08302FCFFFFFFFF0F800000E03F99
:10C800000000F07FA08601000000F03F84D7974130
:10C810000000244010B503460C461146A068984716
:10C82000A06020B1E06A401CE062002010BD4FF023
:10C83000FF3010BDF8B505460E4617461C460020D1
:10C840005CB117F8011BB068A847B06030B1F06A5E
:10C85000401CF0620020641EF3D1F2BD4FF0FF30A7
:10C86000F2BD00007072696E74665F733A20256EC7
:10C8700020646973616C6C6F776564007072696EB7
:10C8800074663A2062616420256E20617267756D5E
:10C89000656E7400000000006E616E004E414E0037
:10C8A000696E6600494E4600300001000020704766
:10C8B000C9B202788A421AB11CBF10F8012FF9E7F9
:10C8C00018BF0020704701000020704780B500B9F4
:10C8D00006A005490B681BB122220021984701E000
:10C8E000FBF752FC222002BD60340020636F6E73A0
:10C8F000747261696E742068616E646C65723A204E
:10C90000626164206D6573736167650000F1010306
:10C91000810704D010F8011B820781B1FAD10268A7
:10C92000A2F10131914311F0803104BF50F8042F7E
:10C93000F6E709BAB1FA81F100EBD100401CC01A48
:10C940007047010000207047C9B2830706D0521E0D
:10C9500022D310F8013B9942F7D11FE0083A13D3D4
:10C9600002F1040241EA012141EA014150F8043B8D
:10C97000121F21BF4B40A3F1013C2CEA030C1CF019
:10C98000803FF3D0C9B2001F083210F8013B521E9D
:10C9900028BF91EA030FF8D818BF0120401E704746
:10C9A00010B5144600F002F8226010BDC1F30A531E
:10C9B00043B14A0012F5001F28D2A3F2FE32A1EBC8
:10C9C0000251704750EA410C20D001F0004C31EA8E
:10C9D0000C01B1FA81F204BFB0FA80F3D2180B3A1D
:10C9E000B2F120032CBF00FA03F1914041EA0C019F
:10C9F0003EBFC2F1200C20FA0CF319439040524282
:10CA000040F2FD33D21A01EB035170470022704708
:10CA10004FF4001C1CEB410F94BF1CEB430F09E0CB
:10CA200041EA030C50EA4C0C52EA0C0C03D2994236
:10CA300008BF9042704714BF8B428242704701008A
:10CA4000002070474FF4001C1CEB410F94BF1CEBFF
:10CA5000430F09E041EA030C50EA4C0C52EA0C0C7B
:10CA600003D28B4208BF8242704714BF9942904262
:10CA70007047010000207047124254D440F2FF7CFE
:10CA80001CEA11530FD0634531D09B1863453CBF5E
:10CA900001EB0251704701F0004141EA0C510020C6
:10CAA00000F068BC704750EA410320D001F0004C10
:10CAB00091EA0C011CD0B1FA81F30B3B9A420DD9DB
:10CAC000D21A994051EA0C01C3F1200C20FA0CFC57
:10CAD00061449840531C40F2FF7CD7E7914041EA03
:10CAE0000C01C2F1200C20FA0CF31943904070475E
:10CAF000B0FA80F31533202BE0D3202AEED3203A6E
:10CB0000203B9A4209D9D21A00FA03F141EA0C01FA
:10CB10000020531C40F2FF7CB8E700FA02F141EA22
:10CB20000C0100207047524240F2FF7C1CEA115376
:10CB30000DD06345DBD0B2EB030C3CBFA1EB02513F
:10CB400070470CF1010221EA035141F4801150EACF
:10CB5000410CCCD001F0004C352A27DC30B481EAFE
:10CB60000C01B2F1200309DAC2F12003044601FAF4
:10CB700003F5D0402843D1409C400CE0C3F1200293
:10CB8000450020FA03F418BF44F0010421FA03F031
:10CB900091400C43002174F1004550F1000051EB2D
:10CBA0000C01244230BC7FF47BAF7047614600200B
:10CBB00076E7010000207047C1F30A5340F2FE32CD
:10CBC0009B1A14DDD3F120034FEAE17208DDC9029C
:10CBD00041EA505141F00040D84080185040704721
:10CBE00003F2E13010B1D24382F0004070470020E0
:10CBF0007047010000207047C11768B14840401AD3
:10CC0000B0FA80F29040D21CC907C2F5846241EAB2
:10CC1000025202EBD021400570470100002070470E
:10CC200070B44FF0004591EA030F40F1B7836B40B9
:10CC3000841A71EB030603D2001BB1411219734130
:10CC40004FF4001C1CEB410F34BF7CEB430442E06B
:10CC50000C0DA4EB1356352E4FDC45EAC323DB0A3B
:10CC600045EAC121C912B6F120050DDD63FA05F6CA
:10CC7000EB4086EA0305124218BF45F00105C018D3
:10CC800051F100010CD213E062FA06F5F240554072
:10CC9000F3415A40B340F3405A408018594107D3FA
:10CCA00049085FEA30005FEA350528BF45F0010515
:10CCB00001F58011420875F1004250F1000041EB8E
:10CCC00004514E0016F5001F70BC38BF704700209D
:10CCD000090D090570471CEB410F10D252EA4306BB
:10CCE0000BD0BCEB410F05D80C0DAB43661E342EA8
:10CCF000B6DD02E0AB438018594170BC704770BC90
:10CD00007047010000207047F0B540F2FF7581EADE
:10CD1000030C0CF0004C15EA11541DBF15EA135713
:10CD2000AC42AF42E5E0BC41C1F31301C3F31303CE
:10CD3000801A994143F4801304D2641E4000494193
:10CD400080185941C90241EA5051B1FBF3F603FB87
:10CD50001611A2FB0675D7EBC020A94102D2761EA0
:10CD600080185941C90241EA5051B1FBF3FE03FB5F
:10CD70001E11A2FB0E75D7EBC020A94103D2AEF164
:10CD8000010E80185941890241EA9051760546EA20
:10CD90008E2EB1FBF3F603FB1611A2FB0675D7EB43
:10CDA0008020A94102D2761E80185941C90241EA69
:10CDB00050514EEA060EB1FBF3F603FB1611A2FB2F
:10CDC0000675D7EBC020A94102D2761E80185941C2
:10CDD000C90241EA5051B1FBF3F703FB1711A2FB63
:10CDE0000735D3EBC020A94167F100070CBF004213
:10CDF00047F0010766F3D5274FEA1E31B80814F54E
:10CE0000806412DDBD0775F1004250EB0E5051EB0E
:10CE1000045111F5801F5CBF41EA0C01F0BD4CF0DC
:10CE20007F6141F0E0410020F0BDBD076D0840EAA0
:10CE30000E5041F48011D4F10104B4F120060ADA55
:10CE4000C4F120060200E04001FA06F3E140184375
:10CE5000B24015430EE0342C13DCC6F1200445EA41
:10CE600040056D0820FA06F2154321FA06F0A140AC
:10CE70000D43002175F1004250F1000051EB0C010F
:10CE8000F0BD00205FEA0C01F0BDCFB992185B4104
:10CE9000B3FA83F704BFB2FA82F6BF190B3FB7F1BA
:10CEA00020062FBF02FA06F3BB40C7F1200622FA84
:10CEB00006F638BF3343BA401CB1E419641E33E7A9
:10CEC0007F4231F00041B1FA81F404BFB0FA80F63C
:10CED000A4190B3CB4F120062FBF00FA06F1A140C3
:10CEE000C4F1200620FA06F638BF3143A0403C1BAF
:10CEF0001AE7AC421ABF05EA1357AF4212E050EAF4
:10CF000041061CBF52EA4306BFE750EA41073046DC
:10CF100061461CBF41EA0551F0BD52EA430C08BF0F
:10CF2000C143F0BD00204FF4001616EB410F98BF2F
:10CF300016EB430F08BF16EB410F24BFC14305E0BA
:10CF400016EB430F0CBF61464CEA0551F0BD0100E2
:10CF500000207047400D491840EA81200CD2490D4D
:10CF6000A1F58061491C40F0004005DBD1F11F01B3
:10CF700054BFC840C017704700207047014648B1F1
:10CF8000B0FA80F18840C91CC1F58461090501EB44
:10CF9000D02140057047010000207047B0B581EAFC
:10CFA000030C0CF0004C40F2FF7515EA11541DBF44
:10CFB00015EA1357AC42AF4239E0E41923EA45536E
:10CFC00043F48013C90241F0004141EA505EC702B8
:10CFD0001100A7FB020200284FF00000EEFB012029
:10CFE0004FF00001E3FB072118BF42F00102401897
:10CFF00000214941E3FB0E01A4F580640F0302D236
:10D0000052004041494154F101046CDD470872F17E
:10D01000004250F1000051EB0451A1F580115CBFBA
:10D0200041EA0C01B0BD4CEA05510020B0BD05EA53
:10D030001357AC4214BFAF4241E050EA410E1CBF4F
:10D0400052EA430E02E061460020B0BD24423C4457
:10D050001BD15FEA070EF6D0090302BF014600208C
:10D06000AEF1140EB1FA81F7AEEB070401FA07FE38
:10D070000C37C7F1200100FA07F7C8404EEA000E4E
:10D0800023EA455343F48013A2E733F00043B3FA95
:10D0900083F704BFB2FA82FE77440B3FE41BB7F17B
:10D0A000200E2FBF02FA0EF3BB40C7F1200E22FA6A
:10D0B0000EFE38BF43EA0E03BA40641C82E750EA12
:10D0C000410E14BF52EA430E6FF000014FF40017F7
:10D0D00017EB430F8ABF194617EB410FB5E74CEA30
:10D0E00005510020B0BDD4F10104B4F120070FDADE
:10D0F000C4F12007520828BF42F0010210FA07F5D8
:10D1000001FA07F7E1BF2A43E0403843E1400FE06E
:10D11000352C98DCC7F1200452EA400220FA07F2CD
:10D1200018BF42F0010231FA07F0A1400A43002182
:10D1300072F1004250F1000051EB0C01B0BD010052
:10D1400000207047BBBBE1B1B2F5803F80F07E802C
:10D15000022A1ED98C46B1FBF2F102FB11C31B045B
:10D1600043EA1043B3FBF2FC02FB1C3380B240EAFB
:10D170000343B3FBF2F002FB103240EA0C40002301
:10D180007047022A05D98446B0FBF2F002FB10C2B8
:10D1900070474AB105D100F0010249085FEA30004A
:10D1A000704700220023704700F0B0B90B00020066
:10D1B000002100207047904271EB030CF6D3B3F5C9
:10D1C000803F2FD2F0B5B3FA83F7B1FA81F4A7F11B
:10D1D0000F0E3D1B5340CEF1200602FA0EF2F34132
:10D1E0005340B5F10F0746D80F3C2C444140C4F1E1
:10D1F0002006A040F1414140B1FBF3F603FB1611BC
:10D20000A2FB0645001BA94102D2761E8018594197
:10D2100080EA010221FA0EF362FA0EF200215A406E
:10D220003046F0BD30B4B1FBF3FC03FB1C11A2FB94
:10D230000C45001BA94103D2ACF1010C80185941E7
:10D2400030BC02460B46604600217047B2F1807F39
:10D2500065D3F0B5B2FA82F7B1FA81F4C7F10F06DF
:10D260003D1B22FA06F307F1110EF24120355A4018
:10D27000B5F10F07B8D94140C4F12006A040F141F3
:10D280004140B1FBF3FC03FB1C11A2FB0C45001B4E
:10D29000A94103D2BCF1010C801859410F2F12D3C0
:10D2A0000F3FC90341EA5041B1FBF3F603FB1611EE
:10D2B000A2FB0645D4EBC030A94102D2761E8018ED
:10D2C000594146EACC3C07B34140C7F12006B8407B
:10D2D000F1414140B1FBF3F603FB1611A2FB0645F9
:10D2E000001BA94102D2761E8018594180EA010232
:10D2F00021FA0EF3C7F1200462FA0EF20CFA07F0DD
:10D300005A402CFA04F13043F0BD80EA010221FAC0
:10D310000EF3002162FA0EF260465A40F0BD8C46D0
:10D32000B1FBF2F102FB11C31B0243EA1063B3FB32
:10D33000F2FC02FB1C331B024CEA002043EA1063A0
:10D34000B3FBF2FC02FB1C331B024CEA002043EA55
:10D350001063B3FBF2FC02FB1C331B024CEA0020FF
:10D3600043EA1063B3FBF2FC02FB1C324CEA0020E0
:10D37000002370470FB581B00020C0460549222226
:10D38000425001B00FBD80B50020C046024908449C
:10D3900002BD00006434002064340020841A71EB64
:10D3A000030604D26E40001BB141121973414FF4C1
:10D3B000001C1CEB410F34BF7CEB430683E00C0DDB
:10D3C000A4EB1356362E00F37C80012E45EAC323CE
:10D3D00041DC43EA525312BFD20292025B08240599
:10D3E00045EAC12141EA5051D2EBC020994125D4F0
:10D3F00007D1B0FA80F610FA06F162D0002020368C
:10D4000008E0B1FA81F6B140C6F1200220FA02F23A
:10D410001143B0404FEAF474B4EB465434F00106C3
:10D420004FEA74040AD8D6F50016760D04F00044CD
:10D43000F04061FA06F25040F1404840C00A40EA2C
:10D44000415021F0004128BF5FEA500550F1000033
:10D4500044EBD12135E0DB0A45EAC121C90AB6F126
:10D4600020050EDD42EA0242120CC5F1200603FA45
:10D4700006F6EB4042EA06056D42984161F1000173
:10D480000DE062FA06F5F240554063FA06FC82EAC6
:10D490000C02F3405A406D42904161EB030111F4DC
:10D4A000801F05D1641E620502D06D0040414941D4
:10D4B00021F48011430875F1004350F1000041EB65
:10D4C000045170BC70471CEB410F15D223F0004390
:10D4D00052EA43060BD04FEA4C0CBCEB410F04D888
:10D4E0000C0D661E342EB7DDEBE7801A994150EA29
:10D4F000410608BF0021E4E708BF1CEB430F28BF2B
:10D500006FF00001DDE70100002070477047010067
:10D510000020704700000000D8E00408010000006F
:10D5200001000000E8E00408030000000200000021
:10D53000F8E00408030000000300000008E104080C
:10D54000030000000400000018E1040803000000CC
:10D550000500000028E104080300000006000000A8
:10D5600038E10408030000000700000048E1040857
:10D57000030000000800000058E104080300000058
:10D580000900000068E10408010000000A00000032
:10D5900078E10408050000000B00000088E10408A1
:10D5A000030000000C0000003C9D04080C0000007B
:10D5B0000D00000098E10408050000000E000000C6
:10D5C000A8E10408030000000F000000B8E104080F
:10D5D0000300000010000000C8E104080300000080
:10D5E00011000000D8E10408030000001200000050
:10D5F000E8E104080300000013000000F8E104085B
:10D60000030000001400000008E20408030000000A
:10D610001500000018E204080300000016000000D6
:10D6200028E20408030000001700000038E20408A4
:10D63000030000001800000048E204080300000096
:10D640001900000058E20408030000001A0000005E
:10D6500068E20408030000001B00000078E20408F0
:10D66000030000001C00000088E204080300000022
:10D670001D00000098E20408030000001E000000E6
:10D68000A8E20408030000001F000000B8E204083C
:10D690000300000020000000C8E2040804000000AD
:10D6A00021000000D8E2040804000000220000006D
:10D6B000E8E204080600000023000000F8E2040885
:10D6C000080000002400000008E30408080000002F
:10D6D000250000005C9D04080D00000026000000ED
:10D6E0007C9D04080A0000002700000018E30408DD
:10D6F000040000002800000028E3040805000000E2
:10D700002900000038E30408050000002A0000009A
:10D7100048E30408060000002B00000058E304085A
:10D72000080000002C00000068E30408040000006A
:10D730002D00000078E30408050000002E00000022
:10D7400088E30408040000002F00000098E30408A8
:10D750000500000030000000A8E3040808000000F5
:10D7600031000000B8E304080800000032000000A7
:10D77000C8E304080800000033000000D8E30408F0
:10D780000800000034000000E8E30408080000007E
:10D7900035000000F8E3040808000000360000002F
:10D7A00008E40408080000003700000018E404083A
:10D7B000080000003800000028E404080800000009
:10D7C0003900000038E40408080000003A000000B6
:10D7D00048E40408040000003B00000058E404088A
:10D7E000040000003C00000068E404080800000099
:10D7F0003D00000078E40408080000003E0000003E
:10D8000088E40408080000003F00000098E40408D1
:10D8100008000000400000009C9D04080F0000006C
:10D8200041000000BC9D04080A0000004200000006
:10D83000DC9D04080A00000043000000FC9D040871
:10D840000A000000440000001C9E04080B000000B9
:10D85000450000003C9E04080A000000460000004D
:10D860005C9E040809000000470000007C9E04083C
:10D870000B000000480000009C9E04080B00000004
:10D8800049000000A8E40408040000004A00000069
:10D89000B8E40408080000004B000000BC9E040827
:10D8A000090000004C000000C8E404080800000063
:10D8B0004D000000DC9E04080C0000004E0000003B
:10D8C000FC9E04080B0000004F0000001C9F040891
:10D8D0000B000000500000003C9F04080A000000FC
:10D8E000510000005C9F04080B0000005200000083
:10D8F0007C9F04080B000000530000009C9F04085C
:10D900000A00000054000000BC9F04080A00000048
:10D9100055000000DC9F04080B00000056000000CA
:10D92000FC9F04080A000000570000001CA0040827
:10D930000E000000580000003CA004080900000090
:10D94000590000005CA004080A0000005A00000012
:10D950007CA00408090000005B000000D8E4040873
:10D96000050000005C000000E8E404080500000079
:10D970005D000000F8E40408050000005E000000FF
:10D9800008E50408080000005F00000018E504082E
:10D99000080000006000000028E504080500000001
:10D9A000610000009CA00408090000006200000063
:10D9B000BCA00408090000006300000038E504086A
:10D9C0000800000064000000DCA00408090000005A
:10D9D00065000000FCA004080900000066000000CB
:10D9E00048E5040804000000670000001CA10408CA
:10D9F000090000006800000058E504080800000065
:10DA00006900000068E50408040000006A000000E6
:10DA100078E50408040000006B00000088E50408B5
:10DA2000080000006C00000098E5040804000000F5
:10DA30006D0000003CA104080C0000006E00000016
:10DA4000A8E50408080000006F0000005CA10408BD
:10DA500009000000700000007CA10408090000001B
:10DA6000710000009CA10408090000007200000081
:10DA7000B8E504080500000073000000C8E50408CC
:10DA80000800000074000000D8E50408040000004D
:10DA900075000000E8E504080800000076000000BA
:10DAA000F8E504080800000077000000BCA10408A5
:10DAB0000A0000007800000008E6040807000000E3
:10DAC0007900000018E60408080000007A00000051
:10DAD00028E60408070000007B00000038E6040880
