:020000040800F2
:108000003852002075F20408299804082B980408B7
:108010002D9804082F9804083198040800000000E7
:108020000000000000000000000000003398040879
:1080300035980408000000003798040839980408AF
:10804000ED090508F1090508F5090508F90905080C
:10805000FD090508010A0508050A0508090A0508B9
:108060000D0A0508110A0508150A0508190A050868
:108070001D0A0508210A0508250A0508290A050818
:108080002D0A0508310A0508350A0508390A0508C8
:108090003D0A0508410A0508450A0508490A050878
:1080A0004D0A0508510A0508550A0508590A050828
:1080B0005D0A0508610A0508650A0508690A0508D8
:1080C0006D0A0508710A0508750A0508790A050888
:1080D0007D0A05085521040865D50208810A0508AE
:1080E000850A0508890A05088D0A0508910A050808
:1080F000950A0508990A05089D0A0508A10A0508B8
:10810000A50A0508A90A0508AD0A0508B10A050867
:10811000B50A0508B90A05080D98040827D502080C
:10812000BD0A0508C10A0508C50A0508C90A0508E7
:10813000CD0A0508D10A0508D50A0508D90A050897
:10814000DD0A0508E10A0508E50A0508E90A050847
:10815000ED0A0508F10A0508F50A0508F90A0508F7
:10816000FD0A0508010B0508050B0508090B0508A4
:108170000D0B0508110B0508150B0508190B050853
:108180001D0B0508210B0508012003F0C5BB30B409
:10819000002513E050F8042BD30744BFA9F10103D5
:1081A0009A18091F042942F8045BFAD213468C0777
:1081B00044BF15809B1CC90748BF1D7050F8041BA5
:1081C0000029E7D130BC704738B504000D00280005
:1081D000C046C0460100200022F093FF31BD10B51B
:1081E000040020002EF0EAFC10BD0000004870479B
:1081F000C820002000000000000000000100000076
:10820000AAAAAAAABBBBCCCCD7FFFF7FB0B0A880DC
:10821000E16E0000B0A80180EB6E0000A85E0400D3
:10822000017000002018040035720000BC3E0400FC
:108230008B720000B0AF0280DD730000B0AE05802D
:108240008575000004030400A1780000B0AA018035
:10825000D578000001000000D7780000F43F04004A
:108260000D790000B0B0A88015790000B0AE038091
:1082700087790000B0AB0080C5790000B0AA01800A
:10828000EB790000B0A900803D7A000098620400FC
:10829000397B000000840080B17B0000085A040094
:1082A0001D7C0000B0AE0180E37C0000B0B0AA806D
:1082B000277D0000B0A90080EF7D0000B0AA0180FA
:1082C000757E0000B0B0A880837E0000B0A9008059
:1082D000E77F0000B0AD008069800000B0A8018099
:1082E00075800000B0AA0580A9820000B0A90080B6
:1082F0007D830000BC3F04009D830000CC3F040050
:10830000BD830000DC3F0400DD830000EC3F04007F
:10831000FD830000FC3F04001D840000F86204009F
:1083200037840000006304005184000008630400E7
:10833000C9850000B0B0AA8033860000B0A90080D3
:1083400055870000B0B0AC80B7870000B0B0AA80FD
:108350003B880000B0B0A880DF880000B0B0AE80DD
:10836000338A000001000000B98A0000B0B0A88084
:10837000398B0000FC4C0400658B0000B0B0AA8073
:10838000198D0000B0B0A880E38E0000B0AA018073
:10839000A98F00008C47040093900000B0B0AA8021
:1083A0008F910000B0AF0280F1910000604C04009A
:1083B00023950000444C040045970000B0B0AC8009
:1083C000159800003062040009990000386204002A
:1083D000A99A0000B0B0A880B59A0000B0AF0C8098
:1083E000E59C0000B0AC0980279E0000B0A9008089
:1083F000499E0000B0B0A880C59E0000B0AB0080D0
:10840000C39F0000B0AF00801DA30000144C040007
:10841000F1A40000B0AE018007A60000010000003A
:1084200033AB0000B0A9008059AB0000B0AA0180B6
:1084300085AB0000B0A900808DAF0000B0AE018018
:108440004FB00000B0AB0080B7B00000B0A9008012
:10845000EDB100009060040055B20000B0B0A880FB
:108460008FB20000B0A9008001B30000B0AB008063
:10847000B5B30000B0AA01803DB40000B0B0AA803E
:1084800099B50000B0A80380B7B50000B0B0A880CF
:10849000BFB50000805C0400EFB50000885C0400FC
:1084A00019B600000C1E040045B70000B0AA0180F8
:1084B000A7B700005868030065BD000090EA0300FC
:1084C0007DBE0000705C0400F1BE0000E4370400D3
:1084D000F5BF000001000000F7BF000040150400D8
:1084E0006FC000002C1D040073C10000B0AC0580FB
:1084F00041C2000084B40300E5C20000489A0300B2
:108500006BC60000B0A9008089C60000008400800E
:1085100097C60000B0AB0080F9C60000085E0400FA
:1085200013C70000B0AB008043C70000B0AA0580AD
:108530007DC70000005E0400A7C70000B0A9068048
:108540005DC800001CAB030019C900000084008056
:1085500019C9000014ED0300DDC9000058F803003C
:1085600081CA0000305804009BCA0000C41C0400EB
:108570006DCB000074FF030037CC00009CFF0300AC
:108580000DCE0000B0B0A88031CE0000B0A80180B0
:108590005DCE00000C3B0400B3CE0000B0A801800B
:1085A000BDCE0000B0A90480FDCE00000C3B04004D
:1085B00043CF0000B0B0A88049CF0000143B0400B6
:1085C0008DCF0000C0ED030069D000000100000065
:1085D00055D10000005B0400A1D1000098560400B2
:1085E000F3D10000B0B0A880F7D10000A0B4030020
:1085F00001D30000B0A801800BD30000B85E0400D6
:1086000091D30000B0AA0180B5D30000B0B0A8801B
:10861000D9D30000B0A80180E1D30000B0B0AA8097
:1086200055D40000143C0400D1D40000B0B0A880A0
:10863000FDD40000B0A9008011D50000543B040017
:1086400075D50000B0B0A880B9D50000B0AB0280ED
:108650005FD60000B0B0AA800FD70000B0AE018096
:10866000C5D70000B0B0A880DFD70000B0AC038051
:108670007FD90000B0AB008019DA0000B0B0A8804C
:1086800025DA0000F05E040093DA0000B0A9008053
:10869000B1DA0000C439040071DB0000C8550400E1
:1086A0006DDC0000B0A80180FBDE0000B0AD0680EC
:1086B00043DF0000B0AC0780B7DF0000EC3A0400F5
:1086C0000BE00000B0AE0B8085E00000F43A04003F
:1086D00005E100003056040015E10000B0AA058055
:1086E0001DE20000B0A9008071E20000B0AA018084
:1086F00021E40000B0A902806BE40000B0A8018072
:1087000077E40000405C040099E40000485C040049
:10871000BBE40000505C0400EBE400007857040068
:108720000FE50000384904002DE50000B0AA0580DF
:10873000B1E50000B0A80380E3E50000B0B0A88078
:10874000EBE50000805A04001BE60000885A040094
:1087500045E60000DC1B0400BDE70000D43904003E
:1087600053E80000EC1B0400D9E80000041C0400DE
:108770005FE90000705A0400D7E90000B0AA018048
:1087800037EA000068A603001BEC0000041C04008C
:10879000A5EC0000605A040019ED000068350400E3
:1087A000BDED0000B0B0A880C5ED00000CB6030020
:1087B000ADEE0000B0B0A880BBEE0000F859040098
:1087C00033EF00004C1B0400D5EF0000B0B0A880D0
:1087D000DDEF0000305A040055F000005C87030014
:1087E00081F40000B0B0A880B1F400001439040096
:1087F000A5F5000030F6030085F60000B0E60300A2
:10880000E1F70000B0B0A8800BF80000085B04009E
:1088100081F8000080F6030061F9000010E9030010
:10882000C9FA0000B0B0A880D1FA000024B5030056
:10883000C3FB0000B0B0A880D1FB0000DC3804000E
:1088400095FC000060590400D9FC00002CFD0300D9
:1088500081FD0000B0A80380B3FD000090B60300C6
:1088600041FE0000B0B0A88049FE0000D8590400C5
:1088700073FE0000E059040093FE0000CC380400B1
:1088800081FF0000E0590400C1FF0000E859040026
:1088900037000100B0AA018097000100ACA10300DD
:1088A000E1020100E0590400E1030100B0A80380E7
:1088B000FF030100B0B0A88007040100285804009D
:1088C000370401003058040061040100C419040099
:1088D0008D050100B0AA0180EF0501004C70030076
:1088E000570A010018E603006F0B01001858040036
:1088F000E30B0100A0330400B10C0100B0A8038019
:10890000CF0C0100B0B0A880D70C0100685804005B
:10891000070D010070580400310D0100D419040046
:108920005D0E0100B0AA0180BF0E0100E8A30300A4
:10893000A5100100B8E60300BD110100585804005D
:1089400031120100A4330400C1120100B0A8038059
:10895000DF120100B0B0A880E712010088590400BE
:10896000171301009059040041130100441A040038
:108970006D140100B0AA0180CF140100D07603006D
:10898000E118010058E70300F919010078590400C3
:10899000751A0100E03304002D1B0100B0A803800C
:1089A0004B1B0100B0B0A880531B010068580400A5
:1089B000831B010070580400AD1B0100B0100400BF
:1089C000E71C0100B0AA0180491D0100609D030061
:1089D000CD1F010068E60300E5200100585804009F
:1089E000592101003C3304001D220100B0B0A880D1
:1089F00025220100B0A900804D220100B0B0A8805E
:108A00005B2201005C3704001F230100C8580400EA
:108A10006323010064370400A723010040F403002E
:108A2000BF240100FCB30300F12501002C33040036
:108A300061260100B0B0A8808B2601005810040008
:108A400001280100B0AA018063280100D09703002B
:108A50007B2B010038E60300932C010068580400CA
:108A6000072D0100D8320400B52D0100B0A8038005
:108A7000D32D0100B0B0A880DB2D0100C856040042
:108A80000B2E0100D0560400352E010044180400BE
:108A90005F2F0100B0AA0180C12F01001CBD03009F
:108AA00099300100F8E40300B1310100B856040028
:108AB000253201001832040095320100B0A900806F
:108AC000CD320100B0AA058073330100B0AA018045
:108AD0000B340100105304002D340100185304001E
:108AE0004F34010020530400713401002853040066
:108AF00093340100B0A80180C134010001000000DE
:108B0000C334010000840080C3340100B0AA058092
:108B100009350100B0A90080313501006C35040031
:108B2000C7350100C8F2030087370100B0AA0180F1
:108B3000A939010001000000BF390100B0B0A880D0
:108B4000D3390100B0B0AA80DB390100B0B0A880F1
:108B5000073A0100B0A90080793A0100B0B0A880BE
:108B6000153C0100B0AB0A803F3C0100B0AB068071
:108B7000613C0100B0AA05801B3E0100B0AB008043
:108B8000C73E0100B0AA0180D93E0100B0B0AC8060
:108B9000DF3F0100B0AA01802D400100B0AB008092
:108BA0003F410100B0A90080BB410100B0B0A880E6
:108BB000FB410100B0B0AC8013430100B0B0AA800B
:108BC000D7430100B0B0AE801B450100B0AB0080C0
:108BD000A1470100B0B0A880B1470100B0B0AA80A1
:108BE00043480100B0B0AE80B1480100B0AA018096
:108BF000AB490100B0AC0180994B0100B0B0AA8034
:108C0000B94B010040E80300F34B0100B0B0A8806D
:108C10000B4C010068F10300F14C0100B002A98087
:108C2000194D0100B0AD0080B54D010014340400B1
:108C3000E14E0100B0A90080354F0100343404003A
:108C4000B54F0100405104003F500100C41704001B
:108C50002B510100B0A801803551010068E70300E5
:108C60005552010050590400775201005859040030
:108C7000DD520100243604007D53010002A8028069
:108C8000D1530100B0B0A880F1530100B0A9008019
:108C9000F7530100B0B0A8804D540100B0AB028082
:108CA000F3540100B0B0AA80A3550100B0AE01801A
:108CB00059560100B0B0A88073560100B0AB0280D5
:108CC00033570100B0AB0080CD570100B0B0A88091
:108CD000DD5701004C350400695801000100000017
:108CE0006D580100D0530400B5580100641504000C
:108CF000E35901007C150400C15A0100F457030038
:108D0000675D0100104D0400D35D0100B0AF088025
:108D1000CD5F0100104D0400B1600100B06F030091
:108D200031620100705804009D620100B0AF0880FC
:108D30001964010070580400C16401009C340400EF
:108D400023650100AC340400B965010048550400F6
:108D5000DB65010050550400FD6501005855040015
:108D6000E566010001000000ED660100C85704003F
:108D700039670100B0B0A8804D670100C8570400F2
:108D800089670100E43404002D680100B0AC018063
:108D90008B6801003C16040093690100541604001E
:108DA0006D6A0100B0AB0080916A0100B0A900803B
:108DB000D56A0100B0B0AA80316B0100B0B0A880C4
:108DC000856B0100B0B0AC80DF6C0100B0B0AE804C
:108DD000DF6D0100B0AA0180F16D0100B0B0A88084
:108DE0000F6E0100B0A80180416E0100B0AA0180A1
:108DF000A16E0100B0AA0580216F0100B0A900801A
:108E0000656F0100B0A80180876F0100B0AA0180E2
:108E10009D6F0100B0AA0580F7700100B0B0A88076
:108E200051730100B0B0AC80A575010098550400E5
:108E3000C5750100A0550400E5750100A8550400A2
:108E400005760100B055040025760100B8550400F0
:108E500045760100C0550400657601002CA503008D
:108E6000CD760100B0AB06806D770100B8550400E7
:108E7000DD770100B0AA058025780100B85504000F
:108E800035780100B0B0AE801D790100B0AB048030
:108E9000C1790100B0AB0080577A0100B0B0AA8060
:108EA000D17A0100B0B0AC806F7B0100B0B0AA8075
:108EB000777E0100103E0400D97E0100303E0400A0
:108EC000B3820100143E040015830100343E040007
:108ED00057860100DC3D040093860100B0B0AA80F3
:108EE000458B0100B0AB0080238C0100B0AF028045
:108EF000858C0100A04004005D920100B0AA0180B1
:108F0000F5920100B0B0AA804F930100B84C040064
:108F10007F930100B0B0A88085930100184D040034
:108F2000F79301000084008009950100B0A90A8030
:108F30004F950100B0AA0180AF950100B0AB008051
:108F4000E1950100B0AB028009960100B0B0AC80A1
:108F500023970100805604004D970100B0A90080BE
:108F60008F970100E44004009B990100B0B0AA80F3
:108F7000BF990100D04A0400319B0100684B0400F6
:108F8000419B0100B0AF0280319D0100E03F040031
:108F9000639D0100FC2D0400C79D0100102E0400FC
:108FA0004D9E0100242E0400979E010008540400E9
:108FB000019F0100B0AB0080FBA00100C43F040092
:108FC000E9A301008C3D040029A40100B0B0AA80EF
:108FD00037A40100B0B0A880EDA40100B0B0AE800D
:108FE0002FA50100B0A9008047A50100B0B0A8805E
:108FF0005DA50100B0AA0180E7A50100B0B0AE8078
:10900000A9A80100EC3D040035AB0100D03D0400EF
:1090100065AE0100B0B0AA807DAF01000100000084
:1090200081AF010030550400CBAF0100B0B0A88083
:10903000DFAF0100305504001BB00100B0AC01806F
:1090400055B00100B0AB028075B00100B0A900803E
:10905000DFB00100B0B0AA803BB10100B0B0A88081
:1090600095B1010002A80280B3B10100B0AB02804B
:109070004FB20100B0AC0180B1B2010002A8028081
:1090800031B301000100000035B301003854040081
:1090900067B3010040540400A1B30100B0AB0080ED
:1090A000C1B30100B0AAD080EDB30100B0A9008027
:1090B00031B40100B0B0AA808DB40100B0B0A88076
:1090C00069B5010002A80280BFB50100B0AB028003
:1090D000DFB50100B0A900802DB60100B0B0AA80B4
:1090E0002FB701008053040079B70100B0AA0180B6
:1090F000D9B70100B002A98005B80100B0A8098065
:1091000035B80100B0A9068061B8010074310400CF
:10911000E7B80100B0A90080F9B80100483C04009C
:109120005BB90100E03C040063BC01009C3C04000E
:10913000C5BC01000C3D0400CDBF0100643C04002F
:109140002FC00100E83C04005DC30100B0AF028005
:1091500059C50100B0B0AE80B9C60100B0A9008009
:1091600043C70100B0B0A880A7C70100B0B0AE806F
:1091700067C80100B0B0AA80F9C80100B0AB008098
:10918000A1C90100B0AE0180EFC90100B0AF0080FD
:1091900049CD0100803B040071CF0100B0AB0080DD
:1091A00019D00100B0AE018067D00100B0AF0080DF
:1091B000C1D30100743B04008FD50100B0AA018027
:1091C000DBD50100B0B0AA804FD70100B0B0A880B5
:1091D00091D70100A43B0400D9D701003C3C040016
:1091E00047DB0100B0AB008045DC0100B0AF008080
:1091F0009FDF0100B43D040021E50100B0B0AA806A
:10920000E9E50100B0B0A880EDE50100B0B0AA80AA
:1092100017E60100883A0400F1E70100B0B0A88029
:1092200033E80100B0B0AA8099E80100DC2F040007
:1092300001E90100B0B0AC8039E90100B0B0AA800A
:109240009FEB0100B0B0AC80F3EB0100B0B0AA809E
:1092500037EC0100B0A900803FEC0100B0AB00800A
:10926000EDEC0100B0A801801FED0100B0AB008063
:1092700035ED0100B0B0AA80D3ED0100010000007F
:10928000E9ED0100B0B0A880EDED0100B0B0AA801A
:10929000EBF40100B0AE01800BF60100B0AB008032
:1092A00021F60100B0B0A88025F60100B0B0AA8078
:1092B000A3F80100543C040005F90100743C0400CB
:1092C0000DFC0100B0AB00804FFC0100B0B0AA80E3
:1092D0006BFC01000C3C040065FD0100183C04001F
:1092E000C7FD0100383C0400F3010200B0B0A880C3
:1092F000F7010200B0B0AC80AF030200B0B0A880AC
:10930000B3030200B0B0AC805F060200B0B0AE8024
:109310007107020002A80280890702006849040060
:10932000D3070200B0B0A880E70702006849040034
:109330003F080200B0B0A88049080200B0AB04802A
:1093400097080200B0B0AA80F3080200B0B0A8806D
:1093500019090200B0A90080210A0200B0B0A8805B
:10936000250A0200B0B0AA80090B0200C83C040024
:109370006F0B0200B0AB00800B0C0200B0AE01809E
:10938000590C0200B0AF0080A50F0200C83A0400DB
:109390005B110200B0AB0080F7110200B0AE01809B
:1093A00045120200B0AF008091150200E43A0400BB
:1093B00047170200B0AB0080E3170200B0AE018097
:1093C00031180200B0AF00807D1B0200B03A0400EB
:1093D000451D0200B0AF02809B200200B0A90080B2
:1093E00019210200B0AA018053210200B0A9008017
:1093F00079210200204C0400A1210200384A040017
:10940000D5210200B0A9008003220200B0AE018085
:10941000E1250200B0A900800F260200B0AE018055
:10942000F7290200B0A90080192A0200B0B0AA8072
:10943000A52A0200B0AA0180F92A0200B0AB008080
:10944000A12B0200B0B0AA80CF2B0200B0AF0080E9
:10945000272F0200143A0400E9300200B0A900806E
:10946000BB3B0200B0B0AA80E93B0200B0AB008079
:10947000DD3C0200B0A80180393D0200B0AB0080A5
:10948000713D0200B0B0AA80293F0200B0AA01805D
:10949000573F0200B0A90A80AB410200B0AA018088
:1094A00043420200B827040075450200B0A90080BD
:1094B00093450200B0B0AA80A9450200B0AC01807B
:1094C00001460200B0B0AA800F460200B0AB008097
:1094D000F34A0200B0AE0180014C0200B0AC018042
:1094E000354C0200B0AA0180554C0200B0B0A880F3
:1094F000534D0200B0AB0080EF4D0200B0AE0180D2
:109500003D4E0200B0AF0080895102004C3A040089
:109510003F53020001000000D3530200B0B0AC8002
:1095200093540200B0B0A88097540200B0AB008002
:10953000B3550200B0AE018001560200B0AF00800A
:109540005B590200003A0400C15B0200B0AA01802E
:10955000E15B020064390400715D0200B0AA018081
:10956000915D020040390400DB600200B0A9008078
:1095700039620200B0B0AA8067620200B0AB00801E
:1095800031650200B0A900805F650200B0AE0180C5
:10959000A5680200B0A90080D3680200B0AE0180C7
:1095A000F96B0200B0A90080276C0200B0AE018008
:1095B000CF6F0200B0AB008081700200B0A90080C4
:1095C000137102001047040009720200B0A9008064
:1095D0002D7202002047040023730200B0A900800E
:1095E0004773020000470400E7730200B0A900803F
:1095F00071740200B0B0AA8097770200B0A9008011
:10960000BF790200B0B0A880F57902002C360400C2
:109610003D7A0200383604007D7D0200B0B0AA8099
:10962000BF7D0200B0AC0180157E0200B0A90080B1
:10963000857E0200F0450400A7840200B0B0AA8035
:10964000D3850200B0B0AE806B860200B0A9028064
:109650008F860200B0B0A88093860200D834040040
:10966000E7860200E4340400DB8B0200084D0400AE
:109670005F8C0200B0A90280A78C0200B0A9008014
:10968000B58C0200B0AA0180798D0200B0A90080DB
:10969000A78D0200B0AE0180ED900200B0AB00805B
:1096A000799102006C35040071920200B0AA018029
:1096B00091920200B0AC0180F5920200B0A9008046
:1096C00023930200B0AE01804D970200B0A9008044
:1096D000B598020001000000AFA50200B0A900800B
:1096E000C7A70200D83804000FA80200E43804001D
:1096F000C7AB0200B0AC0180F9AB0200B0A900809A
:109700001DAC020020470400E1AC0200B0A90080BB
:1097100005AD02007047040087AD0200B0A90080CB
:10972000ABAD020040470400F5AE0200B0A90080D6
:1097300071AF0200B0AB008015B00200B0AA01808A
:1097400069B00200B0AB0080B5B00200B0AA0180E1
:1097500009B10200B0AB008053B10200B0B0A880E4
:109760009BB10200B0A90080CDB20200D84604002F
:1097700069B30200B0AB008005B50200B0AA018059
:1097800031B50200B0AB0080D9B50200B0B0AA80FC
:1097900007B60200B0AF00805FB90200C434040015
:1097A00033BB0200B0A90080D7BB0200B0A9028081
:1097B00009BC0200B0A9008053BC0200B0B0AA806E
:1097C0009FBC0200B4240400C3C10200003704009F
:1097D00001C20200B0AA018021C20200B0AB008029
:1097E000D5C20200B0B0AA8003C30200B0AF0080AF
:1097F0006BC602006833040065CA0200B0AA01808B
:1098000089CA020038350400CDCA0200B0A9008020
:10981000F7CB0200F0470400DFCC0200B0A90080C3
:109820006FCE0200D0470400EBCE0200B0A900804A
:109830005BCF020080350400C1CF0200B0A90080D8
:1098400031D002004835040079D00200B0AB00806E
:109850006DD30200B0AA018099D30200B0AB0080A2
:1098600041D40200B0B0AA806FD40200B0AF008033
:10987000C7D702007037040035DA0200B0AB0080B1
:1098800081DA0200B0AA0180D5DA0200B0AB008014
:1098900021DB0200B0AA018075DB0200B0AB0080C2
:1098A000C1DB0200B0AA01808BDC02001844040076
:1098B000D1DC02000044040053DD0200B0AB0080A4
:1098C00099DD0200E044040025DF0200B0A9008019
:1098D00069DF0200B0B0AA80A9E20200B0A90A8044
:1098E000DFE20200A433040015E30200B0AB008005
:1098F00097E30200B0B0AA8085E40200B0A900801E
:10990000D5E40200B0B0AA80A7EA0200B0A90080A6
:1099100019EB0200B0AB008065EB0200B0AA018039
:10992000D9EB02009C32040075F20200B0A900805D
:10993000FDF20200B0AB008049F30200B0AA018042
:109940008FF30200B0B0AA8045F50200B0A90080F4
:1099500089F50200B0B0AA80E1F802007844040062
:1099600029F902006044040071F90200B0B0AA8035
:10997000B5F90200B0A8018015FB0200B0A9008073
:10998000B1FB0200304204005BFC0200B0B0AA80D0
:10999000D1FC0200B0A900806DFD020098400400D7
:1099A0009FFF02004046040011000300B0B0AA80EF
:1099B00027020300B0A90080C3020300984A0400F4
:1099C0005D030300B0A80180B7030300B0B0A88016
:1099D00091040300B0AB0080DB040300C841040025
:1099E0002D050300B0B0AA8095050300B0AB008040
:1099F000DF050300B0A900804706030028460400E5
:109A000081060300B0B0AA80A306030068440400E6
:109A1000CB0603004044040075080300B0AB00808F
:109A2000BF080300204A040003090300B0B0A88067
:109A300013090300B0B0AA802D090300B0A900806B
:109A40009B09030090410400D5090300584004001D
:109A5000590A030070400400810A030058430400BF
:109A6000970A0300B0A90080710B0300084A0400A4
:109A7000A90B0300B0B0AA80CD0B0300B0B0A88042
:109A80006F0C0300B0B0AA80D10C03008425040041
:109A9000730D0300B0A90080810D0300B0B0AA804F
:109AA000E50D0300B0AA0180310E0300B0B0AA801A
:109AB000ED0E0300B0A90080BF0F0300B0B0A88076
:109AC00013100300B0A90080831003000100000000
:109AD00077170300B0AB0080F9490300B0A80180FC
:109AE0008954030001000000BD540300B0B0A880F9
:109AF000D3540300B0B0AA80CF550300184104002E
:109B00002D58030001000000295A0300B0A900806D
:109B10005F5A030000840080F1660300B0AC05804A
:109B20004F6703004CAD030097680300B0AA0180A3
:109B3000B9680300F424040015690300B0B0AC80D8
:109B4000516A0300B0AA0180456B0300B0B0AA803F
:109B5000B56B0300B0AB00800D6C0300B0B0A88003
:109B6000D36C030048300400956D0300B0B0AA80A8
:109B70007F6E030074300400D76E0300B0AB00802A
:109B8000ED6E0300303F0400516F0300B0A9008068
:109B9000B36F0300B0AC0180FD6F0300B0A900807B
:109BA00029700300B0AA038059700300B0AB008095
:109BB0008F700300D02F0400C1700300B0B0AA80E2
:109BC000ED700300D03E04004B7303000100000061
:109BD0007976030088D203002F770300183F040032
:109BE000DD77030000840080F3780300B0A90080D3
:109BF00041790300B0AA018075790300F4050400DF
:109C0000C3790300942F0400C17A0300B0A9008037
:109C1000617B0300B0B0A880C97B0300B0AB0080BB
:109C20005F7C0300D82F04008F7C0300B0AC018060
:109C3000D37C0300B0B0AC80B37D0300B0A9028038
:109C4000CD7D0300E02F0400277F0300242F0400B4
:109C5000517F0300B0A90080597F0300010000007C
:109C600013800300702F04005B800300B0AB008002
:109C7000C7800300B0B0AA8003810300583E0400EF
:109C80002B810300003E0400F18603000100000068
:109C900005930300F4A10300C59403000100000034
:109CA000B3950300D02F04003D960300B0B0A88008
:109CB000F99703000100000055980300B0AB008045
:109CC00041990300010000009D990300B0AB0080A2
:109CD000899A030001000000E59A0300B0AB008000
:109CE000D19B0300010000002D9C0300B0AB00805D
:109CF00061A203000100000021A3030078FF03001C
:109D00001DAC0300B0AC018075AC0300B0A90080AD
:109D1000EFAC0300B0AB0080A5AD0300B0AC018098
:109D2000FDAD0300B0A9008077AE0300B0AB0080AA
:109D300029AF0300B0AC018081AF0300B0A900805F
:109D4000FBAF0300B0AB0080ADB00300B0AC01804E
:109D500005B10300B0A900807FB10300B0AB008063
:109D600035B20300B0AC01808DB20300B0A9008011
:109D700007B30300B0AB0080BDB30300B0AC0180FB
:109D800015B40300B0A900808FB40300B0AB00800D
:109D900045B50300B0AC01809DB50300B0A90080BB
:109DA00017B60300B0AB0080CDB60300B0AC0180A5
:109DB00025B70300B0A900809FB70300B0AB0080B7
:109DC00055B80300B0AC0180ADB80300B0A9008065
:109DD00027B90300B0AB0080DDB90300B0AC01804F
:109DE00035BA0300B0A90080AFBA0300B0AB008061
:109DF00065BB0300B0AC0180BDBB0300B0A900800F
:109E000037BC0300B0AB0080EDBC0300B0AC0180F8
:109E100045BD0300B0A90080BFBD0300B0AB00800A
:109E200075BE0300B0AC0180CDBE0300B0A90080B8
:109E300047BF0300B0AB0080FDBF0300B0AC0180A2
:109E400055C00300B0A90080CFC00300B0AB0080B4
:109E500085C10300B0AC0180DDC10300B0A9008062
:109E600057C20300B0AB00800DC30300B0AC01804B
:109E700065C30300B0A90080DFC30300B0AB00805E
:109E800095C40300B0AC0180EDC40300B0A900800C
:109E900067C50300B0AB00801DC60300B0AC0180F5
:109EA00075C60300B0A90080EFC60300B0AB008008
:109EB000A1C70300B0AC0180F9C70300B0A90080BE
:109EC00073C80300B0AB008025C90300B0AC0180AB
:109ED0007DC90300B0A90080F7C90300B0AB0080C2
:109EE000A9CA0300B0AC018001CB0300B0A9008077
:109EF0007BCB0300B0AB00802DCC0300B0AC018065
:109F000085CC0300B0A90080FFCC0300B0AB00807B
:109F1000B1CD0300B0AC018009CE0300B0A9008030
:109F200083CE0300B0AB0080DDD40300B0B0AA80C4
:109F300013DE03000C1D04001DE40300B0AD00801F
:109F400053E40300B0B0AC80D7E40300B0AD0080B0
:109F50000DE50300B0B0AC80B1E60300B0AD008009
:109F6000D9E60300B0B0AC8059E70300B0AD008083
:109F700081E70300B0B0AC80DDF80300B0B0A8808A
:109F800069F90300B0AB028069FA0300581E0400AF
:109F90002DFB0300703B04004DFB0300783B0400E5
:109FA0006DFB0300A03C04008DFB0300F83E0400A1
:109FB000ADFB03008040040059140400B0B0AA8037
:109FC00071140400B0AB008095140400B0B0AA80F6
:109FD000C5140400B0AB0080E9140400B0B0AA803E
:109FE00037150400B0AB00805B150400B0B0AA8048
:109FF000A9150400B0AB0080CD150400B0B0AA8054
:10A000001B160400B0AB00803F160400B0B0AA805D
:10A010008D160400B0AB0080B1160400B0B0AA8069
:10A02000FF160400B0AB008023170400B0B0AA8074
:10A0300071170400B0AB008095170400B0B0AA807F
:10A04000E3170400B0AB008007180400B0B0AA808A
:10A0500055180400B0AB008079180400B0B0AA8095
:10A06000A9180400B0AB0080CD180400B0B0AA80DD
:10A07000FD180400B0AB008021190400B0B0AA8024
:10A0800051190400B0AB008075190400B0B0AA806B
:10A09000A5190400B0AB0080C9190400B0B0AA80B3
:10A0A000F9190400B0AB00801D1A0400B0B0AA80FA
:10A0B0006D1A0400803A0400BF1A0400583C0400E2
:10A0C000411D0400A03A0400551D0400A83A0400F4
:10A0D000A11D0400503E0400B51D0400583E0400BC
:10A0E0004922040070390400592204007839040020
:10A0F000692204008039040079220400483A0400EF
:10A1000089220400503A040099220400783A04009D
:10A11000A9220400803A0400B9220400C83A0400CD
:10A12000C9220400D03A0400D9220400D83A04001D
:10A13000E9220400F03B0400F9220400F83B04008B
:10A1400009230400003C040019230400083C040017
:10A1500029230400103C040039230400183C0400A7
:10A1600049230400603D040059230400683D0400B5
:10A1700069230400703D040079230400783D040045
:10A1800089230400803D040099230400883D0400D5
:10A19000A9230400B03D0400B9230400B83D040025
:10A1A000C9230400C03D0400D9230400C83D0400B5
:10A1B000E9230400D03D0400F9230400D83D040045
:10A1C00009240400E03D040019240400E83D0400D3
:10A1D00029240400F03D040039240400F83D040063
:10A1E00049240400703E040059240400783E040011
:10A1F00069240400803E040079240400883E0400A1
:10A2000089240400903E040099240400983E040030
:10A21000A924040070410400B9240400784104001A
:10A22000C924040080410400D924040058420400D9
:10A23000E924040060420400F92404006842040098
:10A2400009250400B042040019250400B8420400A6
:10A2500029250400C042040039250400E843040015
:10A26000A1270400C0380400C5270400E839040011
:10A27000D3270400403C0400E1270400C83D04004B
:10A280001B2804000043040029280400584304004C
:10A2900000F5E0700268914203D343681A4491428A
:10A2A00002D380680028F5D170471849086880B942
:10A2B0004FF4805048604FF480324FF0FF30C86058
:10A2C00008610420124B8A604861C3F8BC01114840
:10A2D00008600120704701F1080313F0070F0EBF5B
:10A2E0000023C3F1080303F007031944D21A816164
:10A2F000C26042F001034B60091D4FF0280C41F889
:10A3000002C0024A1369C36170470000582F002041
:10A31000C82400206859883C2DE9F84F84B00646CF
:10A32000AFF30080F52E1E4D80F013820B2E31BF4F
:10A3300010260B36F608F6002868F408E04010F006
:10A34000030F4AD0C04300F00100041905F12800B2
:10A3500000EBC408E700D8F808607068C008C000C7
:10A36000B84218BFFDF710FFD6F80890464508BF61
:10A37000FDF70AFF4E4508BFFDF706FF7068C008ED
:10A38000C000B84218BFFDF7FFFEC8450AD12868D3
:10A39000012101FA04F420EA04042C6010E000BF5B
:10A3A000C82400202869814508D3D9F80C10B1428F
:10A3B00004D1C8F80890C9F80C8001E0FDF7E4FE6C
:10A3C00047F00300311D7060301DCA5942F0010290
:10A3D000C25106F1080800F01DBFA968B14280F023
:10A3E000A883002800F0A2804FF0010808FA04F1C9
:10A3F000490000FA04F4484201430C406042044022
:10A40000641E200B00F01000C440610901F0080137
:10A41000CC40A20802F00402D440630803F0020317
:10A420000818DC401018C4F3400718183818FC400E
:10A43000241805F1280000EBC40AE700DAF80890B8
:10A44000D9F80400C008C000B84218BFFDF79CFE50
:10A45000D9F808B0D14508BFFDF796FED94508BF29
:10A46000FDF792FED9F80400C008C000B84218BF3A
:10A47000FDF78AFEDA4506D1286808FA04F420EAD6
:10A4800004042C600DE029698B4508D3DBF80C002F
:10A49000484504D1CAF808B0CBF80CA001E0FDF79C
:10A4A00073FEBF1B46F0030009F10402C9F8040063
:10A4B00047F00101915109EB06020192D751AC68B6
:10A4C0004FEAD40ABAF11F0F88BFFDF75DFE34B31F
:10A4D000CDF800A005F128006E6900EBCA0AD3464A
:10A4E000102C38BFFDF750FE2968009821FA00F2C1
:10A4F000D30704D408FA00F00843286007E0DAF82C
:10A500000800296988422CBF8346FDF73DFECAF842
:10A510000860CBF80C60C6F808B0C6F80CA0AF60B5
:10A5200009F108080198686100F074BE68680028A5
:10A5300000F0208341420840401E010B01F0100151
:10A54000C840420902F00802D040830803F0040327
:10A55000D840440804F002045118E0405918C0F3F0
:10A560004007611805F598787918F840401858F8B0
:10A5700020104868C008C0008A46A0EB060B08E01F
:10A5800001464868C008C000801B58453CBF834650
:10A590008A4608690028F3D149690029F1D1286960
:10A5A0008245C0F0D380DAF80410C90806EB0B0925
:10A5B000C900494518BFFDF7E7FD0AEB06008245D3
:10A5C000019080F0C380DAF80C40DAF81870544536
:10A5D0000DD0DAF808002969884223D3C2685245B1
:10A5E00004BFA16851451DD1C460A0601CE00AF100
:10A5F00014010C6834B90AF110010C68A4B101E02F
:10A6000011460C6804F114021068002802BF04F11E
:10A61000100210680028F3D12869814202D3002279
:10A620000A6001E0FDF7B0FD002F38D0DAF81C0019
:10A6300008EB80010A6892450AD11CBB6A680123B5
:10A6400003FA00F022EA000068600020086026E0BB
:10A6500029698F4213D33869504514BF7C613C612E
:10A66000ECB129698C4218D3A761DAF8100058B10F
:10A67000884226BF20618461FDF786FD04E0FDF776
:10A6800083FDEDE70C60ECE7DAF8140038B12969D6
:10A69000884202D36061846101E0FDF775FDBBF182
:10A6A000100F0ED249F003000AF10401CAF80400A9
:10A6B0000AF1040051F8092042F0010240F8092093
:10A6C0003EE046F003010AF10402CAF804104BF020
:10A6D00001009051019941F80BB0A8680090C4089E
:10A6E0001F2C88BFFDF750FD009828B305F1280006
:10A6F00000996F6900EBC408C146102938BFFDF707
:10A7000043FD286820FA04F1CA0705D4012101FAA3
:10A7100004F404432C6007E0D8F808002969884253
:10A720002CBF8146FDF730FDC8F80870C9F80C70E1
:10A73000C7F80890C7F80C80C5F808B001986861A0
:10A740001AF1080800F0F58100F064BDFDF71CFD6A
:10A75000EFE116F1400F28BF4FF0FF3680F0E9819E
:10A760000B36F6086B68F600002B00F0E28100273C
:10A77000300AC6F1000908BF002423D0B0F5803F9D
:10A7800028BF1F241ED2A0F58071090C01F008011A
:10A790008840A0F58052120C02F004029040A0F50F
:10A7A0008044240CC1F10E0104F00204891A091B33
:10A7B000A04001EBD031C81D26FA00F404F00104DA
:10A7C00004EB410405F5987858F8240030B31F2CA9
:10A7D0000FBFB4464FEA540CCCF1190C06FA0CFC2E
:10A7E000BE46494601E04FEA4C0C4268D208D2000E
:10A7F000921B8A4202D2110007460CD042691030E7
:10A800004FEADC7950F82900002A1CBF82429646A4
:10A810000028E8D170468946A8BBB7BB012101FAE0
:10A8200004F4640060420443234000F082815842F3
:10A8300003405B1E180B00F01000C340590901F0E3
:10A840000801CB409A0802F00402D3405C0804F0EF
:10A8500002040818E3401018C3F3400C20186044A9
:10A8600023FA0CF31B1858F823000CE00846416843
:10A87000C908C900891B49453CBF8946074601698B
:10A880000029F3D140690028F1D1002F00F0518157
:10A89000A868801B814580F04C8129698F42FFF4B4
:10A8A00055AF7868C008C00006EB0901884218BFA0
:10A8B000FDF76AFC07EB060B5F45BFF447AFFC688A
:10A8C000D7F818A0BC420CD0B8682969884223D3B5
:10A8D000C268BA4204BFA168B9421DD1C460A06079
:10A8E0001CE007F114010C6834B907F110010C6881
:10A8F000A4B101E011460C6804F1140210680028AC
:10A9000002BF04F1100210680028F3D128698142C7
:10A9100002D300220A6001E0FDF736FCBAF1000F15
:10A9200039D0F86908EB80010A6897420AD134BB34
:10A930006A68012303FA00F022EA00006860002040
:10A94000086028E029698A4516D3DAF81000B84271
:10A9500014BFCAF81440CAF81040E4B129698C4207
:10A9600017D3C4F818A0386958B1884226BF2061AF
:10A970008461FDF709FC04E0FDF706FCEDE70C60DF
:10A98000ECE7786938B12969884202D36061846153
:10A9900001E0FDF7F9FBB9F1100F0CD2B14449F019
:10A9A0000300391D7860381D51F8092042F001027A
:10A9B00040F80920B9E046F003013A1D796049F0FA
:10A9C000010090514FEAD9004BF809901F2822D876
:10A9D00005F1280101EBC004296821FA00F2D30730
:10A9E000A04605D4012202FA00F00843286006E0E0
:10A9F000A068296988422CBF8046FDF7C5FBC4F8D2
:10AA000008B007F10800C8F80CB040F8068007F15C
:10AA10000C018C5189E05FEA192008BF002123D086
:10AA2000B0F5803F28BF1F211ED2A0F58072120C06
:10AA300002F008029040A0F58051090C01F00401D9
:10AA40008840A0F580431B0CC2F10E0203F0020304
:10AA5000521AD21A984002EBD032D01D29FA00F1D6
:10AA600001F0010101EB420107F11403CBF81C10C6
:10AA700000229A5107F1100308EB81009A516A688D
:10AA800022FA01F3DC0711D4012303FA01F1114387
:10AA90006960C0F800B0CBF8180007F1080107F1B1
:10AAA0000C0040F806B041F806B03EE002681F29ED
:10AAB0001DBF4908C1F1190109FA01F1494600E039
:10AAC00002465068C008C000484518D002F1100383
:10AAD000C80F03EB8003490018680028F0D12869EB
:10AAE000834220D3C3F800B007F10C01CBF8182043
:10AAF00041F806B007F1080040F806B015E02969F2
:10AB000090688A4228BF88420DD3C0F80CB007F184
:10AB10000801C2F808B0885107F10C0082510022E8
:10AB2000CBF8182001E0FDF72FFB17F1080840F0E3
:10AB30007183A868B0421DD3811B6A69102909D3AB
:10AB40009319A96041F001005860595046F003067E
:10AB500056600BE00021A96040F00304111D546011
:10AB6000141D0E5846F00106265000236B6102F1B9
:10AB700008084FE3E8688642C0F03C83DFF8CC9BCE
:10AB8000D9F8000008B9FFF790FBD9F80810881928
:10AB90002F30491E20EA01018E4280F0398305F5ED
:10ABA000D877B86838B13A6889188A4280F030831B
:10ABB0008842C0F02D8300F031FE00281CBFD0F881
:10ABC000008010F1010F00F0238339687A68414456
:10ABD00039608A4238BF7960AC6904BB296909B120
:10ABE000884200D2286100213861C7F81480F961D9
:10ABF0004FF0FF31D9F800206A62296205F128027E
:10AC000000219260D26002F1080353611361891C34
:10AC100010321F29F5D9A8F1280201461DE005F5DB
:10AC2000E0710A46814600E09268D2B1106853682C
:10AC300003449945F8D1107B030712D413689C4252
:10AC40000FD3D2F804C063449C420AD2C444C2F871
:10AC500004C02146E86808EB00022846FFF73BFBEA
:10AC6000C5E22869814538BFC5F8109009EB080096
:10AC700000E08968002900F0C1810A688242F8D1A9
:10AC8000087B020700F1BA810868C1F800904A68A1
:10AC900042444A6009F1080111F0070F08BFCDF8DE
:10ACA000049006D0C1F1080101F0070109EB01028F
:10ACB000019200F1080111F0070F04D0C1F1080161
:10ACC00001F00701084480460198A8EB00018419AF
:10ACD000A1EB060B274646F003064660474528BF12
:10ACE000FDF752FA98F80400C10758BFFDF74CFA77
:10ACF000BBF1100F38BFFDF747FAA869804508D1AE
:10AD0000E9688B44C5F80CB0AF614BF00100786086
:10AD100070E1686980450AD1A9686F618B44C5F804
:10AD200008B04BF00100786047F80BB062E1D8F84A
:10AD3000040000F00301012940F0BC80C008C000FD
:10AD4000C1081F29039040D8D8F808200092D8F8ED
:10AD50000C600291B04508BFFDF716FA00988045D7
:10AD600008BFFDF711FAD8F804000299C008C00026
:10AD7000B0EBC10F18BFFDF707FA0299009A05F171
:10AD8000280000EBC100824208D011462A69914296
:10AD9000C0F08B80CA68424540F0878000998E429F
:10ADA00006D102982A68012383409A432A607EE0F4
:10ADB000864205D029698E4277D3B068404574D168
:10ADC0000098C6600099B16071E0D8F81800009052
:10ADD000D8F80C6046450DD0D8F80800296988429B
:10ADE00023D3C268424504BFB16841451DD1C66046
:10ADF000B0601CE008F114010E6836B908F11001CA
:10AE00000E68A6B101E011460E6806F11402106842
:10AE1000002802BF06F1100210680028F3D128694B
:10AE2000814202D300220A6001E0FDF7ADF90098EB
:10AE300000283CD0D8F81C0005F5987101EB800182
:10AE40000A6890450AD12EBB6A68012303FA00F014
:10AE500022EA000068600020086028E00099286964
:10AE6000814214D30869404514BF4E610E61F6B1AA
:10AE700029698E4219D30098B061D8F8100058B1F2
:10AE8000884226BF30618661FDF77EF904E0FDF758
:10AE90007BF9ECE70E60EBE7D8F8140038B12969CC
:10AEA000884202D37061866101E0FDF76DF9039974
:10AEB00088448B44D8F8041049084900C8F80410A5
:10AEC0004BF0010078604FEADB0647F80BB01F2E0D
:10AED00022D805F1280000EBC604A146BBF1100FF3
:10AEE00038BFFDF751F9286820FA06F1CA0705D4E2
:10AEF000012101FA06F606432E6006E0A0682969E2
:10AF000088422CBF8146FDF73FF9A760C9F80C7055
:10AF1000C7F80890FC606DE05FEA1B2008BF0021C5
:10AF200023D0B0F5803F28BF1F211ED2A0F580722C
:10AF3000120C02F008029040A0F58051090C01F0BB
:10AF400004018840A0F580431B0CC2F10E0203F0FF
:10AF50000203521AD21A984002EBD032D01D2BFABB
:10AF600000F101F0010101EB4201F961002305F557
:10AF700098727B6102EB81003B616A6822FA01F3FF
:10AF8000DE0707D4012303FA01F11143696007606A
:10AF9000B8611DE002681F291DBF4908C1F11901F0
:10AFA0000BFA01F1594600E002465068C008C000A3
:10AFB000584510D002F11003C80F03EB800349007D
:10AFC00018680028F0D12869834211D31F60BA6144
:10AFD000FF60BC600EE0296990688A4228BF884201
:10AFE00006D3C7609760B860FA600020B86101E0DE
:10AFF000FDF7CAF8019800F108080BE12146284640
:10B00000FFF746F90168406808440090A0F1270165
:10B0100011F0070000980EBF0021C1F1080101F0F6
:10B0200007010844A0F12F0B04F110018B4538BF34
:10B03000A3460BF11802002102920191A8F1280207
:10B0400049462846FFF747F90BF1080010F0070FB3
:10B0500018BFFDF799F81B20CBF8040005F5E07246
:10B0600092E809500BF1080181E8095000210BF129
:10B070000800F961B861009A02980199C7F8109028
:10B08000C7F81480072300E0001D491C00F10807E1
:10B0900097424360F8D30129D8BFFDF775F8A3455F
:10B0A00000F0A580ABEB040B201D221D50F80B1007
:10B0B0004908490042F80B104BF0010060604FEA6C
:10B0C000DB0944F80BB0B9F11F0F22D805F12800B5
:10B0D00000EBC907B846BBF1100F38BFFDF754F8B5
:10B0E000286820FA09F1CA0705D4012101FA09F1FB
:10B0F0000843286006E0B868296988422CBF80466A
:10B10000FDF742F8BC60C8F80C40C4F80880E7605E
:10B110006DE05FEA1B2008BF002123D0B0F5803F1F
:10B1200028BF1F211ED2A0F58072120C02F0080267
:10B130009040A0F58051090C01F004018840A0F571
:10B1400080431B0CC2F10E0203F00203521AD21A02
:10B15000984002EBD032D01D2BFA00F101F0010132
:10B1600001EB420105F59872002302EB8100E161D9
:10B17000636123616A6822FA01F3DF0707D40123C0
:10B1800003FA01F1114369600460A0611DE00268E7
:10B190001F291DBF4908C1F119010BFA01F15946D8
:10B1A00000E002465068C008C000584510D002F1C7
:10B1B0001003C80F03EB8003490018680028F0D182
:10B1C0002869834211D31C60A261E460A4600EE090
:10B1D000296990688A4228BF884206D3C460946077
:10B1E000A060E2600020A06101E0FCF7CDFFE8680C
:10B1F00086420DD2801BA969E8608A19AA6140F0D5
:10B200000100506046F003064E6001F1080801E0BD
:10B210004FF00008AFF30080404605B0BDE8F08F66
:10B22000002800D170472DE9F047A0F10805AFF3E1
:10B230000080DFF81C6531698D42C0F08482686847
:10B2400000F00302012A00F07E82C2084FEAC20920
:10B25000C20705EB090839D42C6810F0030F00F081
:10B260006E82604205448D42A144C0F06C827069D8
:10B27000854200F0DE80E408202C72D2D5F80CA0C4
:10B28000AF68554508BFFCF77FFFBD4208BFFCF71C
:10B290007BFF6868C008C000B0EBC40F18BFFCF7A4
:10B2A00073FF06F1280000EBC400874205D0316926
:10B2B0008F4253D3FA68AA4250D1BA4540D1306880
:10B2C000012101FA04F420EA04043460454580F0C9
:10B2D0003A82D8F80440E00740F13582A10700F136
:10B2E0008381B069804540F0B780F168B5618944D9
:10B2F000C6F80C9049F00100686071698D4202D176
:10B3000000207061B060F169494580F01882DFF873
:10B310003C24106808B9FEF7C8FFB169002900F0A5
:10B320000E82F068292824BF3046FEF7B1FFF0698D
:10B33000F168884280F003824FF0FF30F061FEE157
:10B34000824506D03069824508D3DAF80810A94250
:10B3500004D1C7F80CA0CAF80870B7E7FCF714FFCF
:10B36000B4E7EC68AF69AC420BD0A868884222D33E
:10B37000C168A94204BFA268AA421CD1C460A060EF
:10B380001BE005F11402146834B905F110021468C9
:10B390009CB101E01A46146804F1140318680028EF
:10B3A00002BF04F1100318680028F3D18A4202D3C7
:10B3B0000021116001E0FCF7E7FE002F86D0E8696C
:10B3C00006F5987101EB80010A6895420AD124BB09
:10B3D0007268012303FA00F022EA00007060002086
:10B3E000086073E731698F4214D33869A84214BFEB
:10B3F0007C613C61002C3FF469AF31698C42ADD374
:10B40000A761286958B1884226BF20618461FCF792
:10B41000BBFE04E0FCF7B8FEECE70C60EDE7686902
:10B4200000283FF453AF3169884297D3606184614B
:10B430004CE798F8040000F0030003287FF446AFBF
:10B44000C6F8089049F00101D8F80400400840000F
:10B45000C8F8040069600AE0706980450AD1B168E3
:10B4600075618944C6F8089049F00100686045F8A4
:10B47000099064E1E408E400A144E408202C3AD2F5
:10B48000D8F80CA0D8F80870D04508BFFCF77CFEAF
:10B49000B84508BFFCF778FED8F80400C008C00023
:10B4A000B0EBC40F18BFFCF76FFE06F1280000EBED
:10B4B000C400874207D031698F42C0F08880FA68A3
:10B4C000424540F08480BA4507D13068012101FA35
:10B4D00004F420EA040434607BE0824506D030693D
:10B4E000824574D3DAF80810414570D1C7F80CA032
:10B4F000CAF808706DE0D8F80C40D8F818704445C8
:10B500000DD0D8F808003169884223D3C26842457B
:10B5100004BFA16841451DD1C460A0601CE008F1D2
:10B5200014010C6834B908F110010C68A4B101E0F1
:10B5300011460C6804F114021068002802BF04F1DF
:10B54000100210680028F3D13069814202D3002232
:10B550000A6001E0FCF718FE002F3AD0D8F81C0072
:10B5600006F5987101EB80010A6890450AD11CBB71
:10B570007268012303FA00F022EA000070600020E4
:10B58000086026E031698F4213D33869404514BF03
:10B590007C613C61ECB131698C4218D3A761D8F869
:10B5A000100058B1884226BF20618461FCF7ECFD91
:10B5B00004E0FCF7E9FDEDE70C60ECE7D8F81400D7
:10B5C00038B13169884202D36061846101E0FCF7DF
:10B5D000DBFD49F00100686045F8099071698D4212
:10B5E0000BD1C6F80890AAE064086400C8F80440CB
:10B5F00049F00100686045F809904FEAD907202F0B
:10B6000022D206F1280000EBC704A046B9F1100FC2
:10B6100038BFFCF7B9FD306820FA07F1CA0705D436
:10B62000012101FA07F70743376006E0A068316996
:10B6300088422CBF8046FCF7A7FDA560C8F80C50D7
:10B64000C5F80880EC607AE05FEA192008BF0021A5
:10B6500023D0B0F5803F28BF1F211ED2A0F58072F5
:10B66000120C02F008029040A0F58051090C01F084
:10B6700004018840A0F580431B0CC2F10E0203F0C8
:10B680000203521AD21A984002EBD032D01D29FA86
:10B6900000F101F0010101EB420106F5987200236F
:10B6A00002EB8100E9616B612B61726822FA01F3A0
:10B6B000DC0707D4012303FA01F11143716005602F
:10B6C000A8611DE002681F291DBF4908C1F11901C9
:10B6D00009FA01F1494600E002465068C008C0007E
:10B6E000484510D002F11003C80F03EB8003490056
:10B6F00018680028F0D13069834211D31D60AA6117
:10B70000ED60AD600EE0316990688A4228BF8842E2
:10B7100006D3C5609560A860EA600020A86101E0DA
:10B72000FCF732FD306A401E08D13062D6F8C801FD
:10B7300000E080680028FCD14FF0FF303062AFF3AA
:10B740000080BDE8F087FCF71FFDF8E7582F0020C8
:10B75000C82400202DE9F8438AB080462821684695
:10B7600000F072F82B4A106808B9FEF79EFDAFF39F
:10B770000080DFF8A4E0DEF81820002A40D0DEF8D0
:10B780000C5005F12806012437460EF5E0711CE047
:10B790004FEADC090CF0030CBCF1010F07EBC90701
:10B7A00004BF06EBC906641C03EBC90383420BD339
:10B7B000D1F8049081444B4506D293421CBFD3F884
:10B7C00004C0BCF1070FE3D1896861B1086800F1DA
:10B7D000080313F0070F0EBF0023C3F1080303F0A3
:10B7E00007030344E2E700970EF5D870019408962A
:10B7F0000995016842680592CF1B891B0497079140
:10B80000AFF3008040466946282200F03DF80BB0B7
:10B81000BDE8F083582F0020C8240020074908689D
:10B8200008B1002070470648C008C00008600549FC
:10B83000C908C900091A0160704700BF5C300020C8
:10B840003F52002037520120002200F06FB882687A
:10B85000521C8260426832B10268531C036011704E
:10B860004168491E4160704762B38B0708D0521E81
:10B8700011F8013B00F8013B00F024808B07F6D162
:10B88000830740F0208000BF103A07D330B4B1E8FE
:10B890003810103AA0E83810F9D230BC530724BF52
:10B8A000B1E80810A0E8081044BF51F8043B40F884
:10B8B000043BD20724BF31F8022B20F8022B44BFEF
:10B8C0000B7803707047121F17D35B0009D151F832
:10B8D000043B20F8023B1B0C121F20F8023BF6D25F
:10B8E0000BE051F8043B00F8013B1B0A20F8023B37
:10B8F0001B0C121F00F8013BF3D238BF121D521E61
:10B9000024BF11F8013B00F8013BF8D870470268EA
:10B91000531C03601170704780B5AFF30080024A7A
:10B9200011001820ABBEFBE72600020000B500BFE7
:10B93000130096469446103928BFA0E80C50FAD858
:10B940005FEA417C28BF0CC048BF40F8042BC90700
:10B9500028BF20F8022B48BF00F8012B00BD0200D1
:10B96000002070472DE9F14FB0B0924604910DF1DF
:10B9700042013A9A2B9199464A7000200AE01AF83F
:10B98000011B0498309A90470028049000F0A68686
:10B990000D98401C0D909AF8000050B12528EED16A
:10B9A000002100220791089209910A920B910C92B2
:10B9B00004E00D9800F094BE41F001011AF8010F67
:10B9C0002028F9D023280CD02B2804D02D2805D0EE
:10B9D000302809D00BE041F00201EFE741F004010B
:10B9E000ECE741F00801E9E741F01001E6E72A2819
:10B9F0000FD1D9F8002052F8040BC9F80020002814
:10BA00000F9003D540420F9041F004010AF1010A62
:10BA100014E00F92DFF824380AE00F98984205DA14
:10BA200000EB800402EB4402303A0F920AF1010A63
:10BA30009AF80020A2F130000A28EED39AF800000C
:10BA40002E2803D04FF0FF320E9229E01AF8010F92
:10BA50002A2809D1D9F8000050F8042BC9F80000B1
:10BA60000E920AF1010A1BE02D280CBF0AF1010A0F
:10BA7000002000220E92DFF8C4470BE040B90E9A76
:10BA8000A24205DA02EB820503EB4503303B0E933D
:10BA90000AF1010A9AF80030A3F130020A2AEDD324
:10BAA000ADF84010DFF89807784400F294709AF8E7
:10BAB000001000F02DFF08B11AF8010B8DF84200BC
:10BAC0009DF84200682805D19AF8000068280CD13A
:10BAD000622106E06C2804BF9AF800006C2804D1AB
:10BAE00071218DF842100AF1010A12A806901AF885
:10BAF00001BBBBF125012CD01C3900F0CF81091FFF
:10BB0000022940F2CB81133900F01385093900F086
:10BB1000C581891E00F0A885491E00F05585491E83
:10BB2000022940F2BB81091F00F04E85491F00F039
:10BB30002881491E00F0FD84491E00F0D080C91EF6
:10BB40000DD0891E00F0F584C91E00F0F28400F0CB
:10BB500096BD25238DF84830012100F09BBDD9F812
:10BB6000000050F8044BC9F80000002C059440F088
:10BB7000A3802B994878002800F099804FF0FF347B
:10BB80000FF6643000F0D2FE201A40F0A78500F0D6
:10BB900082BD6D1E40F099853096079D12AF75B13C
:10BBA000309E17F8012B02A9304600F063FE0028F2
:10BBB00001D46D1EF5D10028309640F08F850A9D86
:10BBC0003020002D8DF804000CDD309E012301AAE9
:10BBD00002A9304600F05EFE002840F07F856D1E11
:10BBE000F4D13096059F089D75B1309E17F8012B52
:10BBF00002A9304600F03EFE002801D46D1EF5D1AA
:10BC00000028309640F06A850B9D3020002D8DF87D
:10BC100004000CDD309E012301AA02A9304600F089
:10BC200039FE002840F05A856D1EF4D130960598F3
:10BC30000899099D471875B1309E17F8012B02A984
:10BC4000304600F017FE002801D46D1EF5D1002803
:10BC5000309640F043850C9D3020002D8DF8040077
:10BC60000CDD309E012301AA02A9304600F012FE2D
:10BC7000002840F033856D1EF4D130969DF84000C9
:10BC800041077FF588AE2020002C8DF804007FF757
:10BC900082AE309D012301AA02A9284600F0FAFDD8
:10BCA000002840F01B85641EF4D1309573E60FF632
:10BCB0004440059000F0EFBC0E9D002D04D52046B9
:10BCC00000F054FE044607E02A46204600F06CFED1
:10BCD000002814BF041B2C46089400F0DCBCD9F8E3
:10BCE000001051F8040BC9F8001020F000040021E6
:10BCF00021F0FF3512ABCDE902450593DDE90223C2
:10BD000006993C2413B90AB90E9898B102F00F05B0
:10BD10003035641EEEB23A2EA8BF2735120942EA2A
:10BD200003721B090D5508BF002A03D005980D1991
:10BD3000A842EBD308190590C4F13C020E98089272
:10BD400082420ADABDF84010821A4FF6EF700140C5
:10BD50000A92ADF8401000F09EBC002840F19B8490
:10BD60009DF8400000F01400102840F094840F9BD0
:10BD700007990A985B1A1B1A9A1A002A40F38B84B7
:10BD8000D5E32B99487820B14FF0FF340FF63430CB
:10BD9000F8E69DF84200622861D0682817D06A282A
:10BDA0003FD06C2806D0712847D074282CD07A2830
:10BDB0001DD064E0D9F8001051F8040BC9F8001048
:10BDC000002868D14FF0FF340FF61030DAE6D9F8CA
:10BDD000001051F8040BC9F8001020B94FF0FF34DF
:10BDE0000FF6F820CEE60D99018000F054BCD9F88A
:10BDF000001051F8040BC9F8001000284BD14FF087
:10BE0000FF340FF6D820BDE6D9F8001051F8040B26
:10BE1000C9F8001000283ED14FF0FF340FF6BC20C7
:10BE2000B0E6D9F8001051F8040BC9F8001080B939
:10BE30004FF0FF340FF6A420A4E6D9F8001051F813
:10BE4000040BC9F8001020B94FF0FF340FF68C2016
:10BE500098E60D9AD317C0E9002300F01CBCD9F86E
:10BE6000001051F8040BC9F8001020B94FF0FF344E
:10BE70000FF6682086E60D99017000F00CBCD9F829
:10BE8000001051F8040BC9F8001020B94FF0FF342E
:10BE90000FF6482076E60D990160FCE3D9F8002002
:10BEA000D21D22F00702C9F80020D2E900010832B1
:10BEB000C9F80020CDE90201C80F02D007982D2152
:10BEC0000AE0BDF84000810702D507982B2103E066
:10BED000C00705D50798202112AA1154401C0790CD
:10BEE00012A807994BF020024318DDE90201CDE9C1
:10BEF0002C01612A059321AC0BD00E98002802D5A5
:10BF000006200E9005E001BF4BF0200067280121BC
:10BF10000E91DDE9020148004015401C0A460DD192
:10BF200009030BD0ABF1610503201A2D089002D252
:10BF30000FF6C4110DE00FF6C4110AE070B9120338
:10BF40000CD1ABF1610503201A2D08901AD30FF61E
:10BF5000B41103221846FFF787FC9CE3DDE90201D8
:10BF6000CDE92E01DDE92E2323F00047B7F5801F30
:10BF700022F000060DD20022002F08BF002E0092F2
:10BF800003D116E00FF67811E3E76A4600F038FDBA
:10BF90000FE0DFF8C008DFF8C01800EB1750009082
:10BFA000DDE92E234FF0FF301940DFF8B078104064
:10BFB0003943CDE902014BF0200061280DD10598ED
:10BFC00030210170821CBBF1610F05920CBF7821FA
:10BFD000582141700798801C0790DDE9020120F08C
:10BFE000000231F0004308BF002A02D100260025DC
:10BFF00068E14BF02008B8F1610F40F0B4800E9872
:10C00000002847BF21210191401C0190019FDDE9DB
:10C010002C017F1C00220023DDE9024500F028FDF1
:10C0200000998DF8842038BF85F00045091F002F46
:10C0300000910DF1850653DD20462946002200239C
:10C0400000F030FD4CD24800400D00F11C0312D02E
:10C05000002B10DD40F2FF70834206DBDFF8001892
:10C0600005F000421143002011E06FF31E5141EA38
:10C07000035120460BE024F0000035F0004108BFDA
:10C0800000280FBF29461C22294600F025FD044642
:10C090000D4600F0C1FDFF1F002F804609DD00F0B6
:10C0A000DBFD02460B462046294600F0E9FD04462A
:10C0B0000D46F01D0721B8F1000F0CDD491E5EBFD3
:10C0C00008F00F0200F8012D4FEA2818F3D502E01E
:10C0D000002200F8012D491EFAD5C61D002FABDC49
:10C0E0000DF18500361A01988642D8BF30460028E7
:10C0F0000DF1850430D4B04206DA0DF185010A5CF9
:10C10000082AA8BF0F2100DA0021024621AB134400
:10C1100000E0401E13F80159521E8D42F9D00F293C
:10C1200004D10DF185018B5C5B1C8B54002A04D576
:10C130000099091D21AC401C0091411E0CD46218CD
:10C14000ABF13A0613783033DDB23A2DA8BFF318BD
:10C15000491E02F80139F5D50E99002940F1B08049
:10C16000421E0E92ACE00099DFF8F82647F2975095
:10C17000414391FBF2F2DDE92C45009225F00045A8
:10C18000D2F1070204DD2046294600F040FB0BE017
:10C1900052420020DFF8D01600F039FB02460B4671
:10C1A0002046294600F0E0FD0446B8F1660F0E98DF
:10C1B00006BF009F0A3706273F18142FC8BF142751
:10C1C00030200D468DF884000DF18506002F39DDF5
:10C1D0002046294600F0EEFE01460A4606F1080315
:10C1E00004200A26B2FBF6F606EB860EA2EB4E0200
:10C1F000303203F8012C0A22B6FBF2F202EB820E77
:10C20000A6EB4E063036401E03F8026DE9D1083F1A
:10C21000002F03F10806D9DD084600F0DFFE0246D4
:10C220000B462046294600F02BFD0022DFF83C3665
:10C2300000F0E4FE04460D46CAE700BFCBCCCC0CB0
:10C240007C4704000DF18500361A0DF1850404E0E9
:10C250000098401E761E0090641C20783028F7D08D
:10C26000B8F1660F02D10099491C04E0B8F1650FDE
:10C270000CBF012100210E9808188642B8BF701E1D
:10C2800000281DD4B04204DA215C3429C8BF39210A
:10C2900000DC30210246631E9D1800E0401E15F8A8
:10C2A0000169521E8E42F9D0392902D1A15C491C84
:10C2B000A154002A04D50099491C1C46401C009139
:10C2C0000646009D0E9F30B2002802DC01260FF2C8
:10C2D00038644BF02000662808BF6D1C15D0672815
:10C2E0000FFA85F841D118F1040F44DBB84542DA62
:10C2F0009DF840006D1C010703D430B2B842B8BFAE
:10C30000074628B23F1A48BF00270FFA85F8B8F150
:10C31000000F00F3AF800898411C08913022059966
:10C320000A54002F03DC9DF84000010705D508984A
:10C33000411C08912E2205990A5417EB080FB8BF2B
:10C340007D4228B2C51932B2414295420B91B8BF25
:10C350002E46059B089836B2099632462146184467
:10C36000FFF782FAAD1B0C95CCE0BBF1610F15D144
:10C370004FF0700B17E030B2B84204DA9DF840106D
:10C380000A0758BF07467F1E48BF0027BBF1670F4B
:10C3900014BF4FF0450B4FF0650B04E0BBF1410FAC
:10C3A00008BF4FF0500B0898411C0891002F0599C9
:10C3B00014F8012B0A5403DC9DF84000010719D53D
:10C3C0000898411C08912E2205990A54002F11DD6E
:10C3D000761E30B287420598089BB8BF3E4632B2FF
:10C3E00021461844FFF740FA089836B23018BF1BB0
:10C3F00008900B97059808990844B8F1000F80F849
:10C4000000B003D42B224270821C04E02D2145464B
:10C410004170821C6D4200212CAB28460AE0044684
:10C420000A2094FBF0F000EB8005A4EB450403F830
:10C43000014B491C00B20028F1DC012906DC4BF05D
:10C440002000652804BF302002F8010B00292CAB26
:10C4500008D1302002F8010B06E0491E585C30304C
:10C4600002F8010B0029F8DC059908980844121A13
:10C47000099247E030B229B288421BDA0598089B3E
:10C4800032B221461844FFF7EFF9089936B2711815
:10C49000A8EB0606002F08910B9603DC9DF84000E0
:10C4A000020705D5059A2E2050540999491C099177
:10C4B0000C9727E00598089B2AB221461844FFF7FD
:10C4C000D3F90898761B4044002F089003DC9DF8B0
:10C4D00040100A0704D5411C08912E2205990A54E0
:10C4E00030B287420598089BB8BF3E4632B204EB93
:10C4F00008011844FFF7B8F9089836B23018BE1B87
:10C5000008900B969DF8400000F01400102840F0B1
:10C51000C280079A08990B988A18099982180C9872
:10C520008A1882180F98824280F2B580821A0A9285
:10C53000B1E09DF84200622808D068280ED06A2831
:10C5400014D06C281FD0712810D01CE0D9F800102E
:10C5500051F8040BC9F80010C0B21AE0D9F8001065
:10C5600051F8040BC9F8001080B212E0D9F800208D
:10C57000D21D22F00702C9F80020D2E900010832DA
:10C58000C9F8002006E0D9F8001051F8040BC9F8EA
:10C5900000100021CDE902019DF8400001075AD5A5
:10C5A000DDE90223002B08BF002A54D04BF0200005
:10C5B000782850D1079812A930220A54401C431CF5
:10C5C000079301F800B046E09DF84200622808D0C9
:10C5D00068280ED06A2814D06C281FD0712810D07B
:10C5E0001CE0D9F8001051F8040BC9F8001040B253
:10C5F0001AE0D9F8001051F8040BC9F8001000B285
:10C6000012E0D9F80020D21D22F00702C9F800205C
:10C61000D2E900010832C9F8002006E0D9F800107C
:10C6200051F8040BC9F80010C117CDE90201002927
:10C6300002D507982D210AE0BDF84000810702D5F8
:10C6400007982B2103E0C00705D50798202112AADF
:10C650001154401C079012A807990144059102A8A3
:10C66000594600F04FF816E001200790D9F8000075
:10C6700050F8041BC9F800008DF848100BE0252184
:10C680000122BBF1000F8DF84810079203D08DF8FE
:10C6900049B0022107910F9A07980A990C9C121A27
:10C6A0000898521A0B99121A0998521A121A9DF8E0
:10C6B0004000141B41073FF570AA2020002C8DF884
:10C6C00004007FF76AAA309E2546012301AA02A929
:10C6D000304600F0DFF800283FF45BAA4FF0FF304F
:10C6E00031B0BDE8F08F00007072696E74665F73E0
:10C6F0003A2062616420257320617267756D656EF2
:10C70000740000002DE9FC4307466F293E6908BF0D
:10C71000082405D041F02000782814BF0A241024F2
:10C720003C25D7E90023642918BF6929904699461A
:10C7300005D1002B03D5D8F1000869EB4909B9F1FF
:10C74000000F08BFB8F1000F0CD1386B50B9082C9E
:10C7500039D197F83800010735D530203B2586F8C8
:10C760003B0030E08DF80010404649462246E31772
:10C7700000F018FD3032D0B26D1E3A28019504DB6E
:10C780009DF80000A0F151018A18725540464946B3
:10C790002246E31700F006FD80465FEA010908BF64
:10C7A000B8F1000F03D0F86871198842DCD3082C67
:10C7B00009D197F83800010705D5705D302802D0FF
:10C7C0006D1E30207055C5F13C02BA617119F960D7
:10C7D000386B824208DA821A3A624FF6EF70398F6C
:10C7E00001403987BDE8F38300280ED597F838005B
:10C7F00000F01400102808D17B6B7969386A5B1A45
:10C800001B1A9A1A002AC8BF3A62BDE8F3832DE9C1
:10C81000D04306460F4614464FF00008DFF850900C
:10C8200012E0E00707D542464B463046394600F055
:10C83000E5FB06460F464046494642464B4600F059
:10C84000DDFB641080468946002CEAD1304639462B
:10C85000BDE8D08302FCFFFFFFFF0F800000E03F38
:10C860000000F07FA08601000000F03F84D79741D0
:10C870000000244010B503460C461146A0689847B6
:10C88000A06020B1E06A401CE062002010BD4FF0C3
:10C89000FF3010BDF8B505460E4617461C46002071
:10C8A0005CB117F8011BB068A847B06030B1F06AFE
:10C8B000401CF0620020641EF3D1F2BD4FF0FF3047
:10C8C000F2BD00007072696E74665F733A20256E67
:10C8D00020646973616C6C6F776564007072696E57
:10C8E00074663A2062616420256E20617267756DFE
:10C8F000656E7400000000006E616E004E414E00D7
:10C90000696E6600494E4600300001000020704705
:10C91000C9B202788A421AB11CBF10F8012FF9E798
:10C9200018BF0020704701000020704780B500B993
:10C9300006A005490B681BB122220021984701E09F
:10C94000FBF722FC222002BD60300020636F6E7373
:10C95000747261696E742068616E646C65723A20ED
:10C96000626164206D6573736167650000F10103A6
:10C97000810704D010F8011B820781B1FAD1026847
:10C98000A2F10131914311F0803104BF50F8042F1E
:10C99000F6E709BAB1FA81F100EBD100401CC01AE8
:10C9A0007047010000207047C9B2830706D0521EAD
:10C9B00022D310F8013B9942F7D11FE0083A13D374
:10C9C00002F1040241EA012141EA014150F8043B2D
:10C9D000121F21BF4B40A3F1013C2CEA030C1CF0B9
:10C9E000803FF3D0C9B2001F083210F8013B521E3D
:10C9F00028BF91EA030FF8D818BF0120401E7047E6
:10CA000010B5144600F002F8226010BDC1F30A53BD
:10CA100043B14A0012F5001F28D2A3F2FE32A1EB67
:10CA20000251704750EA410C20D001F0004C31EA2D
:10CA30000C01B1FA81F204BFB0FA80F3D2180B3ABC
:10CA4000B2F120032CBF00FA03F1914041EA0C013E
:10CA50003EBFC2F1200C20FA0CF319439040524221
:10CA600040F2FD33D21A01EB0351704700227047A8
:10CA70004FF4001C1CEB410F94BF1CEB430F09E06B
:10CA800041EA030C50EA4C0C52EA0C0C03D29942D6
:10CA900008BF9042704714BF8B428242704701002A
:10CAA000002070474FF4001C1CEB410F94BF1CEB9F
:10CAB000430F09E041EA030C50EA4C0C52EA0C0C1B
:10CAC00003D28B4208BF8242704714BF9942904202
:10CAD0007047010000207047124254D440F2FF7C9E
:10CAE0001CEA11530FD0634531D09B1863453CBFFE
:10CAF00001EB0251704701F0004141EA0C51002066
:10CB000000F068BC704750EA410320D001F0004CAF
:10CB100091EA0C011CD0B1FA81F30B3B9A420DD97A
:10CB2000D21A994051EA0C01C3F1200C20FA0CFCF6
:10CB300061449840531C40F2FF7CD7E7914041EAA2
:10CB40000C01C2F1200C20FA0CF3194390407047FD
:10CB5000B0FA80F31533202BE0D3202AEED3203A0D
:10CB6000203B9A4209D9D21A00FA03F141EA0C019A
:10CB70000020531C40F2FF7CB8E700FA02F141EAC2
:10CB80000C0100207047524240F2FF7C1CEA115316
:10CB90000DD06345DBD0B2EB030C3CBFA1EB0251DF
:10CBA00070470CF1010221EA035141F4801150EA6F
:10CBB000410CCCD001F0004C352A27DC30B481EA9E
:10CBC0000C01B2F1200309DAC2F12003044601FA94
:10CBD00003F5D0402843D1409C400CE0C3F1200233
:10CBE000450020FA03F418BF44F0010421FA03F0D1
:10CBF00091400C43002174F1004550F1000051EBCD
:10CC00000C01244230BC7FF47BAF704761460020AA
:10CC100076E7010000207047C1F30A5340F2FE326C
:10CC20009B1A14DDD3F120034FEAE17208DDC9023B
:10CC300041EA505141F00040D840801850407047C0
:10CC400003F2E13010B1D24382F00040704700207F
:10CC50007047010000207047C11768B14840401A72
:10CC6000B0FA80F29040D21CC907C2F5846241EA52
:10CC7000025202EBD02140057047010000207047AE
:10CC800070B44FF0004591EA030F40F1B7836B4059
:10CC9000841A71EB030603D2001BB14112197341D0
:10CCA0004FF4001C1CEB410F34BF7CEB430442E00B
:10CCB0000C0DA4EB1356352E4FDC45EAC323DB0ADB
:10CCC00045EAC121C912B6F120050DDD63FA05F66A
:10CCD000EB4086EA0305124218BF45F00105C01873
:10CCE00051F100010CD213E062FA06F5F240554012
:10CCF000F3415A40B340F3405A408018594107D39A
:10CD000049085FEA30005FEA350528BF45F00105B4
:10CD100001F58011420875F1004250F1000041EB2D
:10CD200004514E0016F5001F70BC38BF704700203C
:10CD3000090D090570471CEB410F10D252EA43065A
:10CD40000BD0BCEB410F05D80C0DAB43661E342E47
:10CD5000B6DD02E0AB438018594170BC704770BC2F
:10CD60007047010000207047F0B540F2FF7581EA7E
:10CD7000030C0CF0004C15EA11541DBF15EA1357B3
:10CD8000AC42AF42E5E0BC41C1F31301C3F313036E
:10CD9000801A994143F4801304D2641E4000494133
:10CDA00080185941C90241EA5051B1FBF3F603FB27
:10CDB0001611A2FB0675D7EBC020A94102D2761E40
:10CDC00080185941C90241EA5051B1FBF3FE03FBFF
:10CDD0001E11A2FB0E75D7EBC020A94103D2AEF104
:10CDE000010E80185941890241EA9051760546EAC0
:10CDF0008E2EB1FBF3F603FB1611A2FB0675D7EBE3
:10CE00008020A94102D2761E80185941C90241EA08
:10CE100050514EEA060EB1FBF3F603FB1611A2FBCE
:10CE20000675D7EBC020A94102D2761E8018594161
:10CE3000C90241EA5051B1FBF3F703FB1711A2FB02
:10CE40000735D3EBC020A94167F100070CBF0042B2
:10CE500047F0010766F3D5274FEA1E31B80814F5ED
:10CE6000806412DDBD0775F1004250EB0E5051EBAE
:10CE7000045111F5801F5CBF41EA0C01F0BD4CF07C
:10CE80007F6141F0E0410020F0BDBD076D0840EA40
:10CE90000E5041F48011D4F10104B4F120060ADAF5
:10CEA000C4F120060200E04001FA06F3E140184315
:10CEB000B24015430EE0342C13DCC6F1200445EAE1
:10CEC00040056D0820FA06F2154321FA06F0A1404C
:10CED0000D43002175F1004250F1000051EB0C01AF
:10CEE000F0BD00205FEA0C01F0BDCFB992185B41A4
:10CEF000B3FA83F704BFB2FA82F6BF190B3FB7F15A
:10CF000020062FBF02FA06F3BB40C7F1200622FA23
:10CF100006F638BF3343BA401CB1E419641E33E748
:10CF20007F4231F00041B1FA81F404BFB0FA80F6DB
:10CF3000A4190B3CB4F120062FBF00FA06F1A14062
:10CF4000C4F1200620FA06F638BF3143A0403C1B4E
:10CF50001AE7AC421ABF05EA1357AF4212E050EA93
:10CF600041061CBF52EA4306BFE750EA410730467C
:10CF700061461CBF41EA0551F0BD52EA430C08BFAF
:10CF8000C143F0BD00204FF4001616EB410F98BFCF
:10CF900016EB430F08BF16EB410F24BFC14305E05A
:10CFA00016EB430F0CBF61464CEA0551F0BD010082
:10CFB00000207047400D491840EA81200CD2490DED
:10CFC000A1F58061491C40F0004005DBD1F11F0153
:10CFD00054BFC840C017704700207047014648B191
:10CFE000B0FA80F18840C91CC1F58461090501EBE4
:10CFF000D02140057047010000207047B0B581EA9C
:10D00000030C0CF0004C40F2FF7515EA11541DBFE3
:10D0100015EA1357AC42AF4239E0E41923EA45530D
:10D0200043F48013C90241F0004141EA505EC70257
:10D030001100A7FB020200284FF00000EEFB0120C8
:10D040004FF00001E3FB072118BF42F00102401836
:10D0500000214941E3FB0E01A4F580640F0302D2D5
:10D0600052004041494154F101046CDD470872F11E
:10D07000004250F1000051EB0451A1F580115CBF5A
:10D0800041EA0C01B0BD4CEA05510020B0BD05EAF3
:10D090001357AC4214BFAF4241E050EA410E1CBFEF
:10D0A00052EA430E02E061460020B0BD24423C44F7
:10D0B0001BD15FEA070EF6D0090302BF014600202C
:10D0C000AEF1140EB1FA81F7AEEB070401FA07FED8
:10D0D0000C37C7F1200100FA07F7C8404EEA000EEE
:10D0E00023EA455343F48013A2E733F00043B3FA35
:10D0F00083F704BFB2FA82FE77440B3FE41BB7F11B
:10D10000200E2FBF02FA0EF3BB40C7F1200E22FA09
:10D110000EFE38BF43EA0E03BA40641C82E750EAB1
:10D12000410E14BF52EA430E6FF000014FF4001796
:10D1300017EB430F8ABF194617EB410FB5E74CEACF
:10D1400005510020B0BDD4F10104B4F120070FDA7D
:10D15000C4F12007520828BF42F0010210FA07F577
:10D1600001FA07F7E1BF2A43E0403843E1400FE00E
:10D17000352C98DCC7F1200452EA400220FA07F26D
:10D1800018BF42F0010231FA07F0A1400A43002122
:10D1900072F1004250F1000051EB0C01B0BD0100F2
:10D1A00000207047BBBBE1B1B2F5803F80F07E80CC
:10D1B000022A1ED98C46B1FBF2F102FB11C31B04FB
:10D1C00043EA1043B3FBF2FC02FB1C3380B240EA9B
:10D1D0000343B3FBF2F002FB103240EA0C400023A1
:10D1E0007047022A05D98446B0FBF2F002FB10C258
:10D1F00070474AB105D100F0010249085FEA3000EA
:10D20000704700220023704700F0B0B90B00020005
:10D21000002100207047904271EB030CF6D3B3F568
:10D22000803F2FD2F0B5B3FA83F7B1FA81F4A7F1BA
:10D230000F0E3D1B5340CEF1200602FA0EF2F341D1
:10D240005340B5F10F0746D80F3C2C444140C4F180
:10D250002006A040F1414140B1FBF3F603FB16115B
:10D26000A2FB0645001BA94102D2761E8018594137
:10D2700080EA010221FA0EF362FA0EF200215A400E
:10D280003046F0BD30B4B1FBF3FC03FB1C11A2FB34
:10D290000C45001BA94103D2ACF1010C8018594187
:10D2A00030BC02460B46604600217047B2F1807FD9
:10D2B00065D3F0B5B2FA82F7B1FA81F4C7F10F067F
:10D2C0003D1B22FA06F307F1110EF24120355A40B8
:10D2D000B5F10F07B8D94140C4F12006A040F14193
:10D2E0004140B1FBF3FC03FB1C11A2FB0C45001BEE
:10D2F000A94103D2BCF1010C801859410F2F12D360
:10D300000F3FC90341EA5041B1FBF3F603FB16118D
:10D31000A2FB0645D4EBC030A94102D2761E80188C
:10D32000594146EACC3C07B34140C7F12006B8401A
:10D33000F1414140B1FBF3F603FB1611A2FB064598
:10D34000001BA94102D2761E8018594180EA0102D1
:10D3500021FA0EF3C7F1200462FA0EF20CFA07F07C
:10D360005A402CFA04F13043F0BD80EA010221FA60
:10D370000EF3002162FA0EF260465A40F0BD8C4670
:10D38000B1FBF2F102FB11C31B0243EA1063B3FBD2
:10D39000F2FC02FB1C331B024CEA002043EA106340
:10D3A000B3FBF2FC02FB1C331B024CEA002043EAF5
:10D3B0001063B3FBF2FC02FB1C331B024CEA00209F
:10D3C00043EA1063B3FBF2FC02FB1C324CEA002080
:10D3D000002370470FB581B00020C04605492222C6
:10D3E000425001B00FBD80B50020C046024908443C
:10D3F00002BD00006430002064300020841A71EB0C
:10D40000030604D26E40001BB141121973414FF460
:10D41000001C1CEB410F34BF7CEB430683E00C0D7A
:10D42000A4EB1356362E00F37C80012E45EAC3236D
:10D4300041DC43EA525312BFD20292025B08240538
:10D4400045EAC12141EA5051D2EBC020994125D48F
:10D4500007D1B0FA80F610FA06F162D0002020362B
:10D4600008E0B1FA81F6B140C6F1200220FA02F2DA
:10D470001143B0404FEAF474B4EB465434F0010663
:10D480004FEA74040AD8D6F50016760D04F000446D
:10D49000F04061FA06F25040F1404840C00A40EACC
:10D4A000415021F0004128BF5FEA500550F10000D3
:10D4B00044EBD12135E0DB0A45EAC121C90AB6F1C6
:10D4C00020050EDD42EA0242120CC5F1200603FAE5
:10D4D00006F6EB4042EA06056D42984161F1000113
:10D4E0000DE062FA06F5F240554063FA06FC82EA66
:10D4F0000C02F3405A406D42904161EB030111F47C
:10D50000801F05D1641E620502D06D004041494173
:10D5100021F48011430875F1004350F1000041EB04
:10D52000045170BC70471CEB410F15D223F000432F
:10D5300052EA43060BD04FEA4C0CBCEB410F04D827
:10D540000C0D661E342EB7DDEBE7801A994150EAC8
:10D55000410608BF0021E4E708BF1CEB430F28BFCA
:10D560006FF00001DDE70100002070477047010007
:10D57000002070470000000034E9040801000000AA
:10D580000100000044E9040803000000020000005C
:10D5900054E90408030000000300000064E90408E3
:10D5A000030000000400000074E904080300000008
:10D5B0000500000084E904080300000006000000E4
:10D5C00094E904080300000007000000A4E904082F
:10D5D0000300000008000000B4E904080300000094
:10D5E00009000000C4E90408010000000A0000006E
:10D5F000D4E90408050000000B000000E4E9040879
:10D60000030000000C00000070A504080C000000DE
:10D610000D000000F4E90408050000000E00000001
:10D6200004EA0408030000000F00000014EA0408E4
:10D63000030000001000000024EA040803000000BA
:10D640001100000034EA040803000000120000008A
:10D6500044EA0408030000001300000054EA040830
:10D66000030000001400000064EA04080300000046
:10D670001500000074EA0408030000001600000012
:10D6800084EA0408030000001700000094EA04087C
:10D690000300000018000000A4EA040803000000D2
:10D6A00019000000B4EA0408030000001A0000009A
:10D6B000C4EA0408030000001B000000D4EA0408C8
:10D6C000030000001C000000E4EA0408030000005E
:10D6D0001D000000F4EA0408030000001E00000022
:10D6E00004EB0408030000001F00000014EB040812
:10D6F000030000002000000024EB040804000000E8
:10D700002100000034EB04080400000022000000A7
:10D7100044EB0408060000002300000054EB04085A
:10D72000080000002400000064EB0408080000006A
:10D730002500000090A504080D0000002600000050
:10D74000B0A504080A0000002700000074EB0408DC
:10D75000040000002800000084EB0408050000001D
:10D760002900000094EB0408050000002A000000D6
:10D77000A4EB0408060000002B000000B4EB040832
:10D78000080000002C000000C4EB040804000000A6
:10D790002D000000D4EB0408050000002E0000005E
:10D7A000E4EB0408040000002F000000F4EB040880
:10D7B000050000003000000004EC04080800000030
:10D7C0003100000014EC04080800000032000000E2
:10D7D00024EC0408080000003300000034EC0408C6
:10D7E000080000003400000044EC040808000000B9
:10D7F0003500000054EC040808000000360000006A
:10D8000064EC0408080000003700000074EC040811
:10D81000080000003800000084EC04080800000044
:10D820003900000094EC0408080000003A000000F1
:10D83000A4EC0408040000003B000000B4EC040861
:10D84000040000003C000000C4EC040808000000D4
:10D850003D000000D4EC0408080000003E00000079
:10D86000E4EC0408080000003F000000F4EC0408A9
:10D870000800000040000000D0A504080F000000D0
:10D8800041000000F0A504080A000000420000006A
:10D8900010A604080A0000004300000030A6040897
:10D8A0000A0000004400000050A604080B0000001D
:10D8B0004500000070A604080A00000046000000B1
:10D8C00090A604080900000047000000B0A6040864
:10D8D0000B00000048000000D0A604080B00000068
:10D8E0004900000004ED0408040000004A000000A4
:10D8F00014ED0408080000004B000000F0A6040826
:10D90000090000004C00000024ED0408080000009D
:10D910004D00000010A704080C0000004E0000009D
:10D9200030A704080B0000004F00000050A70408B7
:10D930000B0000005000000070A704080A0000005F
:10D940005100000090A704080B00000052000000E6
:10D95000B0A704080B00000053000000D0A7040883
:10D960000A00000054000000F0A704080A000000AC
:10D970005500000010A804080B000000560000002D
:10D9800030A804080A0000005700000050A804084E
:10D990000E0000005800000070A8040809000000F4
:10D9A0005900000090A804080A0000005A00000076
:10D9B000B0A80408090000005B00000034ED040872
:10D9C000050000005C00000044ED040805000000B4
:10D9D0005D00000054ED0408050000005E0000003A
:10D9E00064ED0408080000005F00000074ED040806
:10D9F000080000006000000084ED0408050000003D
:10DA000061000000D0A804080900000062000000C6
:10DA1000F0A80408090000006300000094ED040869
:10DA2000080000006400000010A9040809000000BC
:10DA30006500000030A9040809000000660000002D
:10DA4000A4ED0408040000006700000050A90408C9
:10DA50000900000068000000B4ED040808000000A0
:10DA600069000000C4ED0408040000006A00000022
:10DA7000D4ED0408040000006B000000E4ED04088D
:10DA8000080000006C000000F4ED04080400000031
:10DA90006D00000070A904080C0000006E0000007A
:10DAA00004EE0408080000006F00000090A90408BC
:10DAB0000900000070000000B0A90408090000007F
:10DAC00071000000D0A904080900000072000000E5
:10DAD00014EE0408050000007300000024EE0408A2
