:020000040800F2
:100000007847002081390008893800088B380008BB
:100010008D3800088F380008913800080000000073
:1000200000000000000000000000000093380008FD
:10003000953800080000000097380008993800083B
:10004000C1390008C5390008C9390008CD39000890
:10005000D1390008D5390008D9390008DD39000840
:10006000E1390008E5390008E9390008ED390008F0
:10007000F1390008F5390008F9390008FD390008A0
:10008000013A0008053A0008093A00080D3A00084C
:10009000113A0008153A0008193A00081D3A0008FC
:1000A000213A0008253A0008293A00082D3A0008AC
:1000B000313A0008353A0008393A00083D3A00085C
:1000C000413A0008453A0008493A00084D3A00080C
:1000D000513A00088F300008593A00085D3A00088C
:1000E000613A0008653A0008693A00086D3A00086C
:1000F000713A0008753A0008793A00087D3A00081C
:10010000813A0008853A0008893A00088D3A0008CB
:10011000913A0008953A0008693800089D3A0008AD
:10012000A13A0008A53A0008A93A0008AD3A00082B
:10013000B13A0008B53A0008B93A0008BD3A0008DB
:10014000C13A0008C53A0008C93A0008CD3A00088B
:10015000D13A0008D53A0008D93A0008DD3A00083B
:10016000E13A0008E53A0008E93A0008ED3A0008EB
:10017000F13A0008F53A0008F93A0008FD3A00089B
:10018000013B0008053B000800F5E0700268914261
:1001900003D343681A44914202D380680028F5D102
:1001A00070471849086880B94FF4805048604FF490
:1001B00080324FF0FF30C86008610420124B8A6023
:1001C0004861C3F8BC01114808600120704701F183
:1001D000080313F0070F0EBF0023C3F1080303F059
:1001E00007031944D21A8161C26042F001034B60D7
:1001F000091D4FF0280C41F802C0024A1369C3617F
:100200007047000048430020484000206859883C5F
:100210002DE9F84F84B00646AFF30080F52E1E4D51
:1002200080F013820B2E31BF10260B36F608F60035
:100230002868F408E04010F0030F4AD0C04300F0F3
:100240000100041905F1280000EBC408E700D8F804
:1002500008607068C008C000B84218BF01F0F6F925
:10026000D6F80890464508BF01F0F0F94E4508BFA2
:1002700001F0ECF97068C008C000B84218BF01F086
:10028000E5F9C8450AD12868012101FA04F420EAF9
:1002900004042C6010E000BF48400020286981451C
:1002A00008D3D9F80C10B14204D1C8F80890C9F8A5
:1002B0000C8001E001F0CAF947F00300311D7060C5
:1002C000301DCA5942F00102C25106F1080800F07F
:1002D0001DBFA968B14280F0A883002800F0A28069
:1002E0004FF0010808FA04F1490000FA04F448420A
:1002F00001430C4060420440641E200B00F01000DB
:10030000C440610901F00801CC40A20802F00402D7
:10031000D440630803F002030818DC401018C4F34B
:10032000400718183818FC40241805F1280000EB85
:10033000C40AE700DAF80890D9F80400C008C00041
:10034000B84218BF01F082F9D9F808B0D14508BF0A
:1003500001F07CF9D94508BF01F078F9D9F804001B
:10036000C008C000B84218BF01F070F9DA4506D1E4
:10037000286808FA04F420EA04042C600DE02969D6
:100380008B4508D3DBF80C00484504D1CAF808B007
:10039000CBF80CA001E001F059F9BF1B46F00300B7
:1003A00009F10402C9F8040047F00101915109EB79
:1003B00006020192D751AC684FEAD40ABAF11F0F76
:1003C00088BF01F043F934B3CDF800A005F128004F
:1003D0006E6900EBCA0AD346102C38BF01F036F91B
:1003E0002968009821FA00F2D30704D408FA00F033
:1003F0000843286007E0DAF80800296988422CBF22
:10040000834601F023F9CAF80860CBF80C60C6F8FF
:1004100008B0C6F80CA0AF6009F10808019868613F
:1004200000F074BE6868002800F020834142084054
:10043000401E010B01F01001C840420902F0080201
:10044000D040830803F00403D840440804F00204B9
:100450005118E0405918C0F34007611805F5987825
:100460007918F840401858F820104868C008C000B3
:100470008A46A0EB060B08E001464868C008C000A9
:10048000801B58453CBF83468A4608690028F3D143
:1004900049690029F1D128698245C0F0D380DAF892
:1004A0000410C90806EB0B09C900494518BF01F043
:1004B000CDF80AEB06008245019080F0C380DAF89F
:1004C0000C40DAF8187054450DD0DAF808002969A4
:1004D000884223D3C268524504BFA16851451DD14B
:1004E000C460A0601CE00AF114010C6834B90AF180
:1004F00010010C68A4B101E011460C6804F114026B
:100500001068002802BF04F1100210680028F3D11F
:100510002869814202D300220A6001E001F096F8C6
:10052000002F38D0DAF81C0008EB80010A689245E9
:100530000AD11CBB6A68012303FA00F022EA00001A
:1005400068600020086026E029698F4213D338696B
:10055000504514BF7C613C61ECB129698C4218D3D1
:10056000A761DAF8100058B1884226BF2061846183
:1005700001F06CF804E001F069F8EDE70C60ECE7DD
:10058000DAF8140038B12969884202D360618461C5
:1005900001E001F05BF8BBF1100F0ED249F003004F
:1005A0000AF10401CAF804000AF1040051F8092014
:1005B00042F0010240F809203EE046F003010AF152
:1005C0000402CAF804104BF001009051019941F85F
:1005D0000BB0A8680090C4081F2C88BF01F036F843
:1005E000009828B305F1280000996F6900EBC40852
:1005F000C146102938BF01F029F8286820FA04F113
:10060000CA0705D4012101FA04F404432C6007E071
:10061000D8F80800296988422CBF814601F016F8F5
:10062000C8F80870C9F80C70C7F80890C7F80C80B3
:10063000C5F808B0019868611AF1080800F0F58162
:1006400000F064BD01F002F8EFE116F1400F28BFA1
:100650004FF0FF3680F0E9810B36F6086B68F60044
:10066000002B00F0E2810027300AC6F1000908BF24
:10067000002423D0B0F5803F28BF1F241ED2A0F550
:100680008071090C01F008018840A0F58052120C1D
:1006900002F004029040A0F58044240CC1F10E0148
:1006A00004F00204891A091BA04001EBD031C81DD7
:1006B00026FA00F404F0010404EB410405F59878EF
:1006C00058F8240030B31F2C0FBFB4464FEA540C27
:1006D000CCF1190C06FA0CFCBE46494601E04FEA83
:1006E0004C0C4268D208D200921B8A4202D21100FE
:1006F00007460CD0426910304FEADC7950F82900E7
:10070000002A1CBF824296460028E8D170468946DE
:10071000A8BBB7BB012101FA04F4640060420443A2
:10072000234000F08281584203405B1E180B00F00A
:100730001000C340590901F00801CB409A0802F0AB
:100740000402D3405C0804F002040818E3401018C7
:10075000C3F3400C2018604423FA0CF31B1858F81C
:1007600023000CE008464168C908C900891B4945B7
:100770003CBF8946074601690029F3D1406900283A
:10078000F1D1002F00F05181A868801B814580F0D5
:100790004C8129698F42FFF455AF7868C008C000CA
:1007A00006EB0901884218BF00F050FF07EB060B6B
:1007B0005F45BFF447AFFC68D7F818A0BC420CD027
:1007C000B8682969884223D3C268BA4204BFA168C5
:1007D000B9421DD1C460A0601CE007F114010C688F
:1007E00034B907F110010C68A4B101E011460C689E
:1007F00004F114021068002802BF04F1100210680E
:100800000028F3D12869814202D300220A6001E066
:1008100000F01CFFBAF1000F39D0F86908EB800135
:100820000A6897420AD134BB6A68012303FA00F0D0
:1008300022EA000068600020086028E029698A45F3
:1008400016D3DAF81000B84214BFCAF81440CAF838
:100850001040E4B129698C4217D3C4F818A0386954
:1008600058B1884226BF2061846100F0EFFE04E0A9
:1008700000F0ECFEEDE70C60ECE7786938B129692F
:10088000884202D36061846101E000F0DFFEB9F1CB
:10089000100F0CD2B14449F00300391D7860381DA7
:1008A00051F8092042F0010240F80920B9E046F071
:1008B00003013A1D796049F0010090514FEAD900D7
:1008C0004BF809901F2822D805F1280101EBC0043C
:1008D000296821FA00F2D307A04605D4012202FAC2
:1008E00000F00843286006E0A068296988422CBF10
:1008F000804600F0ABFEC4F808B007F10800C8F865
:100900000CB040F8068007F10C018C5189E05FEAD9
:10091000192008BF002123D0B0F5803F28BF1F2138
:100920001ED2A0F58072120C02F008029040A0F5D1
:100930008051090C01F004018840A0F580431B0C94
:10094000C2F10E0203F00203521AD21A984002EBCF
:10095000D032D01D29FA00F101F0010101EB420172
:1009600007F11403CBF81C1000229A5107F1100371
:1009700008EB81009A516A6822FA01F3DC0711D46E
:10098000012303FA01F111436960C0F800B0CBF80C
:10099000180007F1080107F10C0040F806B041F813
:1009A00006B03EE002681F291DBF4908C1F11901C8
:1009B00009FA01F1494600E002465068C008C0004B
:1009C000484518D002F11003C80F03EB800349001B
:1009D00018680028F0D12869834220D3C3F800B0FA
:1009E00007F10C01CBF8182041F806B007F1080018
:1009F00040F806B015E0296990688A4228BF88420D
:100A00000DD3C0F80CB007F10801C2F808B0885146
:100A100007F10C0082510022CBF8182001E000F011
:100A200015FE17F1080840F07183A868B0421DD385
:100A3000811B6A69102909D39319A96041F001004B
:100A40005860595046F0030656600BE00021A9603B
:100A500040F00304111D5460141D0E5846F00106A9
:100A6000265000236B6102F108084FE3E8688642D4
:100A7000C0F03C83DFF8CC9BD9F8000008B9FFF741
:100A800090FBD9F8081088192F30491E20EA01017F
:100A90008E4280F0398305F5D877B86838B13A6866
:100AA00089188A4280F030838842C0F02D8300F09C
:100AB000EDFD00281CBFD0F8008010F1010F00F000
:100AC000238339687A68414439608A4238BF796043
:100AD000AC6904BB296909B1884200D228610021B0
:100AE0003861C7F81480F9614FF0FF31D9F8002060
:100AF0006A62296205F1280200219260D26002F147
:100B0000080353611361891C10321F29F5D9A8F11C
:100B1000280201461DE005F5E0710A46814600E025
:100B20009268D2B11068536803449945F8D1107B9C
:100B3000030712D413689C420FD3D2F804C0634455
:100B40009C420AD2C444C2F804C02146E86808EBBB
:100B500000022846FFF73BFBC5E22869814538BF04
:100B6000C5F8109009EB080000E08968002900F042
:100B7000C1810A688242F8D1087B020700F1BA817C
:100B80000868C1F800904A6842444A6009F10801C7
:100B900011F0070F08BFCDF8049006D0C1F108018D
:100BA00001F0070109EB0102019200F1080111F0C7
:100BB000070F04D0C1F1080101F007010844804685
:100BC0000198A8EB00018419A1EB060B274646F01B
:100BD00003064660474528BF00F038FD98F804003A
:100BE000C10758BF00F032FDBBF1100F38BF00F055
:100BF0002DFDA869804508D1E9688B44C5F80CB083
:100C0000AF614BF00100786070E1686980450AD1FE
:100C1000A9686F618B44C5F808B04BF0010078609B
:100C200047F80BB062E1D8F8040000F00301012995
:100C300040F0BC80C008C000C1081F29039040D804
:100C4000D8F808200092D8F80C600291B04508BF8F
:100C500000F0FCFC0098804508BF00F0F7FCD8F8D5
:100C600004000299C008C000B0EBC10F18BF00F02B
:100C7000EDFC0299009A05F1280000EBC1008242C8
:100C800008D011462A699142C0F08B80CA6842455B
:100C900040F0878000998E4206D102982A6801238D
:100CA00083409A432A607EE0864205D029698E42BD
:100CB00077D3B068404574D10098C6600099B160A0
:100CC00071E0D8F818000090D8F80C6046450DD0B7
:100CD000D8F808002969884223D3C268424504BF76
:100CE000B16841451DD1C660B0601CE008F1140137
:100CF0000E6836B908F110010E68A6B101E0114680
:100D00000E6806F114021068002802BF06F11002F6
:100D100010680028F3D12869814202D300220A60BA
:100D200001E000F093FC009800283CD0D8F81C00AB
:100D300005F5987101EB80010A6890450AD12EBB38
:100D40006A68012303FA00F022EA000068600020CC
:100D5000086028E000992869814214D30869404559
:100D600014BF4E610E61F6B129698E4219D3009805
:100D7000B061D8F8100058B1884226BF3061866152
:100D800000F064FC04E000F061FCECE70E60EBE7CF
:100D9000D8F8140038B12969884202D3706186619D
:100DA00001E000F053FC039988448B44D8F8041008
:100DB00049084900C8F804104BF0010078604FEA78
:100DC000DB0647F80BB01F2E22D805F1280000EBF8
:100DD000C604A146BBF1100F38BF00F037FC2868ED
:100DE00020FA06F1CA0705D4012101FA06F60643E6
:100DF0002E6006E0A068296988422CBF814600F079
:100E000025FCA760C9F80C70C7F80890FC606DE07D
:100E10005FEA1B2008BF002123D0B0F5803F28BF28
:100E20001F211ED2A0F58072120C02F00802904021
:100E3000A0F58051090C01F004018840A0F5804321
:100E40001B0CC2F10E0203F00203521AD21A984090
:100E500002EBD032D01D2BFA00F101F0010101EBC1
:100E60004201F961002305F598727B6102EB810074
:100E70003B616A6822FA01F3DE0707D4012303FA13
:100E800001F1114369600760B8611DE002681F2924
:100E90001DBF4908C1F119010BFA01F1594600E0E3
:100EA00002465068C008C000584510D002F1100337
:100EB000C80F03EB8003490018680028F0D12869A7
:100EC000834211D31F60BA61FF60BC600EE02969E4
:100ED00090688A4228BF884206D3C7609760B8608E
:100EE000FA600020B86101E000F0B0FB019800F169
:100EF00008080BE121462846FFF746F901684068DB
:100F000008440090A0F1270111F0070000980EBFDF
:100F10000021C1F1080101F007010844A0F12F0BE5
:100F200004F110018B4538BFA3460BF118020021D4
:100F300002920191A8F1280249462846FFF747F995
:100F40000BF1080010F0070F18BF00F07FFB1B200B
:100F5000CBF8040005F5E07292E809500BF10801A6
:100F600081E8095000210BF10800F961B861009A8D
:100F700002980199C7F81090C7F81480072300E081
:100F8000001D491C00F1080797424360F8D301296E
:100F9000D8BF00F05BFBA34500F0A580ABEB040BD2
:100FA000201D221D50F80B104908490042F80B1073
:100FB0004BF0010060604FEADB0944F80BB0B9F177
:100FC0001F0F22D805F1280000EBC907B846BBF176
:100FD000100F38BF00F03AFB286820FA09F1CA0761
:100FE00005D4012101FA09F10843286006E0B86838
:100FF000296988422CBF804600F028FBBC60C8F8F5
:101000000C40C4F80880E7606DE05FEA1B2008BF71
:10101000002123D0B0F5803F28BF1F211ED2A0F5AC
:101020008072120C02F008029040A0F58051090C69
:1010300001F004018840A0F580431B0CC2F10E02B0
:1010400003F00203521AD21A984002EBD032D01D9C
:101050002BFA00F101F0010101EB420105F5987254
:10106000002302EB8100E161636123616A6822FA77
:1010700001F3DF0707D4012303FA01F1114369608B
:101080000460A0611DE002681F291DBF4908C1F16D
:1010900019010BFA01F1594600E002465068C008F8
:1010A000C000584510D002F11003C80F03EB8003B5
:1010B000490018680028F0D12869834211D31C60C8
:1010C000A261E460A4600EE0296990688A4228BFAA
:1010D000884206D3C4609460A060E2600020A061F2
:1010E00001E000F0B3FAE86886420DD2801BA969DE
:1010F000E8608A19AA6140F00100506046F00306DA
:101100004E6001F1080801E04FF00008AFF30080E5
:10111000404605B0BDE8F08F002800D170472DE9AA
:10112000F047A0F10805AFF30080DFF81C653169D6
:101130008D42C0F08482686800F00302012A00F04A
:101140007E82C2084FEAC209C20705EB090839D4FA
:101150002C6810F0030F00F06E82604205448D424F
:10116000A144C0F06C827069854200F0DE80E40822
:10117000202C72D2D5F80CA0AF68554508BF00F0FE
:1011800065FABD4208BF00F061FA6868C008C00097
:10119000B0EBC40F18BF00F059FA06F1280000EBBD
:1011A000C400874205D031698F4253D3FA68AA42FE
:1011B00050D1BA4540D13068012101FA04F420EA47
:1011C00004043460454580F03A82D8F80440E007D2
:1011D00040F13582A10700F18381B069804540F07C
:1011E000B780F168B5618944C6F80C9049F00100F8
:1011F000686071698D4202D100207061B060F16950
:10120000494580F01882DFF83C24106808B9FEF7E1
:10121000C8FFB169002900F00E82F068292824BFB8
:101220003046FEF7B1FFF069F168884280F0038232
:101230004FF0FF30F061FEE1824506D03069824513
:1012400008D3DAF80810A94204D1C7F80CA0CAF8EC
:101250000870B7E700F0FAF9B4E7EC68AF69AC42A0
:101260000BD0A868884222D3C168A94204BFA268F3
:10127000AA421CD1C460A0601BE005F114021468EE
:1012800034B905F1100214689CB101E01A461468E3
:1012900004F114031868002802BF04F11003186851
:1012A0000028F3D18A4202D30021116001E000F04E
:1012B000CDF9002F86D0E86906F5987101EB800121
:1012C0000A6895420AD124BB7268012303FA00F030
:1012D00022EA000070600020086073E731698F42E5
:1012E00014D33869A84214BF7C613C61002C3FF4E0
:1012F00069AF31698C42ADD3A761286958B1884282
:1013000026BF2061846100F0A1F904E000F09EF99D
:10131000ECE70C60EDE7686900283FF453AF3169F2
:10132000884297D3606184614CE798F8040000F02C
:10133000030003287FF446AFC6F8089049F0010186
:10134000D8F8040040084000C8F8040069600AE0CA
:10135000706980450AD1B16875618944C6F8089002
:1013600049F00100686045F8099064E1E408E40090
:10137000A144E408202C3AD2D8F80CA0D8F8087080
:10138000D04508BF00F062F9B84508BF00F05EF92B
:10139000D8F80400C008C000B0EBC40F18BF00F0BC
:1013A00055F906F1280000EBC400874207D03169E7
:1013B0008F42C0F08880FA68424540F08480BA4588
:1013C00007D13068012101FA04F420EA04043460F2
:1013D0007BE0824506D03069824574D3DAF8081084
:1013E000414570D1C7F80CA0CAF808706DE0D8F874
:1013F0000C40D8F8187044450DD0D8F80800316971
:10140000884223D3C268424504BFA16841451DD12B
:10141000C460A0601CE008F114010C6834B908F144
:1014200010010C68A4B101E011460C6804F114022B
:101430001068002802BF04F1100210680028F3D1E0
:101440003069814202D300220A6001E000F0FEF818
:10145000002F3AD0D8F81C0006F5987101EB8001F6
:101460000A6890450AD11CBB7268012303FA00F098
:1014700022EA000070600020086026E031698F4297
:1014800013D33869404514BF7C613C61ECB13169CC
:101490008C4218D3A761D8F8100058B1884226BFF3
:1014A0002061846100F0D2F804E000F0CFF8EDE7AD
:1014B0000C60ECE7D8F8140038B13169884202D3E7
:1014C0006061846101E000F0C1F849F001006860EA
:1014D00045F8099071698D420BD1C6F80890AAE0D1
:1014E00064086400C8F8044049F00100686045F8E9
:1014F00009904FEAD907202F22D206F1280000EBED
:10150000C704A046B9F1100F38BF00F09FF830684B
:1015100020FA07F1CA0705D4012101FA07F70743AA
:10152000376006E0A068316988422CBF804600F031
:101530008DF8A560C8F80C50C5F80880EC607AE01A
:101540005FEA192008BF002123D0B0F5803F28BFF3
:101550001F211ED2A0F58072120C02F008029040EA
:10156000A0F58051090C01F004018840A0F58043EA
:101570001B0CC2F10E0203F00203521AD21A984059
:1015800002EBD032D01D29FA00F101F0010101EB8C
:10159000420106F59872002302EB8100E9616B615C
:1015A0002B61726822FA01F3DC0707D4012303FAE6
:1015B00001F1114371600560A8611DE002681F29F7
:1015C0001DBF4908C1F1190109FA01F1494600E0BE
:1015D00002465068C008C000484510D002F1100310
:1015E000C80F03EB8003490018680028F0D1306968
:1015F000834211D31D60AA61ED60AD600EE03169D8
:1016000090688A4228BF884206D3C5609560A8606A
:10161000EA600020A86101E000F018F8306A401E7E
:1016200008D13062D6F8C80100E080680028FCD1FB
:101630004FF0FF303062AFF30080BDE8F08700F07C
:1016400005F8F8E74843002048400020012000F05A
:1016500033B830B4002513E050F8042BD30744BF4F
:10166000A9F101039A18091F042942F8045BFAD270
:1016700013468C0744BF15809B1CC90748BF1D70CB
:1016800050F8041B0029E7D130BC704707490868AF
:1016900008B1002070470648C008C000086005492E
:1016A000C908C900091A0160704700BF70430020D3
:1016B0007F4700207848002080B5AFF30080024AC1
:1016C00011001820ABBEFBE726000200BFF34F8FCE
:1016D000BA490A6812F4E062B94802430A60BFF3EB
:1016E0004F8F00BFFDE780B50179C9B2002906D050
:1016F00002290AD006D304290DD009D30EE000F048
:101700003BF80CE000F097F809E000F045F906E03E
:1017100000F006F803E000F0C4F800E0002002BD8D
:101720003EB50400207A8DF80400E0798DF80500BC
:10173000A0798DF8060060798DF80700A07A8DF801
:101740000000607A8DF80100BDF80020E11D0198CD
:1017500000F05CF99DF8010060719DF80000A07137
:10176000BDF800506D1DAD1C290089B2A01C00F011
:1017700077F9280080B23EBD70B504000020914E7C
:10178000300000F07FF905003100601D00F096F98F
:10179000ED1CAD1C290089B2A01C00F061F92800E5
:1017A00080B270BD3EB5040008784D1C6A46C0B2D8
:1017B0000100200000F08EF9200000F0ADF901904A
:1017C000200000F0B9F9029008E001A800F0C4F987
:1017D000296801602D1D01A800F0C2F902A901A825
:1017E00000F0C5F90028F0D137BD3EB5040000F087
:1017F00010FA200000F032FA0090200000F03EFACB
:10180000019002E0684600F049FA01A9684600F03C
:10181000AEF900280AD068460068C046006800F0AB
:10182000F1F905002800C0B20828EBD000F0F9F962
:101830002800C0B23EBD38B586B00400611D03A8C3
:10184000FFF7B0FF03A9684600F02CFAFFF7CDFFC1
:101850000500684600F058FAA5710425AD1C290062
:1018600089B2A01C00F0FCF803A800F04DFA280093
:1018700080B207B030BD70B504000D00160000F056
:10188000C8F906E03000461C0178200000F099FA03
:10189000641C2800451E80B20028F3D100F0C1F975
:1018A00070BD3EB50400A0798DF8000060798DF818
:1018B0000100A07A8DF80400607A8DF80500207A86
:1018C0008DF80600E0798DF8070014F10B02BDF8E1
:1018D00000100198FFF7CFFF0325AD1C290089B246
:1018E000A01C00F0BDF8280080B23EBD10B53648FF
:1018F000046836485FF0FF3101600022026034481E
:101900000160002101600020324908600020324956
:10191000086000203149086000203149086000203B
:101920003049086000F0A8FA72B62F482F490860C5
:101930002D48006880F30888A04710BD80B52C486A
:101940000178A5290FD141785A290CD18178A52990
:1019500009D1C1785A2906D1062100F061F8002882
:1019600001D1012000E0002002BD10B5214C08216A
:10197000200000F055F800280BD121681E4800F027
:101980004FF8A18880B2884201D1012002E00020F6
:1019900000E00020C0B210BD80B5154800210170E4
:1019A00000214170002181700021C170002101716E
:1019B00000214171FFF78AFE02BD00000CED00E03E
:1019C0000400FA0594310008048000082038024021
:1019D0002438024040380240443802403038024047
:1019E00034380240383802400080000808ED00E03A
:1019F0000000002000820008088200080200002089
:101A00000100481C515C0029FAD1704703E00378BB
:101A10000B70401C491C13005A1E002BF7D1704755
:101A200010B40300FF2004000AE0E4B21A78544026
:101A300022005B1C04000848805C44400748805C2E
:101A40000A00511E002AF0D1E4B2C0B250EA0420CC
:101A500080B210BC70470000983400089835000828
:101A600038B504000D00A91E2000FFF7D9FF0100C2
:101A7000090A04EB050202F8021C04EB050101F857
:101A8000010C31BD00F10103810704D010F8011BE6
:101A9000820781B1FAD10268A2F10131914311F0BC
:101AA000803104BF50F8042FF6E709BAB1FA81F18A
:101AB00000EBD100401CC01A704700005FEA000C28
:101AC00011F8012B00F8012B12B111F8012BF9E7E5
:101AD0006046704770B504000D001100200000F052
:101AE000A7FA2900200000F0A7FA002812D0200051
:101AF00000F0E1FA0600200000F0E1FA32002900CF
:101B0000006800F0E0FA200000F0F1FA016801EB53
:101B100085010160200070BD38B50400200000F090
:101B2000EBFA0500200000F0CAFA2A0001686846B6
:101B300000F0E6FA006832BD38B50400200000F07D
:101B4000DBFA0500200000F0D2FA2A00016868469E
:101B500000F0D6FA006832BD80B50068C04602BD0C
:101B600010B50400200000F099F8200010BD80B5E9
:101B700000F0CDFA002801D1012000E00020C0B221
:101B800002BD0000B0F1006F21D02849884220D06A
:101B9000274988421FD0274988421ED026498842BB
:101BA0001DD0264988421CD0254988421BD0254992
:101BB00088421AD02449884219D02449884218D032
:101BC0002349884217D02349884216D017E00020C5
:101BD00017E0082015E0102013E0182011E0202065
:101BE0000FE028200DE030200BE0382009E04020F5
:101BF00007E0482005E0502003E0582001E05FF0B6
:101C0000FF30704780B5FFF7BDFF022100F099F863
:101C100002BD80B572B600F07FF80F4800F0EFF813
:101C200001BD80B500F086F862B601BD0040000835
:101C30000080000800C00008000001080000020841
:101C400000000408000006080000080800000A0858
:101C500000000C0800000E08F300010038B5040075
:101C6000200000F06DFA0500200000F06DFA2A0057
:101C70000168684600F06CFA006832BD38B50400AF
:101C8000200000F05DFA0500200000F06AFA2A004A
:101C90000168684600F05CFA006832BD0168091D01
:101CA000016070472DE9FC4104000D00280000F0A0
:101CB0005DFA32000100684600F05CFA69462000D7
:101CC00000F0B6F9280000F05FFA0100200000F0F3
:101CD000B3F9002815D0200000F009FA0600200012
:101CE00000F0EDF907002800FFF7C8FF8046280044
:101CF000FFF7B4FF3B6842460100200000F053FAB2
:101D000030602000BDE8F68110B50400200000F02E
:101D100057FA200010BD0000DFF8200100680028FD
:101D200007D5DFF81C01DFF81C110160DFF818117E
:101D300001607047DFF80401016851F00041016063
:101D4000704770B50400002008200800C0B20028C9
:101D500001D100260EE00800C0B2012802D14FF4E4
:101D6000807607E0C9B2022902D14FF4007601E083
:101D70004FF4407600F06CF80100C9B208291ED17A
:101D80002E4D286830F440702860286806432E6085
:101D9000286830F0F8002860286854F002040443F2
:101DA0002C60286850F48030286000F051F82968D1
:101DB00031F002012960296831F0F8012960C0B2D0
:101DC00070BD70B504000D00082000F041F801005E
:101DD000C9B2082911D1194E306830F44070306012
:101DE00030683060306850F001003060257000F0DD
:101DF0002FF83168490849003160C0B270BD1349FD
:101E000008607047082011480168C90301D5012006
:101E100010E00168C90601D505200BE0016811F04A
:101E2000EF0F01D0062005E00068800701D50720EC
:101E300000E00820C0B2704700000000103C0240E3
:101E4000043C024023016745AB89EFCD0C3C0240C6
:101E500080B508208DF80000FFF7D4FF8DF8000052
:101E600003E0FFF7CFFF8DF800009DF80000012888
:101E7000F7D09DF8000002BDDFF87C11086850F033
:101E8000010008600020DFF8742110600A68DFF8A4
:101E9000700102400A60DFF86C01DFF86C2110600D
:101EA000086830F4802008600020DFF860110860C6
:101EB000704710B4002100210021022100210221DD
:101EC000DFF83821116811F00C01002904D0042931
:101ED00006D0082908D02BE0DFF83411016029E092
:101EE000DFF83011016025E0DFF81C412168C1F303
:101EF0008051236813F03F03002908D0DFF8141144
:101F0000B1FBF3F32168C1F388114B4307E0DFF81D
:101F10000011B1FBF3F32168C1F388114B43216831
:101F2000C1F30141491C4900B3FBF1F1016001E03B
:101F300037490160116811F0F0010909364B595C0D
:101F40000468CC404460116811F4E051890A595C7E
:101F50004468CC408460116811F46041490B595CBD
:101F60004268CA40C26010BC7047C9B2002904D0A0
:101F70002A490A681043086004E028490A6832EADE
:101F8000000008607047C9B2002904D024490A68DB
:101F90001043086004E022490A6832EA0000086041
:101FA0007047C9B2002904D01E490A68104308606E
:101FB00004E01C490A6832EA000008607047C9B2B0
:101FC000002904D018490A681043086004E0164943
:101FD0000A6832EA000008607047C9B2002904D0DC
:101FE00012490A681043086004E010490A6832EA9E
:101FF00000000860704700000038024008380240C6
:10200000FFFFF6FE10300024043802400C38024076
:102010000024F40000127A0024000020303802402E
:102020004038024044380240203802402438024000
:1020300080B500F003F902BD70B505000C00280062
:1020400000F03DF800210160280000F050F8002168
:102050000160280000F0FEF800210160002C01D191
:10206000002027E0280000F0FAF8A04202D2FFF793
:10207000EDFA1EE0280000F022F80600280000F02B
:102080001AF8210000F0F2F83060280000F02FF874
:102090000600280000F013F800683060280000F007
:1020A000D9F80600280000F00AF8006800EB840068
:1020B0003060012070BD80B5C046C04602BD80B50D
:1020C00000F01AF802BDF8B504000D00160021005A
:1020D0002000C046C046070020000020C046030084
:1020E000009732002900200000F0C4F8F1BD80B54F
:1020F00000F002F8001D02BD80B5C046C04602BD1A
:1021000010B50400200000F0BCF8200010BD70B530
:1021100004000D0020000020C0460600280000201A
:10212000C046864203D029002000C046C046206831
:102130002968884201D1012000E00020C0B270BDB2
:1021400080B5C046C04602BD80B5FFF7F9FF02BDAD
:1021500010B50400216011002000C046C0462000D8
:1021600010BD80B5FFF7ECFF001D02BD80B5C04675
:10217000C04602BD1CB504006846C046C04669465C
:102180002000C046C04613BD38B504002000FFF74C
:10219000E8FF05002000FFF7D7FF01002868096865
:1021A000401A801032BD70B50C0015001E00FFF7FC
:1021B00082FF030032002900200000F066F870BDA5
:1021C000F8B504002000FFF77AFF0068002833D03C
:1021D000200000F074F82000FFF789FF05002000C0
:1021E000FFF76DFF2A680168200000F06EF82000FC
:1021F00000F030F805002000FFF761FF0600200026
:10220000FFF75DFF07002000FFF755FF2A683168E0
:10221000521A9210396800F063F82000FFF74FFF60
:10222000002101602000FFF762FF00210160200013
:1022300000F010F800210160F1BD000010B50400AD
:102240000A0003480178200000F04EF8200010BD7D
:10225000BA1A000880B5FFF74FFF083002BD10B56D
:10226000FFF784FF210000F04DF810BD80B500F0AD
:102270004DF802BD80B5002200926A4600F04DF88C
:1022800001BD80B5FFF764FF02BDF4B504000D0089
:102290001E000098C046C0460700280000F045F820
:1022A0000500200000F041F833003A00290000F05A
:1022B00041F8010068460160C0460068F2BD80B583
:1022C000FFF71AFFC046C04601BD38B50C00150027
:1022D000FFF7F1FE02002900200000F03CF831BDBC
:1022E00080B500F047F801BD10B504001000C046ED
:1022F000C0460100200000F043F8200000F044F840
:10230000200010BD80B500F046F802BD80B5080081
:102310000122002100F043F802BD03E013680360CE
:10232000491E001D0029F9D1704701B568460068B3
:10233000C04602BDF8B504000D0016001F003100B4
:102340002000C046C04600903B003200290020001B
:1023500000F033F8F2BD70B504000D00160029003E
:102360002000C046C0460300320029002000C046BD
:10237000C04670BD80B50800110000F02BF801BD0B
:1023800080B5C046C04602BD002101600021416009
:1023900000218160704780B57FF0404002BD10B5DC
:1023A00004000020002C07D0B4F1804F01D3FFF7C8
:1023B0004DF9A00000F012F810BD38B50C00150062
:1023C000241AA410A2000100280000F019F805EB5F
:1023D000840032BD80B500F05EF801BD10B5044642
:1023E00000E080472046FDF713FF30B9034800683E
:1023F0000028F6D100F054F8F4E710BD6C4300203B
:1024000081423ABF5318984200F04CB8801899079F
:1024100007D0521E24BF13F8011D00F8011DF6D885
:10242000704781071BD1103A07D330B433E932101B
:10243000103A20E93210F9D230BC1032121F24BFFA
:1024400053F8041D40F8041DF8D838BF121D521E61
:1024500024BF13F8011D00F8011DF8D87047121FA2
:10246000F3D3C10709D153F8041D121F20F8041D2E
:102470004FEA31414180F6D2E7E753F8041D121FBD
:1024800000F8041D4FEA3121A0F801104FEA314154
:10249000C170F2D2D9E7002818BF00F056B87047D3
:1024A000FFF7D4B862B38B0708D0521E11F8013B76
:1024B00000F8013B00F024808B07F6D1830740F041
:1024C000208000BF103A07D330B4B1E83810103A7A
:1024D000A0E83810F9D230BC530724BFB1E8081087
:1024E000A0E8081044BF51F8043B40F8043BD20771
:1024F00024BF31F8022B20F8022B44BF0B78037065
:102500007047121F17D35B0009D151F8043B20F824
:10251000023B1B0C121F20F8023BF6D20BE051F8D5
:10252000043B00F8013B1B0A20F8023B1B0C121F66
:1025300000F8013BF3D238BF121D521E24BF11F820
:10254000013B00F8013BF8D87047FEF7E5BD0000FD
:1025500030B593B00400A06800F050F9A06800F016
:102560004DF9206800F05AFAE06804902068001DD8
:1025700005900020079000200890002009904FF45B
:1025800080650A9500200B9000200C9000200D9093
:1025900000200E9000200F9000201090002011903D
:1025A0000020129004A9A06800F0C8F9402007900C
:1025B00004A9606800F0C2F9A069009094F82400B2
:1025C000042805DA94F824000003ADF8060002E0C0
:1025D0000020ADF8060094F82500022802D1ADF8DD
:1025E00008500BE094F82500012804D14FF4C06096
:1025F000ADF8080002E00020ADF80800BDF80800C2
:10260000002803D10020ADF8040003E04FF480500F
:10261000ADF804000020ADF80C000C20ADF80A0065
:102620006946206800F04BFA2068808950F0040069
:10263000216888812068808950F00800216888819D
:102640002068808950F400502168888113B030BD23
:1026500070B504000D001600608C022804D1218C96
:10266000E0690183C04606E0608C012803D1218C1B
:10267000E0694183C04660680068400840006168C6
:102680000860206801884FF6BF7001402068018013
:102690002169606800F07CF9B6B2606846606068E5
:1026A000C5602068808A50F0800021688882206898
:1026B000808950F00800216888816068006850F0C7
:1026C0000100616808602068808950F0400021683E
:1026D000888170BD38B504000D00608C022804D1DB
:1026E000218CE0694183C04606E0608C012803D15B
:1026F000218CE0690183C046A06800684008400062
:10270000A16808606169A06800F042F92068808AC9
:1027100050F040002168888244F20800A1684860B7
:10272000A068C560A068006850F00100A16808605A
:102730002068808950F01000216888812068808995
:1027400050F004002168888131BD2B49026812884D
:102750000A600A78520620D50268928952061CD572
:1027600001680A884FF6BF710A4001680A80016853
:102770008A894FF6BF710A4001688A8101688A8A96
:102780004FF67F710A4001688A82416809684908EA
:1027900049004068016000202CE0096802689289C5
:1027A00012F01002114224D00168898801688A89D8
:1027B0004FF6FB710A4001688A8101688A894FF6E9
:1027C000EF710A4001688A8101688A8A4FF6BF71F9
:1027D0000A4001688A82816809684908490082685C
:1027E000116044F2080180684068091A080080B24C
:1027F00000E000207047000068430020016849089D
:1028000049000160002101600021416000218160D8
:102810000021C1600021016121214161DFF8901197
:10282000884204D13D20DFF88C11086085E0DFF894
:102830008811884205D14FF47460DFF87811086080
:102840007BE0DFF87811884205D15FF47410DFF87F
:102850006411086071E0DFF86811884205D15FF00B
:102860007460DFF85011086067E0DFF858118842A3
:1028700005D1DFF85401DFF8541108605DE0DFF89E
:102880005011884205D1DFF84C01DFF84011086093
:1028900053E0DFF84411884205D1DFF84001DFF84A
:1028A0002C11086049E0DFF83811884205D15FF04B
:1028B0003D50DFF8181108603FE0DFF8281188422A
:1028C00004D13D20DFF82011086036E0DFF81C114C
:1028D000884205D14FF47460DFF80C1108602CE0D9
:1028E000DFF80C11884204D15FF474103E4908608F
:1028F00023E04049884204D15FF074603A4908609F
:102900001BE03D49884203D12F483C49086014E050
:102910003B49884203D12F48384908600DE03949C6
:10292000884203D12D483549086006E0364988427F
:1029300003D15FF03D5031490860704710B4002268
:102940000368324A13400C68CA6814434A69144346
:102950008A691443CA6914430A6A14434A6A1443CD
:102960008A6A14434A6B14438A6B144323430360FB
:102970004369DB08DB00CC6A0A6B144323434361E1
:102980000A6942604A6882608968C16010BC704709
:10299000144A904201D21E4A00E01E4A880003D524
:1029A0001D480140D16002E01B4801409160704722
:1029B000106002400860024028600240406002400F
:1029C00058600240706002403D0000200C600240F0
:1029D00088600240400F0020A060024000003D20BF
:1029E000B86002401064024008640240286402405B
:1029F0004064024058640240706402400C6402402B
:102A000088640240A0640240B86402403F801CF029
:102A100000600240006402407D0F7D0F80B5564982
:102A2000884208D101211020FFF7D7FA0021102099
:102A3000FFF7D3FA42E0514988420AD101215FF4FD
:102A40000030FFF7BCFA00215FF40030FFF7B7FA5F
:102A500034E04B4988420AD101215FF48020FFF71E
:102A6000AEFA00215FF48020FFF7A9FA26E045497D
:102A700088420AD101215FF40020FFF7A0FA00216B
:102A80005FF40020FFF79BFA18E03F4988420AD123
:102A900001215FF48010FFF792FA00215FF48010AB
:102AA000FFF78DFA0AE03949884207D10121202039
:102AB000FFF793FA00212020FFF78FFA01BD38B508
:102AC00084B005000C000020002000200020A08918
:102AD0000028298A31F44051E08801432982A989DC
:102AE0002B480140A2882089024360890243114398
:102AF000A981A98A31F44071A0890143A98268465D
:102B0000FFF7D7F91C48854202D02048854201D101
:102B1000039900E00299A889000406D519204143D1
:102B200020684000B1FBF0F205E019204143206825
:102B30008000B1FBF0F26420B2FBF0F109010B0060
:102B40001B09642000FB1322A889000408D5D000CB
:102B500032306422B0FBF2F010F00700014307E0CE
:102B6000100132306422B0FBF2F010F00F0001438C
:102B7000298105B030BD0000001001400044004034
:102B800000480040004C004000500040001401404C
:102B9000F3E9FFFFE0B501210120FFF7E6F902208C
:102BA0008DF8050000208DF8040001208DF8070045
:102BB0004FF48050009069465A4800F005F907BD6F
:102BC0003EB501210F20FFF7D0F902208DF8050056
:102BD00000208DF8040001208DF807004FF480508C
:102BE0000090504C6946200000F0EEF8082000905C
:102BF0004D4D6946280000F0E7F804200090694632
:102C00004A4800F0E1F800208DF807004FF46040DA
:102C100000906946280000F0D7F801208DF80400E4
:102C200001208DF80600072000906946404800F01A
:102C3000CBF800208DF80600402120004183C046DB
:102C400040F2431000906946200000F0BDF80121D9
:102C500028004183C04641F60340009069462800A1
:102C600000F0B2F8102000906946200000F0ACF8A7
:102C700002208DF8040007220921200000F0F8F856
:102C800007220A21200000F0F3F807220221200089
:102C900000F0EEF807220321200000F0E9F80522F9
:102CA0000521200000F0E4F805220721200000F0B3
:102CB000DFF840F20C6000906946200000F084F8D4
:102CC000A02000906946200000F07EF837BD1FB5B7
:102CD00001211020FFF757F90920ADF8000000206E
:102CE000ADF8020042F2D00001900020ADF80800DB
:102CF00000208DF80A000F4C6946200000F0E2F831
:102D00000021200000F013F900200B490880012267
:102D10000121200000F036F90121200000F015F912
:102D20001FBD00000000024000040240000C0240F1
:102D300000080240001000401010004080B5002143
:102D40005FF0006000F060F94FF4806000F026F959
:102D500001208DF8030036208DF8000000208DF84A
:102D6000010000208DF80200684600F01CF92620C2
:102D70008DF8000001208DF8010000208DF8020080
:102D8000684600F010F925208DF8000001208DF82C
:102D9000010000208DF80200684600F004F901BD32
:102DA00080B501215FF40010FFF7DFF801215FF427
:102DB0008000FFF7DAF8FFF703FF00F039F9FFF7BB
:102DC00086FFFFF7BBFF01BDF0B400220022002206
:102DD000002349E0012414FA03F20D6815409542DE
:102DE00041D1032502681E00F6B2760015FA06F6F8
:102DF000B243026006680F791A00D2B252009740BF
:102E00003E4306600A79012A02D00A79022A1AD1C1
:102E100082681E00F6B2760015FA06F6B2438260AA
:102E200086684F791A00D2B2520097403E438660BE
:102E300042689C4032EA0404446042688C799C40B9
:102E4000A4B222434260C4681A00D2B25200954034
:102E500034EA0505C560C468CD791A00D2B25200C3
:102E600095402C43C4605B1C102BB3D3F0BC70475F
:102E700070B400230023D2B211F00703DBB29B0031
:102E80009A400B009BB2DB1000EB83040B009BB25B
:102E9000DB1000EB83031D6A0F2611F00703DBB282
:102EA0009B009E40B54325620B009BB2DB1000EBFC
:102EB00083031B6A1A4389B2C91000EB81000262C6
:102EC00070BC704710B400220488274B98420ED083
:102ED0002B4A90420BD0B0F1804F08D0234A904249
:102EE00005D0234A904202D0224A904204D14FF6A4
:102EF0008F7214404A8814431F4A904207D01F4AD9
:102F0000904204D04FF6FF4214400A8914430480D3
:102F10004A68C2620A880285984202D0184A9042E2
:102F200001D1897A01860121818210BC7047C9B222
:102F3000002904D0018851F08001018004E002885A
:102F40004FF67F710A4002807047C9B2002904D051
:102F5000018851F00101018004E002884FF6FE7102
:102F60000A40028070470000000001400004004059
:102F700000080040000C0040001000400014004019
:102F800000040140D2B2002A03D08289114381811A
:102F900003E0828932EA0101818170471D490843BB
:102FA0001D4908607047002100210F23C1780029C6
:102FB0001FD01949096811F4E061D1F5E061090AEF
:102FC000D1F10402DBB20B41417811FA02F28178AF
:102FD0000B401A43120111490378CA5401210278A7
:102FE00012F01F0291400E4A0078401142F8201062
:102FF00009E00121027812F01F029140094A00788D
:10300000401142F820107047074A11400843074911
:10301000086070470000FA050CED00E000E400E0F5
:1030200000E100E080E100E080FFFF1F08ED00E02C
:1030300038B501211020FEF7B4FF2E4C2E48206039
:103040005FF4E130A0612D4D01202870002084F84C
:103050002400002084F825002948A06029486060E9
:103060005FF00060E060284860615FF03D502061E3
:103070002648E0614FF480702084022060842000A4
:10308000FFF766FAA91C2000FFF724FB31BD38B515
:10309000184C2000FFF759FB0100080080B20028FF
:1030A00022D01B480068400504D54FF48060194ABF
:1030B000108003E04FF48060174A10800F4D174ACC
:1030C00089B2280000F02EF8010089B2002906D04C
:1030D000020092B2A91C2000FFF7BAFA08E0A91C6E
:1030E0002000FFF7F7FA03E00D492000FFF7F2FA9E
:1030F00031BD0000204300200010014038000020B6
:1031000088640240B8640240400F00200000024082
:10311000140402401A040240180402400C0000206B
:103120003A00002070B504001600002589B2A01CEA
:10313000FEF776FC00281BD12078A178884204D0C5
:10314000A078002814D100E008363079002807D094
:103150003079E1788842F7D120003168884705004E
:103160003079002804D10121200000F004F8050086
:10317000280080B270BD10B50524C278803AC270B4
:1031800001712100C9B2801CFEF76AFC2000C0B2A8
:1031900010BD00005B7B227374617274223A20229E
:1031A00030783038303030303030222C2022736983
:1031B0007A65223A2031363338337D2C7B22737482
:1031C000617274223A202230783038303034303016
:1031D00030222C202273697A65223A203136333826
:1031E000337D2C7B227374617274223A20223078F2
:1031F0003038303038303030222C202273697A65F4
:10320000223A2031363338337D2C7B22737461723D
:1032100074223A2022307830383030433030302237
:103220002C202273697A65223A2031363338337D77
:103230002C7B227374617274223A202230783038E9
:10324000303130303030222C202273697A65223AB6
:103250002036353533357D2C7B22737461727422B0
:103260003A202230783038303230303030222C2042
:103270002273697A65223A203133313037317D2C1F
:103280007B227374617274223A2022307830383095
:103290003430303030222C202273697A65223A2073
:1032A0003133313037317D2C7B227374617274225B
:1032B0003A202230783038303630303030222C20EE
:1032C0002273697A65223A203133313037317D2CCF
:1032D0007B227374617274223A2022307830383045
:1032E0003830303030222C202273697A65223A201F
:1032F0003133313037317D2C7B227374617274220B
:103300003A202230783038304130303030222C2092
:103310002273697A65223A203133313037317D2C7E
:103320007B227374617274223A20223078303830F4
:103330004330303030222C202273697A65223A20C3
:103340003133313037317D2C7B22737461727422BA
:103350003A202230783038304530303030222C203E
:103360002273697A65223A203133313037317D5DFD
:103370000000000080B53C48016851F47001016014
:103380003A49086850F0010008600020384A10608F
:103390000A68384802400A603748384A10600868AE
:1033A00030F48020086000203549086000F005F8FE
:1033B0005FF000603349086001BD82B000200190D9
:1033C000002000902949086850F48030086008689F
:1033D00010F4003000900198401C019000980028E3
:1033E00003D10198B0F5A06FF1D10868800302D530
:1033F0000120009001E000200090009801282FD1CA
:103400002148026852F0805202602048026852F45B
:1034100080420260164802680260026852F400426C
:103420000260026852F4A0520260194A134B1A60FB
:103430000A6852F080720A600A689201FCD540F274
:103440000561144A116001688908890001600168FA
:1034500051F002010160016811F00C010829FAD154
:1034600002B070470000000088ED00E00038024024
:1034700008380240FFFFF6FE1030002404380240F6
:103480000C38024008ED00E0403802400070004077
:1034900008544007003C024000C1814001C0804107
:1034A00001C0804100C1814001C0804100C1814014
:1034B00000C1814001C0804101C0804100C1814004
:1034C00000C1814001C0804100C1814001C08041F4
:1034D00001C0804100C1814001C0804100C18140E4
:1034E00000C1814001C0804100C1814001C08041D4
:1034F00001C0804100C1814000C1814001C08041C4
:1035000001C0804100C1814001C0804100C18140B3
:1035100000C1814001C0804101C0804100C18140A3
:1035200000C1814001C0804100C1814001C0804193
:1035300001C0804100C1814000C1814001C0804183
:1035400001C0804100C1814001C0804100C1814073
:1035500000C1814001C0804100C1814001C0804163
:1035600001C0804100C1814001C0804100C1814053
:1035700000C1814001C0804101C0804100C1814043
:1035800000C1814001C0804100C1814001C0804133
:1035900001C0804100C1814000C0C101C30302C21B
:1035A000C60607C705C5C404CC0C0DCD0FCFCE0E83
:1035B0000ACACB0BC90908C8D81819D91BDBDA1AF3
:1035C0001EDEDF1FDD1D1CDC14D4D515D71716D663
:1035D000D21213D311D1D010F03031F133F3F232D3
:1035E00036F6F737F53534F43CFCFD3DFF3F3EFE43
:1035F000FA3A3BFB39F9F83828E8E929EB2B2AEAB3
:10360000EE2E2FEF2DEDEC2CE42425E527E7E62622
:1036100022E2E323E12120E0A06061A163A3A26292
:1036200066A6A767A56564A46CACAD6DAF6F6EAE02
:10363000AA6A6BAB69A9A86878B8B979BB7B7ABA72
:10364000BE7E7FBF7DBDBC7CB47475B577B7B676E2
:1036500072B2B373B17170B0509091519353529252
:1036600096565797559594549C5C5D9D5F9F9E5EC2
:103670005A9A9B5B99595898884849894B8B8A4A32
:103680004E8E8F4F8D4D4C8C4484854587474686A2
:10369000824243834181804070B5FFF77BFA4FF44B
:1036A0008054294D2C80294E3068C0040CD501204F
:1036B00027490880FEF742F9012805D0FEF755F9A1
:1036C000002801D0FEF712F922480168012000F01D
:1036D0004DF8FFF765FB012028801F490220088074
:1036E0004FF4006008804FF4806008800C8062B660
:1036F00003E010881088401E10803068C00403D595
:103700000120134A108001E001202880134A10682C
:10371000C0F340700028F0D0106830F00050106006
:103720000F4A10880028E4D10E480068C00403D571
:1037300020000D4B188001E0200008804FF47A70C3
:1037400010801088D9E700BF180002401000024026
:103750001A000240080000201804024060430020C4
:1037600034000020140402401A04024070B4002205
:10377000194B10E0B0FBF3F4B0FBF3F503FB1500BD
:10378000164DE4B22C5D164D1600F6B2AC550A2467
:10379000B3FBF4F3521C1400E4B2082CEADB104B28
:1037A00020201400E4B21855521C08E01000C0B2EA
:1037B000084410F8090C1400E4B21855521C10000B
:1037C000C0B2084410F8090C0028EFD10020D2B292
:1037D000985470BC704700BF8096980090390008DC
:1037E00020420020F8B50400002500200F4E3000D4
:1037F000FEF704F9070027712800C0B2305C2900E9
:10380000C9B2214448712800451C3900C0B2C9B270
:103810008842F1D1FF1CBF1C3900C9B2A01CFEF7C1
:103820001FF9FFB2380080B2F2BD00002042002034
:1038300030B5016884684218416802EB5103C9073A
:1038400003D54C4401E0491C05D19A420AD012F933
:10385000011B12F8015B002904F8015BF3D4491E37
:10386000F7D5F2E70C3030BD0548018891F0010131
:1038700001800448016851F0005101607047000068
:1038800010100040604300207047FEE7FEE7FEE7AF
:10389000FEE770477047704770470000426F6F74D3
:1038A0006C6F616465722076312E312E3120323397
:1038B0002E31322E32303232207777772E696E7485
:1038C0006D6173682E72750010B50749794418311F
:1038D000064C7C44163404E00A68081D11448847ED
:1038E0000146A142F8D110BD2C00000048000000A4
:1038F0004EF68851CEF20001086840F4700008606E
:10390000BFF34F8FBFF36F8F4FF00070E1EE100ADF
:10391000704700003FDDFFFF3C43000038000020FF
:10392000000000000DFFFFFFE00100004600000066
:10393000080000200120C046002801D0FFF7C4FF86
:10394000AFF300800020AFF30080FFF7A5FE00F08A
:1039500000F800F001B8000007463846FDF7ACFE5D
:10396000FBE700000548014603B4684680F3098878
:10397000AFF30080FFF7BCFFFFF7DCFFA5EDF5FE1E
:103980000148804701480047753300086539000841
:10399000303132333435363738390000FFF774BFF1
:1039A000FFF773BFFFF772BFFFF771BFFFF770BF7D
:1039B000FFF76FBFFFF76EBFFFF76DBFFFF76CBF7D
:1039C000FFF7FEBFFFF7FEBFFFF7FEBFFFF7FEBF2B
:1039D000FFF7FEBFFFF7FEBFFFF7FEBFFFF7FEBF1B
:1039E000FFF7FEBFFFF7FEBFFFF7FEBFFFF7FEBF0B
:1039F000FFF7FEBFFFF7FEBFFFF7FEBFFFF7FEBFFB
:103A0000FFF7FEBFFFF7FEBFFFF7FEBFFFF7FEBFEA
:103A1000FFF7FEBFFFF7FEBFFFF7FEBFFFF7FEBFDA
:103A2000FFF7FEBFFFF7FEBFFFF7FEBFFFF7FEBFCA
:103A3000FFF7FEBFFFF7FEBFFFF7FEBFFFF7FEBFBA
:103A4000FFF7FEBFFFF7FEBFFFF7FEBFFFF7FEBFAA
:103A5000FFF7FEBFFFF71BBBFFF7FEBFFFF7FEBF81
:103A6000FFF7FEBFFFF7FEBFFFF7FEBFFFF7FEBF8A
:103A7000FFF7FEBFFFF7FEBFFFF7FEBFFFF7FEBF7A
:103A8000FFF7FEBFFFF7FEBFFFF7FEBFFFF7FEBF6A
:103A9000FFF7FEBFFFF7FEBFFFF7E6BEFFF7FEBF73
:103AA000FFF7FEBFFFF7FEBFFFF7FEBFFFF7FEBF4A
:103AB000FFF7FEBFFFF7FEBFFFF7FEBFFFF7FEBF3A
:103AC000FFF7FEBFFFF7FEBFFFF7FEBFFFF7FEBF2A
:103AD000FFF7FEBFFFF7FEBFFFF7FEBFFFF7FEBF1A
:103AE000FFF7FEBFFFF7FEBFFFF7FEBFFFF7FEBF0A
:103AF000FFF7FEBFFFF7FEBFFFF7FEBFFFF7FEBFFA
:103B0000FFF7FEBFFFF7FEBF089C380008E537004F
:103B10000811FD0004E7160008B0F1000D010203D2
:0B3B2000040102030406070809E80383
:040000050800398135
:00000001FF
